{
  "contractName": "ERC721",
  "abi": [
    {
      "inputs": [
        {
          "internalType": "string",
          "name": "_name",
          "type": "string"
        },
        {
          "internalType": "string",
          "name": "_symbol",
          "type": "string"
        },
        {
          "internalType": "string",
          "name": "_baseURI",
          "type": "string"
        }
      ],
      "stateMutability": "nonpayable",
      "type": "constructor"
    },
    {
      "anonymous": false,
      "inputs": [
        {
          "indexed": true,
          "internalType": "address",
          "name": "_owner",
          "type": "address"
        },
        {
          "indexed": true,
          "internalType": "address",
          "name": "_approved",
          "type": "address"
        },
        {
          "indexed": true,
          "internalType": "uint256",
          "name": "_tokenId",
          "type": "uint256"
        }
      ],
      "name": "Approval",
      "type": "event"
    },
    {
      "anonymous": false,
      "inputs": [
        {
          "indexed": true,
          "internalType": "address",
          "name": "_owner",
          "type": "address"
        },
        {
          "indexed": true,
          "internalType": "address",
          "name": "_operator",
          "type": "address"
        },
        {
          "indexed": false,
          "internalType": "bool",
          "name": "_approved",
          "type": "bool"
        }
      ],
      "name": "ApprovalForAll",
      "type": "event"
    },
    {
      "anonymous": false,
      "inputs": [
        {
          "indexed": true,
          "internalType": "address",
          "name": "_to",
          "type": "address"
        },
        {
          "indexed": true,
          "internalType": "uint256",
          "name": "_tokenId",
          "type": "uint256"
        },
        {
          "indexed": true,
          "internalType": "string",
          "name": "_uri",
          "type": "string"
        }
      ],
      "name": "Mint",
      "type": "event"
    },
    {
      "anonymous": false,
      "inputs": [
        {
          "indexed": true,
          "internalType": "address",
          "name": "_from",
          "type": "address"
        },
        {
          "indexed": true,
          "internalType": "address",
          "name": "_to",
          "type": "address"
        },
        {
          "indexed": true,
          "internalType": "uint256",
          "name": "_tokenId",
          "type": "uint256"
        }
      ],
      "name": "Transfer",
      "type": "event"
    },
    {
      "inputs": [
        {
          "internalType": "address",
          "name": "_owner",
          "type": "address"
        }
      ],
      "name": "balanceOf",
      "outputs": [
        {
          "internalType": "uint256",
          "name": "",
          "type": "uint256"
        }
      ],
      "stateMutability": "view",
      "type": "function",
      "constant": true
    },
    {
      "inputs": [
        {
          "internalType": "uint256",
          "name": "_tokenId",
          "type": "uint256"
        }
      ],
      "name": "ownerOf",
      "outputs": [
        {
          "internalType": "address",
          "name": "",
          "type": "address"
        }
      ],
      "stateMutability": "view",
      "type": "function",
      "constant": true
    },
    {
      "inputs": [
        {
          "internalType": "address",
          "name": "_from",
          "type": "address"
        },
        {
          "internalType": "address",
          "name": "_to",
          "type": "address"
        },
        {
          "internalType": "uint256",
          "name": "_tokenId",
          "type": "uint256"
        }
      ],
      "name": "safeTransferFrom",
      "outputs": [],
      "stateMutability": "nonpayable",
      "type": "function"
    },
    {
      "inputs": [
        {
          "internalType": "address",
          "name": "_from",
          "type": "address"
        },
        {
          "internalType": "address",
          "name": "_to",
          "type": "address"
        },
        {
          "internalType": "uint256",
          "name": "_tokenId",
          "type": "uint256"
        },
        {
          "internalType": "bytes",
          "name": "_data",
          "type": "bytes"
        }
      ],
      "name": "safeTransferFrom",
      "outputs": [],
      "stateMutability": "nonpayable",
      "type": "function"
    },
    {
      "inputs": [
        {
          "internalType": "address",
          "name": "_from",
          "type": "address"
        },
        {
          "internalType": "address",
          "name": "_to",
          "type": "address"
        },
        {
          "internalType": "uint256",
          "name": "_tokenId",
          "type": "uint256"
        }
      ],
      "name": "transferFrom",
      "outputs": [],
      "stateMutability": "nonpayable",
      "type": "function"
    },
    {
      "inputs": [
        {
          "internalType": "address",
          "name": "_approved",
          "type": "address"
        },
        {
          "internalType": "uint256",
          "name": "_tokenId",
          "type": "uint256"
        }
      ],
      "name": "approve",
      "outputs": [],
      "stateMutability": "nonpayable",
      "type": "function"
    },
    {
      "inputs": [
        {
          "internalType": "address",
          "name": "_operator",
          "type": "address"
        },
        {
          "internalType": "bool",
          "name": "_approved",
          "type": "bool"
        }
      ],
      "name": "setApprovalForAll",
      "outputs": [],
      "stateMutability": "nonpayable",
      "type": "function"
    },
    {
      "inputs": [
        {
          "internalType": "uint256",
          "name": "_tokenId",
          "type": "uint256"
        }
      ],
      "name": "getApproved",
      "outputs": [
        {
          "internalType": "address",
          "name": "",
          "type": "address"
        }
      ],
      "stateMutability": "view",
      "type": "function",
      "constant": true
    },
    {
      "inputs": [
        {
          "internalType": "address",
          "name": "_owner",
          "type": "address"
        },
        {
          "internalType": "address",
          "name": "_operator",
          "type": "address"
        }
      ],
      "name": "isApprovedForAll",
      "outputs": [
        {
          "internalType": "bool",
          "name": "",
          "type": "bool"
        }
      ],
      "stateMutability": "view",
      "type": "function",
      "constant": true
    },
    {
      "inputs": [],
      "name": "name",
      "outputs": [
        {
          "internalType": "string",
          "name": "_name",
          "type": "string"
        }
      ],
      "stateMutability": "view",
      "type": "function",
      "constant": true
    },
    {
      "inputs": [],
      "name": "symbol",
      "outputs": [
        {
          "internalType": "string",
          "name": "_symbol",
          "type": "string"
        }
      ],
      "stateMutability": "view",
      "type": "function",
      "constant": true
    },
    {
      "inputs": [
        {
          "internalType": "uint256",
          "name": "_tokenId",
          "type": "uint256"
        }
      ],
      "name": "tokenURI",
      "outputs": [
        {
          "internalType": "string",
          "name": "",
          "type": "string"
        }
      ],
      "stateMutability": "view",
      "type": "function",
      "constant": true
    },
    {
      "inputs": [
        {
          "internalType": "address",
          "name": "_to",
          "type": "address"
        },
        {
          "internalType": "string",
          "name": "_uri",
          "type": "string"
        }
      ],
      "name": "safeMint",
      "outputs": [
        {
          "internalType": "uint256",
          "name": "",
          "type": "uint256"
        }
      ],
      "stateMutability": "nonpayable",
      "type": "function"
    },
    {
      "inputs": [
        {
          "internalType": "address",
          "name": "_to",
          "type": "address"
        },
        {
          "internalType": "string",
          "name": "_uri",
          "type": "string"
        },
        {
          "internalType": "bytes",
          "name": "_data",
          "type": "bytes"
        }
      ],
      "name": "safeMint",
      "outputs": [
        {
          "internalType": "uint256",
          "name": "",
          "type": "uint256"
        }
      ],
      "stateMutability": "nonpayable",
      "type": "function"
    },
    {
      "inputs": [
        {
          "internalType": "address",
          "name": "_to",
          "type": "address"
        },
        {
          "internalType": "string",
          "name": "_uri",
          "type": "string"
        }
      ],
      "name": "mint",
      "outputs": [
        {
          "internalType": "uint256",
          "name": "",
          "type": "uint256"
        }
      ],
      "stateMutability": "nonpayable",
      "type": "function"
    }
  ],
  "bytecode": "0x608060405260006003553480156200001657600080fd5b50604051620021a7380380620021a783398181016040528101906200003c9190620002dd565b82600090805190602001906200005492919062000090565b5081600190805190602001906200006d92919062000090565b5080600290805190602001906200008692919062000090565b50505050620003fb565b8280546200009e90620003c5565b90600052602060002090601f016020900481019282620000c257600085556200010e565b82601f10620000dd57805160ff19168380011785556200010e565b828001600101855582156200010e579182015b828111156200010d578251825591602001919060010190620000f0565b5b5090506200011d919062000121565b5090565b5b808211156200013c57600081600090555060010162000122565b5090565b6000604051905090565b600080fd5b600080fd5b600080fd5b600080fd5b6000601f19601f8301169050919050565b7f4e487b7100000000000000000000000000000000000000000000000000000000600052604160045260246000fd5b620001a9826200015e565b810181811067ffffffffffffffff82111715620001cb57620001ca6200016f565b5b80604052505050565b6000620001e062000140565b9050620001ee82826200019e565b919050565b600067ffffffffffffffff8211156200021157620002106200016f565b5b6200021c826200015e565b9050602081019050919050565b60005b83811015620002495780820151818401526020810190506200022c565b8381111562000259576000848401525b50505050565b6000620002766200027084620001f3565b620001d4565b90508281526020810184848401111562000295576200029462000159565b5b620002a284828562000229565b509392505050565b600082601f830112620002c257620002c162000154565b5b8151620002d48482602086016200025f565b91505092915050565b600080600060608486031215620002f957620002f86200014a565b5b600084015167ffffffffffffffff8111156200031a57620003196200014f565b5b6200032886828701620002aa565b935050602084015167ffffffffffffffff8111156200034c576200034b6200014f565b5b6200035a86828701620002aa565b925050604084015167ffffffffffffffff8111156200037e576200037d6200014f565b5b6200038c86828701620002aa565b9150509250925092565b7f4e487b7100000000000000000000000000000000000000000000000000000000600052602260045260246000fd5b60006002820490506001821680620003de57607f821691505b60208210811415620003f557620003f462000396565b5b50919050565b611d9c806200040b6000396000f3fe608060405234801561001057600080fd5b50600436106100f55760003560e01c806395d89b4111610097578063d0def52111610066578063d0def52114610282578063d204c45e146102b2578063e985e9c5146102e2578063f6dda93614610312576100f5565b806395d89b41146101fc578063a22cb4651461021a578063b88d4fde14610236578063c87b56dd14610252576100f5565b806323b872dd116100d357806323b872dd1461016457806342842e0e146101805780636352211e1461019c57806370a08231146101cc576100f5565b806306fdde03146100fa578063081812fc14610118578063095ea7b314610148575b600080fd5b610102610342565b60405161010f919061123e565b60405180910390f35b610132600480360381019061012d91906112aa565b6103d4565b60405161013f9190611318565b60405180910390f35b610162600480360381019061015d919061135f565b610411565b005b61017e6004803603810190610179919061139f565b6104c2565b005b61019a6004803603810190610195919061139f565b6104d2565b005b6101b660048036038101906101b191906112aa565b6104f2565b6040516101c39190611318565b60405180910390f35b6101e660048036038101906101e191906113f2565b6105a4565b6040516101f3919061142e565b60405180910390f35b61020461065c565b604051610211919061123e565b60405180910390f35b610234600480360381019061022f9190611481565b6106ee565b005b610250600480360381019061024b91906115f6565b6107eb565b005b61026c600480360381019061026791906112aa565b610808565b604051610279919061123e565b60405180910390f35b61029c6004803603810190610297919061171a565b610a23565b6040516102a9919061142e565b60405180910390f35b6102cc60048036038101906102c7919061171a565b610a37565b6040516102d9919061142e565b60405180910390f35b6102fc60048036038101906102f79190611776565b610a5b565b60405161030991906117c5565b60405180910390f35b61032c600480360381019061032791906117e0565b610aef565b604051610339919061142e565b60405180910390f35b6060600080546103519061189a565b80601f016020809104026020016040519081016040528092919081815260200182805461037d9061189a565b80156103ca5780601f1061039f576101008083540402835291602001916103ca565b820191906000526020600020905b8154815290600101906020018083116103ad57829003601f168201915b5050505050905090565b60006007600083815260200190815260200160002060009054906101000a900473ffffffffffffffffffffffffffffffffffffffff169050919050565b816007600083815260200190815260200160002060006101000a81548173ffffffffffffffffffffffffffffffffffffffff021916908373ffffffffffffffffffffffffffffffffffffffff160217905550808273ffffffffffffffffffffffffffffffffffffffff163373ffffffffffffffffffffffffffffffffffffffff167f8c5be1e5ebec7d5bd14f71427d1e84f3dd0314c0f7b2291e5b200ac8c7c3b92560405160405180910390a45050565b6104cd838383610b16565b505050565b6104ed838383604051806020016040528060008152506107eb565b505050565b6000806005600084815260200190815260200160002060009054906101000a900473ffffffffffffffffffffffffffffffffffffffff169050600073ffffffffffffffffffffffffffffffffffffffff168173ffffffffffffffffffffffffffffffffffffffff16141561059b576040517f08c379a000000000000000000000000000000000000000000000000000000000815260040161059290611918565b60405180910390fd5b80915050919050565b60008073ffffffffffffffffffffffffffffffffffffffff168273ffffffffffffffffffffffffffffffffffffffff161415610615576040517f08c379a000000000000000000000000000000000000000000000000000000000815260040161060c90611984565b60405180910390fd5b600660008373ffffffffffffffffffffffffffffffffffffffff1673ffffffffffffffffffffffffffffffffffffffff168152602001908152602001600020549050919050565b60606001805461066b9061189a565b80601f01602080910402602001604051908101604052809291908181526020018280546106979061189a565b80156106e45780601f106106b9576101008083540402835291602001916106e4565b820191906000526020600020905b8154815290600101906020018083116106c757829003601f168201915b5050505050905090565b80600860003373ffffffffffffffffffffffffffffffffffffffff1673ffffffffffffffffffffffffffffffffffffffff16815260200190815260200160002060008473ffffffffffffffffffffffffffffffffffffffff1673ffffffffffffffffffffffffffffffffffffffff16815260200190815260200160002060006101000a81548160ff0219169083151502179055508173ffffffffffffffffffffffffffffffffffffffff163373ffffffffffffffffffffffffffffffffffffffff167f17307eab39ab6107e8899845ad3d59bd9653f200f220920489ca2b5937696c31836040516107df91906117c5565b60405180910390a35050565b6107f6848484610b16565b61080284848484610e7d565b50505050565b6060600073ffffffffffffffffffffffffffffffffffffffff166005600084815260200190815260200160002060009054906101000a900473ffffffffffffffffffffffffffffffffffffffff1673ffffffffffffffffffffffffffffffffffffffff1614156108ad576040517f08c379a00000000000000000000000000000000000000000000000000000000081526004016108a490611918565b60405180910390fd5b6000600280546108bc9061189a565b80601f01602080910402602001604051908101604052809291908181526020018280546108e89061189a565b80156109355780601f1061090a57610100808354040283529160200191610935565b820191906000526020600020905b81548152906001019060200180831161091857829003601f168201915b5050505050905060008151116109e6576004600084815260200190815260200160002080546109639061189a565b80601f016020809104026020016040519081016040528092919081815260200182805461098f9061189a565b80156109dc5780601f106109b1576101008083540402835291602001916109dc565b820191906000526020600020905b8154815290600101906020018083116109bf57829003601f168201915b5050505050610a1b565b8060046000858152602001908152602001600020604051602001610a0b929190611a74565b6040516020818303038152906040525b915050919050565b6000610a2f8383610f9d565b905092915050565b6000610a53838360405180602001604052806000815250610aef565b905092915050565b6000600860008473ffffffffffffffffffffffffffffffffffffffff1673ffffffffffffffffffffffffffffffffffffffff16815260200190815260200160002060008373ffffffffffffffffffffffffffffffffffffffff1673ffffffffffffffffffffffffffffffffffffffff16815260200190815260200160002060009054906101000a900460ff16905092915050565b600080610afc8585610f9d565b9050610b0b6000868386610e7d565b809150509392505050565b82816000811415610b5c576040517f08c379a0000000000000000000000000000000000000000000000000000000008152600401610b5390611918565b60405180910390fd5b6000610b67826104f2565b90508073ffffffffffffffffffffffffffffffffffffffff168373ffffffffffffffffffffffffffffffffffffffff1614610bd7576040517f08c379a0000000000000000000000000000000000000000000000000000000008152600401610bce90611ae4565b60405180910390fd5b60003390508173ffffffffffffffffffffffffffffffffffffffff168173ffffffffffffffffffffffffffffffffffffffff161480610c9c5750600860008373ffffffffffffffffffffffffffffffffffffffff1673ffffffffffffffffffffffffffffffffffffffff16815260200190815260200160002060008273ffffffffffffffffffffffffffffffffffffffff1673ffffffffffffffffffffffffffffffffffffffff16815260200190815260200160002060009054906101000a900460ff165b80610cda57508073ffffffffffffffffffffffffffffffffffffffff16610cc2846103d4565b73ffffffffffffffffffffffffffffffffffffffff16145b610d19576040517f08c379a0000000000000000000000000000000000000000000000000000000008152600401610d1090611b50565b60405180910390fd5b856005600087815260200190815260200160002060006101000a81548173ffffffffffffffffffffffffffffffffffffffff021916908373ffffffffffffffffffffffffffffffffffffffff1602179055506001600660008973ffffffffffffffffffffffffffffffffffffffff1673ffffffffffffffffffffffffffffffffffffffff1681526020019081526020016000206000828254610dbb9190611b9f565b925050819055506001600660008873ffffffffffffffffffffffffffffffffffffffff1673ffffffffffffffffffffffffffffffffffffffff1681526020019081526020016000206000828254610e129190611bd3565b92505081905550848673ffffffffffffffffffffffffffffffffffffffff168873ffffffffffffffffffffffffffffffffffffffff167fddf252ad1be2c89b69c2b068fc378daa952ba7f163c4a11628f55a4df523b3ef60405160405180910390a450505050505050565b610e86836110ef565b15610f97578273ffffffffffffffffffffffffffffffffffffffff1663150b7a02338685856040518563ffffffff1660e01b8152600401610eca9493929190611c7e565b6020604051808303816000875af1925050508015610f0657506040513d601f19601f82011682018060405250810190610f039190611d22565b60015b610f44573d8060008114610f36576040519150601f19603f3d011682016040523d82523d6000602084013e610f3b565b606091505b50805181602001fd5b63150b7a0260e01b7bffffffffffffffffffffffffffffffffffffffffffffffffffffffff1916817bffffffffffffffffffffffffffffffffffffffffffffffffffffffff191614610f9557600080fd5b505b50505050565b6000600160036000828254610fb29190611bd3565b92505081905550600354905081600460008381526020019081526020016000209080519060200190610fe5929190611102565b50826005600083815260200190815260200160002060006101000a81548173ffffffffffffffffffffffffffffffffffffffff021916908373ffffffffffffffffffffffffffffffffffffffff1602179055506001600660008573ffffffffffffffffffffffffffffffffffffffff1673ffffffffffffffffffffffffffffffffffffffff16815260200190815260200160002060008282546110889190611bd3565b925050819055508160405161109d9190611d4f565b6040518091039020818473ffffffffffffffffffffffffffffffffffffffff167f85a66b9141978db9980f7e0ce3b468cebf4f7999f32b23091c5c03e798b1ba7a60405160405180910390a492915050565b600080823b905060008111915050919050565b82805461110e9061189a565b90600052602060002090601f0160209004810192826111305760008555611177565b82601f1061114957805160ff1916838001178555611177565b82800160010185558215611177579182015b8281111561117657825182559160200191906001019061115b565b5b5090506111849190611188565b5090565b5b808211156111a1576000816000905550600101611189565b5090565b600081519050919050565b600082825260208201905092915050565b60005b838110156111df5780820151818401526020810190506111c4565b838111156111ee576000848401525b50505050565b6000601f19601f8301169050919050565b6000611210826111a5565b61121a81856111b0565b935061122a8185602086016111c1565b611233816111f4565b840191505092915050565b600060208201905081810360008301526112588184611205565b905092915050565b6000604051905090565b600080fd5b600080fd5b6000819050919050565b61128781611274565b811461129257600080fd5b50565b6000813590506112a48161127e565b92915050565b6000602082840312156112c0576112bf61126a565b5b60006112ce84828501611295565b91505092915050565b600073ffffffffffffffffffffffffffffffffffffffff82169050919050565b6000611302826112d7565b9050919050565b611312816112f7565b82525050565b600060208201905061132d6000830184611309565b92915050565b61133c816112f7565b811461134757600080fd5b50565b60008135905061135981611333565b92915050565b600080604083850312156113765761137561126a565b5b60006113848582860161134a565b925050602061139585828601611295565b9150509250929050565b6000806000606084860312156113b8576113b761126a565b5b60006113c68682870161134a565b93505060206113d78682870161134a565b92505060406113e886828701611295565b9150509250925092565b6000602082840312156114085761140761126a565b5b60006114168482850161134a565b91505092915050565b61142881611274565b82525050565b6000602082019050611443600083018461141f565b92915050565b60008115159050919050565b61145e81611449565b811461146957600080fd5b50565b60008135905061147b81611455565b92915050565b600080604083850312156114985761149761126a565b5b60006114a68582860161134a565b92505060206114b78582860161146c565b9150509250929050565b600080fd5b600080fd5b7f4e487b7100000000000000000000000000000000000000000000000000000000600052604160045260246000fd5b611503826111f4565b810181811067ffffffffffffffff82111715611522576115216114cb565b5b80604052505050565b6000611535611260565b905061154182826114fa565b919050565b600067ffffffffffffffff821115611561576115606114cb565b5b61156a826111f4565b9050602081019050919050565b82818337600083830152505050565b600061159961159484611546565b61152b565b9050828152602081018484840111156115b5576115b46114c6565b5b6115c0848285611577565b509392505050565b600082601f8301126115dd576115dc6114c1565b5b81356115ed848260208601611586565b91505092915050565b600080600080608085870312156116105761160f61126a565b5b600061161e8782880161134a565b945050602061162f8782880161134a565b935050604061164087828801611295565b925050606085013567ffffffffffffffff8111156116615761166061126f565b5b61166d878288016115c8565b91505092959194509250565b600067ffffffffffffffff821115611694576116936114cb565b5b61169d826111f4565b9050602081019050919050565b60006116bd6116b884611679565b61152b565b9050828152602081018484840111156116d9576116d86114c6565b5b6116e4848285611577565b509392505050565b600082601f830112611701576117006114c1565b5b81356117118482602086016116aa565b91505092915050565b600080604083850312156117315761173061126a565b5b600061173f8582860161134a565b925050602083013567ffffffffffffffff8111156117605761175f61126f565b5b61176c858286016116ec565b9150509250929050565b6000806040838503121561178d5761178c61126a565b5b600061179b8582860161134a565b92505060206117ac8582860161134a565b9150509250929050565b6117bf81611449565b82525050565b60006020820190506117da60008301846117b6565b92915050565b6000806000606084860312156117f9576117f861126a565b5b60006118078682870161134a565b935050602084013567ffffffffffffffff8111156118285761182761126f565b5b611834868287016116ec565b925050604084013567ffffffffffffffff8111156118555761185461126f565b5b611861868287016115c8565b9150509250925092565b7f4e487b7100000000000000000000000000000000000000000000000000000000600052602260045260246000fd5b600060028204905060018216806118b257607f821691505b602082108114156118c6576118c561186b565b5b50919050565b7f546f6b656e20646f6573206e6f74206578697374730000000000000000000000600082015250565b60006119026015836111b0565b915061190d826118cc565b602082019050919050565b60006020820190508181036000830152611931816118f5565b9050919050565b7f496e76616c6964206f776e657220616464726573730000000000000000000000600082015250565b600061196e6015836111b0565b915061197982611938565b602082019050919050565b6000602082019050818103600083015261199d81611961565b9050919050565b600081905092915050565b60006119ba826111a5565b6119c481856119a4565b93506119d48185602086016111c1565b80840191505092915050565b60008190508160005260206000209050919050565b60008154611a028161189a565b611a0c81866119a4565b94506001821660008114611a275760018114611a3857611a6b565b60ff19831686528186019350611a6b565b611a41856119e0565b60005b83811015611a6357815481890152600182019150602081019050611a44565b838801955050505b50505092915050565b6000611a8082856119af565b9150611a8c82846119f5565b91508190509392505050565b7f4f776e657220646f6573206e6f74206f776e2074686520746f6b656e00000000600082015250565b6000611ace601c836111b0565b9150611ad982611a98565b602082019050919050565b60006020820190508181036000830152611afd81611ac1565b9050919050565b7f5370656e64657220756e617574686f72697a6564000000000000000000000000600082015250565b6000611b3a6014836111b0565b9150611b4582611b04565b602082019050919050565b60006020820190508181036000830152611b6981611b2d565b9050919050565b7f4e487b7100000000000000000000000000000000000000000000000000000000600052601160045260246000fd5b6000611baa82611274565b9150611bb583611274565b925082821015611bc857611bc7611b70565b5b828203905092915050565b6000611bde82611274565b9150611be983611274565b9250827fffffffffffffffffffffffffffffffffffffffffffffffffffffffffffffffff03821115611c1e57611c1d611b70565b5b828201905092915050565b600081519050919050565b600082825260208201905092915050565b6000611c5082611c29565b611c5a8185611c34565b9350611c6a8185602086016111c1565b611c73816111f4565b840191505092915050565b6000608082019050611c936000830187611309565b611ca06020830186611309565b611cad604083018561141f565b8181036060830152611cbf8184611c45565b905095945050505050565b60007fffffffff0000000000000000000000000000000000000000000000000000000082169050919050565b611cff81611cca565b8114611d0a57600080fd5b50565b600081519050611d1c81611cf6565b92915050565b600060208284031215611d3857611d3761126a565b5b6000611d4684828501611d0d565b91505092915050565b6000611d5b82846119af565b91508190509291505056fea264697066735822122073b8bc5fc1e269ba63717cb4bf9043b7f9af4c596a9b5012038bffd924e462bf64736f6c634300080c0033",
  "immutableReferences": {},
  "source": "// SPDX-License-Identifier: MIT\npragma solidity ^0.8.0;\n\nimport './IERC721.sol';\nimport './IERC721Metadata.sol';\nimport './IERC721TokenReceiver.sol';\n\ncontract ERC721 is IERC721, IERC721Metadata {\n\n    string private __name;\n    string private __symbol;\n    string private __baseURI;\n    uint256 private __counter = 0;\n\n    mapping(uint256 => string) private __tokens;\n    mapping(uint256 => address) private __owners;\n    mapping(address => uint256) private __balances;\n    mapping(uint256 => address) private __tokenApprovals;\n    mapping(address => mapping(address => bool)) private __operatorApprovals;\n    \n    constructor(string memory _name, string memory _symbol, string memory _baseURI) {\n        __name = _name;\n        __symbol = _symbol;\n        __baseURI = _baseURI;\n    }\n\n    event Mint(address indexed _to, uint256 indexed _tokenId, string indexed _uri);\n\n    modifier __isApprovedOrOwner(address _from, uint256 _tokenId) {\n        require(_tokenId != 0, \"Token does not exists\");\n        address owner = ownerOf(_tokenId);\n        require(_from == owner, \"Owner does not own the token\");\n        address spender = msg.sender;\n        require(spender == owner || __operatorApprovals[owner][spender] || getApproved(_tokenId) == spender, \"Spender unauthorized\");\n        _;\n    }\n\n    function balanceOf(address _owner) override virtual public view returns (uint256) {\n        require(_owner != address(0), \"Invalid owner address\");\n        return __balances[_owner];\n    }\n\n    function ownerOf(uint256 _tokenId) override virtual public view returns (address) {\n        address owner = __owners[_tokenId];\n        require(owner != address(0), \"Token does not exists\");\n        return owner;\n    }\n\n    function safeTransferFrom(address _from, address _to, uint256 _tokenId, bytes memory _data) override virtual public {\n        __transferFrom(_from, _to, _tokenId);\n        __checkContract(_from, _to, _tokenId, _data);\n    }\n\n    function safeTransferFrom(address _from, address _to, uint256 _tokenId) override virtual public {\n        safeTransferFrom(_from, _to, _tokenId, \"\");\n    }\n\n    function transferFrom(address _from, address _to, uint256 _tokenId) override virtual public {\n        __transferFrom(_from, _to, _tokenId);\n    }\n\n    function approve(address _approved, uint256 _tokenId) override virtual public {\n        __tokenApprovals[_tokenId] = _approved;\n        emit Approval(msg.sender, _approved, _tokenId);\n    }\n\n    function setApprovalForAll(address _operator, bool _approved) override virtual public {\n        __operatorApprovals[msg.sender][_operator] = _approved;\n        emit ApprovalForAll(msg.sender, _operator, _approved);\n    }\n\n    function getApproved(uint256 _tokenId) override virtual public view returns (address) {\n        return __tokenApprovals[_tokenId];\n    }\n\n    function isApprovedForAll(address _owner, address _operator) override virtual public view returns (bool) {\n       return __operatorApprovals[_owner][_operator];\n    }\n\n    function name() override virtual public view returns (string memory _name) {\n        _name = __name;\n    }\n    \n    function symbol() override virtual public view returns (string memory _symbol) {\n        _symbol = __symbol;\n    }\n    \n    function tokenURI(uint256 _tokenId) override virtual public view returns (string memory) {\n        require(__owners[_tokenId] != address(0), \"Token does not exists\");\n        string memory baseURI = __baseURI;\n        return bytes(baseURI).length > 0 ? string(abi.encodePacked(baseURI, __tokens[_tokenId])) : __tokens[_tokenId];\n    }\n\n    function safeMint(address _to, string memory _uri, bytes memory _data) public returns(uint256) {\n        uint256 _tokenId = __mint(_to, _uri);\n        __checkContract(address(0), _to, _tokenId, _data);\n        return _tokenId;\n    }\n\n    function safeMint(address _to, string memory _uri) public returns(uint256) {\n        return safeMint(_to, _uri, \"\");\n    }\n\n    function mint(address _to, string memory _uri) public returns(uint256) {\n        return __mint(_to, _uri);\n    }\n\n    function __checkContract(address _from, address _to, uint256 _tokenId, bytes memory _data) private {\n        if(__isContract(_to)) {\n            try IERC721TokenReceiver(_to).onERC721Received(msg.sender, _from, _tokenId, _data) returns (bytes4 retval) {\n                require(retval == IERC721TokenReceiver.onERC721Received.selector);\n            } catch (bytes memory reason) {\n                assembly { revert(add(32, reason), mload(reason)) }\n            }\n        }\n    }\n\n    function __isContract(address addr) private view returns (bool) {\n        uint size;\n        assembly { size := extcodesize(addr) }\n        return size > 0;\n    }\n\n    function __transferFrom(address _from, address _to, uint256 _tokenId) private __isApprovedOrOwner(_from, _tokenId) {\n        __owners[_tokenId] = _to;\n        __balances[_from] -= 1;\n        __balances[_to] += 1;\n        emit Transfer(_from, _to, _tokenId);\n    }\n\n    function __mint(address _to, string memory _uri) private returns(uint256 _tokenId) {\n        __counter += 1;\n        _tokenId = __counter;\n        __tokens[_tokenId] = _uri;\n        __owners[_tokenId] = _to;\n        __balances[_to] += 1;\n        emit Mint(_to, _tokenId, _uri);\n    }\n}",
  "sourcePath": "/Users/geremiapompei/Library/CloudStorage/OneDrive-UniversityofPisa/UNIPI/1 anno 2021_2022/2 semestre/Peer2Peer and Blockchain/exam/P2P/3_finalproject/smart_contract/contracts/ERC721.sol",
  "compiler": {
    "name": "solc",
    "version": "0.8.12+commit.f00d7308.Emscripten.clang"
  },
  "schemaVersion": "3.4.7",
  "updatedAt": "2022-06-07T17:56:43.424Z",
  "networkType": "ethereum",
  "devdoc": {
    "kind": "dev",
    "methods": {
      "approve(address,uint256)": {
        "details": "The zero address indicates there is no approved address.  Throws unless `msg.sender` is the current NFT owner, or an authorized  operator of the current owner.",
        "params": {
          "_approved": "The new approved NFT controller",
          "_tokenId": "The NFT to approve"
        }
      },
      "balanceOf(address)": {
        "details": "NFTs assigned to the zero address are considered invalid, and this  function throws for queries about the zero address.",
        "params": {
          "_owner": "An address for whom to query the balance"
        },
        "returns": {
          "_0": "The number of NFTs owned by `_owner`, possibly zero"
        }
      },
      "getApproved(uint256)": {
        "details": "Throws if `_tokenId` is not a valid NFT.",
        "params": {
          "_tokenId": "The NFT to find the approved address for"
        },
        "returns": {
          "_0": "The approved address for this NFT, or the zero address if there is none"
        }
      },
      "isApprovedForAll(address,address)": {
        "params": {
          "_operator": "The address that acts on behalf of the owner",
          "_owner": "The address that owns the NFTs"
        },
        "returns": {
          "_0": "True if `_operator` is an approved operator for `_owner`, false otherwise"
        }
      },
      "ownerOf(uint256)": {
        "details": "NFTs assigned to zero address are considered invalid, and queries  about them do throw.",
        "params": {
          "_tokenId": "The identifier for an NFT"
        },
        "returns": {
          "_0": "The address of the owner of the NFT"
        }
      },
      "safeTransferFrom(address,address,uint256)": {
        "details": "This works identically to the other function with an extra data parameter,  except this function just sets data to \"\".",
        "params": {
          "_from": "The current owner of the NFT",
          "_to": "The new owner",
          "_tokenId": "The NFT to transfer"
        }
      },
      "setApprovalForAll(address,bool)": {
        "details": "Emits the ApprovalForAll event. The contract MUST allow  multiple operators per owner.",
        "params": {
          "_approved": "True if the operator is approved, false to revoke approval",
          "_operator": "Address to add to the set of authorized operators"
        }
      },
      "tokenURI(uint256)": {
        "details": "Throws if `_tokenId` is not a valid NFT. URIs are defined in RFC  3986. The URI may point to a JSON file that conforms to the \"ERC721  Metadata JSON Schema\"."
      },
      "transferFrom(address,address,uint256)": {
        "details": "Throws unless `msg.sender` is the current owner, an authorized  operator, or the approved address for this NFT. Throws if `_from` is  not the current owner. Throws if `_to` is the zero address. Throws if  `_tokenId` is not a valid NFT.",
        "params": {
          "_from": "The current owner of the NFT",
          "_to": "The new owner",
          "_tokenId": "The NFT to transfer"
        }
      }
    },
    "version": 1
  },
  "userdoc": {
    "kind": "user",
    "methods": {
      "approve(address,uint256)": {
        "notice": "Change or reaffirm the approved address for an NFT"
      },
      "balanceOf(address)": {
        "notice": "Count all NFTs assigned to an owner"
      },
      "getApproved(uint256)": {
        "notice": "Get the approved address for a single NFT"
      },
      "isApprovedForAll(address,address)": {
        "notice": "Query if an address is an authorized operator for another address"
      },
      "name()": {
        "notice": "A descriptive name for a collection of NFTs in this contract"
      },
      "ownerOf(uint256)": {
        "notice": "Find the owner of an NFT"
      },
      "safeTransferFrom(address,address,uint256)": {
        "notice": "Transfers the ownership of an NFT from one address to another address"
      },
      "setApprovalForAll(address,bool)": {
        "notice": "Enable or disable approval for a third party (\"operator\") to manage  all of `msg.sender`'s assets"
      },
      "symbol()": {
        "notice": "An abbreviated name for NFTs in this contract"
      },
      "tokenURI(uint256)": {
        "notice": "A distinct Uniform Resource Identifier (URI) for a given asset."
      },
      "transferFrom(address,address,uint256)": {
        "notice": "Transfer ownership of an NFT -- THE CALLER IS RESPONSIBLE  TO CONFIRM THAT `_to` IS CAPABLE OF RECEIVING NFTS OR ELSE  THEY MAY BE PERMANENTLY LOST"
      }
    },
    "version": 1
  }
}