{
  "contractName": "TRY",
  "abi": [
    {
      "inputs": [
        {
          "internalType": "address",
          "name": "_erc721Address",
          "type": "address"
        }
      ],
      "stateMutability": "nonpayable",
      "type": "constructor"
    },
    {
      "anonymous": false,
      "inputs": [
        {
          "indexed": false,
          "internalType": "address",
          "name": "_owner",
          "type": "address"
        },
        {
          "indexed": false,
          "internalType": "address",
          "name": "_addressLottery",
          "type": "address"
        }
      ],
      "name": "LotteryCreated",
      "type": "event"
    },
    {
      "inputs": [],
      "name": "erc721Address",
      "outputs": [
        {
          "internalType": "address",
          "name": "",
          "type": "address"
        }
      ],
      "stateMutability": "view",
      "type": "function",
      "constant": true
    },
    {
      "inputs": [
        {
          "internalType": "uint8",
          "name": "_duration",
          "type": "uint8"
        },
        {
          "internalType": "uint16",
          "name": "_k",
          "type": "uint16"
        },
        {
          "internalType": "uint256",
          "name": "_ticketPrice",
          "type": "uint256"
        }
      ],
      "name": "createLottery",
      "outputs": [
        {
          "internalType": "address",
          "name": "",
          "type": "address"
        }
      ],
      "stateMutability": "nonpayable",
      "type": "function"
    }
  ],
  "bytecode": "0x608060405234801561001057600080fd5b506040516137f43803806137f4833981810160405281019061003291906100db565b806000806101000a81548173ffffffffffffffffffffffffffffffffffffffff021916908373ffffffffffffffffffffffffffffffffffffffff16021790555050610108565b600080fd5b600073ffffffffffffffffffffffffffffffffffffffff82169050919050565b60006100a88261007d565b9050919050565b6100b88161009d565b81146100c357600080fd5b50565b6000815190506100d5816100af565b92915050565b6000602082840312156100f1576100f0610078565b5b60006100ff848285016100c6565b91505092915050565b6136dd806101176000396000f3fe60806040523480156200001157600080fd5b50600436106200003a5760003560e01c80632352a864146200003f57806323a7b9491462000061575b600080fd5b6200004962000097565b604051620000589190620001be565b60405180910390f35b6200007f600480360381019062000079919062000298565b620000bb565b6040516200008e9190620001be565b60405180910390f35b60008054906101000a900473ffffffffffffffffffffffffffffffffffffffff1681565b60008060008054906101000a900473ffffffffffffffffffffffffffffffffffffffff16858585604051620000f0906200016b565b620000ff949392919062000327565b604051809103906000f0801580156200011c573d6000803e3d6000fd5b50905060008190507fdf7be3921ea9458ecd0a6ec88b3302d30dc01060774cae1a5b3fa2a2ffe1a46b33826040516200015792919062000374565b60405180910390a180925050509392505050565b61330680620003a283390190565b600073ffffffffffffffffffffffffffffffffffffffff82169050919050565b6000620001a68262000179565b9050919050565b620001b88162000199565b82525050565b6000602082019050620001d56000830184620001ad565b92915050565b600080fd5b600060ff82169050919050565b620001f881620001e0565b81146200020457600080fd5b50565b6000813590506200021881620001ed565b92915050565b600061ffff82169050919050565b62000237816200021e565b81146200024357600080fd5b50565b60008135905062000257816200022c565b92915050565b6000819050919050565b62000272816200025d565b81146200027e57600080fd5b50565b600081359050620002928162000267565b92915050565b600080600060608486031215620002b457620002b3620001db565b5b6000620002c48682870162000207565b9350506020620002d78682870162000246565b9250506040620002ea8682870162000281565b9150509250925092565b620002ff81620001e0565b82525050565b62000310816200021e565b82525050565b62000321816200025d565b82525050565b60006080820190506200033e6000830187620001ad565b6200034d6020830186620002f4565b6200035c604083018562000305565b6200036b606083018462000316565b95945050505050565b60006040820190506200038b6000830185620001ad565b6200039a6020830184620001ad565b939250505056fe60806040526040518060c001604052806040518060400160405280600160ff168152602001604560ff1681525081526020016040518060400160405280600160ff168152602001604560ff1681525081526020016040518060400160405280600160ff168152602001604560ff1681525081526020016040518060400160405280600160ff168152602001604560ff1681525081526020016040518060400160405280600160ff168152602001604560ff1681525081526020016040518060400160405280600160ff168152602001601a60ff168152508152506000906006620000eb92919062000238565b50348015620000f957600080fd5b50604051620033063803806200330683398181016040528101906200011f91906200049e565b32600660006101000a81548173ffffffffffffffffffffffffffffffffffffffff021916908373ffffffffffffffffffffffffffffffffffffffff16021790555083600760006101000a81548173ffffffffffffffffffffffffffffffffffffffff021916908373ffffffffffffffffffffffffffffffffffffffff16021790555081600660146101000a81548161ffff021916908361ffff1602179055504360088190555080600a8190555082600b60006101000a81548160ff021916908360ff1602179055506001600c819055507f602d52a424ba31c8904768b40efd585d7c78b61530cebd288dc8fc0be871a3c6600854600c546040516200022692919062000521565b60405180910390a1505050506200054e565b82600681019282156200027a579160200282015b828111156200027957825182906002620002689291906200028d565b50916020019190600101906200024c565b5b5090506200028991906200032e565b5090565b826002601f016020900481019282156200031b5791602002820160005b83821115620002ea57835183826101000a81548160ff021916908360ff1602179055509260200192600101602081600001049283019260010302620002aa565b8015620003195782816101000a81549060ff0219169055600101602081600001049283019260010302620002ea565b505b5090506200032a919062000356565b5090565b5b8082111562000352576000818162000348919062000375565b506001016200032f565b5090565b5b808211156200037157600081600090555060010162000357565b5090565b5060009055565b600080fd5b600073ffffffffffffffffffffffffffffffffffffffff82169050919050565b6000620003ae8262000381565b9050919050565b620003c081620003a1565b8114620003cc57600080fd5b50565b600081519050620003e081620003b5565b92915050565b600060ff82169050919050565b620003fe81620003e6565b81146200040a57600080fd5b50565b6000815190506200041e81620003f3565b92915050565b600061ffff82169050919050565b6200043d8162000424565b81146200044957600080fd5b50565b6000815190506200045d8162000432565b92915050565b6000819050919050565b620004788162000463565b81146200048457600080fd5b50565b60008151905062000498816200046d565b92915050565b60008060008060808587031215620004bb57620004ba6200037c565b5b6000620004cb87828801620003cf565b9450506020620004de878288016200040d565b9350506040620004f1878288016200044c565b9250506060620005048782880162000487565b91505092959194509250565b6200051b8162000463565b82525050565b600060408201905062000538600083018562000510565b62000547602083018462000510565b9392505050565b612da8806200055e6000396000f3fe6080604052600436106100fe5760003560e01c8063676c902f11610095578063bd85948c11610064578063bd85948c146102ef578063c19d93fb14610306578063ef3c4e9114610331578063f3006c8714610370578063f828d14b14610399576100fe565b8063676c902f146102595780636bcdba73146102705780636fd098161461029b578063751eee8d146102b2576100fe565b8063150b7a02116100d1578063150b7a021461019b5780632352a864146101d85780632a6c7fc3146102035780634d1a66991461022e576100fe565b806306d5ee54146101035780630fb5a6b41461011a5780631209b1f614610145578063146ca53114610170575b600080fd5b34801561010f57600080fd5b506101186103b5565b005b34801561012657600080fd5b5061012f610957565b60405161013c9190611cf2565b60405180910390f35b34801561015157600080fd5b5061015a61096a565b6040516101679190611d26565b60405180910390f35b34801561017c57600080fd5b50610185610970565b6040516101929190611d26565b60405180910390f35b3480156101a757600080fd5b506101c260048036038101906101bd9190611f25565b610976565b6040516101cf9190611fe3565b60405180910390f35b3480156101e457600080fd5b506101ed61098a565b6040516101fa919061200d565b60405180910390f35b34801561020f57600080fd5b506102186109b0565b6040516102259190611cf2565b60405180910390f35b34801561023a57600080fd5b506102436109b5565b6040516102509190611cf2565b60405180910390f35b34801561026557600080fd5b5061026e6109ba565b005b34801561027c57600080fd5b50610285610d89565b6040516102929190611d26565b60405180910390f35b3480156102a757600080fd5b506102b0610d8f565b005b3480156102be57600080fd5b506102d960048036038101906102d49190612028565b61109d565b6040516102e69190611cf2565b60405180910390f35b3480156102fb57600080fd5b506103046110d9565b005b34801561031257600080fd5b5061031b611220565b60405161032891906120df565b60405180910390f35b34801561033d57600080fd5b506103586004803603810190610353919061211f565b611233565b604051610367939291906121ef565b60405180910390f35b34801561037c57600080fd5b50610397600480360381019061039291906122ce565b6112f2565b005b6103b360048036038101906103ae919061240c565b6114ca565b005b3273ffffffffffffffffffffffffffffffffffffffff16600660009054906101000a900473ffffffffffffffffffffffffffffffffffffffff1673ffffffffffffffffffffffffffffffffffffffff1614610445576040517f08c379a000000000000000000000000000000000000000000000000000000000815260040161043c90612485565b60405180910390fd5b6002600481111561045957610458612068565b5b600960009054906101000a900460ff16600481111561047b5761047a612068565b5b146104bb576040517f08c379a00000000000000000000000000000000000000000000000000000000081526004016104b2906124f1565b60405180910390fd5b60005b600e805490508160ff16101561085e57600061055b600f8360ff16815481106104ea576104e9612511565b5b90600052602060002001600680602002604051908101604052809291908260068015610551576020028201916000905b82829054906101000a900460ff1660ff168152602001906001019060208260000104928301926001038202915080841161051a5790505b5050505050611756565b90506000600e8360ff168154811061057657610575612511565b5b9060005260206000200160009054906101000a900473ffffffffffffffffffffffffffffffffffffffff169050600060088111156105b7576105b6612068565b5b8260088111156105ca576105c9612068565b5b1461080d576000601060008460088111156105e8576105e7612068565b5b60088111156105fa576105f9612068565b5b815260200190815260200160002090506000816000015411610651576040517f08c379a00000000000000000000000000000000000000000000000000000000081526004016106489061258c565b60405180910390fd5b8060020160009054906101000a900460ff161561071f57600760009054906101000a900473ffffffffffffffffffffffffffffffffffffffff1673ffffffffffffffffffffffffffffffffffffffff166342842e0e308484600001546040518463ffffffff1660e01b81526004016106cb939291906125ac565b600060405180830381600087803b1580156106e557600080fd5b505af11580156106f9573d6000803e3d6000fd5b5050505060008160020160006101000a81548160ff0219169083151502179055506107c4565b600760009054906101000a900473ffffffffffffffffffffffffffffffffffffffff1673ffffffffffffffffffffffffffffffffffffffff1663d204c45e83836001016040518363ffffffff1660e01b815260040161077f9291906126d9565b6020604051808303816000875af115801561079e573d6000803e3d6000fd5b505050506040513d601f19601f820116820180604052508101906107c2919061271e565b505b7f61674068ece989a7d47bd6baf4bf0f0bcd9334feba27a669585ff9e261634b3082600c548584600001546040516107ff9493929190612793565b60405180910390a150610849565b7fcff1ec68402a76464736681ccbdc1072abfece20faf4b321c9510acd619ebb0981600c546040516108409291906127d8565b60405180910390a15b5050808061085690612830565b9150506104be565b50600e600061086d9190611b2c565b600f600061087b9190611b4d565b6003600960006101000a81548160ff021916908360048111156108a1576108a0612068565b5b0217905550600660009054906101000a900473ffffffffffffffffffffffffffffffffffffffff1673ffffffffffffffffffffffffffffffffffffffff166108fc479081150290604051600060405180830381858888f1935050505015801561090e573d6000803e3d6000fd5b507f402ee26d4c255fcb07b0b7b5b93b77377832260977c25be44f3c8feffd2df70e600960009054906101000a900460ff1660405161094d91906120df565b60405180910390a1565b600b60009054906101000a900460ff1681565b600a5481565b600c5481565b600063150b7a0260e01b9050949350505050565b600760009054906101000a900473ffffffffffffffffffffffffffffffffffffffff1681565b600581565b600681565b3273ffffffffffffffffffffffffffffffffffffffff16600660009054906101000a900473ffffffffffffffffffffffffffffffffffffffff1673ffffffffffffffffffffffffffffffffffffffff1614610a4a576040517f08c379a0000000000000000000000000000000000000000000000000000000008152600401610a4190612485565b60405180910390fd5b60016004811115610a5e57610a5d612068565b5b600960009054906101000a900460ff166004811115610a8057610a7f612068565b5b14610ac0576040517f08c379a0000000000000000000000000000000000000000000000000000000008152600401610ab7906128a6565b60405180910390fd5b6000610aca61195d565b905060005b600660ff168160ff161015610bd75760008160ff1660068110610af557610af4612511565b5b01600060028110610b0957610b08612511565b5b602091828204019190069054906101000a900460ff1660008260ff1660068110610b3657610b35612511565b5b01600160028110610b4a57610b49612511565b5b602091828204019190069054906101000a900460ff1683610b6b91906128f5565b610b759190612926565b600d8260ff1660068110610b8c57610b8b612511565b5b602091828204019190066101000a81548160ff021916908360ff160217905550610bb581611a1b565b606482610bc2919061295d565b91508080610bcf90612830565b915050610acf565b506002600960006101000a81548160ff02191690836004811115610bfe57610bfd612068565b5b02179055507f91b6dfbb93b3029a464861666207297538b99fee457b8ad2b2b34efcbc40b7a5600d600060068110610c3957610c38612511565b5b602091828204019190069054906101000a900460ff16600d600160068110610c6457610c63612511565b5b602091828204019190069054906101000a900460ff16600d600260068110610c8f57610c8e612511565b5b602091828204019190069054906101000a900460ff16600d600360068110610cba57610cb9612511565b5b602091828204019190069054906101000a900460ff16600d600460068110610ce557610ce4612511565b5b602091828204019190069054906101000a900460ff16600d600560068110610d1057610d0f612511565b5b602091828204019190069054906101000a900460ff16604051610d389695949392919061298e565b60405180910390a17f402ee26d4c255fcb07b0b7b5b93b77377832260977c25be44f3c8feffd2df70e600960009054906101000a900460ff16604051610d7e91906120df565b60405180910390a150565b60085481565b3273ffffffffffffffffffffffffffffffffffffffff16600660009054906101000a900473ffffffffffffffffffffffffffffffffffffffff1673ffffffffffffffffffffffffffffffffffffffff1614610e1f576040517f08c379a0000000000000000000000000000000000000000000000000000000008152600401610e1690612485565b60405180910390fd5b600480811115610e3257610e31612068565b5b600960009054906101000a900460ff166004811115610e5457610e53612068565b5b1415610e95576040517f08c379a0000000000000000000000000000000000000000000000000000000008152600401610e8c90612a3b565b60405180910390fd5b60036004811115610ea957610ea8612068565b5b600960009054906101000a900460ff166004811115610ecb57610eca612068565b5b14610ffe5760005b600e805490508160ff161015610ffc57600e8160ff1681548110610efa57610ef9612511565b5b9060005260206000200160009054906101000a900473ffffffffffffffffffffffffffffffffffffffff1673ffffffffffffffffffffffffffffffffffffffff166108fc600a549081150290604051600060405180830381858888f19350505050158015610f6c573d6000803e3d6000fd5b507ff0d779af07d479bd1d3f514a6304c7a2371987e96bdca83ba5133e2c39fa0507600e8260ff1681548110610fa557610fa4612511565b5b9060005260206000200160009054906101000a900473ffffffffffffffffffffffffffffffffffffffff16600a54604051610fe19291906127d8565b60405180910390a18080610ff490612830565b915050610ed3565b505b6004600960006101000a81548160ff0219169083600481111561102457611023612068565b5b02179055507f041434c50395b9a06c4309166ef0c0e2da56c3e21804dc8a8dc3dbc0dae5020360405160405180910390a17f402ee26d4c255fcb07b0b7b5b93b77377832260977c25be44f3c8feffd2df70e600960009054906101000a900460ff1660405161109391906120df565b60405180910390a1565b600082600681106110ad57600080fd5b0181600281106110bc57600080fd5b60209182820401919006915091509054906101000a900460ff1681565b600360048111156110ed576110ec612068565b5b600960009054906101000a900460ff16600481111561110f5761110e612068565b5b1461114f576040517f08c379a000000000000000000000000000000000000000000000000000000000815260040161114690612aa7565b60405180910390fd5b436008819055506001600c60008282546111699190612ac7565b925050819055506000600960006101000a81548160ff0219169083600481111561119657611195612068565b5b02179055507f602d52a424ba31c8904768b40efd585d7c78b61530cebd288dc8fc0be871a3c6600854600c546040516111d0929190612b1d565b60405180910390a17f402ee26d4c255fcb07b0b7b5b93b77377832260977c25be44f3c8feffd2df70e600960009054906101000a900460ff1660405161121691906120df565b60405180910390a1565b600960009054906101000a900460ff1681565b601060205280600052604060002060009150905080600001549080600101805461125c90612612565b80601f016020809104026020016040519081016040528092919081815260200182805461128890612612565b80156112d55780601f106112aa576101008083540402835291602001916112d5565b820191906000526020600020905b8154815290600101906020018083116112b857829003601f168201915b5050505050908060020160009054906101000a900460ff16905083565b3273ffffffffffffffffffffffffffffffffffffffff16600660009054906101000a900473ffffffffffffffffffffffffffffffffffffffff1673ffffffffffffffffffffffffffffffffffffffff1614611382576040517f08c379a000000000000000000000000000000000000000000000000000000000815260040161137990612485565b60405180910390fd5b6000600760009054906101000a900473ffffffffffffffffffffffffffffffffffffffff1673ffffffffffffffffffffffffffffffffffffffff1663d204c45e30856040518363ffffffff1660e01b81526004016113e1929190612b46565b6020604051808303816000875af1158015611400573d6000803e3d6000fd5b505050506040513d601f19601f82011682018060405250810190611424919061271e565b90506040518060600160405280828152602001848152602001600115158152506010600084600881111561145b5761145a612068565b5b600881111561146d5761146c612068565b5b81526020019081526020016000206000820151816000015560208201518160010190805190602001906114a1929190611b6e565b5060408201518160020160006101000a81548160ff021916908315150217905550905050505050565b600060048111156114de576114dd612068565b5b600960009054906101000a900460ff166004811115611500576114ff612068565b5b14611540576040517f08c379a000000000000000000000000000000000000000000000000000000000815260040161153790612bc2565b60405180910390fd5b600a54341015611585576040517f08c379a000000000000000000000000000000000000000000000000000000000815260040161157c90612c2e565b60405180910390fd5b6000600b60009054906101000a900460ff1660ff16600854436115a89190612c4e565b10905080611626576001600960006101000a81548160ff021916908360048111156115d6576115d5612068565b5b02179055507f402ee26d4c255fcb07b0b7b5b93b77377832260977c25be44f3c8feffd2df70e600960009054906101000a900460ff1660405161161991906120df565b60405180910390a1611752565b6000329050600e819080600181540180825580915050600190039060005260206000200160009091909190916101000a81548173ffffffffffffffffffffffffffffffffffffffff021916908373ffffffffffffffffffffffffffffffffffffffff160217905550600f83908060018154018082558091505060019003906000526020600020016000909190919091509060066116c4929190611bf4565b508073ffffffffffffffffffffffffffffffffffffffff166108fc600a54346116ed9190612c4e565b9081150290604051600060405180830381858888f19350505050158015611718573d6000803e3d6000fd5b507f5c6c890314aa0d49059c35b35ff86ffb43efe8f543dc3691558f39dfa4a8201181604051611748919061200d565b60405180910390a1505b5050565b6000806000905060005b6001600661176e9190612c82565b60ff168160ff1610156117f257600d8160ff166006811061179257611791612511565b5b602091828204019190069054906101000a900460ff1660ff16848260ff16600681106117c1576117c0612511565b5b602002015160ff1614156117df576001826117dc9190612926565b91505b80806117ea90612830565b915050611760565b506000600d600560ff166006811061180d5761180c612511565b5b602091828204019190069054906101000a900460ff1660ff1684600560ff166006811061183d5761183c612511565b5b602002015160ff1614905060058260ff161480156118585750805b1561186857600192505050611958565b60058260ff16141561187f57600292505050611958565b60048260ff1614801561188f5750805b1561189f57600392505050611958565b60048260ff1614806118bd575060038260ff161480156118bc5750805b5b156118cd57600492505050611958565b60038260ff1614806118eb575060028260ff161480156118ea5750805b5b156118fb57600592505050611958565b60028260ff161480611919575060018260ff161480156119185750805b5b1561192957600692505050611958565b60018260ff16141561194057600792505050611958565b801561195157600892505050611958565b6000925050505b919050565b600080600660149054906101000a900461ffff1661ffff16600b60009054906101000a900460ff1660ff166008546119959190612ac7565b61199f9190612ac7565b9050438111156119e4576040517f08c379a00000000000000000000000000000000000000000000000000000000081526004016119db90612d02565b60405180910390fd5b8040600c54426040516020016119fc93929190612d3b565b6040516020818303038152906040528051906020012060001c91505090565b600560ff168160ff1614611b29576000600190505b8015611b27576000905060005b8260ff168160ff161015611b2157600d8160ff1660068110611a6257611a61612511565b5b602091828204019190069054906101000a900460ff1660ff16600d8460ff1660068110611a9257611a91612511565b5b602091828204019190069054906101000a900460ff1660ff161415611b0e576001600d8460ff1660068110611aca57611ac9612511565b5b602091828204019190068282829054906101000a900460ff16611aed9190612926565b92506101000a81548160ff021916908360ff16021790555060019150611b21565b8080611b1990612830565b915050611a3d565b50611a30565b505b50565b5080546000825590600052602060002090810190611b4a9190611c8e565b50565b5080546000825590600052602060002090810190611b6b9190611cab565b50565b828054611b7a90612612565b90600052602060002090601f016020900481019282611b9c5760008555611be3565b82601f10611bb557805160ff1916838001178555611be3565b82800160010185558215611be3579182015b82811115611be2578251825591602001919060010190611bc7565b5b509050611bf09190611c8e565b5090565b826006601f01602090048101928215611c7d5791602002820160005b83821115611c4e57835183826101000a81548160ff021916908360ff1602179055509260200192600101602081600001049283019260010302611c10565b8015611c7b5782816101000a81549060ff0219169055600101602081600001049283019260010302611c4e565b505b509050611c8a9190611c8e565b5090565b5b80821115611ca7576000816000905550600101611c8f565b5090565b5b80821115611ccb5760008181611cc29190611ccf565b50600101611cac565b5090565b5060009055565b600060ff82169050919050565b611cec81611cd6565b82525050565b6000602082019050611d076000830184611ce3565b92915050565b6000819050919050565b611d2081611d0d565b82525050565b6000602082019050611d3b6000830184611d17565b92915050565b6000604051905090565b600080fd5b600080fd5b600073ffffffffffffffffffffffffffffffffffffffff82169050919050565b6000611d8082611d55565b9050919050565b611d9081611d75565b8114611d9b57600080fd5b50565b600081359050611dad81611d87565b92915050565b611dbc81611d0d565b8114611dc757600080fd5b50565b600081359050611dd981611db3565b92915050565b600080fd5b600080fd5b6000601f19601f8301169050919050565b7f4e487b7100000000000000000000000000000000000000000000000000000000600052604160045260246000fd5b611e3282611de9565b810181811067ffffffffffffffff82111715611e5157611e50611dfa565b5b80604052505050565b6000611e64611d41565b9050611e708282611e29565b919050565b600067ffffffffffffffff821115611e9057611e8f611dfa565b5b611e9982611de9565b9050602081019050919050565b82818337600083830152505050565b6000611ec8611ec384611e75565b611e5a565b905082815260208101848484011115611ee457611ee3611de4565b5b611eef848285611ea6565b509392505050565b600082601f830112611f0c57611f0b611ddf565b5b8135611f1c848260208601611eb5565b91505092915050565b60008060008060808587031215611f3f57611f3e611d4b565b5b6000611f4d87828801611d9e565b9450506020611f5e87828801611d9e565b9350506040611f6f87828801611dca565b925050606085013567ffffffffffffffff811115611f9057611f8f611d50565b5b611f9c87828801611ef7565b91505092959194509250565b60007fffffffff0000000000000000000000000000000000000000000000000000000082169050919050565b611fdd81611fa8565b82525050565b6000602082019050611ff86000830184611fd4565b92915050565b61200781611d75565b82525050565b60006020820190506120226000830184611ffe565b92915050565b6000806040838503121561203f5761203e611d4b565b5b600061204d85828601611dca565b925050602061205e85828601611dca565b9150509250929050565b7f4e487b7100000000000000000000000000000000000000000000000000000000600052602160045260246000fd5b600581106120a8576120a7612068565b5b50565b60008190506120b982612097565b919050565b60006120c9826120ab565b9050919050565b6120d9816120be565b82525050565b60006020820190506120f460008301846120d0565b92915050565b6009811061210757600080fd5b50565b600081359050612119816120fa565b92915050565b60006020828403121561213557612134611d4b565b5b60006121438482850161210a565b91505092915050565b600081519050919050565b600082825260208201905092915050565b60005b8381101561218657808201518184015260208101905061216b565b83811115612195576000848401525b50505050565b60006121a68261214c565b6121b08185612157565b93506121c0818560208601612168565b6121c981611de9565b840191505092915050565b60008115159050919050565b6121e9816121d4565b82525050565b60006060820190506122046000830186611d17565b8181036020830152612216818561219b565b905061222560408301846121e0565b949350505050565b600067ffffffffffffffff82111561224857612247611dfa565b5b61225182611de9565b9050602081019050919050565b600061227161226c8461222d565b611e5a565b90508281526020810184848401111561228d5761228c611de4565b5b612298848285611ea6565b509392505050565b600082601f8301126122b5576122b4611ddf565b5b81356122c584826020860161225e565b91505092915050565b600080604083850312156122e5576122e4611d4b565b5b600083013567ffffffffffffffff81111561230357612302611d50565b5b61230f858286016122a0565b92505060206123208582860161210a565b9150509250929050565b600067ffffffffffffffff82111561234557612344611dfa565b5b602082029050919050565b600080fd5b61235e81611cd6565b811461236957600080fd5b50565b60008135905061237b81612355565b92915050565b600061239461238f8461232a565b611e5a565b905080602084028301858111156123ae576123ad612350565b5b835b818110156123d757806123c3888261236c565b8452602084019350506020810190506123b0565b5050509392505050565b600082601f8301126123f6576123f5611ddf565b5b6006612403848285612381565b91505092915050565b600060c0828403121561242257612421611d4b565b5b6000612430848285016123e1565b91505092915050565b7f4f7065726174696f6e20756e617574686f72697a656400000000000000000000600082015250565b600061246f601683612157565b915061247a82612439565b602082019050919050565b6000602082019050818103600083015261249e81612462565b9050919050565b7f596f752063616e6e6f742067697665207072697a6573206e6f77000000000000600082015250565b60006124db601a83612157565b91506124e6826124a5565b602082019050919050565b6000602082019050818103600083015261250a816124ce565b9050919050565b7f4e487b7100000000000000000000000000000000000000000000000000000000600052603260045260246000fd5b7f4e6f7420656e6f756768207072697a6573000000000000000000000000000000600082015250565b6000612576601183612157565b915061258182612540565b602082019050919050565b600060208201905081810360008301526125a581612569565b9050919050565b60006060820190506125c16000830186611ffe565b6125ce6020830185611ffe565b6125db6040830184611d17565b949350505050565b7f4e487b7100000000000000000000000000000000000000000000000000000000600052602260045260246000fd5b6000600282049050600182168061262a57607f821691505b6020821081141561263e5761263d6125e3565b5b50919050565b60008190508160005260206000209050919050565b6000815461266681612612565b6126708186612157565b9450600182166000811461268b576001811461269d576126d0565b60ff19831686526020860193506126d0565b6126a685612644565b60005b838110156126c8578154818901526001820191506020810190506126a9565b808801955050505b50505092915050565b60006040820190506126ee6000830185611ffe565b81810360208301526127008184612659565b90509392505050565b60008151905061271881611db3565b92915050565b60006020828403121561273457612733611d4b565b5b600061274284828501612709565b91505092915050565b6009811061275c5761275b612068565b5b50565b600081905061276d8261274b565b919050565b600061277d8261275f565b9050919050565b61278d81612772565b82525050565b60006080820190506127a86000830187611ffe565b6127b56020830186611d17565b6127c26040830185612784565b6127cf6060830184611d17565b95945050505050565b60006040820190506127ed6000830185611ffe565b6127fa6020830184611d17565b9392505050565b7f4e487b7100000000000000000000000000000000000000000000000000000000600052601160045260246000fd5b600061283b82611cd6565b915060ff82141561284f5761284e612801565b5b600182019050919050565b7f596f752063616e6e6f742064726177206e6f7700000000000000000000000000600082015250565b6000612890601383612157565b915061289b8261285a565b602082019050919050565b600060208201905081810360008301526128bf81612883565b9050919050565b7f4e487b7100000000000000000000000000000000000000000000000000000000600052601260045260246000fd5b600061290082611cd6565b915061290b83611cd6565b92508261291b5761291a6128c6565b5b828206905092915050565b600061293182611cd6565b915061293c83611cd6565b92508260ff0382111561295257612951612801565b5b828201905092915050565b600061296882611d0d565b915061297383611d0d565b925082612983576129826128c6565b5b828204905092915050565b600060c0820190506129a36000830189611ce3565b6129b06020830188611ce3565b6129bd6040830187611ce3565b6129ca6060830186611ce3565b6129d76080830185611ce3565b6129e460a0830184611ce3565b979650505050505050565b7f4c6f747465727920616c726561647920636c6f73656400000000000000000000600082015250565b6000612a25601683612157565b9150612a30826129ef565b602082019050919050565b60006020820190508181036000830152612a5481612a18565b9050919050565b7f526f756e64206973206e6f742066696e69736865640000000000000000000000600082015250565b6000612a91601583612157565b9150612a9c82612a5b565b602082019050919050565b60006020820190508181036000830152612ac081612a84565b9050919050565b6000612ad282611d0d565b9150612add83611d0d565b9250827fffffffffffffffffffffffffffffffffffffffffffffffffffffffffffffffff03821115612b1257612b11612801565b5b828201905092915050565b6000604082019050612b326000830185611d17565b612b3f6020830184611d17565b9392505050565b6000604082019050612b5b6000830185611ffe565b8181036020830152612b6d818461219b565b90509392505050565b7f596f752063616e6e6f7420627579206e6f770000000000000000000000000000600082015250565b6000612bac601283612157565b9150612bb782612b76565b602082019050919050565b60006020820190508181036000830152612bdb81612b9f565b9050919050565b7f4e6f7420656e6f75676820657468657200000000000000000000000000000000600082015250565b6000612c18601083612157565b9150612c2382612be2565b602082019050919050565b60006020820190508181036000830152612c4781612c0b565b9050919050565b6000612c5982611d0d565b9150612c6483611d0d565b925082821015612c7757612c76612801565b5b828203905092915050565b6000612c8d82611cd6565b9150612c9883611cd6565b925082821015612cab57612caa612801565b5b828203905092915050565b7f426c6f636b206e6f74207965742067656e657261746564000000000000000000600082015250565b6000612cec601783612157565b9150612cf782612cb6565b602082019050919050565b60006020820190508181036000830152612d1b81612cdf565b9050919050565b6000819050919050565b612d3581612d22565b82525050565b6000606082019050612d506000830186612d2c565b612d5d6020830185611d17565b612d6a6040830184611d17565b94935050505056fea2646970667358221220de268b7851542df46c8ac5c887477d847696021a154e1350e8ed3a78b4d2ec4b64736f6c634300080c0033a26469706673582212200ad25d87cd96abdf65ab5134fd1a4d923298f7dab2653052205b6893c42221fa64736f6c634300080c0033",
  "immutableReferences": {},
  "source": "// SPDX-License-Identifier: MIT\npragma solidity ^0.8.0;\n\nimport './Lottery.sol';\n\ncontract TRY {\n\n    address public erc721Address;\n\n    constructor(address _erc721Address) {\n        erc721Address = _erc721Address;\n    }\n\n    event LotteryCreated(address _owner, address _addressLottery);\n\n    function createLottery(uint8 _duration, uint16 _k, uint256 _ticketPrice) external returns(address) {\n        Lottery lottery = new Lottery(erc721Address, _duration, _k, _ticketPrice);\n        address _addressLottery = address(lottery);\n        emit LotteryCreated(msg.sender, _addressLottery);\n        return _addressLottery;\n    }\n}",
  "sourcePath": "/Users/geremiapompei/Library/CloudStorage/OneDrive-UniversityofPisa/UNIPI/1 anno 2021_2022/2 semestre/Peer2Peer and Blockchain/exam/P2P/3_finalproject/smart_contract/contracts/TRY.sol",
  "compiler": {
    "name": "solc",
    "version": "0.8.12+commit.f00d7308.Emscripten.clang"
  },
  "schemaVersion": "3.4.7",
  "updatedAt": "2022-06-07T17:56:43.463Z",
  "networkType": "ethereum",
  "devdoc": {
    "kind": "dev",
    "methods": {},
    "version": 1
  },
  "userdoc": {
    "kind": "user",
    "methods": {},
    "version": 1
  }
}