{
  "contractName": "ERC721",
  "abi": [
    {
      "inputs": [
        {
          "internalType": "string",
          "name": "_name",
          "type": "string"
        },
        {
          "internalType": "string",
          "name": "_symbol",
          "type": "string"
        },
        {
          "internalType": "string",
          "name": "_baseURI",
          "type": "string"
        }
      ],
      "stateMutability": "nonpayable",
      "type": "constructor"
    },
    {
      "anonymous": false,
      "inputs": [
        {
          "indexed": true,
          "internalType": "address",
          "name": "_owner",
          "type": "address"
        },
        {
          "indexed": true,
          "internalType": "address",
          "name": "_approved",
          "type": "address"
        },
        {
          "indexed": true,
          "internalType": "uint256",
          "name": "_tokenId",
          "type": "uint256"
        }
      ],
      "name": "Approval",
      "type": "event"
    },
    {
      "anonymous": false,
      "inputs": [
        {
          "indexed": true,
          "internalType": "address",
          "name": "_owner",
          "type": "address"
        },
        {
          "indexed": true,
          "internalType": "address",
          "name": "_operator",
          "type": "address"
        },
        {
          "indexed": false,
          "internalType": "bool",
          "name": "_approved",
          "type": "bool"
        }
      ],
      "name": "ApprovalForAll",
      "type": "event"
    },
    {
      "anonymous": false,
      "inputs": [
        {
          "indexed": true,
          "internalType": "address",
          "name": "_to",
          "type": "address"
        },
        {
          "indexed": true,
          "internalType": "uint256",
          "name": "_tokenId",
          "type": "uint256"
        },
        {
          "indexed": true,
          "internalType": "string",
          "name": "_uri",
          "type": "string"
        }
      ],
      "name": "Mint",
      "type": "event"
    },
    {
      "anonymous": false,
      "inputs": [
        {
          "indexed": true,
          "internalType": "address",
          "name": "_from",
          "type": "address"
        },
        {
          "indexed": true,
          "internalType": "address",
          "name": "_to",
          "type": "address"
        },
        {
          "indexed": true,
          "internalType": "uint256",
          "name": "_tokenId",
          "type": "uint256"
        }
      ],
      "name": "Transfer",
      "type": "event"
    },
    {
      "inputs": [
        {
          "internalType": "address",
          "name": "_owner",
          "type": "address"
        }
      ],
      "name": "balanceOf",
      "outputs": [
        {
          "internalType": "uint256",
          "name": "",
          "type": "uint256"
        }
      ],
      "stateMutability": "view",
      "type": "function",
      "constant": true
    },
    {
      "inputs": [
        {
          "internalType": "uint256",
          "name": "_tokenId",
          "type": "uint256"
        }
      ],
      "name": "ownerOf",
      "outputs": [
        {
          "internalType": "address",
          "name": "",
          "type": "address"
        }
      ],
      "stateMutability": "view",
      "type": "function",
      "constant": true
    },
    {
      "inputs": [
        {
          "internalType": "address",
          "name": "_from",
          "type": "address"
        },
        {
          "internalType": "address",
          "name": "_to",
          "type": "address"
        },
        {
          "internalType": "uint256",
          "name": "_tokenId",
          "type": "uint256"
        }
      ],
      "name": "safeTransferFrom",
      "outputs": [],
      "stateMutability": "nonpayable",
      "type": "function"
    },
    {
      "inputs": [
        {
          "internalType": "address",
          "name": "_from",
          "type": "address"
        },
        {
          "internalType": "address",
          "name": "_to",
          "type": "address"
        },
        {
          "internalType": "uint256",
          "name": "_tokenId",
          "type": "uint256"
        },
        {
          "internalType": "bytes",
          "name": "_data",
          "type": "bytes"
        }
      ],
      "name": "safeTransferFrom",
      "outputs": [],
      "stateMutability": "nonpayable",
      "type": "function"
    },
    {
      "inputs": [
        {
          "internalType": "address",
          "name": "_from",
          "type": "address"
        },
        {
          "internalType": "address",
          "name": "_to",
          "type": "address"
        },
        {
          "internalType": "uint256",
          "name": "_tokenId",
          "type": "uint256"
        }
      ],
      "name": "transferFrom",
      "outputs": [],
      "stateMutability": "nonpayable",
      "type": "function"
    },
    {
      "inputs": [
        {
          "internalType": "address",
          "name": "_approved",
          "type": "address"
        },
        {
          "internalType": "uint256",
          "name": "_tokenId",
          "type": "uint256"
        }
      ],
      "name": "approve",
      "outputs": [],
      "stateMutability": "nonpayable",
      "type": "function"
    },
    {
      "inputs": [
        {
          "internalType": "address",
          "name": "_operator",
          "type": "address"
        },
        {
          "internalType": "bool",
          "name": "_approved",
          "type": "bool"
        }
      ],
      "name": "setApprovalForAll",
      "outputs": [],
      "stateMutability": "nonpayable",
      "type": "function"
    },
    {
      "inputs": [
        {
          "internalType": "uint256",
          "name": "_tokenId",
          "type": "uint256"
        }
      ],
      "name": "getApproved",
      "outputs": [
        {
          "internalType": "address",
          "name": "",
          "type": "address"
        }
      ],
      "stateMutability": "view",
      "type": "function",
      "constant": true
    },
    {
      "inputs": [
        {
          "internalType": "address",
          "name": "_owner",
          "type": "address"
        },
        {
          "internalType": "address",
          "name": "_operator",
          "type": "address"
        }
      ],
      "name": "isApprovedForAll",
      "outputs": [
        {
          "internalType": "bool",
          "name": "",
          "type": "bool"
        }
      ],
      "stateMutability": "view",
      "type": "function",
      "constant": true
    },
    {
      "inputs": [],
      "name": "name",
      "outputs": [
        {
          "internalType": "string",
          "name": "_name",
          "type": "string"
        }
      ],
      "stateMutability": "view",
      "type": "function",
      "constant": true
    },
    {
      "inputs": [],
      "name": "symbol",
      "outputs": [
        {
          "internalType": "string",
          "name": "_symbol",
          "type": "string"
        }
      ],
      "stateMutability": "view",
      "type": "function",
      "constant": true
    },
    {
      "inputs": [
        {
          "internalType": "uint256",
          "name": "_tokenId",
          "type": "uint256"
        }
      ],
      "name": "tokenURI",
      "outputs": [
        {
          "internalType": "string",
          "name": "",
          "type": "string"
        }
      ],
      "stateMutability": "view",
      "type": "function",
      "constant": true
    },
    {
      "inputs": [
        {
          "internalType": "address",
          "name": "_to",
          "type": "address"
        },
        {
          "internalType": "string",
          "name": "_uri",
          "type": "string"
        }
      ],
      "name": "safeMint",
      "outputs": [
        {
          "internalType": "uint256",
          "name": "_tokenId",
          "type": "uint256"
        }
      ],
      "stateMutability": "nonpayable",
      "type": "function"
    },
    {
      "inputs": [
        {
          "internalType": "address",
          "name": "_to",
          "type": "address"
        },
        {
          "internalType": "string",
          "name": "_uri",
          "type": "string"
        },
        {
          "internalType": "bytes",
          "name": "_data",
          "type": "bytes"
        }
      ],
      "name": "safeMint",
      "outputs": [
        {
          "internalType": "uint256",
          "name": "_tokenId",
          "type": "uint256"
        }
      ],
      "stateMutability": "nonpayable",
      "type": "function"
    },
    {
      "inputs": [
        {
          "internalType": "address",
          "name": "_to",
          "type": "address"
        },
        {
          "internalType": "string",
          "name": "_uri",
          "type": "string"
        }
      ],
      "name": "mint",
      "outputs": [
        {
          "internalType": "uint256",
          "name": "_tokenId",
          "type": "uint256"
        }
      ],
      "stateMutability": "nonpayable",
      "type": "function"
    }
  ],
  "bytecode": "0x608060405260006003553480156200001657600080fd5b506040516200239b3803806200239b83398181016040528101906200003c9190620002dd565b82600090805190602001906200005492919062000090565b5081600190805190602001906200006d92919062000090565b5080600290805190602001906200008692919062000090565b50505050620003fb565b8280546200009e90620003c5565b90600052602060002090601f016020900481019282620000c257600085556200010e565b82601f10620000dd57805160ff19168380011785556200010e565b828001600101855582156200010e579182015b828111156200010d578251825591602001919060010190620000f0565b5b5090506200011d919062000121565b5090565b5b808211156200013c57600081600090555060010162000122565b5090565b6000604051905090565b600080fd5b600080fd5b600080fd5b600080fd5b6000601f19601f8301169050919050565b7f4e487b7100000000000000000000000000000000000000000000000000000000600052604160045260246000fd5b620001a9826200015e565b810181811067ffffffffffffffff82111715620001cb57620001ca6200016f565b5b80604052505050565b6000620001e062000140565b9050620001ee82826200019e565b919050565b600067ffffffffffffffff8211156200021157620002106200016f565b5b6200021c826200015e565b9050602081019050919050565b60005b83811015620002495780820151818401526020810190506200022c565b8381111562000259576000848401525b50505050565b6000620002766200027084620001f3565b620001d4565b90508281526020810184848401111562000295576200029462000159565b5b620002a284828562000229565b509392505050565b600082601f830112620002c257620002c162000154565b5b8151620002d48482602086016200025f565b91505092915050565b600080600060608486031215620002f957620002f86200014a565b5b600084015167ffffffffffffffff8111156200031a57620003196200014f565b5b6200032886828701620002aa565b935050602084015167ffffffffffffffff8111156200034c576200034b6200014f565b5b6200035a86828701620002aa565b925050604084015167ffffffffffffffff8111156200037e576200037d6200014f565b5b6200038c86828701620002aa565b9150509250925092565b7f4e487b7100000000000000000000000000000000000000000000000000000000600052602260045260246000fd5b60006002820490506001821680620003de57607f821691505b60208210811415620003f557620003f462000396565b5b50919050565b611f90806200040b6000396000f3fe608060405234801561001057600080fd5b50600436106100f55760003560e01c806395d89b4111610097578063d0def52111610066578063d0def52114610282578063d204c45e146102b2578063e985e9c5146102e2578063f6dda93614610312576100f5565b806395d89b41146101fc578063a22cb4651461021a578063b88d4fde14610236578063c87b56dd14610252576100f5565b806323b872dd116100d357806323b872dd1461016457806342842e0e146101805780636352211e1461019c57806370a08231146101cc576100f5565b806306fdde03146100fa578063081812fc14610118578063095ea7b314610148575b600080fd5b610102610342565b60405161010f9190611347565b60405180910390f35b610132600480360381019061012d91906113b3565b6103d4565b60405161013f9190611421565b60405180910390f35b610162600480360381019061015d9190611468565b610411565b005b61017e600480360381019061017991906114a8565b6104c2565b005b61019a600480360381019061019591906114a8565b6104d2565b005b6101b660048036038101906101b191906113b3565b610546565b6040516101c39190611421565b60405180910390f35b6101e660048036038101906101e191906114fb565b6105f8565b6040516101f39190611537565b60405180910390f35b6102046106b0565b6040516102119190611347565b60405180910390f35b610234600480360381019061022f919061158a565b610742565b005b610250600480360381019061024b91906116ff565b61083f565b005b61026c600480360381019061026791906113b3565b61085c565b6040516102799190611347565b60405180910390f35b61029c60048036038101906102979190611823565b6109eb565b6040516102a99190611537565b60405180910390f35b6102cc60048036038101906102c79190611823565b6109ff565b6040516102d99190611537565b60405180910390f35b6102fc60048036038101906102f7919061187f565b610a87565b60405161030991906118ce565b60405180910390f35b61032c600480360381019061032791906118e9565b610b1b565b6040516103399190611537565b60405180910390f35b606060008054610351906119a3565b80601f016020809104026020016040519081016040528092919081815260200182805461037d906119a3565b80156103ca5780601f1061039f576101008083540402835291602001916103ca565b820191906000526020600020905b8154815290600101906020018083116103ad57829003601f168201915b5050505050905090565b60006007600083815260200190815260200160002060009054906101000a900473ffffffffffffffffffffffffffffffffffffffff169050919050565b816007600083815260200190815260200160002060006101000a81548173ffffffffffffffffffffffffffffffffffffffff021916908373ffffffffffffffffffffffffffffffffffffffff160217905550808273ffffffffffffffffffffffffffffffffffffffff163373ffffffffffffffffffffffffffffffffffffffff167f8c5be1e5ebec7d5bd14f71427d1e84f3dd0314c0f7b2291e5b200ac8c7c3b92560405160405180910390a45050565b6104cd838383610b3d565b505050565b3073ffffffffffffffffffffffffffffffffffffffff166342842e0e8484846040518463ffffffff1660e01b815260040161050f939291906119d5565b600060405180830381600087803b15801561052957600080fd5b505af115801561053d573d6000803e3d6000fd5b50505050505050565b6000806005600084815260200190815260200160002060009054906101000a900473ffffffffffffffffffffffffffffffffffffffff169050600073ffffffffffffffffffffffffffffffffffffffff168173ffffffffffffffffffffffffffffffffffffffff1614156105ef576040517f08c379a00000000000000000000000000000000000000000000000000000000081526004016105e690611a58565b60405180910390fd5b80915050919050565b60008073ffffffffffffffffffffffffffffffffffffffff168273ffffffffffffffffffffffffffffffffffffffff161415610669576040517f08c379a000000000000000000000000000000000000000000000000000000000815260040161066090611ac4565b60405180910390fd5b600660008373ffffffffffffffffffffffffffffffffffffffff1673ffffffffffffffffffffffffffffffffffffffff168152602001908152602001600020549050919050565b6060600180546106bf906119a3565b80601f01602080910402602001604051908101604052809291908181526020018280546106eb906119a3565b80156107385780601f1061070d57610100808354040283529160200191610738565b820191906000526020600020905b81548152906001019060200180831161071b57829003601f168201915b5050505050905090565b80600860003373ffffffffffffffffffffffffffffffffffffffff1673ffffffffffffffffffffffffffffffffffffffff16815260200190815260200160002060008473ffffffffffffffffffffffffffffffffffffffff1673ffffffffffffffffffffffffffffffffffffffff16815260200190815260200160002060006101000a81548160ff0219169083151502179055508173ffffffffffffffffffffffffffffffffffffffff163373ffffffffffffffffffffffffffffffffffffffff167f17307eab39ab6107e8899845ad3d59bd9653f200f220920489ca2b5937696c318360405161083391906118ce565b60405180910390a35050565b61084a848484610b3d565b61085684848484610f86565b50505050565b6060600073ffffffffffffffffffffffffffffffffffffffff166005600084815260200190815260200160002060009054906101000a900473ffffffffffffffffffffffffffffffffffffffff1673ffffffffffffffffffffffffffffffffffffffff161415610901576040517f08c379a00000000000000000000000000000000000000000000000000000000081526004016108f890611a58565b60405180910390fd5b600060028054610910906119a3565b80601f016020809104026020016040519081016040528092919081815260200182805461093c906119a3565b80156109895780601f1061095e57610100808354040283529160200191610989565b820191906000526020600020905b81548152906001019060200180831161096c57829003601f168201915b5050505050905060008151116109ae57604051806020016040528060008152506109e3565b80600460008581526020019081526020016000206040516020016109d3929190611bb4565b6040516020818303038152906040525b915050919050565b60006109f783836110a6565b905092915050565b60003073ffffffffffffffffffffffffffffffffffffffff1663d204c45e84846040518363ffffffff1660e01b8152600401610a3c929190611bd8565b6020604051808303816000875af1158015610a5b573d6000803e3d6000fd5b505050506040513d601f19601f82011682018060405250810190610a7f9190611c1d565b905092915050565b6000600860008473ffffffffffffffffffffffffffffffffffffffff1673ffffffffffffffffffffffffffffffffffffffff16815260200190815260200160002060008373ffffffffffffffffffffffffffffffffffffffff1673ffffffffffffffffffffffffffffffffffffffff16815260200190815260200160002060009054906101000a900460ff16905092915050565b6000610b2784846110a6565b9050610b366000858385610f86565b9392505050565b82816000811415610b83576040517f08c379a0000000000000000000000000000000000000000000000000000000008152600401610b7a90611a58565b60405180910390fd5b60003073ffffffffffffffffffffffffffffffffffffffff16636352211e836040518263ffffffff1660e01b8152600401610bbe9190611537565b602060405180830381865afa158015610bdb573d6000803e3d6000fd5b505050506040513d601f19601f82011682018060405250810190610bff9190611c5f565b90508073ffffffffffffffffffffffffffffffffffffffff168373ffffffffffffffffffffffffffffffffffffffff1614610c6f576040517f08c379a0000000000000000000000000000000000000000000000000000000008152600401610c6690611cd8565b60405180910390fd5b60003390508173ffffffffffffffffffffffffffffffffffffffff168173ffffffffffffffffffffffffffffffffffffffff161480610d345750600860008373ffffffffffffffffffffffffffffffffffffffff1673ffffffffffffffffffffffffffffffffffffffff16815260200190815260200160002060008273ffffffffffffffffffffffffffffffffffffffff1673ffffffffffffffffffffffffffffffffffffffff16815260200190815260200160002060009054906101000a900460ff165b80610de357508073ffffffffffffffffffffffffffffffffffffffff163073ffffffffffffffffffffffffffffffffffffffff1663081812fc856040518263ffffffff1660e01b8152600401610d8a9190611537565b602060405180830381865afa158015610da7573d6000803e3d6000fd5b505050506040513d601f19601f82011682018060405250810190610dcb9190611c5f565b73ffffffffffffffffffffffffffffffffffffffff16145b610e22576040517f08c379a0000000000000000000000000000000000000000000000000000000008152600401610e1990611d44565b60405180910390fd5b856005600087815260200190815260200160002060006101000a81548173ffffffffffffffffffffffffffffffffffffffff021916908373ffffffffffffffffffffffffffffffffffffffff1602179055506001600660008973ffffffffffffffffffffffffffffffffffffffff1673ffffffffffffffffffffffffffffffffffffffff1681526020019081526020016000206000828254610ec49190611d93565b925050819055506001600660008873ffffffffffffffffffffffffffffffffffffffff1673ffffffffffffffffffffffffffffffffffffffff1681526020019081526020016000206000828254610f1b9190611dc7565b92505081905550848673ffffffffffffffffffffffffffffffffffffffff168873ffffffffffffffffffffffffffffffffffffffff167fddf252ad1be2c89b69c2b068fc378daa952ba7f163c4a11628f55a4df523b3ef60405160405180910390a450505050505050565b610f8f836111f8565b156110a0578273ffffffffffffffffffffffffffffffffffffffff1663150b7a02338685856040518563ffffffff1660e01b8152600401610fd39493929190611e72565b6020604051808303816000875af192505050801561100f57506040513d601f19601f8201168201806040525081019061100c9190611f16565b60015b61104d573d806000811461103f576040519150601f19603f3d011682016040523d82523d6000602084013e611044565b606091505b50805181602001fd5b63150b7a0260e01b7bffffffffffffffffffffffffffffffffffffffffffffffffffffffff1916817bffffffffffffffffffffffffffffffffffffffffffffffffffffffff19161461109e57600080fd5b505b50505050565b60006001600360008282546110bb9190611dc7565b925050819055506003549050816004600083815260200190815260200160002090805190602001906110ee92919061120b565b50826005600083815260200190815260200160002060006101000a81548173ffffffffffffffffffffffffffffffffffffffff021916908373ffffffffffffffffffffffffffffffffffffffff1602179055506001600660008573ffffffffffffffffffffffffffffffffffffffff1673ffffffffffffffffffffffffffffffffffffffff16815260200190815260200160002060008282546111919190611dc7565b92505081905550816040516111a69190611f43565b6040518091039020818473ffffffffffffffffffffffffffffffffffffffff167f85a66b9141978db9980f7e0ce3b468cebf4f7999f32b23091c5c03e798b1ba7a60405160405180910390a492915050565b600080823b905060008111915050919050565b828054611217906119a3565b90600052602060002090601f0160209004810192826112395760008555611280565b82601f1061125257805160ff1916838001178555611280565b82800160010185558215611280579182015b8281111561127f578251825591602001919060010190611264565b5b50905061128d9190611291565b5090565b5b808211156112aa576000816000905550600101611292565b5090565b600081519050919050565b600082825260208201905092915050565b60005b838110156112e85780820151818401526020810190506112cd565b838111156112f7576000848401525b50505050565b6000601f19601f8301169050919050565b6000611319826112ae565b61132381856112b9565b93506113338185602086016112ca565b61133c816112fd565b840191505092915050565b60006020820190508181036000830152611361818461130e565b905092915050565b6000604051905090565b600080fd5b600080fd5b6000819050919050565b6113908161137d565b811461139b57600080fd5b50565b6000813590506113ad81611387565b92915050565b6000602082840312156113c9576113c8611373565b5b60006113d78482850161139e565b91505092915050565b600073ffffffffffffffffffffffffffffffffffffffff82169050919050565b600061140b826113e0565b9050919050565b61141b81611400565b82525050565b60006020820190506114366000830184611412565b92915050565b61144581611400565b811461145057600080fd5b50565b6000813590506114628161143c565b92915050565b6000806040838503121561147f5761147e611373565b5b600061148d85828601611453565b925050602061149e8582860161139e565b9150509250929050565b6000806000606084860312156114c1576114c0611373565b5b60006114cf86828701611453565b93505060206114e086828701611453565b92505060406114f18682870161139e565b9150509250925092565b60006020828403121561151157611510611373565b5b600061151f84828501611453565b91505092915050565b6115318161137d565b82525050565b600060208201905061154c6000830184611528565b92915050565b60008115159050919050565b61156781611552565b811461157257600080fd5b50565b6000813590506115848161155e565b92915050565b600080604083850312156115a1576115a0611373565b5b60006115af85828601611453565b92505060206115c085828601611575565b9150509250929050565b600080fd5b600080fd5b7f4e487b7100000000000000000000000000000000000000000000000000000000600052604160045260246000fd5b61160c826112fd565b810181811067ffffffffffffffff8211171561162b5761162a6115d4565b5b80604052505050565b600061163e611369565b905061164a8282611603565b919050565b600067ffffffffffffffff82111561166a576116696115d4565b5b611673826112fd565b9050602081019050919050565b82818337600083830152505050565b60006116a261169d8461164f565b611634565b9050828152602081018484840111156116be576116bd6115cf565b5b6116c9848285611680565b509392505050565b600082601f8301126116e6576116e56115ca565b5b81356116f684826020860161168f565b91505092915050565b6000806000806080858703121561171957611718611373565b5b600061172787828801611453565b945050602061173887828801611453565b93505060406117498782880161139e565b925050606085013567ffffffffffffffff81111561176a57611769611378565b5b611776878288016116d1565b91505092959194509250565b600067ffffffffffffffff82111561179d5761179c6115d4565b5b6117a6826112fd565b9050602081019050919050565b60006117c66117c184611782565b611634565b9050828152602081018484840111156117e2576117e16115cf565b5b6117ed848285611680565b509392505050565b600082601f83011261180a576118096115ca565b5b813561181a8482602086016117b3565b91505092915050565b6000806040838503121561183a57611839611373565b5b600061184885828601611453565b925050602083013567ffffffffffffffff81111561186957611868611378565b5b611875858286016117f5565b9150509250929050565b6000806040838503121561189657611895611373565b5b60006118a485828601611453565b92505060206118b585828601611453565b9150509250929050565b6118c881611552565b82525050565b60006020820190506118e360008301846118bf565b92915050565b60008060006060848603121561190257611901611373565b5b600061191086828701611453565b935050602084013567ffffffffffffffff81111561193157611930611378565b5b61193d868287016117f5565b925050604084013567ffffffffffffffff81111561195e5761195d611378565b5b61196a868287016116d1565b9150509250925092565b7f4e487b7100000000000000000000000000000000000000000000000000000000600052602260045260246000fd5b600060028204905060018216806119bb57607f821691505b602082108114156119cf576119ce611974565b5b50919050565b60006060820190506119ea6000830186611412565b6119f76020830185611412565b611a046040830184611528565b949350505050565b7f546f6b656e20646f6573206e6f74206578697374730000000000000000000000600082015250565b6000611a426015836112b9565b9150611a4d82611a0c565b602082019050919050565b60006020820190508181036000830152611a7181611a35565b9050919050565b7f496e76616c6964206f776e657220616464726573730000000000000000000000600082015250565b6000611aae6015836112b9565b9150611ab982611a78565b602082019050919050565b60006020820190508181036000830152611add81611aa1565b9050919050565b600081905092915050565b6000611afa826112ae565b611b048185611ae4565b9350611b148185602086016112ca565b80840191505092915050565b60008190508160005260206000209050919050565b60008154611b42816119a3565b611b4c8186611ae4565b94506001821660008114611b675760018114611b7857611bab565b60ff19831686528186019350611bab565b611b8185611b20565b60005b83811015611ba357815481890152600182019150602081019050611b84565b838801955050505b50505092915050565b6000611bc08285611aef565b9150611bcc8284611b35565b91508190509392505050565b6000604082019050611bed6000830185611412565b8181036020830152611bff818461130e565b90509392505050565b600081519050611c1781611387565b92915050565b600060208284031215611c3357611c32611373565b5b6000611c4184828501611c08565b91505092915050565b600081519050611c598161143c565b92915050565b600060208284031215611c7557611c74611373565b5b6000611c8384828501611c4a565b91505092915050565b7f4f776e657220646f6573206e6f74206f776e2074686520746f6b656e00000000600082015250565b6000611cc2601c836112b9565b9150611ccd82611c8c565b602082019050919050565b60006020820190508181036000830152611cf181611cb5565b9050919050565b7f5370656e64657220756e617574686f72697a6564000000000000000000000000600082015250565b6000611d2e6014836112b9565b9150611d3982611cf8565b602082019050919050565b60006020820190508181036000830152611d5d81611d21565b9050919050565b7f4e487b7100000000000000000000000000000000000000000000000000000000600052601160045260246000fd5b6000611d9e8261137d565b9150611da98361137d565b925082821015611dbc57611dbb611d64565b5b828203905092915050565b6000611dd28261137d565b9150611ddd8361137d565b9250827fffffffffffffffffffffffffffffffffffffffffffffffffffffffffffffffff03821115611e1257611e11611d64565b5b828201905092915050565b600081519050919050565b600082825260208201905092915050565b6000611e4482611e1d565b611e4e8185611e28565b9350611e5e8185602086016112ca565b611e67816112fd565b840191505092915050565b6000608082019050611e876000830187611412565b611e946020830186611412565b611ea16040830185611528565b8181036060830152611eb38184611e39565b905095945050505050565b60007fffffffff0000000000000000000000000000000000000000000000000000000082169050919050565b611ef381611ebe565b8114611efe57600080fd5b50565b600081519050611f1081611eea565b92915050565b600060208284031215611f2c57611f2b611373565b5b6000611f3a84828501611f01565b91505092915050565b6000611f4f8284611aef565b91508190509291505056fea26469706673582212203528534348f5d04db5eb5b4642299045be609f9d3e0204f44a4e3684c16b568264736f6c634300080c0033",
  "immutableReferences": {},
  "source": "// SPDX-License-Identifier: MIT\npragma solidity ^0.8.0;\n\nimport './IERC721.sol';\nimport './IERC721Metadata.sol';\nimport './IERC721TokenReceiver.sol';\n\ncontract ERC721 is IERC721, IERC721Metadata {\n\n    string private __name;\n    string private __symbol;\n    string private __baseURI;\n    uint256 private __counter = 0;\n\n    mapping(uint256 => string) private __tokens;\n    mapping(uint256 => address) private __owners;\n    mapping(address => uint256) private __balances;\n    mapping(uint256 => address) private __tokenApprovals;\n    mapping(address => mapping(address => bool)) private __operatorApprovals;\n    \n    constructor(string memory _name, string memory _symbol, string memory _baseURI) {\n        __name = _name;\n        __symbol = _symbol;\n        __baseURI = _baseURI;\n    }\n\n    event Mint(address indexed _to, uint256 indexed _tokenId, string indexed _uri);\n\n    modifier __isApprovedOrOwner(address _from, uint256 _tokenId) {\n        require(_tokenId != 0, \"Token does not exists\");\n        address owner = this.ownerOf(_tokenId);\n        require(_from == owner, \"Owner does not own the token\");\n        address spender = msg.sender;\n        require(spender == owner || __operatorApprovals[owner][spender] || this.getApproved(_tokenId) == spender, \"Spender unauthorized\");\n        _;\n    }\n\n    function balanceOf(address _owner) override virtual external view returns (uint256) {\n        require(_owner != address(0), \"Invalid owner address\");\n        return __balances[_owner];\n    }\n\n    function ownerOf(uint256 _tokenId) override virtual external view returns (address) {\n        address owner = __owners[_tokenId];\n        require(owner != address(0), \"Token does not exists\");\n        return owner;\n    }\n\n    function safeTransferFrom(address _from, address _to, uint256 _tokenId, bytes memory _data) override virtual external {\n        __transferFrom(_from, _to, _tokenId);\n        __checkContract(_from, _to, _tokenId, _data);\n    }\n\n    function safeTransferFrom(address _from, address _to, uint256 _tokenId) override virtual external {\n        this.safeTransferFrom(_from, _to, _tokenId);\n\n    }\n\n    function transferFrom(address _from, address _to, uint256 _tokenId) override virtual external {\n        __transferFrom(_from, _to, _tokenId);\n    }\n\n    function approve(address _approved, uint256 _tokenId) override virtual external {\n        __tokenApprovals[_tokenId] = _approved;\n        emit Approval(msg.sender, _approved, _tokenId);\n    }\n\n    function setApprovalForAll(address _operator, bool _approved) override virtual external {\n        __operatorApprovals[msg.sender][_operator] = _approved;\n        emit ApprovalForAll(msg.sender, _operator, _approved);\n    }\n\n    function getApproved(uint256 _tokenId) override virtual external view returns (address) {\n        return __tokenApprovals[_tokenId];\n    }\n\n    function isApprovedForAll(address _owner, address _operator) override virtual external view returns (bool) {\n       return __operatorApprovals[_owner][_operator];\n    }\n\n    function name() override virtual external view returns (string memory _name) {\n        _name = __name;\n    }\n    \n    function symbol() override virtual external view returns (string memory _symbol) {\n        _symbol = __symbol;\n    }\n    \n    function tokenURI(uint256 _tokenId) override virtual external view returns (string memory) {\n        require(__owners[_tokenId] != address(0), \"Token does not exists\");\n        string memory baseURI = __baseURI;\n        return bytes(baseURI).length > 0 ? string(abi.encodePacked(baseURI, __tokens[_tokenId])) : \"\";\n    }\n\n    function safeMint(address _to, string memory _uri, bytes memory _data) external returns(uint256 _tokenId) {\n        _tokenId = __mint(_to, _uri);\n        __checkContract(address(0), _to, _tokenId, _data);\n    }\n\n    function safeMint(address _to, string memory _uri) external returns(uint256 _tokenId) {\n        _tokenId = this.safeMint(_to, _uri);\n    }\n\n    function mint(address _to, string memory _uri) external returns(uint256 _tokenId) {\n        _tokenId = __mint(_to, _uri);\n    }\n\n    function __checkContract(address _from, address _to, uint256 _tokenId, bytes memory _data) private {\n        if(__isContract(_to)) {\n            try IERC721TokenReceiver(_to).onERC721Received(msg.sender, _from, _tokenId, _data) returns (bytes4 retval) {\n                require(retval == IERC721TokenReceiver.onERC721Received.selector);\n            } catch (bytes memory reason) {\n                assembly { revert(add(32, reason), mload(reason)) }\n            }\n        }\n    }\n\n    function __isContract(address addr) private view returns (bool) {\n        uint size;\n        assembly { size := extcodesize(addr) }\n        return size > 0;\n    }\n\n    function __transferFrom(address _from, address _to, uint256 _tokenId) private __isApprovedOrOwner(_from, _tokenId) {\n        __owners[_tokenId] = _to;\n        __balances[_from] -= 1;\n        __balances[_to] += 1;\n        emit Transfer(_from, _to, _tokenId);\n    }\n\n    function __mint(address _to, string memory _uri) private returns(uint256 _tokenId) {\n        __counter += 1;\n        _tokenId = __counter;\n        __tokens[_tokenId] = _uri;\n        __owners[_tokenId] = _to;\n        __balances[_to] += 1;\n        emit Mint(_to, _tokenId, _uri);\n    }\n}",
  "sourcePath": "/Users/geremiapompei/Library/CloudStorage/OneDrive-UniversityofPisa/UNIPI/1 anno 2021_2022/2 semestre/Peer2Peer and Blockchain/exam/P2P/finalterm/smart_contract/contracts/ERC721.sol",
  "compiler": {
    "name": "solc",
    "version": "0.8.12+commit.f00d7308.Emscripten.clang"
  },
  "schemaVersion": "3.4.7",
  "updatedAt": "2022-05-27T18:31:50.217Z",
  "networkType": "ethereum",
  "devdoc": {
    "kind": "dev",
    "methods": {
      "approve(address,uint256)": {
        "details": "The zero address indicates there is no approved address.  Throws unless `msg.sender` is the current NFT owner, or an authorized  operator of the current owner.",
        "params": {
          "_approved": "The new approved NFT controller",
          "_tokenId": "The NFT to approve"
        }
      },
      "balanceOf(address)": {
        "details": "NFTs assigned to the zero address are considered invalid, and this  function throws for queries about the zero address.",
        "params": {
          "_owner": "An address for whom to query the balance"
        },
        "returns": {
          "_0": "The number of NFTs owned by `_owner`, possibly zero"
        }
      },
      "getApproved(uint256)": {
        "details": "Throws if `_tokenId` is not a valid NFT.",
        "params": {
          "_tokenId": "The NFT to find the approved address for"
        },
        "returns": {
          "_0": "The approved address for this NFT, or the zero address if there is none"
        }
      },
      "isApprovedForAll(address,address)": {
        "params": {
          "_operator": "The address that acts on behalf of the owner",
          "_owner": "The address that owns the NFTs"
        },
        "returns": {
          "_0": "True if `_operator` is an approved operator for `_owner`, false otherwise"
        }
      },
      "ownerOf(uint256)": {
        "details": "NFTs assigned to zero address are considered invalid, and queries  about them do throw.",
        "params": {
          "_tokenId": "The identifier for an NFT"
        },
        "returns": {
          "_0": "The address of the owner of the NFT"
        }
      },
      "safeTransferFrom(address,address,uint256)": {
        "details": "This works identically to the other function with an extra data parameter,  except this function just sets data to \"\".",
        "params": {
          "_from": "The current owner of the NFT",
          "_to": "The new owner",
          "_tokenId": "The NFT to transfer"
        }
      },
      "setApprovalForAll(address,bool)": {
        "details": "Emits the ApprovalForAll event. The contract MUST allow  multiple operators per owner.",
        "params": {
          "_approved": "True if the operator is approved, false to revoke approval",
          "_operator": "Address to add to the set of authorized operators"
        }
      },
      "tokenURI(uint256)": {
        "details": "Throws if `_tokenId` is not a valid NFT. URIs are defined in RFC  3986. The URI may point to a JSON file that conforms to the \"ERC721  Metadata JSON Schema\"."
      },
      "transferFrom(address,address,uint256)": {
        "details": "Throws unless `msg.sender` is the current owner, an authorized  operator, or the approved address for this NFT. Throws if `_from` is  not the current owner. Throws if `_to` is the zero address. Throws if  `_tokenId` is not a valid NFT.",
        "params": {
          "_from": "The current owner of the NFT",
          "_to": "The new owner",
          "_tokenId": "The NFT to transfer"
        }
      }
    },
    "version": 1
  },
  "userdoc": {
    "kind": "user",
    "methods": {
      "approve(address,uint256)": {
        "notice": "Change or reaffirm the approved address for an NFT"
      },
      "balanceOf(address)": {
        "notice": "Count all NFTs assigned to an owner"
      },
      "getApproved(uint256)": {
        "notice": "Get the approved address for a single NFT"
      },
      "isApprovedForAll(address,address)": {
        "notice": "Query if an address is an authorized operator for another address"
      },
      "name()": {
        "notice": "A descriptive name for a collection of NFTs in this contract"
      },
      "ownerOf(uint256)": {
        "notice": "Find the owner of an NFT"
      },
      "safeTransferFrom(address,address,uint256)": {
        "notice": "Transfers the ownership of an NFT from one address to another address"
      },
      "setApprovalForAll(address,bool)": {
        "notice": "Enable or disable approval for a third party (\"operator\") to manage  all of `msg.sender`'s assets"
      },
      "symbol()": {
        "notice": "An abbreviated name for NFTs in this contract"
      },
      "tokenURI(uint256)": {
        "notice": "A distinct Uniform Resource Identifier (URI) for a given asset."
      },
      "transferFrom(address,address,uint256)": {
        "notice": "Transfer ownership of an NFT -- THE CALLER IS RESPONSIBLE  TO CONFIRM THAT `_to` IS CAPABLE OF RECEIVING NFTS OR ELSE  THEY MAY BE PERMANENTLY LOST"
      }
    },
    "version": 1
  }
}