{
  "contractName": "Lottery",
  "abi": [
    {
      "inputs": [
        {
          "internalType": "address",
          "name": "_erc721Address",
          "type": "address"
        },
        {
          "internalType": "uint8",
          "name": "_duration",
          "type": "uint8"
        },
        {
          "internalType": "uint16",
          "name": "_k",
          "type": "uint16"
        },
        {
          "internalType": "uint256",
          "name": "_ticketPrice",
          "type": "uint256"
        }
      ],
      "stateMutability": "nonpayable",
      "type": "constructor"
    },
    {
      "anonymous": false,
      "inputs": [
        {
          "indexed": true,
          "internalType": "address",
          "name": "_player",
          "type": "address"
        }
      ],
      "name": "Buy",
      "type": "event"
    },
    {
      "anonymous": false,
      "inputs": [],
      "name": "CloseLottery",
      "type": "event"
    },
    {
      "anonymous": false,
      "inputs": [
        {
          "indexed": true,
          "internalType": "address",
          "name": "_player",
          "type": "address"
        },
        {
          "indexed": true,
          "internalType": "enum Lottery.Classes",
          "name": "_class",
          "type": "uint8"
        },
        {
          "indexed": true,
          "internalType": "uint256",
          "name": "_tokenId",
          "type": "uint256"
        }
      ],
      "name": "GivePrize",
      "type": "event"
    },
    {
      "anonymous": false,
      "inputs": [
        {
          "indexed": true,
          "internalType": "uint256",
          "name": "_blockNumber",
          "type": "uint256"
        }
      ],
      "name": "StartNewRound",
      "type": "event"
    },
    {
      "inputs": [],
      "name": "POWERBALL_POSITION",
      "outputs": [
        {
          "internalType": "uint8",
          "name": "",
          "type": "uint8"
        }
      ],
      "stateMutability": "view",
      "type": "function"
    },
    {
      "inputs": [
        {
          "internalType": "uint256",
          "name": "",
          "type": "uint256"
        },
        {
          "internalType": "uint256",
          "name": "",
          "type": "uint256"
        }
      ],
      "name": "RANGES",
      "outputs": [
        {
          "internalType": "uint8",
          "name": "",
          "type": "uint8"
        }
      ],
      "stateMutability": "view",
      "type": "function"
    },
    {
      "inputs": [],
      "name": "TOTAL_NUMBERS",
      "outputs": [
        {
          "internalType": "uint8",
          "name": "",
          "type": "uint8"
        }
      ],
      "stateMutability": "view",
      "type": "function"
    },
    {
      "inputs": [],
      "name": "duration",
      "outputs": [
        {
          "internalType": "uint8",
          "name": "",
          "type": "uint8"
        }
      ],
      "stateMutability": "view",
      "type": "function"
    },
    {
      "inputs": [],
      "name": "erc721Address",
      "outputs": [
        {
          "internalType": "address",
          "name": "",
          "type": "address"
        }
      ],
      "stateMutability": "view",
      "type": "function"
    },
    {
      "inputs": [],
      "name": "lotteryOpen",
      "outputs": [
        {
          "internalType": "bool",
          "name": "",
          "type": "bool"
        }
      ],
      "stateMutability": "view",
      "type": "function"
    },
    {
      "inputs": [],
      "name": "ticketPrice",
      "outputs": [
        {
          "internalType": "uint256",
          "name": "",
          "type": "uint256"
        }
      ],
      "stateMutability": "view",
      "type": "function"
    },
    {
      "inputs": [],
      "name": "isRoundActive",
      "outputs": [
        {
          "internalType": "bool",
          "name": "",
          "type": "bool"
        }
      ],
      "stateMutability": "view",
      "type": "function"
    },
    {
      "inputs": [],
      "name": "startNewRound",
      "outputs": [],
      "stateMutability": "nonpayable",
      "type": "function"
    },
    {
      "inputs": [
        {
          "internalType": "uint8[6]",
          "name": "numbers",
          "type": "uint8[6]"
        }
      ],
      "name": "buy",
      "outputs": [],
      "stateMutability": "payable",
      "type": "function"
    },
    {
      "inputs": [],
      "name": "drawNumbers",
      "outputs": [],
      "stateMutability": "nonpayable",
      "type": "function"
    },
    {
      "inputs": [],
      "name": "givePrizes",
      "outputs": [],
      "stateMutability": "nonpayable",
      "type": "function"
    },
    {
      "inputs": [
        {
          "internalType": "string",
          "name": "_uri",
          "type": "string"
        }
      ],
      "name": "mint",
      "outputs": [],
      "stateMutability": "nonpayable",
      "type": "function"
    },
    {
      "inputs": [],
      "name": "closeLottery",
      "outputs": [],
      "stateMutability": "nonpayable",
      "type": "function"
    }
  ],
  "bytecode": "0x60806040526040518060c001604052806040518060400160405280600160ff168152602001604560ff1681525081526020016040518060400160405280600160ff168152602001604560ff1681525081526020016040518060400160405280600160ff168152602001604560ff1681525081526020016040518060400160405280600160ff168152602001604560ff1681525081526020016040518060400160405280600160ff168152602001604560ff1681525081526020016040518060400160405280600160ff168152602001601a60ff168152508152506000906006620000eb9291906200021a565b50348015620000f957600080fd5b50604051620026933803806200269383398181016040528101906200011f919062000480565b32600760006101000a81548173ffffffffffffffffffffffffffffffffffffffff021916908373ffffffffffffffffffffffffffffffffffffffff16021790555083600860006101000a81548173ffffffffffffffffffffffffffffffffffffffff021916908373ffffffffffffffffffffffffffffffffffffffff160217905550600182620001b0919062000521565b600760146101000a81548161ffff021916908361ffff1602179055506001600860146101000a81548160ff021916908315150217905550436006819055508060098190555082600a60006101000a81548160ff021916908360ff1602179055505050505062000560565b82600681019282156200025c579160200282015b828111156200025b578251829060026200024a9291906200026f565b50916020019190600101906200022e565b5b5090506200026b919062000310565b5090565b826002601f01602090048101928215620002fd5791602002820160005b83821115620002cc57835183826101000a81548160ff021916908360ff16021790555092602001926001016020816000010492830192600103026200028c565b8015620002fb5782816101000a81549060ff0219169055600101602081600001049283019260010302620002cc565b505b5090506200030c919062000338565b5090565b5b808211156200033457600081816200032a919062000357565b5060010162000311565b5090565b5b808211156200035357600081600090555060010162000339565b5090565b5060009055565b600080fd5b600073ffffffffffffffffffffffffffffffffffffffff82169050919050565b6000620003908262000363565b9050919050565b620003a28162000383565b8114620003ae57600080fd5b50565b600081519050620003c28162000397565b92915050565b600060ff82169050919050565b620003e081620003c8565b8114620003ec57600080fd5b50565b6000815190506200040081620003d5565b92915050565b600061ffff82169050919050565b6200041f8162000406565b81146200042b57600080fd5b50565b6000815190506200043f8162000414565b92915050565b6000819050919050565b6200045a8162000445565b81146200046657600080fd5b50565b6000815190506200047a816200044f565b92915050565b600080600080608085870312156200049d576200049c6200035e565b5b6000620004ad87828801620003b1565b9450506020620004c087828801620003ef565b9350506040620004d3878288016200042e565b9250506060620004e68782880162000469565b91505092959194509250565b7f4e487b7100000000000000000000000000000000000000000000000000000000600052601160045260246000fd5b60006200052e8262000406565b91506200053b8362000406565b92508261ffff03821115620005555762000554620004f2565b5b828201905092915050565b61212380620005706000396000f3fe6080604052600436106100dd5760003560e01c8063676c902f1161007f578063bd85948c11610059578063bd85948c14610266578063c60c4ae91461027d578063d85d3d27146102a8578063f828d14b146102d1576100dd565b8063676c902f146101fb5780636fd0981614610212578063751eee8d14610229576100dd565b80632352a864116100bb5780632352a8641461014f5780632a6c7fc31461017a57806345945a45146101a55780634d1a6699146101d0576100dd565b806306d5ee54146100e25780630fb5a6b4146100f95780631209b1f614610124575b600080fd5b3480156100ee57600080fd5b506100f76102ed565b005b34801561010557600080fd5b5061010e61080b565b60405161011b9190611503565b60405180910390f35b34801561013057600080fd5b5061013961081e565b6040516101469190611537565b60405180910390f35b34801561015b57600080fd5b50610164610824565b6040516101719190611593565b60405180910390f35b34801561018657600080fd5b5061018f61084a565b60405161019c9190611503565b60405180910390f35b3480156101b157600080fd5b506101ba61084f565b6040516101c791906115c9565b60405180910390f35b3480156101dc57600080fd5b506101e5610890565b6040516101f29190611503565b60405180910390f35b34801561020757600080fd5b50610210610895565b005b34801561021e57600080fd5b50610227610a37565b005b34801561023557600080fd5b50610250600480360381019061024b9190611624565b610c1e565b60405161025d9190611503565b60405180910390f35b34801561027257600080fd5b5061027b610c5a565b005b34801561028957600080fd5b50610292610ce2565b60405161029f91906115c9565b60405180910390f35b3480156102b457600080fd5b506102cf60048036038101906102ca91906117aa565b610cf5565b005b6102eb60048036038101906102e691906118d5565b610f45565b005b3373ffffffffffffffffffffffffffffffffffffffff16600760009054906101000a900473ffffffffffffffffffffffffffffffffffffffff1673ffffffffffffffffffffffffffffffffffffffff161461037d576040517f08c379a00000000000000000000000000000000000000000000000000000000081526004016103749061195f565b60405180910390fd5b61038561084f565b156103c5576040517f08c379a00000000000000000000000000000000000000000000000000000000081526004016103bc906119cb565b60405180910390fd5b60005b600c805490508160ff16101561079f576000610465600d8360ff16815481106103f4576103f36119eb565b5b9060005260206000200160068060200260405190810160405280929190826006801561045b576020028201916000905b82829054906101000a900460ff1660ff16815260200190600101906020826000010492830192600103820291508084116104245790505b505050505061110b565b90506000600c8360ff16815481106104805761047f6119eb565b5b9060005260206000200160009054906101000a900473ffffffffffffffffffffffffffffffffffffffff169050600060088111156104c1576104c0611a1a565b5b8260088111156104d4576104d3611a1a565b5b14610719576000600e8460ff16815481106104f2576104f16119eb565b5b906000526020600020906003020190506000816000015411610549576040517f08c379a000000000000000000000000000000000000000000000000000000000815260040161054090611a95565b60405180910390fd5b8060020160009054906101000a900460ff161561061757600860009054906101000a900473ffffffffffffffffffffffffffffffffffffffff1673ffffffffffffffffffffffffffffffffffffffff166342842e0e308484600001546040518463ffffffff1660e01b81526004016105c393929190611ab5565b600060405180830381600087803b1580156105dd57600080fd5b505af11580156105f1573d6000803e3d6000fd5b5050505060008160020160006101000a81548160ff0219169083151502179055506106bc565b600860009054906101000a900473ffffffffffffffffffffffffffffffffffffffff1673ffffffffffffffffffffffffffffffffffffffff1663d0def52183836001016040518363ffffffff1660e01b8152600401610677929190611be2565b6020604051808303816000875af1158015610696573d6000803e3d6000fd5b505050506040513d601f19601f820116820180604052508101906106ba9190611c27565b505b80600001548360088111156106d4576106d3611a1a565b5b8373ffffffffffffffffffffffffffffffffffffffff167f0bac54947f487010a2bca7341e9f36f91441f0bb9e399f4a83c29e637b8c30da60405160405180910390a4505b600c8360ff16815481106107305761072f6119eb565b5b9060005260206000200160006101000a81549073ffffffffffffffffffffffffffffffffffffffff0219169055600d8360ff1681548110610774576107736119eb565b5b90600052602060002001600061078a9190611363565b5050808061079790611c83565b9150506103c8565b50600760009054906101000a900473ffffffffffffffffffffffffffffffffffffffff1673ffffffffffffffffffffffffffffffffffffffff166108fc479081150290604051600060405180830381858888f19350505050158015610808573d6000803e3d6000fd5b50565b600a60009054906101000a900460ff1681565b60095481565b600860009054906101000a900473ffffffffffffffffffffffffffffffffffffffff1681565b600581565b6000600860149054906101000a900460ff16801561088b5750600a60009054906101000a900460ff1660ff16600654436108899190611cad565b105b905090565b600681565b3373ffffffffffffffffffffffffffffffffffffffff16600760009054906101000a900473ffffffffffffffffffffffffffffffffffffffff1673ffffffffffffffffffffffffffffffffffffffff1614610925576040517f08c379a000000000000000000000000000000000000000000000000000000000815260040161091c9061195f565b60405180910390fd5b600061092f611312565b905060005b600660ff168160ff161015610a335760008160ff166006811061095a576109596119eb565b5b0160006002811061096e5761096d6119eb565b5b602091828204019190069054906101000a900460ff1660008260ff166006811061099b5761099a6119eb565b5b016001600281106109af576109ae6119eb565b5b602091828204019190069054906101000a900460ff16836109d09190611d10565b6109da9190611d41565b600b8260ff16600681106109f1576109f06119eb565b5b602091828204019190066101000a81548160ff021916908360ff160217905550606482610a1e9190611d78565b91508080610a2b90611c83565b915050610934565b5050565b3373ffffffffffffffffffffffffffffffffffffffff16600760009054906101000a900473ffffffffffffffffffffffffffffffffffffffff1673ffffffffffffffffffffffffffffffffffffffff1614610ac7576040517f08c379a0000000000000000000000000000000000000000000000000000000008152600401610abe9061195f565b60405180910390fd5b600860149054906101000a900460ff16610b16576040517f08c379a0000000000000000000000000000000000000000000000000000000008152600401610b0d90611df5565b60405180910390fd5b610b1e61084f565b15610bd55760005b600c805490508160ff161015610bd357600c8160ff1681548110610b4d57610b4c6119eb565b5b9060005260206000200160009054906101000a900473ffffffffffffffffffffffffffffffffffffffff1673ffffffffffffffffffffffffffffffffffffffff166108fc6009549081150290604051600060405180830381858888f19350505050158015610bbf573d6000803e3d6000fd5b508080610bcb90611c83565b915050610b26565b505b6000600860146101000a81548160ff0219169083151502179055507f041434c50395b9a06c4309166ef0c0e2da56c3e21804dc8a8dc3dbc0dae5020360405160405180910390a1565b60008260068110610c2e57600080fd5b018160028110610c3d57600080fd5b60209182820401919006915091509054906101000a900460ff1681565b600860149054906101000a900460ff1615610caa576040517f08c379a0000000000000000000000000000000000000000000000000000000008152600401610ca190611e61565b60405180910390fd5b436006819055506006547fa79d7edf4dcc0bfe14d93ffd4f335a9f42fb01a818205f9b3526fe14c2217be760405160405180910390a2565b600860149054906101000a900460ff1681565b3373ffffffffffffffffffffffffffffffffffffffff16600760009054906101000a900473ffffffffffffffffffffffffffffffffffffffff1673ffffffffffffffffffffffffffffffffffffffff1614610d85576040517f08c379a0000000000000000000000000000000000000000000000000000000008152600401610d7c9061195f565b60405180910390fd5b6000600860009054906101000a900473ffffffffffffffffffffffffffffffffffffffff1673ffffffffffffffffffffffffffffffffffffffff1663d0def52130846040518363ffffffff1660e01b8152600401610de4929190611ef8565b6020604051808303816000875af1158015610e03573d6000803e3d6000fd5b505050506040513d601f19601f82011682018060405250810190610e279190611c27565b9050600880811115610e3c57610e3b611a1a565b5b60ff166001600e80549050610e519190611f28565b1115610eaf57600e805480610e6957610e68611f7e565b5b6001900381819060005260206000209060030201600080820160009055600182016000610e96919061136a565b6002820160006101000a81549060ff0219169055505090555b600e6040518060600160405280838152602001848152602001600115158152509080600181540180825580915050600190039060005260206000209060030201600090919091909150600082015181600001556020820151816001019080519060200190610f1e9291906113aa565b5060408201518160020160006101000a81548160ff02191690831515021790555050505050565b610f4d61084f565b610f8c576040517f08c379a0000000000000000000000000000000000000000000000000000000008152600401610f8390611ff9565b60405180910390fd5b600954341015610fd1576040517f08c379a0000000000000000000000000000000000000000000000000000000008152600401610fc890612065565b60405180910390fd5b6000339050600c819080600181540180825580915050600190039060005260206000200160009091909190916101000a81548173ffffffffffffffffffffffffffffffffffffffff021916908373ffffffffffffffffffffffffffffffffffffffff160217905550600d829080600181540180825580915050600190039060005260206000200160009091909190915090600661106f929190611430565b508073ffffffffffffffffffffffffffffffffffffffff166108fc600954346110989190611cad565b9081150290604051600060405180830381858888f193505050501580156110c3573d6000803e3d6000fd5b508073ffffffffffffffffffffffffffffffffffffffff167f5c6c890314aa0d49059c35b35ff86ffb43efe8f543dc3691558f39dfa4a8201160405160405180910390a25050565b6000806000905060005b600160066111239190612085565b60ff168160ff1610156111a757600b8160ff1660068110611147576111466119eb565b5b602091828204019190069054906101000a900460ff1660ff16848260ff1660068110611176576111756119eb565b5b602002015160ff161415611194576001826111919190611d41565b91505b808061119f90611c83565b915050611115565b506000600b600560ff16600681106111c2576111c16119eb565b5b602091828204019190069054906101000a900460ff1660ff1684600560ff16600681106111f2576111f16119eb565b5b602002015160ff1614905060058260ff1614801561120d5750805b1561121d5760019250505061130d565b60058260ff1614156112345760029250505061130d565b60048260ff161480156112445750805b156112545760039250505061130d565b60048260ff161480611272575060038260ff161480156112715750805b5b156112825760049250505061130d565b60038260ff1614806112a0575060028260ff1614801561129f5750805b5b156112b05760059250505061130d565b60028260ff1614806112ce575060018260ff161480156112cd5750805b5b156112de5760069250505061130d565b60018260ff1614156112f55760079250505061130d565b80156113065760089250505061130d565b6000925050505b919050565b6000600760149054906101000a900461ffff1661ffff16436113349190611cad565b4060405160200161134591906120d2565b6040516020818303038152906040528051906020012060001c905090565b5060009055565b50805461137690611b1b565b6000825580601f1061138857506113a7565b601f0160209004906000526020600020908101906113a691906114ca565b5b50565b8280546113b690611b1b565b90600052602060002090601f0160209004810192826113d8576000855561141f565b82601f106113f157805160ff191683800117855561141f565b8280016001018555821561141f579182015b8281111561141e578251825591602001919060010190611403565b5b50905061142c91906114ca565b5090565b826006601f016020900481019282156114b95791602002820160005b8382111561148a57835183826101000a81548160ff021916908360ff160217905550926020019260010160208160000104928301926001030261144c565b80156114b75782816101000a81549060ff021916905560010160208160000104928301926001030261148a565b505b5090506114c691906114ca565b5090565b5b808211156114e35760008160009055506001016114cb565b5090565b600060ff82169050919050565b6114fd816114e7565b82525050565b600060208201905061151860008301846114f4565b92915050565b6000819050919050565b6115318161151e565b82525050565b600060208201905061154c6000830184611528565b92915050565b600073ffffffffffffffffffffffffffffffffffffffff82169050919050565b600061157d82611552565b9050919050565b61158d81611572565b82525050565b60006020820190506115a86000830184611584565b92915050565b60008115159050919050565b6115c3816115ae565b82525050565b60006020820190506115de60008301846115ba565b92915050565b6000604051905090565b600080fd5b600080fd5b6116018161151e565b811461160c57600080fd5b50565b60008135905061161e816115f8565b92915050565b6000806040838503121561163b5761163a6115ee565b5b60006116498582860161160f565b925050602061165a8582860161160f565b9150509250929050565b600080fd5b600080fd5b6000601f19601f8301169050919050565b7f4e487b7100000000000000000000000000000000000000000000000000000000600052604160045260246000fd5b6116b78261166e565b810181811067ffffffffffffffff821117156116d6576116d561167f565b5b80604052505050565b60006116e96115e4565b90506116f582826116ae565b919050565b600067ffffffffffffffff8211156117155761171461167f565b5b61171e8261166e565b9050602081019050919050565b82818337600083830152505050565b600061174d611748846116fa565b6116df565b90508281526020810184848401111561176957611768611669565b5b61177484828561172b565b509392505050565b600082601f83011261179157611790611664565b5b81356117a184826020860161173a565b91505092915050565b6000602082840312156117c0576117bf6115ee565b5b600082013567ffffffffffffffff8111156117de576117dd6115f3565b5b6117ea8482850161177c565b91505092915050565b600067ffffffffffffffff82111561180e5761180d61167f565b5b602082029050919050565b600080fd5b611827816114e7565b811461183257600080fd5b50565b6000813590506118448161181e565b92915050565b600061185d611858846117f3565b6116df565b9050806020840283018581111561187757611876611819565b5b835b818110156118a0578061188c8882611835565b845260208401935050602081019050611879565b5050509392505050565b600082601f8301126118bf576118be611664565b5b60066118cc84828561184a565b91505092915050565b600060c082840312156118eb576118ea6115ee565b5b60006118f9848285016118aa565b91505092915050565b600082825260208201905092915050565b7f4f7065726174696f6e20756e617574686f72697a656400000000000000000000600082015250565b6000611949601683611902565b915061195482611913565b602082019050919050565b600060208201905081810360008301526119788161193c565b9050919050565b7f526f756e64206973206163746976650000000000000000000000000000000000600082015250565b60006119b5600f83611902565b91506119c08261197f565b602082019050919050565b600060208201905081810360008301526119e4816119a8565b9050919050565b7f4e487b7100000000000000000000000000000000000000000000000000000000600052603260045260246000fd5b7f4e487b7100000000000000000000000000000000000000000000000000000000600052602160045260246000fd5b7f4e6f7420656e6f756768207072697a6573000000000000000000000000000000600082015250565b6000611a7f601183611902565b9150611a8a82611a49565b602082019050919050565b60006020820190508181036000830152611aae81611a72565b9050919050565b6000606082019050611aca6000830186611584565b611ad76020830185611584565b611ae46040830184611528565b949350505050565b7f4e487b7100000000000000000000000000000000000000000000000000000000600052602260045260246000fd5b60006002820490506001821680611b3357607f821691505b60208210811415611b4757611b46611aec565b5b50919050565b60008190508160005260206000209050919050565b60008154611b6f81611b1b565b611b798186611902565b94506001821660008114611b945760018114611ba657611bd9565b60ff1983168652602086019350611bd9565b611baf85611b4d565b60005b83811015611bd157815481890152600182019150602081019050611bb2565b808801955050505b50505092915050565b6000604082019050611bf76000830185611584565b8181036020830152611c098184611b62565b90509392505050565b600081519050611c21816115f8565b92915050565b600060208284031215611c3d57611c3c6115ee565b5b6000611c4b84828501611c12565b91505092915050565b7f4e487b7100000000000000000000000000000000000000000000000000000000600052601160045260246000fd5b6000611c8e826114e7565b915060ff821415611ca257611ca1611c54565b5b600182019050919050565b6000611cb88261151e565b9150611cc38361151e565b925082821015611cd657611cd5611c54565b5b828203905092915050565b7f4e487b7100000000000000000000000000000000000000000000000000000000600052601260045260246000fd5b6000611d1b826114e7565b9150611d26836114e7565b925082611d3657611d35611ce1565b5b828206905092915050565b6000611d4c826114e7565b9150611d57836114e7565b92508260ff03821115611d6d57611d6c611c54565b5b828201905092915050565b6000611d838261151e565b9150611d8e8361151e565b925082611d9e57611d9d611ce1565b5b828204905092915050565b7f4c6f747465727920616c726561647920636c6f73656400000000000000000000600082015250565b6000611ddf601683611902565b9150611dea82611da9565b602082019050919050565b60006020820190508181036000830152611e0e81611dd2565b9050919050565b7f526f756e64206973206e6f742066696e69736865640000000000000000000000600082015250565b6000611e4b601583611902565b9150611e5682611e15565b602082019050919050565b60006020820190508181036000830152611e7a81611e3e565b9050919050565b600081519050919050565b60005b83811015611eaa578082015181840152602081019050611e8f565b83811115611eb9576000848401525b50505050565b6000611eca82611e81565b611ed48185611902565b9350611ee4818560208601611e8c565b611eed8161166e565b840191505092915050565b6000604082019050611f0d6000830185611584565b8181036020830152611f1f8184611ebf565b90509392505050565b6000611f338261151e565b9150611f3e8361151e565b9250827fffffffffffffffffffffffffffffffffffffffffffffffffffffffffffffffff03821115611f7357611f72611c54565b5b828201905092915050565b7f4e487b7100000000000000000000000000000000000000000000000000000000600052603160045260246000fd5b7f526f756e64206973206e6f742061637469766500000000000000000000000000600082015250565b6000611fe3601383611902565b9150611fee82611fad565b602082019050919050565b6000602082019050818103600083015261201281611fd6565b9050919050565b7f4e6f7420656e6f75676820657468657200000000000000000000000000000000600082015250565b600061204f601083611902565b915061205a82612019565b602082019050919050565b6000602082019050818103600083015261207e81612042565b9050919050565b6000612090826114e7565b915061209b836114e7565b9250828210156120ae576120ad611c54565b5b828203905092915050565b6000819050919050565b6120cc816120b9565b82525050565b60006020820190506120e760008301846120c3565b9291505056fea264697066735822122027a6f4568fd4b7ca8f77fb98f4e3013aa56c0ce64def97aa3b850e3e404bb98e64736f6c634300080c0033",
  "immutableReferences": {},
  "source": "// SPDX-License-Identifier: MIT\npragma solidity ^0.8.0;\n\nimport './ERC721.sol';\n\ncontract Lottery {\n\n    enum Classes {None, Class_1, Class_2, Class_3, Class_4, Class_5, Class_6, Class_7, Class_8}\n\n    struct Collectible {\n        uint256 tokenId;\n        string uri;\n        bool available;\n    }\n\n    uint8 public constant TOTAL_NUMBERS = 6;\n    uint8 public constant POWERBALL_POSITION = 5;\n    uint8[2][TOTAL_NUMBERS] public RANGES = [[1, 69], [1, 69], [1, 69], [1, 69], [1, 69], [1, 26]];\n\n    uint256 private __startRoundBlockNumber;\n    address private __operator;\n    uint16 private __k;\n    address public erc721Address;\n    bool public lotteryOpen;\n    uint256 public ticketPrice;\n    uint8 public duration;\n\n    uint8[TOTAL_NUMBERS] private __winningNumbers;\n    address[] private __players;\n    uint8[TOTAL_NUMBERS][] private __tickets;\n    Collectible[] private __collectibles;\n\n    constructor(address _erc721Address, uint8 _duration, uint16 _k, uint256 _ticketPrice) {\n        __operator = tx.origin;\n        erc721Address = _erc721Address;\n        __k = _k + 1 % 256;\n        lotteryOpen = true;\n        __startRoundBlockNumber = block.number;\n        ticketPrice = _ticketPrice;\n        duration = _duration;\n    }\n\n    event StartNewRound(uint256 indexed _blockNumber);\n    event Buy(address indexed _player);\n    event GivePrize(address indexed _player, Classes indexed _class, uint256 indexed _tokenId);\n    event CloseLottery();\n\n    modifier __isOperator() {\n        require(__operator == msg.sender, \"Operation unauthorized\");\n        _;\n    }\n\n    modifier __isRoundActive() {\n        require(isRoundActive(), \"Round is not active\");\n        _;\n    }\n\n    function isRoundActive() public view returns(bool) {\n        return lotteryOpen && block.number - __startRoundBlockNumber < duration;\n    }\n\n    function startNewRound() external {\n        require(!lotteryOpen, \"Round is not finished\");\n        __startRoundBlockNumber = block.number;\n        emit StartNewRound(__startRoundBlockNumber);\n    }\n\n    function buy(uint8[TOTAL_NUMBERS] memory numbers) external payable __isRoundActive() {\n        require(msg.value >= ticketPrice, \"Not enough ether\");\n        address player = msg.sender;\n        __players.push(player);\n        __tickets.push(numbers);\n        payable(player).transfer(msg.value - ticketPrice);\n        emit Buy(player);\n    }\n\n    function drawNumbers() external __isOperator() {\n        uint256 number = __random();\n        for(uint8 i = 0; i < TOTAL_NUMBERS; i++) {\n            __winningNumbers[i] = uint8(number) % RANGES[i][1] + RANGES[i][0];\n            number /= 100;\n        }\n    }\n\n    function givePrizes() external __isOperator() {\n        require(!isRoundActive(), \"Round is active\");\n        for(uint8 i = 0; i < __players.length; i++) {\n            Classes class = __matchClass(__tickets[i]);\n            address _player = __players[i];\n            if(class != Classes.None) {\n                Collectible storage _collectible = __collectibles[i];\n                require(_collectible.tokenId > 0, \"Not enough prizes\");\n                if(_collectible.available){\n                    ERC721(erc721Address).safeTransferFrom(address(this), _player, _collectible.tokenId);\n                    _collectible.available = false;\n                } else {\n                    ERC721(erc721Address).mint(_player, _collectible.uri);\n                }\n                emit GivePrize(_player, class, _collectible.tokenId);\n            }\n            delete __players[i];\n            delete __tickets[i];\n        }\n        payable(__operator).transfer(address(this).balance);\n    }\n\n    function mint(string memory _uri) external __isOperator() {\n        uint256 _tokenId = ERC721(erc721Address).mint(address(this), _uri);\n        if(__collectibles.length + 1 > uint8(Classes.Class_8))\n            __collectibles.pop();\n        __collectibles.push(Collectible(_tokenId, _uri, true));\n    }\n\n    function closeLottery() external __isOperator() {\n        require(lotteryOpen, \"Lottery already closed\");\n        if(isRoundActive()) \n            for(uint8 i = 0; i < __players.length; i++) \n                payable(__players[i]).transfer(ticketPrice);\n        lotteryOpen = false;\n        emit CloseLottery();\n    }\n\n    function __random() private view returns(uint256) {\n        return uint256(keccak256(abi.encode(blockhash(block.number - __k))));\n    }\n\n    function __matchClass(uint8[TOTAL_NUMBERS] memory _ticket) private view returns(Classes class) {\n        uint8 stdMatches = 0;\n        for(uint8 i = 0; i < TOTAL_NUMBERS - 1; i++)\n            if(_ticket[i] == __winningNumbers[i])\n                stdMatches += 1;\n        bool matchPowerball = _ticket[POWERBALL_POSITION] == __winningNumbers[POWERBALL_POSITION];\n        if(stdMatches == 5 && matchPowerball)\n            return Classes.Class_1;\n        if(stdMatches == 5)\n            return Classes.Class_2;\n        if(stdMatches == 4 && matchPowerball)\n            return Classes.Class_3;\n        if(stdMatches == 4 || stdMatches == 3 && matchPowerball)\n            return Classes.Class_4;\n        if(stdMatches == 3 || stdMatches == 2 && matchPowerball)\n            return Classes.Class_5;\n        if(stdMatches == 2 || stdMatches == 1 && matchPowerball)\n            return Classes.Class_6;\n        if(stdMatches == 1)\n            return Classes.Class_7;\n        if(matchPowerball)\n            return Classes.Class_8;\n        return Classes.None;\n    }\n\n}",
  "sourcePath": "/Users/geremiapompei/Library/CloudStorage/OneDrive-UniversityofPisa/UNIPI/1 anno 2021_2022/2 semestre/Peer2Peer and Blockchain/exam/P2P/finalterm/smart_contract/contracts/Lottery.sol",
  "compiler": {
    "name": "solc",
    "version": "0.8.12+commit.f00d7308.Emscripten.clang"
  },
  "schemaVersion": "3.4.7",
  "updatedAt": "2022-05-28T15:37:44.446Z",
  "devdoc": {
    "kind": "dev",
    "methods": {},
    "version": 1
  },
  "userdoc": {
    "kind": "user",
    "methods": {},
    "version": 1
  }
}