{
  "contractName": "Lottery",
  "abi": [
    {
      "inputs": [
        {
          "internalType": "address",
          "name": "_erc721Address",
          "type": "address"
        },
        {
          "internalType": "uint8",
          "name": "_duration",
          "type": "uint8"
        },
        {
          "internalType": "uint16",
          "name": "_k",
          "type": "uint16"
        },
        {
          "internalType": "uint256",
          "name": "_ticketPrice",
          "type": "uint256"
        }
      ],
      "stateMutability": "nonpayable",
      "type": "constructor"
    },
    {
      "anonymous": false,
      "inputs": [
        {
          "indexed": false,
          "internalType": "address",
          "name": "_player",
          "type": "address"
        }
      ],
      "name": "Buy",
      "type": "event"
    },
    {
      "anonymous": false,
      "inputs": [
        {
          "indexed": false,
          "internalType": "enum Lottery.State",
          "name": "_state",
          "type": "uint8"
        }
      ],
      "name": "ChangeState",
      "type": "event"
    },
    {
      "anonymous": false,
      "inputs": [],
      "name": "CloseLottery",
      "type": "event"
    },
    {
      "anonymous": false,
      "inputs": [
        {
          "indexed": false,
          "internalType": "uint8",
          "name": "_n1",
          "type": "uint8"
        },
        {
          "indexed": false,
          "internalType": "uint8",
          "name": "_n2",
          "type": "uint8"
        },
        {
          "indexed": false,
          "internalType": "uint8",
          "name": "_n3",
          "type": "uint8"
        },
        {
          "indexed": false,
          "internalType": "uint8",
          "name": "_n4",
          "type": "uint8"
        },
        {
          "indexed": false,
          "internalType": "uint8",
          "name": "_n5",
          "type": "uint8"
        },
        {
          "indexed": false,
          "internalType": "uint8",
          "name": "_powerball",
          "type": "uint8"
        }
      ],
      "name": "DrawNumbers",
      "type": "event"
    },
    {
      "anonymous": false,
      "inputs": [
        {
          "indexed": false,
          "internalType": "address",
          "name": "_player",
          "type": "address"
        },
        {
          "indexed": false,
          "internalType": "uint256",
          "name": "_value",
          "type": "uint256"
        }
      ],
      "name": "GiveBack",
      "type": "event"
    },
    {
      "anonymous": false,
      "inputs": [
        {
          "indexed": false,
          "internalType": "address",
          "name": "_player",
          "type": "address"
        },
        {
          "indexed": false,
          "internalType": "uint256",
          "name": "_round",
          "type": "uint256"
        },
        {
          "indexed": false,
          "internalType": "enum Lottery.Class",
          "name": "_class",
          "type": "uint8"
        },
        {
          "indexed": false,
          "internalType": "uint256",
          "name": "_tokenId",
          "type": "uint256"
        }
      ],
      "name": "GivePrize",
      "type": "event"
    },
    {
      "anonymous": false,
      "inputs": [
        {
          "indexed": false,
          "internalType": "address",
          "name": "_player",
          "type": "address"
        },
        {
          "indexed": false,
          "internalType": "uint256",
          "name": "_round",
          "type": "uint256"
        }
      ],
      "name": "NoGivePrize",
      "type": "event"
    },
    {
      "anonymous": false,
      "inputs": [
        {
          "indexed": false,
          "internalType": "uint256",
          "name": "_blockNumber",
          "type": "uint256"
        },
        {
          "indexed": false,
          "internalType": "uint256",
          "name": "_round",
          "type": "uint256"
        }
      ],
      "name": "StartNewRound",
      "type": "event"
    },
    {
      "inputs": [],
      "name": "POWERBALL_POSITION",
      "outputs": [
        {
          "internalType": "uint8",
          "name": "",
          "type": "uint8"
        }
      ],
      "stateMutability": "view",
      "type": "function",
      "constant": true
    },
    {
      "inputs": [
        {
          "internalType": "uint256",
          "name": "",
          "type": "uint256"
        },
        {
          "internalType": "uint256",
          "name": "",
          "type": "uint256"
        }
      ],
      "name": "RANGES",
      "outputs": [
        {
          "internalType": "uint8",
          "name": "",
          "type": "uint8"
        }
      ],
      "stateMutability": "view",
      "type": "function",
      "constant": true
    },
    {
      "inputs": [],
      "name": "TOTAL_NUMBERS",
      "outputs": [
        {
          "internalType": "uint8",
          "name": "",
          "type": "uint8"
        }
      ],
      "stateMutability": "view",
      "type": "function",
      "constant": true
    },
    {
      "inputs": [
        {
          "internalType": "enum Lottery.Class",
          "name": "",
          "type": "uint8"
        }
      ],
      "name": "collectibles",
      "outputs": [
        {
          "internalType": "uint256",
          "name": "tokenId",
          "type": "uint256"
        },
        {
          "internalType": "string",
          "name": "uri",
          "type": "string"
        },
        {
          "internalType": "bool",
          "name": "available",
          "type": "bool"
        }
      ],
      "stateMutability": "view",
      "type": "function",
      "constant": true
    },
    {
      "inputs": [],
      "name": "duration",
      "outputs": [
        {
          "internalType": "uint8",
          "name": "",
          "type": "uint8"
        }
      ],
      "stateMutability": "view",
      "type": "function",
      "constant": true
    },
    {
      "inputs": [],
      "name": "erc721Address",
      "outputs": [
        {
          "internalType": "address",
          "name": "",
          "type": "address"
        }
      ],
      "stateMutability": "view",
      "type": "function",
      "constant": true
    },
    {
      "inputs": [],
      "name": "round",
      "outputs": [
        {
          "internalType": "uint256",
          "name": "",
          "type": "uint256"
        }
      ],
      "stateMutability": "view",
      "type": "function",
      "constant": true
    },
    {
      "inputs": [],
      "name": "startRoundBlockNumber",
      "outputs": [
        {
          "internalType": "uint256",
          "name": "",
          "type": "uint256"
        }
      ],
      "stateMutability": "view",
      "type": "function",
      "constant": true
    },
    {
      "inputs": [],
      "name": "state",
      "outputs": [
        {
          "internalType": "enum Lottery.State",
          "name": "",
          "type": "uint8"
        }
      ],
      "stateMutability": "view",
      "type": "function",
      "constant": true
    },
    {
      "inputs": [],
      "name": "ticketPrice",
      "outputs": [
        {
          "internalType": "uint256",
          "name": "",
          "type": "uint256"
        }
      ],
      "stateMutability": "view",
      "type": "function",
      "constant": true
    },
    {
      "inputs": [],
      "name": "startNewRound",
      "outputs": [],
      "stateMutability": "nonpayable",
      "type": "function"
    },
    {
      "inputs": [
        {
          "internalType": "uint8[6]",
          "name": "numbers",
          "type": "uint8[6]"
        }
      ],
      "name": "buy",
      "outputs": [],
      "stateMutability": "payable",
      "type": "function",
      "payable": true
    },
    {
      "inputs": [],
      "name": "drawNumbers",
      "outputs": [],
      "stateMutability": "nonpayable",
      "type": "function"
    },
    {
      "inputs": [],
      "name": "givePrizes",
      "outputs": [],
      "stateMutability": "nonpayable",
      "type": "function"
    },
    {
      "inputs": [
        {
          "internalType": "string",
          "name": "_uri",
          "type": "string"
        },
        {
          "internalType": "enum Lottery.Class",
          "name": "_class",
          "type": "uint8"
        }
      ],
      "name": "mint",
      "outputs": [],
      "stateMutability": "nonpayable",
      "type": "function"
    },
    {
      "inputs": [],
      "name": "closeLottery",
      "outputs": [],
      "stateMutability": "nonpayable",
      "type": "function"
    }
  ],
  "bytecode": "0x60806040526040518060c001604052806040518060400160405280600160ff168152602001604560ff1681525081526020016040518060400160405280600160ff168152602001604560ff1681525081526020016040518060400160405280600160ff168152602001604560ff1681525081526020016040518060400160405280600160ff168152602001604560ff1681525081526020016040518060400160405280600160ff168152602001604560ff1681525081526020016040518060400160405280600160ff168152602001601a60ff168152508152506000906006620000eb92919062000238565b50348015620000f957600080fd5b506040516200303e3803806200303e83398181016040528101906200011f91906200049e565b32600660006101000a81548173ffffffffffffffffffffffffffffffffffffffff021916908373ffffffffffffffffffffffffffffffffffffffff16021790555083600760006101000a81548173ffffffffffffffffffffffffffffffffffffffff021916908373ffffffffffffffffffffffffffffffffffffffff16021790555081600660146101000a81548161ffff021916908361ffff1602179055504360088190555080600a8190555082600b60006101000a81548160ff021916908360ff1602179055506001600c819055507f602d52a424ba31c8904768b40efd585d7c78b61530cebd288dc8fc0be871a3c6600854600c546040516200022692919062000521565b60405180910390a1505050506200054e565b82600681019282156200027a579160200282015b828111156200027957825182906002620002689291906200028d565b50916020019190600101906200024c565b5b5090506200028991906200032e565b5090565b826002601f016020900481019282156200031b5791602002820160005b83821115620002ea57835183826101000a81548160ff021916908360ff1602179055509260200192600101602081600001049283019260010302620002aa565b8015620003195782816101000a81549060ff0219169055600101602081600001049283019260010302620002ea565b505b5090506200032a919062000356565b5090565b5b8082111562000352576000818162000348919062000375565b506001016200032f565b5090565b5b808211156200037157600081600090555060010162000357565b5090565b5060009055565b600080fd5b600073ffffffffffffffffffffffffffffffffffffffff82169050919050565b6000620003ae8262000381565b9050919050565b620003c081620003a1565b8114620003cc57600080fd5b50565b600081519050620003e081620003b5565b92915050565b600060ff82169050919050565b620003fe81620003e6565b81146200040a57600080fd5b50565b6000815190506200041e81620003f3565b92915050565b600061ffff82169050919050565b6200043d8162000424565b81146200044957600080fd5b50565b6000815190506200045d8162000432565b92915050565b6000819050919050565b620004788162000463565b81146200048457600080fd5b50565b60008151905062000498816200046d565b92915050565b60008060008060808587031215620004bb57620004ba6200037c565b5b6000620004cb87828801620003cf565b9450506020620004de878288016200040d565b9350506040620004f1878288016200044c565b9250506060620005048782880162000487565b91505092959194509250565b6200051b8162000463565b82525050565b600060408201905062000538600083018562000510565b62000547602083018462000510565b9392505050565b612ae0806200055e6000396000f3fe6080604052600436106100f35760003560e01c80636bcdba731161008a578063c19d93fb11610059578063c19d93fb146102be578063ef3c4e91146102e9578063f3006c8714610328578063f828d14b14610351576100f3565b80636bcdba73146102285780636fd0981614610253578063751eee8d1461026a578063bd85948c146102a7576100f3565b80632352a864116100c65780632352a864146101905780632a6c7fc3146101bb5780634d1a6699146101e6578063676c902f14610211576100f3565b806306d5ee54146100f85780630fb5a6b41461010f5780631209b1f61461013a578063146ca53114610165575b600080fd5b34801561010457600080fd5b5061010d61036d565b005b34801561011b57600080fd5b5061012461090f565b6040516101319190611c01565b60405180910390f35b34801561014657600080fd5b5061014f610922565b60405161015c9190611c35565b60405180910390f35b34801561017157600080fd5b5061017a610928565b6040516101879190611c35565b60405180910390f35b34801561019c57600080fd5b506101a561092e565b6040516101b29190611c91565b60405180910390f35b3480156101c757600080fd5b506101d0610954565b6040516101dd9190611c01565b60405180910390f35b3480156101f257600080fd5b506101fb610959565b6040516102089190611c01565b60405180910390f35b34801561021d57600080fd5b5061022661095e565b005b34801561023457600080fd5b5061023d610c98565b60405161024a9190611c35565b60405180910390f35b34801561025f57600080fd5b50610268610c9e565b005b34801561027657600080fd5b50610291600480360381019061028c9190611cec565b610fac565b60405161029e9190611c01565b60405180910390f35b3480156102b357600080fd5b506102bc610fe8565b005b3480156102ca57600080fd5b506102d361112f565b6040516102e09190611da3565b60405180910390f35b3480156102f557600080fd5b50610310600480360381019061030b9190611de3565b611142565b60405161031f93929190611ec4565b60405180910390f35b34801561033457600080fd5b5061034f600480360381019061034a9190612037565b611201565b005b61036b60048036038101906103669190612175565b6113d9565b005b3373ffffffffffffffffffffffffffffffffffffffff16600660009054906101000a900473ffffffffffffffffffffffffffffffffffffffff1673ffffffffffffffffffffffffffffffffffffffff16146103fd576040517f08c379a00000000000000000000000000000000000000000000000000000000081526004016103f4906121ee565b60405180910390fd5b6002600481111561041157610410611d2c565b5b600960009054906101000a900460ff16600481111561043357610432611d2c565b5b14610473576040517f08c379a000000000000000000000000000000000000000000000000000000000815260040161046a9061225a565b60405180910390fd5b60005b600e805490508160ff161015610816576000610513600f8360ff16815481106104a2576104a161227a565b5b90600052602060002001600680602002604051908101604052809291908260068015610509576020028201916000905b82829054906101000a900460ff1660ff16815260200190600101906020826000010492830192600103820291508084116104d25790505b5050505050611665565b90506000600e8360ff168154811061052e5761052d61227a565b5b9060005260206000200160009054906101000a900473ffffffffffffffffffffffffffffffffffffffff1690506000600881111561056f5761056e611d2c565b5b82600881111561058257610581611d2c565b5b146107c5576000601060008460088111156105a05761059f611d2c565b5b60088111156105b2576105b1611d2c565b5b815260200190815260200160002090506000816000015411610609576040517f08c379a0000000000000000000000000000000000000000000000000000000008152600401610600906122f5565b60405180910390fd5b8060020160009054906101000a900460ff16156106d757600760009054906101000a900473ffffffffffffffffffffffffffffffffffffffff1673ffffffffffffffffffffffffffffffffffffffff166342842e0e308484600001546040518463ffffffff1660e01b815260040161068393929190612315565b600060405180830381600087803b15801561069d57600080fd5b505af11580156106b1573d6000803e3d6000fd5b5050505060008160020160006101000a81548160ff02191690831515021790555061077c565b600760009054906101000a900473ffffffffffffffffffffffffffffffffffffffff1673ffffffffffffffffffffffffffffffffffffffff1663d0def52183836001016040518363ffffffff1660e01b8152600401610737929190612442565b6020604051808303816000875af1158015610756573d6000803e3d6000fd5b505050506040513d601f19601f8201168201806040525081019061077a9190612487565b505b7f61674068ece989a7d47bd6baf4bf0f0bcd9334feba27a669585ff9e261634b3082600c548584600001546040516107b794939291906124fc565b60405180910390a150610801565b7fcff1ec68402a76464736681ccbdc1072abfece20faf4b321c9510acd619ebb0981600c546040516107f8929190612541565b60405180910390a15b5050808061080e90612599565b915050610476565b50600e60006108259190611a3b565b600f60006108339190611a5c565b6003600960006101000a81548160ff0219169083600481111561085957610858611d2c565b5b0217905550600660009054906101000a900473ffffffffffffffffffffffffffffffffffffffff1673ffffffffffffffffffffffffffffffffffffffff166108fc479081150290604051600060405180830381858888f193505050501580156108c6573d6000803e3d6000fd5b507f402ee26d4c255fcb07b0b7b5b93b77377832260977c25be44f3c8feffd2df70e600960009054906101000a900460ff166040516109059190611da3565b60405180910390a1565b600b60009054906101000a900460ff1681565b600a5481565b600c5481565b600760009054906101000a900473ffffffffffffffffffffffffffffffffffffffff1681565b600581565b600681565b3373ffffffffffffffffffffffffffffffffffffffff16600660009054906101000a900473ffffffffffffffffffffffffffffffffffffffff1673ffffffffffffffffffffffffffffffffffffffff16146109ee576040517f08c379a00000000000000000000000000000000000000000000000000000000081526004016109e5906121ee565b60405180910390fd5b60016004811115610a0257610a01611d2c565b5b600960009054906101000a900460ff166004811115610a2457610a23611d2c565b5b14610a64576040517f08c379a0000000000000000000000000000000000000000000000000000000008152600401610a5b9061260f565b60405180910390fd5b6000610a6e61186c565b905060005b600660ff168160ff161015610ae6576001600d8260ff1660068110610a9b57610a9a61227a565b5b602091828204019190066101000a81548160ff021916908360ff160217905550610ac48161192a565b606482610ad1919061265e565b91508080610ade90612599565b915050610a73565b506002600960006101000a81548160ff02191690836004811115610b0d57610b0c611d2c565b5b02179055507f91b6dfbb93b3029a464861666207297538b99fee457b8ad2b2b34efcbc40b7a5600d600060068110610b4857610b4761227a565b5b602091828204019190069054906101000a900460ff16600d600160068110610b7357610b7261227a565b5b602091828204019190069054906101000a900460ff16600d600260068110610b9e57610b9d61227a565b5b602091828204019190069054906101000a900460ff16600d600360068110610bc957610bc861227a565b5b602091828204019190069054906101000a900460ff16600d600460068110610bf457610bf361227a565b5b602091828204019190069054906101000a900460ff16600d600560068110610c1f57610c1e61227a565b5b602091828204019190069054906101000a900460ff16604051610c479695949392919061268f565b60405180910390a17f402ee26d4c255fcb07b0b7b5b93b77377832260977c25be44f3c8feffd2df70e600960009054906101000a900460ff16604051610c8d9190611da3565b60405180910390a150565b60085481565b3373ffffffffffffffffffffffffffffffffffffffff16600660009054906101000a900473ffffffffffffffffffffffffffffffffffffffff1673ffffffffffffffffffffffffffffffffffffffff1614610d2e576040517f08c379a0000000000000000000000000000000000000000000000000000000008152600401610d25906121ee565b60405180910390fd5b600480811115610d4157610d40611d2c565b5b600960009054906101000a900460ff166004811115610d6357610d62611d2c565b5b1415610da4576040517f08c379a0000000000000000000000000000000000000000000000000000000008152600401610d9b9061273c565b60405180910390fd5b60036004811115610db857610db7611d2c565b5b600960009054906101000a900460ff166004811115610dda57610dd9611d2c565b5b14610f0d5760005b600e805490508160ff161015610f0b57600e8160ff1681548110610e0957610e0861227a565b5b9060005260206000200160009054906101000a900473ffffffffffffffffffffffffffffffffffffffff1673ffffffffffffffffffffffffffffffffffffffff166108fc600a549081150290604051600060405180830381858888f19350505050158015610e7b573d6000803e3d6000fd5b507ff0d779af07d479bd1d3f514a6304c7a2371987e96bdca83ba5133e2c39fa0507600e8260ff1681548110610eb457610eb361227a565b5b9060005260206000200160009054906101000a900473ffffffffffffffffffffffffffffffffffffffff16600a54604051610ef0929190612541565b60405180910390a18080610f0390612599565b915050610de2565b505b6004600960006101000a81548160ff02191690836004811115610f3357610f32611d2c565b5b02179055507f041434c50395b9a06c4309166ef0c0e2da56c3e21804dc8a8dc3dbc0dae5020360405160405180910390a17f402ee26d4c255fcb07b0b7b5b93b77377832260977c25be44f3c8feffd2df70e600960009054906101000a900460ff16604051610fa29190611da3565b60405180910390a1565b60008260068110610fbc57600080fd5b018160028110610fcb57600080fd5b60209182820401919006915091509054906101000a900460ff1681565b60036004811115610ffc57610ffb611d2c565b5b600960009054906101000a900460ff16600481111561101e5761101d611d2c565b5b1461105e576040517f08c379a0000000000000000000000000000000000000000000000000000000008152600401611055906127a8565b60405180910390fd5b436008819055506001600c600082825461107891906127c8565b925050819055506000600960006101000a81548160ff021916908360048111156110a5576110a4611d2c565b5b02179055507f602d52a424ba31c8904768b40efd585d7c78b61530cebd288dc8fc0be871a3c6600854600c546040516110df92919061281e565b60405180910390a17f402ee26d4c255fcb07b0b7b5b93b77377832260977c25be44f3c8feffd2df70e600960009054906101000a900460ff166040516111259190611da3565b60405180910390a1565b600960009054906101000a900460ff1681565b601060205280600052604060002060009150905080600001549080600101805461116b9061237b565b80601f01602080910402602001604051908101604052809291908181526020018280546111979061237b565b80156111e45780601f106111b9576101008083540402835291602001916111e4565b820191906000526020600020905b8154815290600101906020018083116111c757829003601f168201915b5050505050908060020160009054906101000a900460ff16905083565b3373ffffffffffffffffffffffffffffffffffffffff16600660009054906101000a900473ffffffffffffffffffffffffffffffffffffffff1673ffffffffffffffffffffffffffffffffffffffff1614611291576040517f08c379a0000000000000000000000000000000000000000000000000000000008152600401611288906121ee565b60405180910390fd5b6000600760009054906101000a900473ffffffffffffffffffffffffffffffffffffffff1673ffffffffffffffffffffffffffffffffffffffff1663d0def52130856040518363ffffffff1660e01b81526004016112f0929190612847565b6020604051808303816000875af115801561130f573d6000803e3d6000fd5b505050506040513d601f19601f820116820180604052508101906113339190612487565b90506040518060600160405280828152602001848152602001600115158152506010600084600881111561136a57611369611d2c565b5b600881111561137c5761137b611d2c565b5b81526020019081526020016000206000820151816000015560208201518160010190805190602001906113b0929190611a7d565b5060408201518160020160006101000a81548160ff021916908315150217905550905050505050565b600060048111156113ed576113ec611d2c565b5b600960009054906101000a900460ff16600481111561140f5761140e611d2c565b5b1461144f576040517f08c379a0000000000000000000000000000000000000000000000000000000008152600401611446906128c3565b60405180910390fd5b600a54341015611494576040517f08c379a000000000000000000000000000000000000000000000000000000000815260040161148b9061292f565b60405180910390fd5b6000600b60009054906101000a900460ff1660ff16600854436114b7919061294f565b10905080611535576001600960006101000a81548160ff021916908360048111156114e5576114e4611d2c565b5b02179055507f402ee26d4c255fcb07b0b7b5b93b77377832260977c25be44f3c8feffd2df70e600960009054906101000a900460ff166040516115289190611da3565b60405180910390a1611661565b6000339050600e819080600181540180825580915050600190039060005260206000200160009091909190916101000a81548173ffffffffffffffffffffffffffffffffffffffff021916908373ffffffffffffffffffffffffffffffffffffffff160217905550600f83908060018154018082558091505060019003906000526020600020016000909190919091509060066115d3929190611b03565b508073ffffffffffffffffffffffffffffffffffffffff166108fc600a54346115fc919061294f565b9081150290604051600060405180830381858888f19350505050158015611627573d6000803e3d6000fd5b507f5c6c890314aa0d49059c35b35ff86ffb43efe8f543dc3691558f39dfa4a82011816040516116579190611c91565b60405180910390a1505b5050565b6000806000905060005b6001600661167d9190612983565b60ff168160ff16101561170157600d8160ff16600681106116a1576116a061227a565b5b602091828204019190069054906101000a900460ff1660ff16848260ff16600681106116d0576116cf61227a565b5b602002015160ff1614156116ee576001826116eb91906129b7565b91505b80806116f990612599565b91505061166f565b506000600d600560ff166006811061171c5761171b61227a565b5b602091828204019190069054906101000a900460ff1660ff1684600560ff166006811061174c5761174b61227a565b5b602002015160ff1614905060058260ff161480156117675750805b1561177757600192505050611867565b60058260ff16141561178e57600292505050611867565b60048260ff1614801561179e5750805b156117ae57600392505050611867565b60048260ff1614806117cc575060038260ff161480156117cb5750805b5b156117dc57600492505050611867565b60038260ff1614806117fa575060028260ff161480156117f95750805b5b1561180a57600592505050611867565b60028260ff161480611828575060018260ff161480156118275750805b5b1561183857600692505050611867565b60018260ff16141561184f57600792505050611867565b801561186057600892505050611867565b6000925050505b919050565b600080600660149054906101000a900461ffff1661ffff16600b60009054906101000a900460ff1660ff166008546118a491906127c8565b6118ae91906127c8565b9050438111156118f3576040517f08c379a00000000000000000000000000000000000000000000000000000000081526004016118ea90612a3a565b60405180910390fd5b8040600c544260405160200161190b93929190612a73565b6040516020818303038152906040528051906020012060001c91505090565b600560ff168160ff1614611a38576000600190505b8015611a36576000905060005b8260ff168160ff161015611a3057600d8160ff16600681106119715761197061227a565b5b602091828204019190069054906101000a900460ff1660ff16600d8460ff16600681106119a1576119a061227a565b5b602091828204019190069054906101000a900460ff1660ff161415611a1d576001600d8460ff16600681106119d9576119d861227a565b5b602091828204019190068282829054906101000a900460ff166119fc91906129b7565b92506101000a81548160ff021916908360ff16021790555060019150611a30565b8080611a2890612599565b91505061194c565b5061193f565b505b50565b5080546000825590600052602060002090810190611a599190611b9d565b50565b5080546000825590600052602060002090810190611a7a9190611bba565b50565b828054611a899061237b565b90600052602060002090601f016020900481019282611aab5760008555611af2565b82601f10611ac457805160ff1916838001178555611af2565b82800160010185558215611af2579182015b82811115611af1578251825591602001919060010190611ad6565b5b509050611aff9190611b9d565b5090565b826006601f01602090048101928215611b8c5791602002820160005b83821115611b5d57835183826101000a81548160ff021916908360ff1602179055509260200192600101602081600001049283019260010302611b1f565b8015611b8a5782816101000a81549060ff0219169055600101602081600001049283019260010302611b5d565b505b509050611b999190611b9d565b5090565b5b80821115611bb6576000816000905550600101611b9e565b5090565b5b80821115611bda5760008181611bd19190611bde565b50600101611bbb565b5090565b5060009055565b600060ff82169050919050565b611bfb81611be5565b82525050565b6000602082019050611c166000830184611bf2565b92915050565b6000819050919050565b611c2f81611c1c565b82525050565b6000602082019050611c4a6000830184611c26565b92915050565b600073ffffffffffffffffffffffffffffffffffffffff82169050919050565b6000611c7b82611c50565b9050919050565b611c8b81611c70565b82525050565b6000602082019050611ca66000830184611c82565b92915050565b6000604051905090565b600080fd5b600080fd5b611cc981611c1c565b8114611cd457600080fd5b50565b600081359050611ce681611cc0565b92915050565b60008060408385031215611d0357611d02611cb6565b5b6000611d1185828601611cd7565b9250506020611d2285828601611cd7565b9150509250929050565b7f4e487b7100000000000000000000000000000000000000000000000000000000600052602160045260246000fd5b60058110611d6c57611d6b611d2c565b5b50565b6000819050611d7d82611d5b565b919050565b6000611d8d82611d6f565b9050919050565b611d9d81611d82565b82525050565b6000602082019050611db86000830184611d94565b92915050565b60098110611dcb57600080fd5b50565b600081359050611ddd81611dbe565b92915050565b600060208284031215611df957611df8611cb6565b5b6000611e0784828501611dce565b91505092915050565b600081519050919050565b600082825260208201905092915050565b60005b83811015611e4a578082015181840152602081019050611e2f565b83811115611e59576000848401525b50505050565b6000601f19601f8301169050919050565b6000611e7b82611e10565b611e858185611e1b565b9350611e95818560208601611e2c565b611e9e81611e5f565b840191505092915050565b60008115159050919050565b611ebe81611ea9565b82525050565b6000606082019050611ed96000830186611c26565b8181036020830152611eeb8185611e70565b9050611efa6040830184611eb5565b949350505050565b600080fd5b600080fd5b7f4e487b7100000000000000000000000000000000000000000000000000000000600052604160045260246000fd5b611f4482611e5f565b810181811067ffffffffffffffff82111715611f6357611f62611f0c565b5b80604052505050565b6000611f76611cac565b9050611f828282611f3b565b919050565b600067ffffffffffffffff821115611fa257611fa1611f0c565b5b611fab82611e5f565b9050602081019050919050565b82818337600083830152505050565b6000611fda611fd584611f87565b611f6c565b905082815260208101848484011115611ff657611ff5611f07565b5b612001848285611fb8565b509392505050565b600082601f83011261201e5761201d611f02565b5b813561202e848260208601611fc7565b91505092915050565b6000806040838503121561204e5761204d611cb6565b5b600083013567ffffffffffffffff81111561206c5761206b611cbb565b5b61207885828601612009565b925050602061208985828601611dce565b9150509250929050565b600067ffffffffffffffff8211156120ae576120ad611f0c565b5b602082029050919050565b600080fd5b6120c781611be5565b81146120d257600080fd5b50565b6000813590506120e4816120be565b92915050565b60006120fd6120f884612093565b611f6c565b90508060208402830185811115612117576121166120b9565b5b835b81811015612140578061212c88826120d5565b845260208401935050602081019050612119565b5050509392505050565b600082601f83011261215f5761215e611f02565b5b600661216c8482856120ea565b91505092915050565b600060c0828403121561218b5761218a611cb6565b5b60006121998482850161214a565b91505092915050565b7f4f7065726174696f6e20756e617574686f72697a656400000000000000000000600082015250565b60006121d8601683611e1b565b91506121e3826121a2565b602082019050919050565b60006020820190508181036000830152612207816121cb565b9050919050565b7f596f752063616e6e6f742067697665207072697a6573206e6f77000000000000600082015250565b6000612244601a83611e1b565b915061224f8261220e565b602082019050919050565b6000602082019050818103600083015261227381612237565b9050919050565b7f4e487b7100000000000000000000000000000000000000000000000000000000600052603260045260246000fd5b7f4e6f7420656e6f756768207072697a6573000000000000000000000000000000600082015250565b60006122df601183611e1b565b91506122ea826122a9565b602082019050919050565b6000602082019050818103600083015261230e816122d2565b9050919050565b600060608201905061232a6000830186611c82565b6123376020830185611c82565b6123446040830184611c26565b949350505050565b7f4e487b7100000000000000000000000000000000000000000000000000000000600052602260045260246000fd5b6000600282049050600182168061239357607f821691505b602082108114156123a7576123a661234c565b5b50919050565b60008190508160005260206000209050919050565b600081546123cf8161237b565b6123d98186611e1b565b945060018216600081146123f4576001811461240657612439565b60ff1983168652602086019350612439565b61240f856123ad565b60005b8381101561243157815481890152600182019150602081019050612412565b808801955050505b50505092915050565b60006040820190506124576000830185611c82565b818103602083015261246981846123c2565b90509392505050565b60008151905061248181611cc0565b92915050565b60006020828403121561249d5761249c611cb6565b5b60006124ab84828501612472565b91505092915050565b600981106124c5576124c4611d2c565b5b50565b60008190506124d6826124b4565b919050565b60006124e6826124c8565b9050919050565b6124f6816124db565b82525050565b60006080820190506125116000830187611c82565b61251e6020830186611c26565b61252b60408301856124ed565b6125386060830184611c26565b95945050505050565b60006040820190506125566000830185611c82565b6125636020830184611c26565b9392505050565b7f4e487b7100000000000000000000000000000000000000000000000000000000600052601160045260246000fd5b60006125a482611be5565b915060ff8214156125b8576125b761256a565b5b600182019050919050565b7f596f752063616e6e6f742064726177206e6f7700000000000000000000000000600082015250565b60006125f9601383611e1b565b9150612604826125c3565b602082019050919050565b60006020820190508181036000830152612628816125ec565b9050919050565b7f4e487b7100000000000000000000000000000000000000000000000000000000600052601260045260246000fd5b600061266982611c1c565b915061267483611c1c565b9250826126845761268361262f565b5b828204905092915050565b600060c0820190506126a46000830189611bf2565b6126b16020830188611bf2565b6126be6040830187611bf2565b6126cb6060830186611bf2565b6126d86080830185611bf2565b6126e560a0830184611bf2565b979650505050505050565b7f4c6f747465727920616c726561647920636c6f73656400000000000000000000600082015250565b6000612726601683611e1b565b9150612731826126f0565b602082019050919050565b6000602082019050818103600083015261275581612719565b9050919050565b7f526f756e64206973206e6f742066696e69736865640000000000000000000000600082015250565b6000612792601583611e1b565b915061279d8261275c565b602082019050919050565b600060208201905081810360008301526127c181612785565b9050919050565b60006127d382611c1c565b91506127de83611c1c565b9250827fffffffffffffffffffffffffffffffffffffffffffffffffffffffffffffffff038211156128135761281261256a565b5b828201905092915050565b60006040820190506128336000830185611c26565b6128406020830184611c26565b9392505050565b600060408201905061285c6000830185611c82565b818103602083015261286e8184611e70565b90509392505050565b7f596f752063616e6e6f7420627579206e6f770000000000000000000000000000600082015250565b60006128ad601283611e1b565b91506128b882612877565b602082019050919050565b600060208201905081810360008301526128dc816128a0565b9050919050565b7f4e6f7420656e6f75676820657468657200000000000000000000000000000000600082015250565b6000612919601083611e1b565b9150612924826128e3565b602082019050919050565b600060208201905081810360008301526129488161290c565b9050919050565b600061295a82611c1c565b915061296583611c1c565b9250828210156129785761297761256a565b5b828203905092915050565b600061298e82611be5565b915061299983611be5565b9250828210156129ac576129ab61256a565b5b828203905092915050565b60006129c282611be5565b91506129cd83611be5565b92508260ff038211156129e3576129e261256a565b5b828201905092915050565b7f426c6f636b206e6f74207965742067656e657261746564000000000000000000600082015250565b6000612a24601783611e1b565b9150612a2f826129ee565b602082019050919050565b60006020820190508181036000830152612a5381612a17565b9050919050565b6000819050919050565b612a6d81612a5a565b82525050565b6000606082019050612a886000830186612a64565b612a956020830185611c26565b612aa26040830184611c26565b94935050505056fea2646970667358221220963fe85b9a43c3c3eca4b2444e886ab43301c30a945f7a184c43b2892a5e4f6a64736f6c634300080c0033",
  "immutableReferences": {},
  "source": "// SPDX-License-Identifier: MIT\npragma solidity ^0.8.0;\n\nimport './ERC721.sol';\n\ncontract Lottery {\n\n    enum Class {None, Class_1, Class_2, Class_3, Class_4, Class_5, Class_6, Class_7, Class_8}\n    enum State {Buy, Draw, Prize, RoundFinished, Close}\n\n    struct Collectible {\n        uint256 tokenId;\n        string uri;\n        bool available;\n    }\n\n    uint8 public constant TOTAL_NUMBERS = 6;\n    uint8 public constant POWERBALL_POSITION = 5;\n    uint8[2][TOTAL_NUMBERS] public RANGES = [[1, 69], [1, 69], [1, 69], [1, 69], [1, 69], [1, 26]];\n\n    address private __operator;\n    uint16 private __k;\n    address public erc721Address;\n    uint256 public startRoundBlockNumber;\n    State public state;\n    uint256 public ticketPrice;\n    uint8 public duration;\n    uint256 public round;\n\n    uint8[TOTAL_NUMBERS] private __winningNumbers;\n    address[] private __players;\n    uint8[TOTAL_NUMBERS][] private __tickets;\n    mapping(Class => Collectible) public collectibles;\n\n    constructor(address _erc721Address, uint8 _duration, uint16 _k, uint256 _ticketPrice) {\n        __operator = tx.origin;\n        erc721Address = _erc721Address;\n        __k = _k;\n        startRoundBlockNumber = block.number;\n        ticketPrice = _ticketPrice;\n        duration = _duration;\n        round = 1;\n        emit StartNewRound(startRoundBlockNumber, round);\n    }\n\n    event StartNewRound(uint256 _blockNumber, uint256 _round);\n    event Buy(address _player);\n    event DrawNumbers(uint8 _n1, uint8 _n2, uint8 _n3, uint8 _n4, uint8 _n5, uint8 _powerball);\n    event NoGivePrize(address _player, uint256 _round);\n    event GivePrize(address _player, uint256 _round, Class _class, uint256 _tokenId);\n    event GiveBack(address _player, uint256 _value);\n    event CloseLottery();\n    event ChangeState(State _state);\n\n    modifier __isOperator() {\n        require(__operator == msg.sender, \"Operation unauthorized\");\n        _;\n    }\n\n    function startNewRound() public {\n        require(state == State.RoundFinished, \"Round is not finished\");\n        startRoundBlockNumber = block.number;\n        round += 1;\n        state = State.Buy;\n        emit StartNewRound(startRoundBlockNumber, round);\n        emit ChangeState(state);\n    }\n\n    function buy(uint8[TOTAL_NUMBERS] memory numbers) public payable {\n        require(state == State.Buy, \"You cannot buy now\");\n        require(msg.value >= ticketPrice, \"Not enough ether\");\n        bool canBuy = block.number - startRoundBlockNumber < duration;\n        if(!canBuy) {\n            state = State.Draw;\n            emit ChangeState(state);\n        } else {\n            address player = msg.sender;\n            __players.push(player);\n            __tickets.push(numbers);\n            payable(player).transfer(msg.value - ticketPrice);\n            emit Buy(player);\n        }\n    }\n\n    function drawNumbers() public __isOperator() {\n        require(state == State.Draw, \"You cannot draw now\");\n        uint256 number = __random();\n        for(uint8 i = 0; i < TOTAL_NUMBERS; i++) {\n            __winningNumbers[i] = 1;//uint8(number) % RANGES[i][1] + RANGES[i][0];\n            __checkEqualNumbers(i);\n            number /= 100;\n        }\n        state = State.Prize;\n        emit DrawNumbers(__winningNumbers[0], __winningNumbers[1], __winningNumbers[2], __winningNumbers[3], __winningNumbers[4], __winningNumbers[5]);\n        emit ChangeState(state);\n    }\n\n    function givePrizes() public __isOperator() {\n        require(state == State.Prize, \"You cannot give prizes now\");\n        for(uint8 i = 0; i < __players.length; i++) {\n            Class class = __matchClass(__tickets[i]);\n            address _player = __players[i];\n            if(class != Class.None) {\n                Collectible storage _collectible = collectibles[class];\n                require(_collectible.tokenId > 0, \"Not enough prizes\");\n                if(_collectible.available){\n                    ERC721(erc721Address).safeTransferFrom(address(this), _player, _collectible.tokenId);\n                    _collectible.available = false;\n                } else {\n                    ERC721(erc721Address).mint(_player, _collectible.uri);\n                }\n                emit GivePrize(_player, round, class, _collectible.tokenId);\n            } else {\n                emit NoGivePrize(_player, round);\n            }\n        }\n        delete __players;\n        delete __tickets;\n        state = State.RoundFinished;\n        payable(__operator).transfer(address(this).balance);\n        emit ChangeState(state);\n    }\n\n    function mint(string memory _uri, Class _class) public __isOperator() {\n        uint256 _tokenId = ERC721(erc721Address).mint(address(this), _uri);\n        collectibles[_class] = Collectible(_tokenId, _uri, true);\n    }\n\n    function closeLottery() public __isOperator() {\n        require(state != State.Close, \"Lottery already closed\");\n        if(state != State.RoundFinished) {\n            for(uint8 i = 0; i < __players.length; i++) {\n                payable(__players[i]).transfer(ticketPrice);\n                emit GiveBack(__players[i], ticketPrice);\n            }\n        }\n        state = State.Close;\n        emit CloseLottery();\n        emit ChangeState(state);\n    }\n\n    function __random() private view returns(uint256) {\n        uint256 blockNumber = startRoundBlockNumber + duration + __k;\n        require(blockNumber <= block.number, \"Block not yet generated\");\n        return uint256(keccak256(abi.encode(blockhash(blockNumber), round, block.timestamp)));\n    }\n\n    function __checkEqualNumbers(uint8 i) private {\n        if(i != POWERBALL_POSITION) {\n            bool toCheck = true;\n            while(toCheck) {\n                toCheck = false;\n                for(uint8 j = 0; j < i; j++) {\n                    if(__winningNumbers[i] == __winningNumbers[j]) {\n                        __winningNumbers[i] += 1;\n                        toCheck = true;\n                        break;\n                    }\n                }\n            }\n        }\n    }\n\n    function __matchClass(uint8[TOTAL_NUMBERS] memory _ticket) private view returns(Class class) {\n        uint8 stdMatches = 0;\n        for(uint8 i = 0; i < TOTAL_NUMBERS - 1; i++)\n            if(_ticket[i] == __winningNumbers[i])\n                stdMatches += 1;\n        bool matchPowerball = _ticket[POWERBALL_POSITION] == __winningNumbers[POWERBALL_POSITION];\n        if(stdMatches == 5 && matchPowerball)\n            return Class.Class_1;\n        if(stdMatches == 5)\n            return Class.Class_2;\n        if(stdMatches == 4 && matchPowerball)\n            return Class.Class_3;\n        if(stdMatches == 4 || stdMatches == 3 && matchPowerball)\n            return Class.Class_4;\n        if(stdMatches == 3 || stdMatches == 2 && matchPowerball)\n            return Class.Class_5;\n        if(stdMatches == 2 || stdMatches == 1 && matchPowerball)\n            return Class.Class_6;\n        if(stdMatches == 1)\n            return Class.Class_7;\n        if(matchPowerball)\n            return Class.Class_8;\n        return Class.None;\n    }\n\n}",
  "sourcePath": "/Users/geremiapompei/Library/CloudStorage/OneDrive-UniversityofPisa/UNIPI/1 anno 2021_2022/2 semestre/Peer2Peer and Blockchain/exam/P2P/finalterm/smart_contract/contracts/Lottery.sol",
  "compiler": {
    "name": "solc",
    "version": "0.8.12+commit.f00d7308.Emscripten.clang"
  },
  "schemaVersion": "3.4.7",
  "updatedAt": "2022-05-30T23:58:06.170Z",
  "networkType": "ethereum",
  "devdoc": {
    "kind": "dev",
    "methods": {},
    "version": 1
  },
  "userdoc": {
    "kind": "user",
    "methods": {},
    "version": 1
  }
}