{
  "contractName": "Lottery",
  "abi": [
    {
      "inputs": [
        {
          "internalType": "address",
          "name": "_erc721Address",
          "type": "address"
        },
        {
          "internalType": "uint8",
          "name": "_duration",
          "type": "uint8"
        },
        {
          "internalType": "uint16",
          "name": "_k",
          "type": "uint16"
        },
        {
          "internalType": "uint256",
          "name": "_ticketPrice",
          "type": "uint256"
        }
      ],
      "stateMutability": "nonpayable",
      "type": "constructor"
    },
    {
      "anonymous": false,
      "inputs": [
        {
          "indexed": true,
          "internalType": "address",
          "name": "_player",
          "type": "address"
        }
      ],
      "name": "Buy",
      "type": "event"
    },
    {
      "anonymous": false,
      "inputs": [
        {
          "indexed": true,
          "internalType": "enum Lottery.State",
          "name": "_state",
          "type": "uint8"
        }
      ],
      "name": "ChangeState",
      "type": "event"
    },
    {
      "anonymous": false,
      "inputs": [],
      "name": "CloseLottery",
      "type": "event"
    },
    {
      "anonymous": false,
      "inputs": [],
      "name": "DrawNumbers",
      "type": "event"
    },
    {
      "anonymous": false,
      "inputs": [
        {
          "indexed": true,
          "internalType": "address",
          "name": "_player",
          "type": "address"
        },
        {
          "indexed": false,
          "internalType": "uint256",
          "name": "_round",
          "type": "uint256"
        },
        {
          "indexed": true,
          "internalType": "enum Lottery.Class",
          "name": "_class",
          "type": "uint8"
        },
        {
          "indexed": true,
          "internalType": "uint256",
          "name": "_tokenId",
          "type": "uint256"
        }
      ],
      "name": "GivePrize",
      "type": "event"
    },
    {
      "anonymous": false,
      "inputs": [
        {
          "indexed": true,
          "internalType": "address",
          "name": "_player",
          "type": "address"
        },
        {
          "indexed": false,
          "internalType": "uint256",
          "name": "_round",
          "type": "uint256"
        }
      ],
      "name": "NoGivePrize",
      "type": "event"
    },
    {
      "anonymous": false,
      "inputs": [
        {
          "indexed": true,
          "internalType": "uint256",
          "name": "_blockNumber",
          "type": "uint256"
        },
        {
          "indexed": false,
          "internalType": "uint256",
          "name": "_round",
          "type": "uint256"
        }
      ],
      "name": "StartNewRound",
      "type": "event"
    },
    {
      "inputs": [],
      "name": "POWERBALL_POSITION",
      "outputs": [
        {
          "internalType": "uint8",
          "name": "",
          "type": "uint8"
        }
      ],
      "stateMutability": "view",
      "type": "function"
    },
    {
      "inputs": [
        {
          "internalType": "uint256",
          "name": "",
          "type": "uint256"
        },
        {
          "internalType": "uint256",
          "name": "",
          "type": "uint256"
        }
      ],
      "name": "RANGES",
      "outputs": [
        {
          "internalType": "uint8",
          "name": "",
          "type": "uint8"
        }
      ],
      "stateMutability": "view",
      "type": "function"
    },
    {
      "inputs": [],
      "name": "TOTAL_NUMBERS",
      "outputs": [
        {
          "internalType": "uint8",
          "name": "",
          "type": "uint8"
        }
      ],
      "stateMutability": "view",
      "type": "function"
    },
    {
      "inputs": [],
      "name": "duration",
      "outputs": [
        {
          "internalType": "uint8",
          "name": "",
          "type": "uint8"
        }
      ],
      "stateMutability": "view",
      "type": "function"
    },
    {
      "inputs": [],
      "name": "erc721Address",
      "outputs": [
        {
          "internalType": "address",
          "name": "",
          "type": "address"
        }
      ],
      "stateMutability": "view",
      "type": "function"
    },
    {
      "inputs": [],
      "name": "round",
      "outputs": [
        {
          "internalType": "uint256",
          "name": "",
          "type": "uint256"
        }
      ],
      "stateMutability": "view",
      "type": "function"
    },
    {
      "inputs": [],
      "name": "startRoundBlockNumber",
      "outputs": [
        {
          "internalType": "uint256",
          "name": "",
          "type": "uint256"
        }
      ],
      "stateMutability": "view",
      "type": "function"
    },
    {
      "inputs": [],
      "name": "state",
      "outputs": [
        {
          "internalType": "enum Lottery.State",
          "name": "",
          "type": "uint8"
        }
      ],
      "stateMutability": "view",
      "type": "function"
    },
    {
      "inputs": [],
      "name": "ticketPrice",
      "outputs": [
        {
          "internalType": "uint256",
          "name": "",
          "type": "uint256"
        }
      ],
      "stateMutability": "view",
      "type": "function"
    },
    {
      "inputs": [],
      "name": "startNewRound",
      "outputs": [],
      "stateMutability": "nonpayable",
      "type": "function"
    },
    {
      "inputs": [
        {
          "internalType": "uint8[6]",
          "name": "numbers",
          "type": "uint8[6]"
        }
      ],
      "name": "buy",
      "outputs": [],
      "stateMutability": "payable",
      "type": "function"
    },
    {
      "inputs": [],
      "name": "drawNumbers",
      "outputs": [],
      "stateMutability": "nonpayable",
      "type": "function"
    },
    {
      "inputs": [],
      "name": "givePrizes",
      "outputs": [],
      "stateMutability": "nonpayable",
      "type": "function"
    },
    {
      "inputs": [
        {
          "internalType": "string",
          "name": "_uri",
          "type": "string"
        }
      ],
      "name": "mint",
      "outputs": [],
      "stateMutability": "nonpayable",
      "type": "function"
    },
    {
      "inputs": [],
      "name": "closeLottery",
      "outputs": [],
      "stateMutability": "nonpayable",
      "type": "function"
    }
  ],
  "bytecode": "0x60806040526040518060c001604052806040518060400160405280600160ff168152602001604560ff1681525081526020016040518060400160405280600160ff168152602001604560ff1681525081526020016040518060400160405280600160ff168152602001604560ff1681525081526020016040518060400160405280600160ff168152602001604560ff1681525081526020016040518060400160405280600160ff168152602001604560ff1681525081526020016040518060400160405280600160ff168152602001601a60ff168152508152506000906006620000eb92919062000237565b50348015620000f957600080fd5b5060405162002c6538038062002c6583398181016040528101906200011f91906200049d565b32600660006101000a81548173ffffffffffffffffffffffffffffffffffffffff021916908373ffffffffffffffffffffffffffffffffffffffff16021790555083600760006101000a81548173ffffffffffffffffffffffffffffffffffffffff021916908373ffffffffffffffffffffffffffffffffffffffff16021790555081600660146101000a81548161ffff021916908361ffff1602179055504360088190555080600a8190555082600b60006101000a81548160ff021916908360ff1602179055506001600c819055506008547f602d52a424ba31c8904768b40efd585d7c78b61530cebd288dc8fc0be871a3c6600c5460405162000225919062000520565b60405180910390a2505050506200053d565b826006810192821562000279579160200282015b828111156200027857825182906002620002679291906200028c565b50916020019190600101906200024b565b5b5090506200028891906200032d565b5090565b826002601f016020900481019282156200031a5791602002820160005b83821115620002e957835183826101000a81548160ff021916908360ff1602179055509260200192600101602081600001049283019260010302620002a9565b8015620003185782816101000a81549060ff0219169055600101602081600001049283019260010302620002e9565b505b50905062000329919062000355565b5090565b5b8082111562000351576000818162000347919062000374565b506001016200032e565b5090565b5b808211156200037057600081600090555060010162000356565b5090565b5060009055565b600080fd5b600073ffffffffffffffffffffffffffffffffffffffff82169050919050565b6000620003ad8262000380565b9050919050565b620003bf81620003a0565b8114620003cb57600080fd5b50565b600081519050620003df81620003b4565b92915050565b600060ff82169050919050565b620003fd81620003e5565b81146200040957600080fd5b50565b6000815190506200041d81620003f2565b92915050565b600061ffff82169050919050565b6200043c8162000423565b81146200044857600080fd5b50565b6000815190506200045c8162000431565b92915050565b6000819050919050565b620004778162000462565b81146200048357600080fd5b50565b60008151905062000497816200046c565b92915050565b60008060008060808587031215620004ba57620004b96200037b565b5b6000620004ca87828801620003ce565b9450506020620004dd878288016200040c565b9350506040620004f0878288016200044b565b9250506060620005038782880162000486565b91505092959194509250565b6200051a8162000462565b82525050565b60006020820190506200053760008301846200050f565b92915050565b612718806200054d6000396000f3fe6080604052600436106100e85760003560e01c8063676c902f1161008a578063bd85948c11610059578063bd85948c1461029c578063c19d93fb146102b3578063d85d3d27146102de578063f828d14b14610307576100e8565b8063676c902f146102065780636bcdba731461021d5780636fd0981614610248578063751eee8d1461025f576100e8565b8063146ca531116100c6578063146ca5311461015a5780632352a864146101855780632a6c7fc3146101b05780634d1a6699146101db576100e8565b806306d5ee54146100ed5780630fb5a6b4146101045780631209b1f61461012f575b600080fd5b3480156100f957600080fd5b50610102610323565b005b34801561011057600080fd5b506101196108f5565b60405161012691906119f3565b60405180910390f35b34801561013b57600080fd5b50610144610908565b6040516101519190611a27565b60405180910390f35b34801561016657600080fd5b5061016f61090e565b60405161017c9190611a27565b60405180910390f35b34801561019157600080fd5b5061019a610914565b6040516101a79190611a83565b60405180910390f35b3480156101bc57600080fd5b506101c561093a565b6040516101d291906119f3565b60405180910390f35b3480156101e757600080fd5b506101f061093f565b6040516101fd91906119f3565b60405180910390f35b34801561021257600080fd5b5061021b610944565b005b34801561022957600080fd5b50610232610c01565b60405161023f9190611a27565b60405180910390f35b34801561025457600080fd5b5061025d610c07565b005b34801561026b57600080fd5b5061028660048036038101906102819190611ade565b610ea1565b60405161029391906119f3565b60405180910390f35b3480156102a857600080fd5b506102b1610edd565b005b3480156102bf57600080fd5b506102c861102b565b6040516102d59190611b95565b60405180910390f35b3480156102ea57600080fd5b5061030560048036038101906103009190611cf6565b61103e565b005b610321600480360381019061031c9190611e21565b61128e565b005b3373ffffffffffffffffffffffffffffffffffffffff16600660009054906101000a900473ffffffffffffffffffffffffffffffffffffffff1673ffffffffffffffffffffffffffffffffffffffff16146103b3576040517f08c379a00000000000000000000000000000000000000000000000000000000081526004016103aa90611eab565b60405180910390fd5b600260048111156103c7576103c6611b1e565b5b600960009054906101000a900460ff1660048111156103e9576103e8611b1e565b5b14610429576040517f08c379a000000000000000000000000000000000000000000000000000000000815260040161042090611f17565b60405180910390fd5b60005b600e805490508160ff1610156107f45760006104c9600f8360ff168154811061045857610457611f37565b5b906000526020600020016006806020026040519081016040528092919082600680156104bf576020028201916000905b82829054906101000a900460ff1660ff16815260200190600101906020826000010492830192600103820291508084116104885790505b505050505061152e565b90506000600e8360ff16815481106104e4576104e3611f37565b5b9060005260206000200160009054906101000a900473ffffffffffffffffffffffffffffffffffffffff1690506000600881111561052557610524611b1e565b5b82600881111561053857610537611b1e565b5b1461078e57600060108460ff168154811061055657610555611f37565b5b9060005260206000209060030201905060008160000154116105ad576040517f08c379a00000000000000000000000000000000000000000000000000000000081526004016105a490611fb2565b60405180910390fd5b8060020160009054906101000a900460ff161561067b57600760009054906101000a900473ffffffffffffffffffffffffffffffffffffffff1673ffffffffffffffffffffffffffffffffffffffff166342842e0e308484600001546040518463ffffffff1660e01b815260040161062793929190611fd2565b600060405180830381600087803b15801561064157600080fd5b505af1158015610655573d6000803e3d6000fd5b5050505060008160020160006101000a81548160ff021916908315150217905550610720565b600760009054906101000a900473ffffffffffffffffffffffffffffffffffffffff1673ffffffffffffffffffffffffffffffffffffffff1663d0def52183836001016040518363ffffffff1660e01b81526004016106db9291906120ff565b6020604051808303816000875af11580156106fa573d6000803e3d6000fd5b505050506040513d601f19601f8201168201806040525081019061071e9190612144565b505b806000015483600881111561073857610737611b1e565b5b8373ffffffffffffffffffffffffffffffffffffffff167f61674068ece989a7d47bd6baf4bf0f0bcd9334feba27a669585ff9e261634b30600c546040516107809190611a27565b60405180910390a4506107df565b8073ffffffffffffffffffffffffffffffffffffffff167fcff1ec68402a76464736681ccbdc1072abfece20faf4b321c9510acd619ebb09600c546040516107d69190611a27565b60405180910390a25b505080806107ec906121a0565b91505061042c565b50600e600061080391906117ed565b600f6000610811919061180e565b6003600960006101000a81548160ff0219169083600481111561083757610836611b1e565b5b0217905550600660009054906101000a900473ffffffffffffffffffffffffffffffffffffffff1673ffffffffffffffffffffffffffffffffffffffff166108fc479081150290604051600060405180830381858888f193505050501580156108a4573d6000803e3d6000fd5b50600960009054906101000a900460ff1660048111156108c7576108c6611b1e565b5b7f402ee26d4c255fcb07b0b7b5b93b77377832260977c25be44f3c8feffd2df70e60405160405180910390a2565b600b60009054906101000a900460ff1681565b600a5481565b600c5481565b600760009054906101000a900473ffffffffffffffffffffffffffffffffffffffff1681565b600581565b600681565b3373ffffffffffffffffffffffffffffffffffffffff16600660009054906101000a900473ffffffffffffffffffffffffffffffffffffffff1673ffffffffffffffffffffffffffffffffffffffff16146109d4576040517f08c379a00000000000000000000000000000000000000000000000000000000081526004016109cb90611eab565b60405180910390fd5b600160048111156109e8576109e7611b1e565b5b600960009054906101000a900460ff166004811115610a0a57610a09611b1e565b5b14610a4a576040517f08c379a0000000000000000000000000000000000000000000000000000000008152600401610a4190612216565b60405180910390fd5b6000610a54611735565b905060005b600660ff168160ff161015610b585760008160ff1660068110610a7f57610a7e611f37565b5b01600060028110610a9357610a92611f37565b5b602091828204019190069054906101000a900460ff1660008260ff1660068110610ac057610abf611f37565b5b01600160028110610ad457610ad3611f37565b5b602091828204019190069054906101000a900460ff1683610af59190612265565b610aff9190612296565b600d8260ff1660068110610b1657610b15611f37565b5b602091828204019190066101000a81548160ff021916908360ff160217905550606482610b4391906122cd565b91508080610b50906121a0565b915050610a59565b506002600960006101000a81548160ff02191690836004811115610b7f57610b7e611b1e565b5b02179055507f91934f81b8ffad6aa6d0ed721e3b92ebe9fd6267b46174696bd035f9361f21c860405160405180910390a1600960009054906101000a900460ff166004811115610bd257610bd1611b1e565b5b7f402ee26d4c255fcb07b0b7b5b93b77377832260977c25be44f3c8feffd2df70e60405160405180910390a250565b60085481565b3373ffffffffffffffffffffffffffffffffffffffff16600660009054906101000a900473ffffffffffffffffffffffffffffffffffffffff1673ffffffffffffffffffffffffffffffffffffffff1614610c97576040517f08c379a0000000000000000000000000000000000000000000000000000000008152600401610c8e90611eab565b60405180910390fd5b600480811115610caa57610ca9611b1e565b5b600960009054906101000a900460ff166004811115610ccc57610ccb611b1e565b5b1415610d0d576040517f08c379a0000000000000000000000000000000000000000000000000000000008152600401610d049061234a565b60405180910390fd5b60036004811115610d2157610d20611b1e565b5b600960009054906101000a900460ff166004811115610d4357610d42611b1e565b5b14610dfa5760005b600e805490508160ff161015610df857600e8160ff1681548110610d7257610d71611f37565b5b9060005260206000200160009054906101000a900473ffffffffffffffffffffffffffffffffffffffff1673ffffffffffffffffffffffffffffffffffffffff166108fc600a549081150290604051600060405180830381858888f19350505050158015610de4573d6000803e3d6000fd5b508080610df0906121a0565b915050610d4b565b505b6004600960006101000a81548160ff02191690836004811115610e2057610e1f611b1e565b5b02179055507f041434c50395b9a06c4309166ef0c0e2da56c3e21804dc8a8dc3dbc0dae5020360405160405180910390a1600960009054906101000a900460ff166004811115610e7357610e72611b1e565b5b7f402ee26d4c255fcb07b0b7b5b93b77377832260977c25be44f3c8feffd2df70e60405160405180910390a2565b60008260068110610eb157600080fd5b018160028110610ec057600080fd5b60209182820401919006915091509054906101000a900460ff1681565b60036004811115610ef157610ef0611b1e565b5b600960009054906101000a900460ff166004811115610f1357610f12611b1e565b5b14610f53576040517f08c379a0000000000000000000000000000000000000000000000000000000008152600401610f4a906123b6565b60405180910390fd5b436008819055506001600c6000828254610f6d91906123d6565b925050819055506000600960006101000a81548160ff02191690836004811115610f9a57610f99611b1e565b5b02179055506008547f602d52a424ba31c8904768b40efd585d7c78b61530cebd288dc8fc0be871a3c6600c54604051610fd39190611a27565b60405180910390a2600960009054906101000a900460ff166004811115610ffd57610ffc611b1e565b5b7f402ee26d4c255fcb07b0b7b5b93b77377832260977c25be44f3c8feffd2df70e60405160405180910390a2565b600960009054906101000a900460ff1681565b3373ffffffffffffffffffffffffffffffffffffffff16600660009054906101000a900473ffffffffffffffffffffffffffffffffffffffff1673ffffffffffffffffffffffffffffffffffffffff16146110ce576040517f08c379a00000000000000000000000000000000000000000000000000000000081526004016110c590611eab565b60405180910390fd5b6000600760009054906101000a900473ffffffffffffffffffffffffffffffffffffffff1673ffffffffffffffffffffffffffffffffffffffff1663d0def52130846040518363ffffffff1660e01b815260040161112d9291906124a3565b6020604051808303816000875af115801561114c573d6000803e3d6000fd5b505050506040513d601f19601f820116820180604052508101906111709190612144565b905060088081111561118557611184611b1e565b5b60ff16600160108054905061119a91906123d6565b11156111f85760108054806111b2576111b16124d3565b5b60019003818190600052602060002090600302016000808201600090556001820160006111df919061182f565b6002820160006101000a81549060ff0219169055505090555b6010604051806060016040528083815260200184815260200160011515815250908060018154018082558091505060019003906000526020600020906003020160009091909190915060008201518160000155602082015181600101908051906020019061126792919061186f565b5060408201518160020160006101000a81548160ff02191690831515021790555050505050565b600060048111156112a2576112a1611b1e565b5b600960009054906101000a900460ff1660048111156112c4576112c3611b1e565b5b14611304576040517f08c379a00000000000000000000000000000000000000000000000000000000081526004016112fb9061254e565b60405180910390fd5b600a54341015611349576040517f08c379a0000000000000000000000000000000000000000000000000000000008152600401611340906125ba565b60405180910390fd5b6000600b60009054906101000a900460ff1660ff166008544361136c91906125da565b109050806113f2576001600960006101000a81548160ff0219169083600481111561139a57611399611b1e565b5b0217905550600960009054906101000a900460ff1660048111156113c1576113c0611b1e565b5b7f402ee26d4c255fcb07b0b7b5b93b77377832260977c25be44f3c8feffd2df70e60405160405180910390a261152a565b6000339050600e819080600181540180825580915050600190039060005260206000200160009091909190916101000a81548173ffffffffffffffffffffffffffffffffffffffff021916908373ffffffffffffffffffffffffffffffffffffffff160217905550600f83908060018154018082558091505060019003906000526020600020016000909190919091509060066114909291906118f5565b508073ffffffffffffffffffffffffffffffffffffffff166108fc600a54346114b991906125da565b9081150290604051600060405180830381858888f193505050501580156114e4573d6000803e3d6000fd5b508073ffffffffffffffffffffffffffffffffffffffff167f5c6c890314aa0d49059c35b35ff86ffb43efe8f543dc3691558f39dfa4a8201160405160405180910390a2505b5050565b6000806000905060005b60016006611546919061260e565b60ff168160ff1610156115ca57600d8160ff166006811061156a57611569611f37565b5b602091828204019190069054906101000a900460ff1660ff16848260ff166006811061159957611598611f37565b5b602002015160ff1614156115b7576001826115b49190612296565b91505b80806115c2906121a0565b915050611538565b506000600d600560ff16600681106115e5576115e4611f37565b5b602091828204019190069054906101000a900460ff1660ff1684600560ff166006811061161557611614611f37565b5b602002015160ff1614905060058260ff161480156116305750805b1561164057600192505050611730565b60058260ff16141561165757600292505050611730565b60048260ff161480156116675750805b1561167757600392505050611730565b60048260ff161480611695575060038260ff161480156116945750805b5b156116a557600492505050611730565b60038260ff1614806116c3575060028260ff161480156116c25750805b5b156116d357600592505050611730565b60028260ff1614806116f1575060018260ff161480156116f05750805b5b1561170157600692505050611730565b60018260ff16141561171857600792505050611730565b801561172957600892505050611730565b6000925050505b919050565b600080600660149054906101000a900461ffff1661ffff16600b60009054906101000a900460ff1660ff1660085461176d91906123d6565b61177791906123d6565b9050438111156117bc576040517f08c379a00000000000000000000000000000000000000000000000000000000081526004016117b39061268e565b60405180910390fd5b80406040516020016117ce91906126c7565b6040516020818303038152906040528051906020012060001c91505090565b508054600082559060005260206000209081019061180b919061198f565b50565b508054600082559060005260206000209081019061182c91906119ac565b50565b50805461183b90612038565b6000825580601f1061184d575061186c565b601f01602090049060005260206000209081019061186b919061198f565b5b50565b82805461187b90612038565b90600052602060002090601f01602090048101928261189d57600085556118e4565b82601f106118b657805160ff19168380011785556118e4565b828001600101855582156118e4579182015b828111156118e35782518255916020019190600101906118c8565b5b5090506118f1919061198f565b5090565b826006601f0160209004810192821561197e5791602002820160005b8382111561194f57835183826101000a81548160ff021916908360ff1602179055509260200192600101602081600001049283019260010302611911565b801561197c5782816101000a81549060ff021916905560010160208160000104928301926001030261194f565b505b50905061198b919061198f565b5090565b5b808211156119a8576000816000905550600101611990565b5090565b5b808211156119cc57600081816119c391906119d0565b506001016119ad565b5090565b5060009055565b600060ff82169050919050565b6119ed816119d7565b82525050565b6000602082019050611a0860008301846119e4565b92915050565b6000819050919050565b611a2181611a0e565b82525050565b6000602082019050611a3c6000830184611a18565b92915050565b600073ffffffffffffffffffffffffffffffffffffffff82169050919050565b6000611a6d82611a42565b9050919050565b611a7d81611a62565b82525050565b6000602082019050611a986000830184611a74565b92915050565b6000604051905090565b600080fd5b600080fd5b611abb81611a0e565b8114611ac657600080fd5b50565b600081359050611ad881611ab2565b92915050565b60008060408385031215611af557611af4611aa8565b5b6000611b0385828601611ac9565b9250506020611b1485828601611ac9565b9150509250929050565b7f4e487b7100000000000000000000000000000000000000000000000000000000600052602160045260246000fd5b60058110611b5e57611b5d611b1e565b5b50565b6000819050611b6f82611b4d565b919050565b6000611b7f82611b61565b9050919050565b611b8f81611b74565b82525050565b6000602082019050611baa6000830184611b86565b92915050565b600080fd5b600080fd5b6000601f19601f8301169050919050565b7f4e487b7100000000000000000000000000000000000000000000000000000000600052604160045260246000fd5b611c0382611bba565b810181811067ffffffffffffffff82111715611c2257611c21611bcb565b5b80604052505050565b6000611c35611a9e565b9050611c418282611bfa565b919050565b600067ffffffffffffffff821115611c6157611c60611bcb565b5b611c6a82611bba565b9050602081019050919050565b82818337600083830152505050565b6000611c99611c9484611c46565b611c2b565b905082815260208101848484011115611cb557611cb4611bb5565b5b611cc0848285611c77565b509392505050565b600082601f830112611cdd57611cdc611bb0565b5b8135611ced848260208601611c86565b91505092915050565b600060208284031215611d0c57611d0b611aa8565b5b600082013567ffffffffffffffff811115611d2a57611d29611aad565b5b611d3684828501611cc8565b91505092915050565b600067ffffffffffffffff821115611d5a57611d59611bcb565b5b602082029050919050565b600080fd5b611d73816119d7565b8114611d7e57600080fd5b50565b600081359050611d9081611d6a565b92915050565b6000611da9611da484611d3f565b611c2b565b90508060208402830185811115611dc357611dc2611d65565b5b835b81811015611dec5780611dd88882611d81565b845260208401935050602081019050611dc5565b5050509392505050565b600082601f830112611e0b57611e0a611bb0565b5b6006611e18848285611d96565b91505092915050565b600060c08284031215611e3757611e36611aa8565b5b6000611e4584828501611df6565b91505092915050565b600082825260208201905092915050565b7f4f7065726174696f6e20756e617574686f72697a656400000000000000000000600082015250565b6000611e95601683611e4e565b9150611ea082611e5f565b602082019050919050565b60006020820190508181036000830152611ec481611e88565b9050919050565b7f596f752063616e6e6f742067697665207072697a6573206e6f77000000000000600082015250565b6000611f01601a83611e4e565b9150611f0c82611ecb565b602082019050919050565b60006020820190508181036000830152611f3081611ef4565b9050919050565b7f4e487b7100000000000000000000000000000000000000000000000000000000600052603260045260246000fd5b7f4e6f7420656e6f756768207072697a6573000000000000000000000000000000600082015250565b6000611f9c601183611e4e565b9150611fa782611f66565b602082019050919050565b60006020820190508181036000830152611fcb81611f8f565b9050919050565b6000606082019050611fe76000830186611a74565b611ff46020830185611a74565b6120016040830184611a18565b949350505050565b7f4e487b7100000000000000000000000000000000000000000000000000000000600052602260045260246000fd5b6000600282049050600182168061205057607f821691505b6020821081141561206457612063612009565b5b50919050565b60008190508160005260206000209050919050565b6000815461208c81612038565b6120968186611e4e565b945060018216600081146120b157600181146120c3576120f6565b60ff19831686526020860193506120f6565b6120cc8561206a565b60005b838110156120ee578154818901526001820191506020810190506120cf565b808801955050505b50505092915050565b60006040820190506121146000830185611a74565b8181036020830152612126818461207f565b90509392505050565b60008151905061213e81611ab2565b92915050565b60006020828403121561215a57612159611aa8565b5b60006121688482850161212f565b91505092915050565b7f4e487b7100000000000000000000000000000000000000000000000000000000600052601160045260246000fd5b60006121ab826119d7565b915060ff8214156121bf576121be612171565b5b600182019050919050565b7f596f752063616e6e6f742064726177206e6f7700000000000000000000000000600082015250565b6000612200601383611e4e565b915061220b826121ca565b602082019050919050565b6000602082019050818103600083015261222f816121f3565b9050919050565b7f4e487b7100000000000000000000000000000000000000000000000000000000600052601260045260246000fd5b6000612270826119d7565b915061227b836119d7565b92508261228b5761228a612236565b5b828206905092915050565b60006122a1826119d7565b91506122ac836119d7565b92508260ff038211156122c2576122c1612171565b5b828201905092915050565b60006122d882611a0e565b91506122e383611a0e565b9250826122f3576122f2612236565b5b828204905092915050565b7f4c6f747465727920616c726561647920636c6f73656400000000000000000000600082015250565b6000612334601683611e4e565b915061233f826122fe565b602082019050919050565b6000602082019050818103600083015261236381612327565b9050919050565b7f526f756e64206973206e6f742066696e69736865640000000000000000000000600082015250565b60006123a0601583611e4e565b91506123ab8261236a565b602082019050919050565b600060208201905081810360008301526123cf81612393565b9050919050565b60006123e182611a0e565b91506123ec83611a0e565b9250827fffffffffffffffffffffffffffffffffffffffffffffffffffffffffffffffff0382111561242157612420612171565b5b828201905092915050565b600081519050919050565b60005b8381101561245557808201518184015260208101905061243a565b83811115612464576000848401525b50505050565b60006124758261242c565b61247f8185611e4e565b935061248f818560208601612437565b61249881611bba565b840191505092915050565b60006040820190506124b86000830185611a74565b81810360208301526124ca818461246a565b90509392505050565b7f4e487b7100000000000000000000000000000000000000000000000000000000600052603160045260246000fd5b7f596f752063616e6e6f7420627579206e6f770000000000000000000000000000600082015250565b6000612538601283611e4e565b915061254382612502565b602082019050919050565b600060208201905081810360008301526125678161252b565b9050919050565b7f4e6f7420656e6f75676820657468657200000000000000000000000000000000600082015250565b60006125a4601083611e4e565b91506125af8261256e565b602082019050919050565b600060208201905081810360008301526125d381612597565b9050919050565b60006125e582611a0e565b91506125f083611a0e565b92508282101561260357612602612171565b5b828203905092915050565b6000612619826119d7565b9150612624836119d7565b92508282101561263757612636612171565b5b828203905092915050565b7f426c6f636b206e6f74207965742067656e657261746564000000000000000000600082015250565b6000612678601783611e4e565b915061268382612642565b602082019050919050565b600060208201905081810360008301526126a78161266b565b9050919050565b6000819050919050565b6126c1816126ae565b82525050565b60006020820190506126dc60008301846126b8565b9291505056fea26469706673582212201ffb577eddd5c558c945acf21b35af9808429821284f8822faf25abe99e727c164736f6c634300080c0033",
  "immutableReferences": {},
  "source": "// SPDX-License-Identifier: MIT\npragma solidity ^0.8.0;\n\nimport './ERC721.sol';\n\ncontract Lottery {\n\n    enum Class {None, Class_1, Class_2, Class_3, Class_4, Class_5, Class_6, Class_7, Class_8}\n    enum State {Buy, Draw, Prize, RoundFinished, Close}\n\n    struct Collectible {\n        uint256 tokenId;\n        string uri;\n        bool available;\n    }\n\n    uint8 public constant TOTAL_NUMBERS = 6;\n    uint8 public constant POWERBALL_POSITION = 5;\n    uint8[2][TOTAL_NUMBERS] public RANGES = [[1, 69], [1, 69], [1, 69], [1, 69], [1, 69], [1, 26]];\n\n    address private __operator;\n    uint16 private __k;\n    address public erc721Address;\n    uint256 public startRoundBlockNumber;\n    State public state;\n    uint256 public ticketPrice;\n    uint8 public duration;\n    uint256 public round;\n\n    uint8[TOTAL_NUMBERS] private __winningNumbers;\n    address[] private __players;\n    uint8[TOTAL_NUMBERS][] private __tickets;\n    Collectible[] private __collectibles;\n\n    constructor(address _erc721Address, uint8 _duration, uint16 _k, uint256 _ticketPrice) {\n        __operator = tx.origin;\n        erc721Address = _erc721Address;\n        __k = _k;\n        startRoundBlockNumber = block.number;\n        ticketPrice = _ticketPrice;\n        duration = _duration;\n        round = 1;\n        emit StartNewRound(startRoundBlockNumber, round);\n    }\n\n    event StartNewRound(uint256 indexed _blockNumber, uint256 _round);\n    event Buy(address indexed _player);\n    event DrawNumbers();\n    event NoGivePrize(address indexed _player, uint256 _round);\n    event GivePrize(address indexed _player, uint256 _round, Class indexed _class, uint256 indexed _tokenId);\n    event CloseLottery();\n    event ChangeState(State indexed _state);\n\n    modifier __isOperator() {\n        require(__operator == msg.sender, \"Operation unauthorized\");\n        _;\n    }\n\n    function startNewRound() external {\n        require(state == State.RoundFinished, \"Round is not finished\");\n        startRoundBlockNumber = block.number;\n        round += 1;\n        state = State.Buy;\n        emit StartNewRound(startRoundBlockNumber, round);\n        emit ChangeState(state);\n    }\n\n    function buy(uint8[TOTAL_NUMBERS] memory numbers) external payable {\n        require(state == State.Buy, \"You cannot buy now\");\n        require(msg.value >= ticketPrice, \"Not enough ether\");\n        bool canBuy = block.number - startRoundBlockNumber < duration;\n        if(!canBuy) {\n            state = State.Draw;\n            emit ChangeState(state);\n        } else {\n            address player = msg.sender;\n            __players.push(player);\n            __tickets.push(numbers);\n            payable(player).transfer(msg.value - ticketPrice);\n            emit Buy(player);\n        }\n    }\n\n    function drawNumbers() external __isOperator() {\n        require(state == State.Draw, \"You cannot draw now\");\n        uint256 number = __random();\n        for(uint8 i = 0; i < TOTAL_NUMBERS; i++) {\n            __winningNumbers[i] = uint8(number) % RANGES[i][1] + RANGES[i][0];\n            number /= 100;\n        }\n        state = State.Prize;\n        emit DrawNumbers();\n        emit ChangeState(state);\n    }\n\n    function givePrizes() external __isOperator() {\n        require(state == State.Prize, \"You cannot give prizes now\");\n        for(uint8 i = 0; i < __players.length; i++) {\n            Class class = __matchClass(__tickets[i]);\n            address _player = __players[i];\n            if(class != Class.None) {\n                Collectible storage _collectible = __collectibles[i];\n                require(_collectible.tokenId > 0, \"Not enough prizes\");\n                if(_collectible.available){\n                    ERC721(erc721Address).safeTransferFrom(address(this), _player, _collectible.tokenId);\n                    _collectible.available = false;\n                } else {\n                    ERC721(erc721Address).mint(_player, _collectible.uri);\n                }\n                emit GivePrize(_player, round, class, _collectible.tokenId);\n            } else {\n                emit NoGivePrize(_player, round);\n            }\n        }\n        delete __players;\n        delete __tickets;\n        state = State.RoundFinished;\n        payable(__operator).transfer(address(this).balance);\n        emit ChangeState(state);\n    }\n\n    function mint(string memory _uri) external __isOperator() {\n        uint256 _tokenId = ERC721(erc721Address).mint(address(this), _uri);\n        if(__collectibles.length + 1 > uint8(Class.Class_8))\n            __collectibles.pop();\n        __collectibles.push(Collectible(_tokenId, _uri, true));\n    }\n\n    function closeLottery() external __isOperator() {\n        require(state != State.Close, \"Lottery already closed\");\n        if(state != State.RoundFinished) \n            for(uint8 i = 0; i < __players.length; i++) \n                payable(__players[i]).transfer(ticketPrice);\n        state = State.Close;\n        emit CloseLottery();\n        emit ChangeState(state);\n    }\n\n    function __random() private view returns(uint256) {\n        uint256 blockNumber = startRoundBlockNumber + duration + __k;\n        require(blockNumber <= block.number, \"Block not yet generated\");\n        return uint256(keccak256(abi.encode(blockhash(blockNumber))));\n    }\n\n    function __matchClass(uint8[TOTAL_NUMBERS] memory _ticket) private view returns(Class class) {\n        uint8 stdMatches = 0;\n        for(uint8 i = 0; i < TOTAL_NUMBERS - 1; i++)\n            if(_ticket[i] == __winningNumbers[i])\n                stdMatches += 1;\n        bool matchPowerball = _ticket[POWERBALL_POSITION] == __winningNumbers[POWERBALL_POSITION];\n        if(stdMatches == 5 && matchPowerball)\n            return Class.Class_1;\n        if(stdMatches == 5)\n            return Class.Class_2;\n        if(stdMatches == 4 && matchPowerball)\n            return Class.Class_3;\n        if(stdMatches == 4 || stdMatches == 3 && matchPowerball)\n            return Class.Class_4;\n        if(stdMatches == 3 || stdMatches == 2 && matchPowerball)\n            return Class.Class_5;\n        if(stdMatches == 2 || stdMatches == 1 && matchPowerball)\n            return Class.Class_6;\n        if(stdMatches == 1)\n            return Class.Class_7;\n        if(matchPowerball)\n            return Class.Class_8;\n        return Class.None;\n    }\n\n}",
  "sourcePath": "/Users/geremiapompei/Library/CloudStorage/OneDrive-UniversityofPisa/UNIPI/1 anno 2021_2022/2 semestre/Peer2Peer and Blockchain/exam/P2P/finalterm/smart_contract/contracts/Lottery.sol",
  "compiler": {
    "name": "solc",
    "version": "0.8.12+commit.f00d7308.Emscripten.clang"
  },
  "schemaVersion": "3.4.7",
  "updatedAt": "2022-05-30T00:12:36.697Z",
  "devdoc": {
    "kind": "dev",
    "methods": {},
    "version": 1
  },
  "userdoc": {
    "kind": "user",
    "methods": {},
    "version": 1
  }
}