{
  "contractName": "Lottery",
  "abi": [
    {
      "inputs": [
        {
          "internalType": "address",
          "name": "_erc721Address",
          "type": "address"
        },
        {
          "internalType": "uint8",
          "name": "_duration",
          "type": "uint8"
        },
        {
          "internalType": "uint16",
          "name": "_k",
          "type": "uint16"
        },
        {
          "internalType": "uint256",
          "name": "_ticketPrice",
          "type": "uint256"
        }
      ],
      "stateMutability": "nonpayable",
      "type": "constructor"
    },
    {
      "anonymous": false,
      "inputs": [
        {
          "indexed": true,
          "internalType": "address",
          "name": "_player",
          "type": "address"
        }
      ],
      "name": "Buy",
      "type": "event"
    },
    {
      "anonymous": false,
      "inputs": [],
      "name": "CloseLottery",
      "type": "event"
    },
    {
      "anonymous": false,
      "inputs": [
        {
          "indexed": true,
          "internalType": "address",
          "name": "_player",
          "type": "address"
        },
        {
          "indexed": true,
          "internalType": "enum Lottery.Classes",
          "name": "_class",
          "type": "uint8"
        },
        {
          "indexed": true,
          "internalType": "uint256",
          "name": "_tokenId",
          "type": "uint256"
        }
      ],
      "name": "GivePrize",
      "type": "event"
    },
    {
      "anonymous": false,
      "inputs": [
        {
          "indexed": true,
          "internalType": "uint256",
          "name": "_blockNumber",
          "type": "uint256"
        }
      ],
      "name": "StartNewRound",
      "type": "event"
    },
    {
      "inputs": [],
      "name": "isRoundActive",
      "outputs": [
        {
          "internalType": "bool",
          "name": "",
          "type": "bool"
        }
      ],
      "stateMutability": "view",
      "type": "function"
    },
    {
      "inputs": [],
      "name": "startNewRound",
      "outputs": [],
      "stateMutability": "nonpayable",
      "type": "function"
    },
    {
      "inputs": [
        {
          "internalType": "uint8[6]",
          "name": "numbers",
          "type": "uint8[6]"
        }
      ],
      "name": "buy",
      "outputs": [],
      "stateMutability": "payable",
      "type": "function"
    },
    {
      "inputs": [],
      "name": "drawNumbers",
      "outputs": [],
      "stateMutability": "nonpayable",
      "type": "function"
    },
    {
      "inputs": [],
      "name": "givePrizes",
      "outputs": [],
      "stateMutability": "nonpayable",
      "type": "function"
    },
    {
      "inputs": [
        {
          "internalType": "string",
          "name": "_uri",
          "type": "string"
        }
      ],
      "name": "mint",
      "outputs": [],
      "stateMutability": "nonpayable",
      "type": "function"
    },
    {
      "inputs": [],
      "name": "closeLottery",
      "outputs": [],
      "stateMutability": "nonpayable",
      "type": "function"
    }
  ],
  "bytecode": "0x60806040526040518060c001604052806040518060400160405280600160ff168152602001604560ff1681525081526020016040518060400160405280600160ff168152602001604560ff1681525081526020016040518060400160405280600160ff168152602001604560ff1681525081526020016040518060400160405280600160ff168152602001604560ff1681525081526020016040518060400160405280600160ff168152602001604560ff1681525081526020016040518060400160405280600160ff168152602001601a60ff168152508152506000906006620000eb92919062000213565b50348015620000f957600080fd5b50604051620022fa380380620022fa83398181016040528101906200011f919062000479565b33600860006101000a81548173ffffffffffffffffffffffffffffffffffffffff021916908373ffffffffffffffffffffffffffffffffffffffff16021790555083600660006101000a81548173ffffffffffffffffffffffffffffffffffffffff021916908373ffffffffffffffffffffffffffffffffffffffff160217905550600182620001b091906200051a565b600860146101000a81548161ffff021916908361ffff1602179055506001600660146101000a81548160ff0219169083151502179055508060098190555082600a60006101000a81548160ff021916908360ff1602179055505050505062000559565b826006810192821562000255579160200282015b8281111562000254578251829060026200024392919062000268565b509160200191906001019062000227565b5b50905062000264919062000309565b5090565b826002601f01602090048101928215620002f65791602002820160005b83821115620002c557835183826101000a81548160ff021916908360ff160217905550926020019260010160208160000104928301926001030262000285565b8015620002f45782816101000a81549060ff0219169055600101602081600001049283019260010302620002c5565b505b50905062000305919062000331565b5090565b5b808211156200032d576000818162000323919062000350565b506001016200030a565b5090565b5b808211156200034c57600081600090555060010162000332565b5090565b5060009055565b600080fd5b600073ffffffffffffffffffffffffffffffffffffffff82169050919050565b600062000389826200035c565b9050919050565b6200039b816200037c565b8114620003a757600080fd5b50565b600081519050620003bb8162000390565b92915050565b600060ff82169050919050565b620003d981620003c1565b8114620003e557600080fd5b50565b600081519050620003f981620003ce565b92915050565b600061ffff82169050919050565b6200041881620003ff565b81146200042457600080fd5b50565b60008151905062000438816200040d565b92915050565b6000819050919050565b62000453816200043e565b81146200045f57600080fd5b50565b600081519050620004738162000448565b92915050565b6000806000806080858703121562000496576200049562000357565b5b6000620004a687828801620003aa565b9450506020620004b987828801620003e8565b9350506040620004cc8782880162000427565b9250506060620004df8782880162000462565b91505092959194509250565b7f4e487b7100000000000000000000000000000000000000000000000000000000600052601160045260246000fd5b60006200052782620003ff565b91506200053483620003ff565b92508261ffff038211156200054e576200054d620004eb565b5b828201905092915050565b611d9180620005696000396000f3fe6080604052600436106100705760003560e01c80636fd098161161004e5780636fd09816146100ce578063bd85948c146100e5578063d85d3d27146100fc578063f828d14b1461012557610070565b806306d5ee541461007557806345945a451461008c578063676c902f146100b7575b600080fd5b34801561008157600080fd5b5061008a610141565b005b34801561009857600080fd5b506100a1610632565b6040516100ae9190611291565b60405180910390f35b3480156100c357600080fd5b506100cc610673565b005b3480156100da57600080fd5b506100e3610815565b005b3480156100f157600080fd5b506100fa6109fc565b005b34801561010857600080fd5b50610123600480360381019061011e9190611406565b610a84565b005b61013f600480360381019061013a919061153e565b610cd4565b005b3373ffffffffffffffffffffffffffffffffffffffff16600860009054906101000a900473ffffffffffffffffffffffffffffffffffffffff1673ffffffffffffffffffffffffffffffffffffffff16146101d1576040517f08c379a00000000000000000000000000000000000000000000000000000000081526004016101c8906115c8565b60405180910390fd5b60005b600c805490508160ff1610156105ab576000610271600d8360ff1681548110610200576101ff6115e8565b5b90600052602060002001600680602002604051908101604052809291908260068015610267576020028201916000905b82829054906101000a900460ff1660ff16815260200190600101906020826000010492830192600103820291508084116102305790505b5050505050610e9a565b90506000600c8360ff168154811061028c5761028b6115e8565b5b9060005260206000200160009054906101000a900473ffffffffffffffffffffffffffffffffffffffff169050600060088111156102cd576102cc611617565b5b8260088111156102e0576102df611617565b5b14610525576000600e8460ff16815481106102fe576102fd6115e8565b5b906000526020600020906003020190506000816000015411610355576040517f08c379a000000000000000000000000000000000000000000000000000000000815260040161034c90611692565b60405180910390fd5b8060020160009054906101000a900460ff161561042357600660009054906101000a900473ffffffffffffffffffffffffffffffffffffffff1673ffffffffffffffffffffffffffffffffffffffff166342842e0e308484600001546040518463ffffffff1660e01b81526004016103cf9392919061170c565b600060405180830381600087803b1580156103e957600080fd5b505af11580156103fd573d6000803e3d6000fd5b5050505060008160020160006101000a81548160ff0219169083151502179055506104c8565b600660009054906101000a900473ffffffffffffffffffffffffffffffffffffffff1673ffffffffffffffffffffffffffffffffffffffff1663d0def52183836001016040518363ffffffff1660e01b8152600401610483929190611839565b6020604051808303816000875af11580156104a2573d6000803e3d6000fd5b505050506040513d601f19601f820116820180604052508101906104c69190611895565b505b80600001548360088111156104e0576104df611617565b5b8373ffffffffffffffffffffffffffffffffffffffff167f0bac54947f487010a2bca7341e9f36f91441f0bb9e399f4a83c29e637b8c30da60405160405180910390a4505b600c8360ff168154811061053c5761053b6115e8565b5b9060005260206000200160006101000a81549073ffffffffffffffffffffffffffffffffffffffff0219169055600d8360ff16815481106105805761057f6115e8565b5b90600052602060002001600061059691906110f2565b505080806105a3906118f1565b9150506101d4565b50600860009054906101000a900473ffffffffffffffffffffffffffffffffffffffff1673ffffffffffffffffffffffffffffffffffffffff166108fc479081150290604051600060405180830381858888f19350505050158015610614573d6000803e3d6000fd5b506000600660146101000a81548160ff021916908315150217905550565b6000600660149054906101000a900460ff16801561066e5750600a60009054906101000a900460ff1660ff166007544361066c919061191b565b105b905090565b3373ffffffffffffffffffffffffffffffffffffffff16600860009054906101000a900473ffffffffffffffffffffffffffffffffffffffff1673ffffffffffffffffffffffffffffffffffffffff1614610703576040517f08c379a00000000000000000000000000000000000000000000000000000000081526004016106fa906115c8565b60405180910390fd5b600061070d6110a1565b905060005b600660ff168160ff1610156108115760008160ff1660068110610738576107376115e8565b5b0160006002811061074c5761074b6115e8565b5b602091828204019190069054906101000a900460ff1660008260ff1660068110610779576107786115e8565b5b0160016002811061078d5761078c6115e8565b5b602091828204019190069054906101000a900460ff16836107ae919061197e565b6107b891906119af565b600b8260ff16600681106107cf576107ce6115e8565b5b602091828204019190066101000a81548160ff021916908360ff1602179055506064826107fc91906119e6565b91508080610809906118f1565b915050610712565b5050565b3373ffffffffffffffffffffffffffffffffffffffff16600860009054906101000a900473ffffffffffffffffffffffffffffffffffffffff1673ffffffffffffffffffffffffffffffffffffffff16146108a5576040517f08c379a000000000000000000000000000000000000000000000000000000000815260040161089c906115c8565b60405180910390fd5b600660149054906101000a900460ff166108f4576040517f08c379a00000000000000000000000000000000000000000000000000000000081526004016108eb90611a63565b60405180910390fd5b6108fc610632565b156109b35760005b600c805490508160ff1610156109b157600c8160ff168154811061092b5761092a6115e8565b5b9060005260206000200160009054906101000a900473ffffffffffffffffffffffffffffffffffffffff1673ffffffffffffffffffffffffffffffffffffffff166108fc6009549081150290604051600060405180830381858888f1935050505015801561099d573d6000803e3d6000fd5b5080806109a9906118f1565b915050610904565b505b6000600660146101000a81548160ff0219169083151502179055507f041434c50395b9a06c4309166ef0c0e2da56c3e21804dc8a8dc3dbc0dae5020360405160405180910390a1565b600660149054906101000a900460ff1615610a4c576040517f08c379a0000000000000000000000000000000000000000000000000000000008152600401610a4390611acf565b60405180910390fd5b436007819055506007547fa79d7edf4dcc0bfe14d93ffd4f335a9f42fb01a818205f9b3526fe14c2217be760405160405180910390a2565b3373ffffffffffffffffffffffffffffffffffffffff16600860009054906101000a900473ffffffffffffffffffffffffffffffffffffffff1673ffffffffffffffffffffffffffffffffffffffff1614610b14576040517f08c379a0000000000000000000000000000000000000000000000000000000008152600401610b0b906115c8565b60405180910390fd5b6000600660009054906101000a900473ffffffffffffffffffffffffffffffffffffffff1673ffffffffffffffffffffffffffffffffffffffff1663d0def52130846040518363ffffffff1660e01b8152600401610b73929190611b66565b6020604051808303816000875af1158015610b92573d6000803e3d6000fd5b505050506040513d601f19601f82011682018060405250810190610bb69190611895565b9050600880811115610bcb57610bca611617565b5b60ff166001600e80549050610be09190611b96565b1115610c3e57600e805480610bf857610bf7611bec565b5b6001900381819060005260206000209060030201600080820160009055600182016000610c2591906110f9565b6002820160006101000a81549060ff0219169055505090555b600e6040518060600160405280838152602001848152602001600115158152509080600181540180825580915050600190039060005260206000209060030201600090919091909150600082015181600001556020820151816001019080519060200190610cad929190611139565b5060408201518160020160006101000a81548160ff02191690831515021790555050505050565b610cdc610632565b610d1b576040517f08c379a0000000000000000000000000000000000000000000000000000000008152600401610d1290611c67565b60405180910390fd5b600954341015610d60576040517f08c379a0000000000000000000000000000000000000000000000000000000008152600401610d5790611cd3565b60405180910390fd5b6000339050600c819080600181540180825580915050600190039060005260206000200160009091909190916101000a81548173ffffffffffffffffffffffffffffffffffffffff021916908373ffffffffffffffffffffffffffffffffffffffff160217905550600d8290806001815401808255809150506001900390600052602060002001600090919091909150906006610dfe9291906111bf565b508073ffffffffffffffffffffffffffffffffffffffff166108fc60095434610e27919061191b565b9081150290604051600060405180830381858888f19350505050158015610e52573d6000803e3d6000fd5b508073ffffffffffffffffffffffffffffffffffffffff167f5c6c890314aa0d49059c35b35ff86ffb43efe8f543dc3691558f39dfa4a8201160405160405180910390a25050565b6000806000905060005b60016006610eb29190611cf3565b60ff168160ff161015610f3657600b8160ff1660068110610ed657610ed56115e8565b5b602091828204019190069054906101000a900460ff1660ff16848260ff1660068110610f0557610f046115e8565b5b602002015160ff161415610f2357600182610f2091906119af565b91505b8080610f2e906118f1565b915050610ea4565b506000600b600560ff1660068110610f5157610f506115e8565b5b602091828204019190069054906101000a900460ff1660ff1684600560ff1660068110610f8157610f806115e8565b5b602002015160ff1614905060058260ff16148015610f9c5750805b15610fac5760019250505061109c565b60058260ff161415610fc35760029250505061109c565b60048260ff16148015610fd35750805b15610fe35760039250505061109c565b60048260ff161480611001575060038260ff161480156110005750805b5b156110115760049250505061109c565b60038260ff16148061102f575060028260ff1614801561102e5750805b5b1561103f5760059250505061109c565b60028260ff16148061105d575060018260ff1614801561105c5750805b5b1561106d5760069250505061109c565b60018260ff1614156110845760079250505061109c565b80156110955760089250505061109c565b6000925050505b919050565b6000600860149054906101000a900461ffff1661ffff16436110c3919061191b565b406040516020016110d49190611d40565b6040516020818303038152906040528051906020012060001c905090565b5060009055565b50805461110590611772565b6000825580601f106111175750611136565b601f0160209004906000526020600020908101906111359190611259565b5b50565b82805461114590611772565b90600052602060002090601f01602090048101928261116757600085556111ae565b82601f1061118057805160ff19168380011785556111ae565b828001600101855582156111ae579182015b828111156111ad578251825591602001919060010190611192565b5b5090506111bb9190611259565b5090565b826006601f016020900481019282156112485791602002820160005b8382111561121957835183826101000a81548160ff021916908360ff16021790555092602001926001016020816000010492830192600103026111db565b80156112465782816101000a81549060ff0219169055600101602081600001049283019260010302611219565b505b5090506112559190611259565b5090565b5b8082111561127257600081600090555060010161125a565b5090565b60008115159050919050565b61128b81611276565b82525050565b60006020820190506112a66000830184611282565b92915050565b6000604051905090565b600080fd5b600080fd5b600080fd5b600080fd5b6000601f19601f8301169050919050565b7f4e487b7100000000000000000000000000000000000000000000000000000000600052604160045260246000fd5b611313826112ca565b810181811067ffffffffffffffff82111715611332576113316112db565b5b80604052505050565b60006113456112ac565b9050611351828261130a565b919050565b600067ffffffffffffffff821115611371576113706112db565b5b61137a826112ca565b9050602081019050919050565b82818337600083830152505050565b60006113a96113a484611356565b61133b565b9050828152602081018484840111156113c5576113c46112c5565b5b6113d0848285611387565b509392505050565b600082601f8301126113ed576113ec6112c0565b5b81356113fd848260208601611396565b91505092915050565b60006020828403121561141c5761141b6112b6565b5b600082013567ffffffffffffffff81111561143a576114396112bb565b5b611446848285016113d8565b91505092915050565b600067ffffffffffffffff82111561146a576114696112db565b5b602082029050919050565b600080fd5b600060ff82169050919050565b6114908161147a565b811461149b57600080fd5b50565b6000813590506114ad81611487565b92915050565b60006114c66114c18461144f565b61133b565b905080602084028301858111156114e0576114df611475565b5b835b8181101561150957806114f5888261149e565b8452602084019350506020810190506114e2565b5050509392505050565b600082601f830112611528576115276112c0565b5b60066115358482856114b3565b91505092915050565b600060c08284031215611554576115536112b6565b5b600061156284828501611513565b91505092915050565b600082825260208201905092915050565b7f4f7065726174696f6e20756e617574686f72697a656400000000000000000000600082015250565b60006115b260168361156b565b91506115bd8261157c565b602082019050919050565b600060208201905081810360008301526115e1816115a5565b9050919050565b7f4e487b7100000000000000000000000000000000000000000000000000000000600052603260045260246000fd5b7f4e487b7100000000000000000000000000000000000000000000000000000000600052602160045260246000fd5b7f4e6f7420656e6f756768207072697a6573000000000000000000000000000000600082015250565b600061167c60118361156b565b915061168782611646565b602082019050919050565b600060208201905081810360008301526116ab8161166f565b9050919050565b600073ffffffffffffffffffffffffffffffffffffffff82169050919050565b60006116dd826116b2565b9050919050565b6116ed816116d2565b82525050565b6000819050919050565b611706816116f3565b82525050565b600060608201905061172160008301866116e4565b61172e60208301856116e4565b61173b60408301846116fd565b949350505050565b7f4e487b7100000000000000000000000000000000000000000000000000000000600052602260045260246000fd5b6000600282049050600182168061178a57607f821691505b6020821081141561179e5761179d611743565b5b50919050565b60008190508160005260206000209050919050565b600081546117c681611772565b6117d0818661156b565b945060018216600081146117eb57600181146117fd57611830565b60ff1983168652602086019350611830565b611806856117a4565b60005b8381101561182857815481890152600182019150602081019050611809565b808801955050505b50505092915050565b600060408201905061184e60008301856116e4565b818103602083015261186081846117b9565b90509392505050565b611872816116f3565b811461187d57600080fd5b50565b60008151905061188f81611869565b92915050565b6000602082840312156118ab576118aa6112b6565b5b60006118b984828501611880565b91505092915050565b7f4e487b7100000000000000000000000000000000000000000000000000000000600052601160045260246000fd5b60006118fc8261147a565b915060ff8214156119105761190f6118c2565b5b600182019050919050565b6000611926826116f3565b9150611931836116f3565b925082821015611944576119436118c2565b5b828203905092915050565b7f4e487b7100000000000000000000000000000000000000000000000000000000600052601260045260246000fd5b60006119898261147a565b91506119948361147a565b9250826119a4576119a361194f565b5b828206905092915050565b60006119ba8261147a565b91506119c58361147a565b92508260ff038211156119db576119da6118c2565b5b828201905092915050565b60006119f1826116f3565b91506119fc836116f3565b925082611a0c57611a0b61194f565b5b828204905092915050565b7f4c6f747465727920616c726561647920636c6f73656400000000000000000000600082015250565b6000611a4d60168361156b565b9150611a5882611a17565b602082019050919050565b60006020820190508181036000830152611a7c81611a40565b9050919050565b7f526f756e64206973206e6f742066696e69736865640000000000000000000000600082015250565b6000611ab960158361156b565b9150611ac482611a83565b602082019050919050565b60006020820190508181036000830152611ae881611aac565b9050919050565b600081519050919050565b60005b83811015611b18578082015181840152602081019050611afd565b83811115611b27576000848401525b50505050565b6000611b3882611aef565b611b42818561156b565b9350611b52818560208601611afa565b611b5b816112ca565b840191505092915050565b6000604082019050611b7b60008301856116e4565b8181036020830152611b8d8184611b2d565b90509392505050565b6000611ba1826116f3565b9150611bac836116f3565b9250827fffffffffffffffffffffffffffffffffffffffffffffffffffffffffffffffff03821115611be157611be06118c2565b5b828201905092915050565b7f4e487b7100000000000000000000000000000000000000000000000000000000600052603160045260246000fd5b7f526f756e64206973206e6f742061637469766500000000000000000000000000600082015250565b6000611c5160138361156b565b9150611c5c82611c1b565b602082019050919050565b60006020820190508181036000830152611c8081611c44565b9050919050565b7f4e6f7420656e6f75676820657468657200000000000000000000000000000000600082015250565b6000611cbd60108361156b565b9150611cc882611c87565b602082019050919050565b60006020820190508181036000830152611cec81611cb0565b9050919050565b6000611cfe8261147a565b9150611d098361147a565b925082821015611d1c57611d1b6118c2565b5b828203905092915050565b6000819050919050565b611d3a81611d27565b82525050565b6000602082019050611d556000830184611d31565b9291505056fea264697066735822122033faf3a58db2fa9c84288ea5e53a1fbe5403c5da8e8a5083e4650a5b024ad92564736f6c634300080c0033",
  "immutableReferences": {},
  "source": "// SPDX-License-Identifier: MIT\npragma solidity ^0.8.0;\n\nimport './ERC721.sol';\n\ncontract Lottery {\n\n    enum Classes {None, Class_1, Class_2, Class_3, Class_4, Class_5, Class_6, Class_7, Class_8}\n\n    struct Collectible {\n        uint256 tokenId;\n        string uri;\n        bool available;\n    }\n\n    uint8 private constant TOTAL_NUMBERS = 6;\n    uint8 private constant POWERBALL_POSITION = 5;\n    uint8[2][TOTAL_NUMBERS] private RANGES = [[1, 69], [1, 69], [1, 69], [1, 69], [1, 69], [1, 26]];\n\n    address private __erc721Address;\n    bool private __lotteryOpen;\n    uint256 private __startRoundBlockNumber;\n    address private __operator;\n    uint16 private __k;\n    uint256 private __ticketPrice;\n    uint8 private __duration;\n\n    uint8[TOTAL_NUMBERS] private __winningNumbers;\n    address[] private __players;\n    uint8[TOTAL_NUMBERS][] private __tickets;\n    Collectible[] private __collectibles;\n\n    constructor(address _erc721Address, uint8 _duration, uint16 _k, uint256 _ticketPrice) {\n        __operator = msg.sender;\n        __erc721Address = _erc721Address;\n        __k = _k + 1 % 256;\n        __lotteryOpen = true;\n        __ticketPrice = _ticketPrice;\n        __duration = _duration;\n    }\n\n    event StartNewRound(uint256 indexed _blockNumber);\n    event Buy(address indexed _player);\n    event GivePrize(address indexed _player, Classes indexed _class, uint256 indexed _tokenId);\n    event CloseLottery();\n\n    modifier __isOperator() {\n        require(__operator == msg.sender, \"Operation unauthorized\");\n        _;\n    }\n\n    modifier __isRoundActive() {\n        require(isRoundActive(), \"Round is not active\");\n        _;\n    }\n\n    function isRoundActive() public view returns(bool) {\n        return __lotteryOpen && block.number - __startRoundBlockNumber < __duration;\n    }\n\n    function startNewRound() external {\n        require(!__lotteryOpen, \"Round is not finished\");\n        __startRoundBlockNumber = block.number;\n        emit StartNewRound(__startRoundBlockNumber);\n    }\n\n    function buy(uint8[TOTAL_NUMBERS] memory numbers) external payable __isRoundActive() {\n        require(msg.value >= __ticketPrice, \"Not enough ether\");\n        address player = msg.sender;\n        __players.push(player);\n        __tickets.push(numbers);\n        payable(player).transfer(msg.value - __ticketPrice);\n        emit Buy(player);\n    }\n\n    function drawNumbers() external __isOperator() {\n        uint256 number = __random();\n        for(uint8 i = 0; i < TOTAL_NUMBERS; i++) {\n            __winningNumbers[i] = uint8(number) % RANGES[i][1] + RANGES[i][0];\n            number /= 100;\n        }\n    }\n\n    function givePrizes() external __isOperator() {\n        for(uint8 i = 0; i < __players.length; i++) {\n            Classes class = __matchClass(__tickets[i]);\n            address _player = __players[i];\n            if(class != Classes.None) {\n                Collectible storage _collectible = __collectibles[i];\n                require(_collectible.tokenId > 0, \"Not enough prizes\");\n                if(_collectible.available){\n                    ERC721(__erc721Address).safeTransferFrom(address(this), _player, _collectible.tokenId);\n                    _collectible.available = false;\n                } else {\n                    ERC721(__erc721Address).mint(_player, _collectible.uri);\n                }\n                emit GivePrize(_player, class, _collectible.tokenId);\n            }\n            delete __players[i];\n            delete __tickets[i];\n        }\n        payable(__operator).transfer(address(this).balance);\n        __lotteryOpen = false;\n    }\n\n    function mint(string memory _uri) external __isOperator() {\n        uint256 _tokenId = ERC721(__erc721Address).mint(address(this), _uri);\n        if(__collectibles.length + 1 > uint8(Classes.Class_8))\n            __collectibles.pop();\n        __collectibles.push(Collectible(_tokenId, _uri, true));\n    }\n\n    function closeLottery() external __isOperator() {\n        require(__lotteryOpen, \"Lottery already closed\");\n        if(isRoundActive()) \n            for(uint8 i = 0; i < __players.length; i++) \n                payable(__players[i]).transfer(__ticketPrice);\n        __lotteryOpen = false;\n        emit CloseLottery();\n    }\n\n    function __random() private view returns(uint256) {\n        return uint256(keccak256(abi.encode(blockhash(block.number - __k))));\n    }\n\n    function __matchClass(uint8[TOTAL_NUMBERS] memory _ticket) private view returns(Classes class) {\n        uint8 stdMatches = 0;\n        for(uint8 i = 0; i < TOTAL_NUMBERS - 1; i++)\n            if(_ticket[i] == __winningNumbers[i])\n                stdMatches += 1;\n        bool matchPowerball = _ticket[POWERBALL_POSITION] == __winningNumbers[POWERBALL_POSITION];\n        if(stdMatches == 5 && matchPowerball)\n            return Classes.Class_1;\n        if(stdMatches == 5)\n            return Classes.Class_2;\n        if(stdMatches == 4 && matchPowerball)\n            return Classes.Class_3;\n        if(stdMatches == 4 || stdMatches == 3 && matchPowerball)\n            return Classes.Class_4;\n        if(stdMatches == 3 || stdMatches == 2 && matchPowerball)\n            return Classes.Class_5;\n        if(stdMatches == 2 || stdMatches == 1 && matchPowerball)\n            return Classes.Class_6;\n        if(stdMatches == 1)\n            return Classes.Class_7;\n        if(matchPowerball)\n            return Classes.Class_8;\n        return Classes.None;\n    }\n\n}",
  "sourcePath": "/Users/geremiapompei/Library/CloudStorage/OneDrive-UniversityofPisa/UNIPI/1 anno 2021_2022/2 semestre/Peer2Peer and Blockchain/exam/P2P/finalterm/smart_contract/contracts/Lottery.sol",
  "compiler": {
    "name": "solc",
    "version": "0.8.12+commit.f00d7308.Emscripten.clang"
  },
  "schemaVersion": "3.4.7",
  "updatedAt": "2022-05-27T13:47:37.978Z",
  "devdoc": {
    "kind": "dev",
    "methods": {},
    "version": 1
  },
  "userdoc": {
    "kind": "user",
    "methods": {},
    "version": 1
  }
}