{
  "contractName": "Lottery",
  "abi": [
    {
      "inputs": [
        {
          "internalType": "address",
          "name": "_erc721Address",
          "type": "address"
        },
        {
          "internalType": "uint8",
          "name": "_duration",
          "type": "uint8"
        },
        {
          "internalType": "uint16",
          "name": "_k",
          "type": "uint16"
        },
        {
          "internalType": "uint256",
          "name": "_ticketPrice",
          "type": "uint256"
        }
      ],
      "stateMutability": "nonpayable",
      "type": "constructor"
    },
    {
      "anonymous": false,
      "inputs": [
        {
          "indexed": false,
          "internalType": "address",
          "name": "_player",
          "type": "address"
        }
      ],
      "name": "Buy",
      "type": "event"
    },
    {
      "anonymous": false,
      "inputs": [
        {
          "indexed": false,
          "internalType": "enum Lottery.State",
          "name": "_state",
          "type": "uint8"
        }
      ],
      "name": "ChangeState",
      "type": "event"
    },
    {
      "anonymous": false,
      "inputs": [],
      "name": "CloseLottery",
      "type": "event"
    },
    {
      "anonymous": false,
      "inputs": [
        {
          "indexed": false,
          "internalType": "uint8",
          "name": "_n1",
          "type": "uint8"
        },
        {
          "indexed": false,
          "internalType": "uint8",
          "name": "_n2",
          "type": "uint8"
        },
        {
          "indexed": false,
          "internalType": "uint8",
          "name": "_n3",
          "type": "uint8"
        },
        {
          "indexed": false,
          "internalType": "uint8",
          "name": "_n4",
          "type": "uint8"
        },
        {
          "indexed": false,
          "internalType": "uint8",
          "name": "_n5",
          "type": "uint8"
        },
        {
          "indexed": false,
          "internalType": "uint8",
          "name": "_powerball",
          "type": "uint8"
        }
      ],
      "name": "DrawNumbers",
      "type": "event"
    },
    {
      "anonymous": false,
      "inputs": [
        {
          "indexed": false,
          "internalType": "address",
          "name": "_player",
          "type": "address"
        },
        {
          "indexed": false,
          "internalType": "uint256",
          "name": "_value",
          "type": "uint256"
        }
      ],
      "name": "GiveBack",
      "type": "event"
    },
    {
      "anonymous": false,
      "inputs": [
        {
          "indexed": false,
          "internalType": "address",
          "name": "_player",
          "type": "address"
        },
        {
          "indexed": false,
          "internalType": "uint256",
          "name": "_round",
          "type": "uint256"
        },
        {
          "indexed": false,
          "internalType": "enum Lottery.Class",
          "name": "_class",
          "type": "uint8"
        },
        {
          "indexed": false,
          "internalType": "uint256",
          "name": "_tokenId",
          "type": "uint256"
        }
      ],
      "name": "GivePrize",
      "type": "event"
    },
    {
      "anonymous": false,
      "inputs": [
        {
          "indexed": false,
          "internalType": "address",
          "name": "_player",
          "type": "address"
        },
        {
          "indexed": false,
          "internalType": "uint256",
          "name": "_round",
          "type": "uint256"
        }
      ],
      "name": "NoGivePrize",
      "type": "event"
    },
    {
      "anonymous": false,
      "inputs": [
        {
          "indexed": false,
          "internalType": "uint256",
          "name": "_blockNumber",
          "type": "uint256"
        },
        {
          "indexed": false,
          "internalType": "uint256",
          "name": "_round",
          "type": "uint256"
        }
      ],
      "name": "StartNewRound",
      "type": "event"
    },
    {
      "inputs": [],
      "name": "POWERBALL_POSITION",
      "outputs": [
        {
          "internalType": "uint8",
          "name": "",
          "type": "uint8"
        }
      ],
      "stateMutability": "view",
      "type": "function",
      "constant": true
    },
    {
      "inputs": [
        {
          "internalType": "uint256",
          "name": "",
          "type": "uint256"
        },
        {
          "internalType": "uint256",
          "name": "",
          "type": "uint256"
        }
      ],
      "name": "RANGES",
      "outputs": [
        {
          "internalType": "uint8",
          "name": "",
          "type": "uint8"
        }
      ],
      "stateMutability": "view",
      "type": "function",
      "constant": true
    },
    {
      "inputs": [],
      "name": "TOTAL_NUMBERS",
      "outputs": [
        {
          "internalType": "uint8",
          "name": "",
          "type": "uint8"
        }
      ],
      "stateMutability": "view",
      "type": "function",
      "constant": true
    },
    {
      "inputs": [
        {
          "internalType": "enum Lottery.Class",
          "name": "",
          "type": "uint8"
        }
      ],
      "name": "collectibles",
      "outputs": [
        {
          "internalType": "uint256",
          "name": "tokenId",
          "type": "uint256"
        },
        {
          "internalType": "string",
          "name": "uri",
          "type": "string"
        },
        {
          "internalType": "bool",
          "name": "available",
          "type": "bool"
        }
      ],
      "stateMutability": "view",
      "type": "function",
      "constant": true
    },
    {
      "inputs": [],
      "name": "duration",
      "outputs": [
        {
          "internalType": "uint8",
          "name": "",
          "type": "uint8"
        }
      ],
      "stateMutability": "view",
      "type": "function",
      "constant": true
    },
    {
      "inputs": [],
      "name": "erc721Address",
      "outputs": [
        {
          "internalType": "address",
          "name": "",
          "type": "address"
        }
      ],
      "stateMutability": "view",
      "type": "function",
      "constant": true
    },
    {
      "inputs": [],
      "name": "round",
      "outputs": [
        {
          "internalType": "uint256",
          "name": "",
          "type": "uint256"
        }
      ],
      "stateMutability": "view",
      "type": "function",
      "constant": true
    },
    {
      "inputs": [],
      "name": "startRoundBlockNumber",
      "outputs": [
        {
          "internalType": "uint256",
          "name": "",
          "type": "uint256"
        }
      ],
      "stateMutability": "view",
      "type": "function",
      "constant": true
    },
    {
      "inputs": [],
      "name": "state",
      "outputs": [
        {
          "internalType": "enum Lottery.State",
          "name": "",
          "type": "uint8"
        }
      ],
      "stateMutability": "view",
      "type": "function",
      "constant": true
    },
    {
      "inputs": [],
      "name": "ticketPrice",
      "outputs": [
        {
          "internalType": "uint256",
          "name": "",
          "type": "uint256"
        }
      ],
      "stateMutability": "view",
      "type": "function",
      "constant": true
    },
    {
      "inputs": [],
      "name": "startNewRound",
      "outputs": [],
      "stateMutability": "nonpayable",
      "type": "function"
    },
    {
      "inputs": [
        {
          "internalType": "uint8[6]",
          "name": "numbers",
          "type": "uint8[6]"
        }
      ],
      "name": "buy",
      "outputs": [],
      "stateMutability": "payable",
      "type": "function",
      "payable": true
    },
    {
      "inputs": [],
      "name": "drawNumbers",
      "outputs": [],
      "stateMutability": "nonpayable",
      "type": "function"
    },
    {
      "inputs": [],
      "name": "givePrizes",
      "outputs": [],
      "stateMutability": "nonpayable",
      "type": "function"
    },
    {
      "inputs": [
        {
          "internalType": "string",
          "name": "_uri",
          "type": "string"
        },
        {
          "internalType": "enum Lottery.Class",
          "name": "_class",
          "type": "uint8"
        }
      ],
      "name": "mint",
      "outputs": [],
      "stateMutability": "nonpayable",
      "type": "function"
    },
    {
      "inputs": [],
      "name": "closeLottery",
      "outputs": [],
      "stateMutability": "nonpayable",
      "type": "function"
    }
  ],
  "bytecode": "0x60806040526040518060c001604052806040518060400160405280600160ff168152602001604560ff1681525081526020016040518060400160405280600160ff168152602001604560ff1681525081526020016040518060400160405280600160ff168152602001604560ff1681525081526020016040518060400160405280600160ff168152602001604560ff1681525081526020016040518060400160405280600160ff168152602001604560ff1681525081526020016040518060400160405280600160ff168152602001601a60ff168152508152506000906006620000eb92919062000238565b50348015620000f957600080fd5b5060405162002fc838038062002fc883398181016040528101906200011f91906200049e565b32600660006101000a81548173ffffffffffffffffffffffffffffffffffffffff021916908373ffffffffffffffffffffffffffffffffffffffff16021790555083600760006101000a81548173ffffffffffffffffffffffffffffffffffffffff021916908373ffffffffffffffffffffffffffffffffffffffff16021790555081600660146101000a81548161ffff021916908361ffff1602179055504360088190555080600a8190555082600b60006101000a81548160ff021916908360ff1602179055506001600c819055507f602d52a424ba31c8904768b40efd585d7c78b61530cebd288dc8fc0be871a3c6600854600c546040516200022692919062000521565b60405180910390a1505050506200054e565b82600681019282156200027a579160200282015b828111156200027957825182906002620002689291906200028d565b50916020019190600101906200024c565b5b5090506200028991906200032e565b5090565b826002601f016020900481019282156200031b5791602002820160005b83821115620002ea57835183826101000a81548160ff021916908360ff1602179055509260200192600101602081600001049283019260010302620002aa565b8015620003195782816101000a81549060ff0219169055600101602081600001049283019260010302620002ea565b505b5090506200032a919062000356565b5090565b5b8082111562000352576000818162000348919062000375565b506001016200032f565b5090565b5b808211156200037157600081600090555060010162000357565b5090565b5060009055565b600080fd5b600073ffffffffffffffffffffffffffffffffffffffff82169050919050565b6000620003ae8262000381565b9050919050565b620003c081620003a1565b8114620003cc57600080fd5b50565b600081519050620003e081620003b5565b92915050565b600060ff82169050919050565b620003fe81620003e6565b81146200040a57600080fd5b50565b6000815190506200041e81620003f3565b92915050565b600061ffff82169050919050565b6200043d8162000424565b81146200044957600080fd5b50565b6000815190506200045d8162000432565b92915050565b6000819050919050565b620004788162000463565b81146200048457600080fd5b50565b60008151905062000498816200046d565b92915050565b60008060008060808587031215620004bb57620004ba6200037c565b5b6000620004cb87828801620003cf565b9450506020620004de878288016200040d565b9350506040620004f1878288016200044c565b9250506060620005048782880162000487565b91505092959194509250565b6200051b8162000463565b82525050565b600060408201905062000538600083018562000510565b62000547602083018462000510565b9392505050565b612a6a806200055e6000396000f3fe6080604052600436106100f35760003560e01c80636bcdba731161008a578063c19d93fb11610059578063c19d93fb146102be578063ef3c4e91146102e9578063f3006c8714610328578063f828d14b14610351576100f3565b80636bcdba73146102285780636fd0981614610253578063751eee8d1461026a578063bd85948c146102a7576100f3565b80632352a864116100c65780632352a864146101905780632a6c7fc3146101bb5780634d1a6699146101e6578063676c902f14610211576100f3565b806306d5ee54146100f85780630fb5a6b41461010f5780631209b1f61461013a578063146ca53114610165575b600080fd5b34801561010457600080fd5b5061010d61036d565b005b34801561011b57600080fd5b5061012461090f565b6040516101319190611b76565b60405180910390f35b34801561014657600080fd5b5061014f610922565b60405161015c9190611baa565b60405180910390f35b34801561017157600080fd5b5061017a610928565b6040516101879190611baa565b60405180910390f35b34801561019c57600080fd5b506101a561092e565b6040516101b29190611c06565b60405180910390f35b3480156101c757600080fd5b506101d0610954565b6040516101dd9190611b76565b60405180910390f35b3480156101f257600080fd5b506101fb610959565b6040516102089190611b76565b60405180910390f35b34801561021d57600080fd5b5061022661095e565b005b34801561023457600080fd5b5061023d610d24565b60405161024a9190611baa565b60405180910390f35b34801561025f57600080fd5b50610268610d2a565b005b34801561027657600080fd5b50610291600480360381019061028c9190611c61565b611038565b60405161029e9190611b76565b60405180910390f35b3480156102b357600080fd5b506102bc611074565b005b3480156102ca57600080fd5b506102d36111bb565b6040516102e09190611d18565b60405180910390f35b3480156102f557600080fd5b50610310600480360381019061030b9190611d58565b6111ce565b60405161031f93929190611e39565b60405180910390f35b34801561033457600080fd5b5061034f600480360381019061034a9190611fac565b61128d565b005b61036b600480360381019061036691906120ea565b611465565b005b3373ffffffffffffffffffffffffffffffffffffffff16600660009054906101000a900473ffffffffffffffffffffffffffffffffffffffff1673ffffffffffffffffffffffffffffffffffffffff16146103fd576040517f08c379a00000000000000000000000000000000000000000000000000000000081526004016103f490612163565b60405180910390fd5b6002600481111561041157610410611ca1565b5b600960009054906101000a900460ff16600481111561043357610432611ca1565b5b14610473576040517f08c379a000000000000000000000000000000000000000000000000000000000815260040161046a906121cf565b60405180910390fd5b60005b600e805490508160ff161015610816576000610513600f8360ff16815481106104a2576104a16121ef565b5b90600052602060002001600680602002604051908101604052809291908260068015610509576020028201916000905b82829054906101000a900460ff1660ff16815260200190600101906020826000010492830192600103820291508084116104d25790505b50505050506116f1565b90506000600e8360ff168154811061052e5761052d6121ef565b5b9060005260206000200160009054906101000a900473ffffffffffffffffffffffffffffffffffffffff1690506000600881111561056f5761056e611ca1565b5b82600881111561058257610581611ca1565b5b146107c5576000601060008460088111156105a05761059f611ca1565b5b60088111156105b2576105b1611ca1565b5b815260200190815260200160002090506000816000015411610609576040517f08c379a00000000000000000000000000000000000000000000000000000000081526004016106009061226a565b60405180910390fd5b8060020160009054906101000a900460ff16156106d757600760009054906101000a900473ffffffffffffffffffffffffffffffffffffffff1673ffffffffffffffffffffffffffffffffffffffff166342842e0e308484600001546040518463ffffffff1660e01b81526004016106839392919061228a565b600060405180830381600087803b15801561069d57600080fd5b505af11580156106b1573d6000803e3d6000fd5b5050505060008160020160006101000a81548160ff02191690831515021790555061077c565b600760009054906101000a900473ffffffffffffffffffffffffffffffffffffffff1673ffffffffffffffffffffffffffffffffffffffff1663d0def52183836001016040518363ffffffff1660e01b81526004016107379291906123b7565b6020604051808303816000875af1158015610756573d6000803e3d6000fd5b505050506040513d601f19601f8201168201806040525081019061077a91906123fc565b505b7f61674068ece989a7d47bd6baf4bf0f0bcd9334feba27a669585ff9e261634b3082600c548584600001546040516107b79493929190612471565b60405180910390a150610801565b7fcff1ec68402a76464736681ccbdc1072abfece20faf4b321c9510acd619ebb0981600c546040516107f89291906124b6565b60405180910390a15b5050808061080e9061250e565b915050610476565b50600e600061082591906119b0565b600f600061083391906119d1565b6003600960006101000a81548160ff0219169083600481111561085957610858611ca1565b5b0217905550600660009054906101000a900473ffffffffffffffffffffffffffffffffffffffff1673ffffffffffffffffffffffffffffffffffffffff166108fc479081150290604051600060405180830381858888f193505050501580156108c6573d6000803e3d6000fd5b507f402ee26d4c255fcb07b0b7b5b93b77377832260977c25be44f3c8feffd2df70e600960009054906101000a900460ff166040516109059190611d18565b60405180910390a1565b600b60009054906101000a900460ff1681565b600a5481565b600c5481565b600760009054906101000a900473ffffffffffffffffffffffffffffffffffffffff1681565b600581565b600681565b3373ffffffffffffffffffffffffffffffffffffffff16600660009054906101000a900473ffffffffffffffffffffffffffffffffffffffff1673ffffffffffffffffffffffffffffffffffffffff16146109ee576040517f08c379a00000000000000000000000000000000000000000000000000000000081526004016109e590612163565b60405180910390fd5b60016004811115610a0257610a01611ca1565b5b600960009054906101000a900460ff166004811115610a2457610a23611ca1565b5b14610a64576040517f08c379a0000000000000000000000000000000000000000000000000000000008152600401610a5b90612584565b60405180910390fd5b6000610a6e6118f8565b905060005b600660ff168160ff161015610b725760008160ff1660068110610a9957610a986121ef565b5b01600060028110610aad57610aac6121ef565b5b602091828204019190069054906101000a900460ff1660008260ff1660068110610ada57610ad96121ef565b5b01600160028110610aee57610aed6121ef565b5b602091828204019190069054906101000a900460ff1683610b0f91906125d3565b610b199190612604565b600d8260ff1660068110610b3057610b2f6121ef565b5b602091828204019190066101000a81548160ff021916908360ff160217905550606482610b5d919061263b565b91508080610b6a9061250e565b915050610a73565b506002600960006101000a81548160ff02191690836004811115610b9957610b98611ca1565b5b02179055507f91b6dfbb93b3029a464861666207297538b99fee457b8ad2b2b34efcbc40b7a5600d600060068110610bd457610bd36121ef565b5b602091828204019190069054906101000a900460ff16600d600160068110610bff57610bfe6121ef565b5b602091828204019190069054906101000a900460ff16600d600260068110610c2a57610c296121ef565b5b602091828204019190069054906101000a900460ff16600d600360068110610c5557610c546121ef565b5b602091828204019190069054906101000a900460ff16600d600460068110610c8057610c7f6121ef565b5b602091828204019190069054906101000a900460ff16600d600560068110610cab57610caa6121ef565b5b602091828204019190069054906101000a900460ff16604051610cd39695949392919061266c565b60405180910390a17f402ee26d4c255fcb07b0b7b5b93b77377832260977c25be44f3c8feffd2df70e600960009054906101000a900460ff16604051610d199190611d18565b60405180910390a150565b60085481565b3373ffffffffffffffffffffffffffffffffffffffff16600660009054906101000a900473ffffffffffffffffffffffffffffffffffffffff1673ffffffffffffffffffffffffffffffffffffffff1614610dba576040517f08c379a0000000000000000000000000000000000000000000000000000000008152600401610db190612163565b60405180910390fd5b600480811115610dcd57610dcc611ca1565b5b600960009054906101000a900460ff166004811115610def57610dee611ca1565b5b1415610e30576040517f08c379a0000000000000000000000000000000000000000000000000000000008152600401610e2790612719565b60405180910390fd5b60036004811115610e4457610e43611ca1565b5b600960009054906101000a900460ff166004811115610e6657610e65611ca1565b5b14610f995760005b600e805490508160ff161015610f9757600e8160ff1681548110610e9557610e946121ef565b5b9060005260206000200160009054906101000a900473ffffffffffffffffffffffffffffffffffffffff1673ffffffffffffffffffffffffffffffffffffffff166108fc600a549081150290604051600060405180830381858888f19350505050158015610f07573d6000803e3d6000fd5b507ff0d779af07d479bd1d3f514a6304c7a2371987e96bdca83ba5133e2c39fa0507600e8260ff1681548110610f4057610f3f6121ef565b5b9060005260206000200160009054906101000a900473ffffffffffffffffffffffffffffffffffffffff16600a54604051610f7c9291906124b6565b60405180910390a18080610f8f9061250e565b915050610e6e565b505b6004600960006101000a81548160ff02191690836004811115610fbf57610fbe611ca1565b5b02179055507f041434c50395b9a06c4309166ef0c0e2da56c3e21804dc8a8dc3dbc0dae5020360405160405180910390a17f402ee26d4c255fcb07b0b7b5b93b77377832260977c25be44f3c8feffd2df70e600960009054906101000a900460ff1660405161102e9190611d18565b60405180910390a1565b6000826006811061104857600080fd5b01816002811061105757600080fd5b60209182820401919006915091509054906101000a900460ff1681565b6003600481111561108857611087611ca1565b5b600960009054906101000a900460ff1660048111156110aa576110a9611ca1565b5b146110ea576040517f08c379a00000000000000000000000000000000000000000000000000000000081526004016110e190612785565b60405180910390fd5b436008819055506001600c600082825461110491906127a5565b925050819055506000600960006101000a81548160ff0219169083600481111561113157611130611ca1565b5b02179055507f602d52a424ba31c8904768b40efd585d7c78b61530cebd288dc8fc0be871a3c6600854600c5460405161116b9291906127fb565b60405180910390a17f402ee26d4c255fcb07b0b7b5b93b77377832260977c25be44f3c8feffd2df70e600960009054906101000a900460ff166040516111b19190611d18565b60405180910390a1565b600960009054906101000a900460ff1681565b60106020528060005260406000206000915090508060000154908060010180546111f7906122f0565b80601f0160208091040260200160405190810160405280929190818152602001828054611223906122f0565b80156112705780601f1061124557610100808354040283529160200191611270565b820191906000526020600020905b81548152906001019060200180831161125357829003601f168201915b5050505050908060020160009054906101000a900460ff16905083565b3373ffffffffffffffffffffffffffffffffffffffff16600660009054906101000a900473ffffffffffffffffffffffffffffffffffffffff1673ffffffffffffffffffffffffffffffffffffffff161461131d576040517f08c379a000000000000000000000000000000000000000000000000000000000815260040161131490612163565b60405180910390fd5b6000600760009054906101000a900473ffffffffffffffffffffffffffffffffffffffff1673ffffffffffffffffffffffffffffffffffffffff1663d0def52130856040518363ffffffff1660e01b815260040161137c929190612824565b6020604051808303816000875af115801561139b573d6000803e3d6000fd5b505050506040513d601f19601f820116820180604052508101906113bf91906123fc565b9050604051806060016040528082815260200184815260200160011515815250601060008460088111156113f6576113f5611ca1565b5b600881111561140857611407611ca1565b5b815260200190815260200160002060008201518160000155602082015181600101908051906020019061143c9291906119f2565b5060408201518160020160006101000a81548160ff021916908315150217905550905050505050565b6000600481111561147957611478611ca1565b5b600960009054906101000a900460ff16600481111561149b5761149a611ca1565b5b146114db576040517f08c379a00000000000000000000000000000000000000000000000000000000081526004016114d2906128a0565b60405180910390fd5b600a54341015611520576040517f08c379a00000000000000000000000000000000000000000000000000000000081526004016115179061290c565b60405180910390fd5b6000600b60009054906101000a900460ff1660ff1660085443611543919061292c565b109050806115c1576001600960006101000a81548160ff0219169083600481111561157157611570611ca1565b5b02179055507f402ee26d4c255fcb07b0b7b5b93b77377832260977c25be44f3c8feffd2df70e600960009054906101000a900460ff166040516115b49190611d18565b60405180910390a16116ed565b6000339050600e819080600181540180825580915050600190039060005260206000200160009091909190916101000a81548173ffffffffffffffffffffffffffffffffffffffff021916908373ffffffffffffffffffffffffffffffffffffffff160217905550600f839080600181540180825580915050600190039060005260206000200160009091909190915090600661165f929190611a78565b508073ffffffffffffffffffffffffffffffffffffffff166108fc600a5434611688919061292c565b9081150290604051600060405180830381858888f193505050501580156116b3573d6000803e3d6000fd5b507f5c6c890314aa0d49059c35b35ff86ffb43efe8f543dc3691558f39dfa4a82011816040516116e39190611c06565b60405180910390a1505b5050565b6000806000905060005b600160066117099190612960565b60ff168160ff16101561178d57600d8160ff166006811061172d5761172c6121ef565b5b602091828204019190069054906101000a900460ff1660ff16848260ff166006811061175c5761175b6121ef565b5b602002015160ff16141561177a576001826117779190612604565b91505b80806117859061250e565b9150506116fb565b506000600d600560ff16600681106117a8576117a76121ef565b5b602091828204019190069054906101000a900460ff1660ff1684600560ff16600681106117d8576117d76121ef565b5b602002015160ff1614905060058260ff161480156117f35750805b15611803576001925050506118f3565b60058260ff16141561181a576002925050506118f3565b60048260ff1614801561182a5750805b1561183a576003925050506118f3565b60048260ff161480611858575060038260ff161480156118575750805b5b15611868576004925050506118f3565b60038260ff161480611886575060028260ff161480156118855750805b5b15611896576005925050506118f3565b60028260ff1614806118b4575060018260ff161480156118b35750805b5b156118c4576006925050506118f3565b60018260ff1614156118db576007925050506118f3565b80156118ec576008925050506118f3565b6000925050505b919050565b600080600660149054906101000a900461ffff1661ffff16600b60009054906101000a900460ff1660ff1660085461193091906127a5565b61193a91906127a5565b90504381111561197f576040517f08c379a0000000000000000000000000000000000000000000000000000000008152600401611976906129e0565b60405180910390fd5b80406040516020016119919190612a19565b6040516020818303038152906040528051906020012060001c91505090565b50805460008255906000526020600020908101906119ce9190611b12565b50565b50805460008255906000526020600020908101906119ef9190611b2f565b50565b8280546119fe906122f0565b90600052602060002090601f016020900481019282611a205760008555611a67565b82601f10611a3957805160ff1916838001178555611a67565b82800160010185558215611a67579182015b82811115611a66578251825591602001919060010190611a4b565b5b509050611a749190611b12565b5090565b826006601f01602090048101928215611b015791602002820160005b83821115611ad257835183826101000a81548160ff021916908360ff1602179055509260200192600101602081600001049283019260010302611a94565b8015611aff5782816101000a81549060ff0219169055600101602081600001049283019260010302611ad2565b505b509050611b0e9190611b12565b5090565b5b80821115611b2b576000816000905550600101611b13565b5090565b5b80821115611b4f5760008181611b469190611b53565b50600101611b30565b5090565b5060009055565b600060ff82169050919050565b611b7081611b5a565b82525050565b6000602082019050611b8b6000830184611b67565b92915050565b6000819050919050565b611ba481611b91565b82525050565b6000602082019050611bbf6000830184611b9b565b92915050565b600073ffffffffffffffffffffffffffffffffffffffff82169050919050565b6000611bf082611bc5565b9050919050565b611c0081611be5565b82525050565b6000602082019050611c1b6000830184611bf7565b92915050565b6000604051905090565b600080fd5b600080fd5b611c3e81611b91565b8114611c4957600080fd5b50565b600081359050611c5b81611c35565b92915050565b60008060408385031215611c7857611c77611c2b565b5b6000611c8685828601611c4c565b9250506020611c9785828601611c4c565b9150509250929050565b7f4e487b7100000000000000000000000000000000000000000000000000000000600052602160045260246000fd5b60058110611ce157611ce0611ca1565b5b50565b6000819050611cf282611cd0565b919050565b6000611d0282611ce4565b9050919050565b611d1281611cf7565b82525050565b6000602082019050611d2d6000830184611d09565b92915050565b60098110611d4057600080fd5b50565b600081359050611d5281611d33565b92915050565b600060208284031215611d6e57611d6d611c2b565b5b6000611d7c84828501611d43565b91505092915050565b600081519050919050565b600082825260208201905092915050565b60005b83811015611dbf578082015181840152602081019050611da4565b83811115611dce576000848401525b50505050565b6000601f19601f8301169050919050565b6000611df082611d85565b611dfa8185611d90565b9350611e0a818560208601611da1565b611e1381611dd4565b840191505092915050565b60008115159050919050565b611e3381611e1e565b82525050565b6000606082019050611e4e6000830186611b9b565b8181036020830152611e608185611de5565b9050611e6f6040830184611e2a565b949350505050565b600080fd5b600080fd5b7f4e487b7100000000000000000000000000000000000000000000000000000000600052604160045260246000fd5b611eb982611dd4565b810181811067ffffffffffffffff82111715611ed857611ed7611e81565b5b80604052505050565b6000611eeb611c21565b9050611ef78282611eb0565b919050565b600067ffffffffffffffff821115611f1757611f16611e81565b5b611f2082611dd4565b9050602081019050919050565b82818337600083830152505050565b6000611f4f611f4a84611efc565b611ee1565b905082815260208101848484011115611f6b57611f6a611e7c565b5b611f76848285611f2d565b509392505050565b600082601f830112611f9357611f92611e77565b5b8135611fa3848260208601611f3c565b91505092915050565b60008060408385031215611fc357611fc2611c2b565b5b600083013567ffffffffffffffff811115611fe157611fe0611c30565b5b611fed85828601611f7e565b9250506020611ffe85828601611d43565b9150509250929050565b600067ffffffffffffffff82111561202357612022611e81565b5b602082029050919050565b600080fd5b61203c81611b5a565b811461204757600080fd5b50565b60008135905061205981612033565b92915050565b600061207261206d84612008565b611ee1565b9050806020840283018581111561208c5761208b61202e565b5b835b818110156120b557806120a1888261204a565b84526020840193505060208101905061208e565b5050509392505050565b600082601f8301126120d4576120d3611e77565b5b60066120e184828561205f565b91505092915050565b600060c08284031215612100576120ff611c2b565b5b600061210e848285016120bf565b91505092915050565b7f4f7065726174696f6e20756e617574686f72697a656400000000000000000000600082015250565b600061214d601683611d90565b915061215882612117565b602082019050919050565b6000602082019050818103600083015261217c81612140565b9050919050565b7f596f752063616e6e6f742067697665207072697a6573206e6f77000000000000600082015250565b60006121b9601a83611d90565b91506121c482612183565b602082019050919050565b600060208201905081810360008301526121e8816121ac565b9050919050565b7f4e487b7100000000000000000000000000000000000000000000000000000000600052603260045260246000fd5b7f4e6f7420656e6f756768207072697a6573000000000000000000000000000000600082015250565b6000612254601183611d90565b915061225f8261221e565b602082019050919050565b6000602082019050818103600083015261228381612247565b9050919050565b600060608201905061229f6000830186611bf7565b6122ac6020830185611bf7565b6122b96040830184611b9b565b949350505050565b7f4e487b7100000000000000000000000000000000000000000000000000000000600052602260045260246000fd5b6000600282049050600182168061230857607f821691505b6020821081141561231c5761231b6122c1565b5b50919050565b60008190508160005260206000209050919050565b60008154612344816122f0565b61234e8186611d90565b94506001821660008114612369576001811461237b576123ae565b60ff19831686526020860193506123ae565b61238485612322565b60005b838110156123a657815481890152600182019150602081019050612387565b808801955050505b50505092915050565b60006040820190506123cc6000830185611bf7565b81810360208301526123de8184612337565b90509392505050565b6000815190506123f681611c35565b92915050565b60006020828403121561241257612411611c2b565b5b6000612420848285016123e7565b91505092915050565b6009811061243a57612439611ca1565b5b50565b600081905061244b82612429565b919050565b600061245b8261243d565b9050919050565b61246b81612450565b82525050565b60006080820190506124866000830187611bf7565b6124936020830186611b9b565b6124a06040830185612462565b6124ad6060830184611b9b565b95945050505050565b60006040820190506124cb6000830185611bf7565b6124d86020830184611b9b565b9392505050565b7f4e487b7100000000000000000000000000000000000000000000000000000000600052601160045260246000fd5b600061251982611b5a565b915060ff82141561252d5761252c6124df565b5b600182019050919050565b7f596f752063616e6e6f742064726177206e6f7700000000000000000000000000600082015250565b600061256e601383611d90565b915061257982612538565b602082019050919050565b6000602082019050818103600083015261259d81612561565b9050919050565b7f4e487b7100000000000000000000000000000000000000000000000000000000600052601260045260246000fd5b60006125de82611b5a565b91506125e983611b5a565b9250826125f9576125f86125a4565b5b828206905092915050565b600061260f82611b5a565b915061261a83611b5a565b92508260ff038211156126305761262f6124df565b5b828201905092915050565b600061264682611b91565b915061265183611b91565b925082612661576126606125a4565b5b828204905092915050565b600060c0820190506126816000830189611b67565b61268e6020830188611b67565b61269b6040830187611b67565b6126a86060830186611b67565b6126b56080830185611b67565b6126c260a0830184611b67565b979650505050505050565b7f4c6f747465727920616c726561647920636c6f73656400000000000000000000600082015250565b6000612703601683611d90565b915061270e826126cd565b602082019050919050565b60006020820190508181036000830152612732816126f6565b9050919050565b7f526f756e64206973206e6f742066696e69736865640000000000000000000000600082015250565b600061276f601583611d90565b915061277a82612739565b602082019050919050565b6000602082019050818103600083015261279e81612762565b9050919050565b60006127b082611b91565b91506127bb83611b91565b9250827fffffffffffffffffffffffffffffffffffffffffffffffffffffffffffffffff038211156127f0576127ef6124df565b5b828201905092915050565b60006040820190506128106000830185611b9b565b61281d6020830184611b9b565b9392505050565b60006040820190506128396000830185611bf7565b818103602083015261284b8184611de5565b90509392505050565b7f596f752063616e6e6f7420627579206e6f770000000000000000000000000000600082015250565b600061288a601283611d90565b915061289582612854565b602082019050919050565b600060208201905081810360008301526128b98161287d565b9050919050565b7f4e6f7420656e6f75676820657468657200000000000000000000000000000000600082015250565b60006128f6601083611d90565b9150612901826128c0565b602082019050919050565b60006020820190508181036000830152612925816128e9565b9050919050565b600061293782611b91565b915061294283611b91565b925082821015612955576129546124df565b5b828203905092915050565b600061296b82611b5a565b915061297683611b5a565b925082821015612989576129886124df565b5b828203905092915050565b7f426c6f636b206e6f74207965742067656e657261746564000000000000000000600082015250565b60006129ca601783611d90565b91506129d582612994565b602082019050919050565b600060208201905081810360008301526129f9816129bd565b9050919050565b6000819050919050565b612a1381612a00565b82525050565b6000602082019050612a2e6000830184612a0a565b9291505056fea26469706673582212208dc7064a7433b99d0f0c03447a3f4407330ea602766edd7405e429c8301ba35564736f6c634300080c0033",
  "immutableReferences": {},
  "source": "// SPDX-License-Identifier: MIT\npragma solidity ^0.8.0;\n\nimport './ERC721.sol';\n\ncontract Lottery {\n\n    enum Class {None, Class_1, Class_2, Class_3, Class_4, Class_5, Class_6, Class_7, Class_8}\n    enum State {Buy, Draw, Prize, RoundFinished, Close}\n\n    struct Collectible {\n        uint256 tokenId;\n        string uri;\n        bool available;\n    }\n\n    uint8 public constant TOTAL_NUMBERS = 6;\n    uint8 public constant POWERBALL_POSITION = 5;\n    uint8[2][TOTAL_NUMBERS] public RANGES = [[1, 69], [1, 69], [1, 69], [1, 69], [1, 69], [1, 26]];\n\n    address private __operator;\n    uint16 private __k;\n    address public erc721Address;\n    uint256 public startRoundBlockNumber;\n    State public state;\n    uint256 public ticketPrice;\n    uint8 public duration;\n    uint256 public round;\n\n    uint8[TOTAL_NUMBERS] private __winningNumbers;\n    address[] private __players;\n    uint8[TOTAL_NUMBERS][] private __tickets;\n    mapping(Class => Collectible) public collectibles;\n\n    constructor(address _erc721Address, uint8 _duration, uint16 _k, uint256 _ticketPrice) {\n        __operator = tx.origin;\n        erc721Address = _erc721Address;\n        __k = _k;\n        startRoundBlockNumber = block.number;\n        ticketPrice = _ticketPrice;\n        duration = _duration;\n        round = 1;\n        emit StartNewRound(startRoundBlockNumber, round);\n    }\n\n    event StartNewRound(uint256 _blockNumber, uint256 _round);\n    event Buy(address _player);\n    event DrawNumbers(uint8 _n1, uint8 _n2, uint8 _n3, uint8 _n4, uint8 _n5, uint8 _powerball);\n    event NoGivePrize(address _player, uint256 _round);\n    event GivePrize(address _player, uint256 _round, Class _class, uint256 _tokenId);\n    event GiveBack(address _player, uint256 _value);\n    event CloseLottery();\n    event ChangeState(State _state);\n\n    modifier __isOperator() {\n        require(__operator == msg.sender, \"Operation unauthorized\");\n        _;\n    }\n\n    function startNewRound() public {\n        require(state == State.RoundFinished, \"Round is not finished\");\n        startRoundBlockNumber = block.number;\n        round += 1;\n        state = State.Buy;\n        emit StartNewRound(startRoundBlockNumber, round);\n        emit ChangeState(state);\n    }\n\n    function buy(uint8[TOTAL_NUMBERS] memory numbers) public payable {\n        require(state == State.Buy, \"You cannot buy now\");\n        require(msg.value >= ticketPrice, \"Not enough ether\");\n        bool canBuy = block.number - startRoundBlockNumber < duration;\n        if(!canBuy) {\n            state = State.Draw;\n            emit ChangeState(state);\n        } else {\n            address player = msg.sender;\n            __players.push(player);\n            __tickets.push(numbers);\n            payable(player).transfer(msg.value - ticketPrice);\n            emit Buy(player);\n        }\n    }\n\n    function drawNumbers() public __isOperator() {\n        require(state == State.Draw, \"You cannot draw now\");\n        uint256 number = __random();\n        for(uint8 i = 0; i < TOTAL_NUMBERS; i++) {\n            __winningNumbers[i] = uint8(number) % RANGES[i][1] + RANGES[i][0];\n            number /= 100;\n        }\n        state = State.Prize;\n        emit DrawNumbers(__winningNumbers[0], __winningNumbers[1], __winningNumbers[2], __winningNumbers[3], __winningNumbers[4], __winningNumbers[5]);\n        emit ChangeState(state);\n    }\n\n    function givePrizes() public __isOperator() {\n        require(state == State.Prize, \"You cannot give prizes now\");\n        for(uint8 i = 0; i < __players.length; i++) {\n            Class class = __matchClass(__tickets[i]);\n            address _player = __players[i];\n            if(class != Class.None) {\n                Collectible storage _collectible = collectibles[class];\n                require(_collectible.tokenId > 0, \"Not enough prizes\");\n                if(_collectible.available){\n                    ERC721(erc721Address).safeTransferFrom(address(this), _player, _collectible.tokenId);\n                    _collectible.available = false;\n                } else {\n                    ERC721(erc721Address).mint(_player, _collectible.uri);\n                }\n                emit GivePrize(_player, round, class, _collectible.tokenId);\n            } else {\n                emit NoGivePrize(_player, round);\n            }\n        }\n        delete __players;\n        delete __tickets;\n        state = State.RoundFinished;\n        payable(__operator).transfer(address(this).balance);\n        emit ChangeState(state);\n    }\n\n    function mint(string memory _uri, Class _class) public __isOperator() {\n        uint256 _tokenId = ERC721(erc721Address).mint(address(this), _uri);\n        collectibles[_class] = Collectible(_tokenId, _uri, true);\n    }\n\n    function closeLottery() public __isOperator() {\n        require(state != State.Close, \"Lottery already closed\");\n        if(state != State.RoundFinished) {\n            for(uint8 i = 0; i < __players.length; i++) {\n                payable(__players[i]).transfer(ticketPrice);\n                emit GiveBack(__players[i], ticketPrice);\n            }\n        }\n        state = State.Close;\n        emit CloseLottery();\n        emit ChangeState(state);\n    }\n\n    function __random() private view returns(uint256) {\n        uint256 blockNumber = startRoundBlockNumber + duration + __k;\n        require(blockNumber <= block.number, \"Block not yet generated\");\n        return uint256(keccak256(abi.encode(blockhash(blockNumber))));\n    }\n\n    function __matchClass(uint8[TOTAL_NUMBERS] memory _ticket) private view returns(Class class) {\n        uint8 stdMatches = 0;\n        for(uint8 i = 0; i < TOTAL_NUMBERS - 1; i++)\n            if(_ticket[i] == __winningNumbers[i])\n                stdMatches += 1;\n        bool matchPowerball = _ticket[POWERBALL_POSITION] == __winningNumbers[POWERBALL_POSITION];\n        if(stdMatches == 5 && matchPowerball)\n            return Class.Class_1;\n        if(stdMatches == 5)\n            return Class.Class_2;\n        if(stdMatches == 4 && matchPowerball)\n            return Class.Class_3;\n        if(stdMatches == 4 || stdMatches == 3 && matchPowerball)\n            return Class.Class_4;\n        if(stdMatches == 3 || stdMatches == 2 && matchPowerball)\n            return Class.Class_5;\n        if(stdMatches == 2 || stdMatches == 1 && matchPowerball)\n            return Class.Class_6;\n        if(stdMatches == 1)\n            return Class.Class_7;\n        if(matchPowerball)\n            return Class.Class_8;\n        return Class.None;\n    }\n\n}",
  "sourcePath": "/Users/geremiapompei/Library/CloudStorage/OneDrive-UniversityofPisa/UNIPI/1 anno 2021_2022/2 semestre/Peer2Peer and Blockchain/exam/P2P/finalterm/smart_contract/contracts/Lottery.sol",
  "compiler": {
    "name": "solc",
    "version": "0.8.12+commit.f00d7308.Emscripten.clang"
  },
  "schemaVersion": "3.4.7",
  "updatedAt": "2022-05-30T17:29:44.523Z",
  "networkType": "ethereum",
  "devdoc": {
    "kind": "dev",
    "methods": {},
    "version": 1
  },
  "userdoc": {
    "kind": "user",
    "methods": {},
    "version": 1
  }
}