{
  "contractName": "Lottery",
  "abi": [
    {
      "inputs": [
        {
          "internalType": "address",
          "name": "_erc721Address",
          "type": "address"
        },
        {
          "internalType": "uint8",
          "name": "_duration",
          "type": "uint8"
        },
        {
          "internalType": "uint16",
          "name": "_k",
          "type": "uint16"
        },
        {
          "internalType": "uint256",
          "name": "_ticketPrice",
          "type": "uint256"
        }
      ],
      "stateMutability": "nonpayable",
      "type": "constructor"
    },
    {
      "anonymous": false,
      "inputs": [
        {
          "indexed": true,
          "internalType": "address",
          "name": "_player",
          "type": "address"
        }
      ],
      "name": "Buy",
      "type": "event"
    },
    {
      "anonymous": false,
      "inputs": [],
      "name": "CloseLottery",
      "type": "event"
    },
    {
      "anonymous": false,
      "inputs": [],
      "name": "DrawNumbers",
      "type": "event"
    },
    {
      "anonymous": false,
      "inputs": [
        {
          "indexed": true,
          "internalType": "address",
          "name": "_player",
          "type": "address"
        },
        {
          "indexed": false,
          "internalType": "uint256",
          "name": "_round",
          "type": "uint256"
        },
        {
          "indexed": true,
          "internalType": "enum Lottery.Class",
          "name": "_class",
          "type": "uint8"
        },
        {
          "indexed": true,
          "internalType": "uint256",
          "name": "_tokenId",
          "type": "uint256"
        }
      ],
      "name": "GivePrize",
      "type": "event"
    },
    {
      "anonymous": false,
      "inputs": [
        {
          "indexed": true,
          "internalType": "address",
          "name": "_player",
          "type": "address"
        },
        {
          "indexed": false,
          "internalType": "uint256",
          "name": "_round",
          "type": "uint256"
        }
      ],
      "name": "NoGivePrize",
      "type": "event"
    },
    {
      "anonymous": false,
      "inputs": [
        {
          "indexed": true,
          "internalType": "uint256",
          "name": "_blockNumber",
          "type": "uint256"
        },
        {
          "indexed": false,
          "internalType": "uint256",
          "name": "_round",
          "type": "uint256"
        }
      ],
      "name": "StartNewRound",
      "type": "event"
    },
    {
      "inputs": [],
      "name": "POWERBALL_POSITION",
      "outputs": [
        {
          "internalType": "uint8",
          "name": "",
          "type": "uint8"
        }
      ],
      "stateMutability": "view",
      "type": "function"
    },
    {
      "inputs": [
        {
          "internalType": "uint256",
          "name": "",
          "type": "uint256"
        },
        {
          "internalType": "uint256",
          "name": "",
          "type": "uint256"
        }
      ],
      "name": "RANGES",
      "outputs": [
        {
          "internalType": "uint8",
          "name": "",
          "type": "uint8"
        }
      ],
      "stateMutability": "view",
      "type": "function"
    },
    {
      "inputs": [],
      "name": "TOTAL_NUMBERS",
      "outputs": [
        {
          "internalType": "uint8",
          "name": "",
          "type": "uint8"
        }
      ],
      "stateMutability": "view",
      "type": "function"
    },
    {
      "inputs": [],
      "name": "duration",
      "outputs": [
        {
          "internalType": "uint8",
          "name": "",
          "type": "uint8"
        }
      ],
      "stateMutability": "view",
      "type": "function"
    },
    {
      "inputs": [],
      "name": "erc721Address",
      "outputs": [
        {
          "internalType": "address",
          "name": "",
          "type": "address"
        }
      ],
      "stateMutability": "view",
      "type": "function"
    },
    {
      "inputs": [],
      "name": "round",
      "outputs": [
        {
          "internalType": "uint256",
          "name": "",
          "type": "uint256"
        }
      ],
      "stateMutability": "view",
      "type": "function"
    },
    {
      "inputs": [],
      "name": "startRoundBlockNumber",
      "outputs": [
        {
          "internalType": "uint256",
          "name": "",
          "type": "uint256"
        }
      ],
      "stateMutability": "view",
      "type": "function"
    },
    {
      "inputs": [],
      "name": "state",
      "outputs": [
        {
          "internalType": "enum Lottery.State",
          "name": "",
          "type": "uint8"
        }
      ],
      "stateMutability": "view",
      "type": "function"
    },
    {
      "inputs": [],
      "name": "ticketPrice",
      "outputs": [
        {
          "internalType": "uint256",
          "name": "",
          "type": "uint256"
        }
      ],
      "stateMutability": "view",
      "type": "function"
    },
    {
      "inputs": [],
      "name": "startNewRound",
      "outputs": [],
      "stateMutability": "nonpayable",
      "type": "function"
    },
    {
      "inputs": [
        {
          "internalType": "uint8[6]",
          "name": "numbers",
          "type": "uint8[6]"
        }
      ],
      "name": "buy",
      "outputs": [],
      "stateMutability": "payable",
      "type": "function"
    },
    {
      "inputs": [],
      "name": "drawNumbers",
      "outputs": [],
      "stateMutability": "nonpayable",
      "type": "function"
    },
    {
      "inputs": [],
      "name": "givePrizes",
      "outputs": [],
      "stateMutability": "nonpayable",
      "type": "function"
    },
    {
      "inputs": [
        {
          "internalType": "string",
          "name": "_uri",
          "type": "string"
        }
      ],
      "name": "mint",
      "outputs": [],
      "stateMutability": "nonpayable",
      "type": "function"
    },
    {
      "inputs": [],
      "name": "closeLottery",
      "outputs": [],
      "stateMutability": "nonpayable",
      "type": "function"
    }
  ],
  "bytecode": "0x60806040526040518060c001604052806040518060400160405280600160ff168152602001604560ff1681525081526020016040518060400160405280600160ff168152602001604560ff1681525081526020016040518060400160405280600160ff168152602001604560ff1681525081526020016040518060400160405280600160ff168152602001604560ff1681525081526020016040518060400160405280600160ff168152602001604560ff1681525081526020016040518060400160405280600160ff168152602001601a60ff168152508152506000906006620000eb92919062000237565b50348015620000f957600080fd5b5060405162002ace38038062002ace83398181016040528101906200011f91906200049d565b32600660006101000a81548173ffffffffffffffffffffffffffffffffffffffff021916908373ffffffffffffffffffffffffffffffffffffffff16021790555083600760006101000a81548173ffffffffffffffffffffffffffffffffffffffff021916908373ffffffffffffffffffffffffffffffffffffffff16021790555081600660146101000a81548161ffff021916908361ffff1602179055504360088190555080600a8190555082600b60006101000a81548160ff021916908360ff1602179055506001600c819055506008547f602d52a424ba31c8904768b40efd585d7c78b61530cebd288dc8fc0be871a3c6600c5460405162000225919062000520565b60405180910390a2505050506200053d565b826006810192821562000279579160200282015b828111156200027857825182906002620002679291906200028c565b50916020019190600101906200024b565b5b5090506200028891906200032d565b5090565b826002601f016020900481019282156200031a5791602002820160005b83821115620002e957835183826101000a81548160ff021916908360ff1602179055509260200192600101602081600001049283019260010302620002a9565b8015620003185782816101000a81549060ff0219169055600101602081600001049283019260010302620002e9565b505b50905062000329919062000355565b5090565b5b8082111562000351576000818162000347919062000374565b506001016200032e565b5090565b5b808211156200037057600081600090555060010162000356565b5090565b5060009055565b600080fd5b600073ffffffffffffffffffffffffffffffffffffffff82169050919050565b6000620003ad8262000380565b9050919050565b620003bf81620003a0565b8114620003cb57600080fd5b50565b600081519050620003df81620003b4565b92915050565b600060ff82169050919050565b620003fd81620003e5565b81146200040957600080fd5b50565b6000815190506200041d81620003f2565b92915050565b600061ffff82169050919050565b6200043c8162000423565b81146200044857600080fd5b50565b6000815190506200045c8162000431565b92915050565b6000819050919050565b620004778162000462565b81146200048357600080fd5b50565b60008151905062000497816200046c565b92915050565b60008060008060808587031215620004ba57620004b96200037b565b5b6000620004ca87828801620003ce565b9450506020620004dd878288016200040c565b9350506040620004f0878288016200044b565b9250506060620005038782880162000486565b91505092959194509250565b6200051a8162000462565b82525050565b60006020820190506200053760008301846200050f565b92915050565b612581806200054d6000396000f3fe6080604052600436106100e85760003560e01c8063676c902f1161008a578063bd85948c11610059578063bd85948c1461029c578063c19d93fb146102b3578063d85d3d27146102de578063f828d14b14610307576100e8565b8063676c902f146102065780636bcdba731461021d5780636fd0981614610248578063751eee8d1461025f576100e8565b8063146ca531116100c6578063146ca5311461015a5780632352a864146101855780632a6c7fc3146101b05780634d1a6699146101db576100e8565b806306d5ee54146100ed5780630fb5a6b4146101045780631209b1f61461012f575b600080fd5b3480156100f957600080fd5b50610102610323565b005b34801561011057600080fd5b506101196108fc565b604051610126919061185c565b60405180910390f35b34801561013b57600080fd5b5061014461090f565b6040516101519190611890565b60405180910390f35b34801561016657600080fd5b5061016f610915565b60405161017c9190611890565b60405180910390f35b34801561019157600080fd5b5061019a61091b565b6040516101a791906118ec565b60405180910390f35b3480156101bc57600080fd5b506101c5610941565b6040516101d2919061185c565b60405180910390f35b3480156101e757600080fd5b506101f0610946565b6040516101fd919061185c565b60405180910390f35b34801561021257600080fd5b5061021b61094b565b005b34801561022957600080fd5b50610232610bba565b60405161023f9190611890565b60405180910390f35b34801561025457600080fd5b5061025d610bc0565b005b34801561026b57600080fd5b5061028660048036038101906102819190611947565b610e0c565b604051610293919061185c565b60405180910390f35b3480156102a857600080fd5b506102b1610e48565b005b3480156102bf57600080fd5b506102c8610f48565b6040516102d591906119fe565b60405180910390f35b3480156102ea57600080fd5b5061030560048036038101906103009190611b5f565b610f5b565b005b610321600480360381019061031c9190611c8a565b6111ab565b005b3373ffffffffffffffffffffffffffffffffffffffff16600660009054906101000a900473ffffffffffffffffffffffffffffffffffffffff1673ffffffffffffffffffffffffffffffffffffffff16146103b3576040517f08c379a00000000000000000000000000000000000000000000000000000000081526004016103aa90611d14565b60405180910390fd5b600260048111156103c7576103c6611987565b5b600960009054906101000a900460ff1660048111156103e9576103e8611987565b5b14610429576040517f08c379a000000000000000000000000000000000000000000000000000000000815260040161042090611d80565b60405180910390fd5b60005b600e805490508160ff1610156108655760006104c9600f8360ff168154811061045857610457611da0565b5b906000526020600020016006806020026040519081016040528092919082600680156104bf576020028201916000905b82829054906101000a900460ff1660ff16815260200190600101906020826000010492830192600103820291508084116104885790505b50505050506113fd565b90506000600e8360ff16815481106104e4576104e3611da0565b5b9060005260206000200160009054906101000a900473ffffffffffffffffffffffffffffffffffffffff1690506000600881111561052557610524611987565b5b82600881111561053857610537611987565b5b1461078e57600060108460ff168154811061055657610555611da0565b5b9060005260206000209060030201905060008160000154116105ad576040517f08c379a00000000000000000000000000000000000000000000000000000000081526004016105a490611e1b565b60405180910390fd5b8060020160009054906101000a900460ff161561067b57600760009054906101000a900473ffffffffffffffffffffffffffffffffffffffff1673ffffffffffffffffffffffffffffffffffffffff166342842e0e308484600001546040518463ffffffff1660e01b815260040161062793929190611e3b565b600060405180830381600087803b15801561064157600080fd5b505af1158015610655573d6000803e3d6000fd5b5050505060008160020160006101000a81548160ff021916908315150217905550610720565b600760009054906101000a900473ffffffffffffffffffffffffffffffffffffffff1673ffffffffffffffffffffffffffffffffffffffff1663d0def52183836001016040518363ffffffff1660e01b81526004016106db929190611f68565b6020604051808303816000875af11580156106fa573d6000803e3d6000fd5b505050506040513d601f19601f8201168201806040525081019061071e9190611fad565b505b806000015483600881111561073857610737611987565b5b8373ffffffffffffffffffffffffffffffffffffffff167f61674068ece989a7d47bd6baf4bf0f0bcd9334feba27a669585ff9e261634b30600c546040516107809190611890565b60405180910390a4506107df565b8073ffffffffffffffffffffffffffffffffffffffff167fcff1ec68402a76464736681ccbdc1072abfece20faf4b321c9510acd619ebb09600c546040516107d69190611890565b60405180910390a25b600e8360ff16815481106107f6576107f5611da0565b5b9060005260206000200160006101000a81549073ffffffffffffffffffffffffffffffffffffffff0219169055600f8360ff168154811061083a57610839611da0565b5b90600052602060002001600061085091906116bc565b5050808061085d90612009565b91505061042c565b506003600960006101000a81548160ff0219169083600481111561088c5761088b611987565b5b0217905550600660009054906101000a900473ffffffffffffffffffffffffffffffffffffffff1673ffffffffffffffffffffffffffffffffffffffff166108fc479081150290604051600060405180830381858888f193505050501580156108f9573d6000803e3d6000fd5b50565b600b60009054906101000a900460ff1681565b600a5481565b600c5481565b600760009054906101000a900473ffffffffffffffffffffffffffffffffffffffff1681565b600581565b600681565b3373ffffffffffffffffffffffffffffffffffffffff16600660009054906101000a900473ffffffffffffffffffffffffffffffffffffffff1673ffffffffffffffffffffffffffffffffffffffff16146109db576040517f08c379a00000000000000000000000000000000000000000000000000000000081526004016109d290611d14565b60405180910390fd5b600160048111156109ef576109ee611987565b5b600960009054906101000a900460ff166004811115610a1157610a10611987565b5b14610a51576040517f08c379a0000000000000000000000000000000000000000000000000000000008152600401610a489061207f565b60405180910390fd5b6000610a5b611604565b905060005b600660ff168160ff161015610b5f5760008160ff1660068110610a8657610a85611da0565b5b01600060028110610a9a57610a99611da0565b5b602091828204019190069054906101000a900460ff1660008260ff1660068110610ac757610ac6611da0565b5b01600160028110610adb57610ada611da0565b5b602091828204019190069054906101000a900460ff1683610afc91906120ce565b610b0691906120ff565b600d8260ff1660068110610b1d57610b1c611da0565b5b602091828204019190066101000a81548160ff021916908360ff160217905550606482610b4a9190612136565b91508080610b5790612009565b915050610a60565b506002600960006101000a81548160ff02191690836004811115610b8657610b85611987565b5b02179055507f91934f81b8ffad6aa6d0ed721e3b92ebe9fd6267b46174696bd035f9361f21c860405160405180910390a150565b60085481565b3373ffffffffffffffffffffffffffffffffffffffff16600660009054906101000a900473ffffffffffffffffffffffffffffffffffffffff1673ffffffffffffffffffffffffffffffffffffffff1614610c50576040517f08c379a0000000000000000000000000000000000000000000000000000000008152600401610c4790611d14565b60405180910390fd5b600480811115610c6357610c62611987565b5b600960009054906101000a900460ff166004811115610c8557610c84611987565b5b1415610cc6576040517f08c379a0000000000000000000000000000000000000000000000000000000008152600401610cbd906121b3565b60405180910390fd5b60036004811115610cda57610cd9611987565b5b600960009054906101000a900460ff166004811115610cfc57610cfb611987565b5b14610db35760005b600e805490508160ff161015610db157600e8160ff1681548110610d2b57610d2a611da0565b5b9060005260206000200160009054906101000a900473ffffffffffffffffffffffffffffffffffffffff1673ffffffffffffffffffffffffffffffffffffffff166108fc600a549081150290604051600060405180830381858888f19350505050158015610d9d573d6000803e3d6000fd5b508080610da990612009565b915050610d04565b505b6004600960006101000a81548160ff02191690836004811115610dd957610dd8611987565b5b02179055507f041434c50395b9a06c4309166ef0c0e2da56c3e21804dc8a8dc3dbc0dae5020360405160405180910390a1565b60008260068110610e1c57600080fd5b018160028110610e2b57600080fd5b60209182820401919006915091509054906101000a900460ff1681565b60036004811115610e5c57610e5b611987565b5b600960009054906101000a900460ff166004811115610e7e57610e7d611987565b5b14610ebe576040517f08c379a0000000000000000000000000000000000000000000000000000000008152600401610eb59061221f565b60405180910390fd5b436008819055506001600c6000828254610ed8919061223f565b925050819055506000600960006101000a81548160ff02191690836004811115610f0557610f04611987565b5b02179055506008547f602d52a424ba31c8904768b40efd585d7c78b61530cebd288dc8fc0be871a3c6600c54604051610f3e9190611890565b60405180910390a2565b600960009054906101000a900460ff1681565b3373ffffffffffffffffffffffffffffffffffffffff16600660009054906101000a900473ffffffffffffffffffffffffffffffffffffffff1673ffffffffffffffffffffffffffffffffffffffff1614610feb576040517f08c379a0000000000000000000000000000000000000000000000000000000008152600401610fe290611d14565b60405180910390fd5b6000600760009054906101000a900473ffffffffffffffffffffffffffffffffffffffff1673ffffffffffffffffffffffffffffffffffffffff1663d0def52130846040518363ffffffff1660e01b815260040161104a92919061230c565b6020604051808303816000875af1158015611069573d6000803e3d6000fd5b505050506040513d601f19601f8201168201806040525081019061108d9190611fad565b90506008808111156110a2576110a1611987565b5b60ff1660016010805490506110b7919061223f565b11156111155760108054806110cf576110ce61233c565b5b60019003818190600052602060002090600302016000808201600090556001820160006110fc91906116c3565b6002820160006101000a81549060ff0219169055505090555b60106040518060600160405280838152602001848152602001600115158152509080600181540180825580915050600190039060005260206000209060030201600090919091909150600082015181600001556020820151816001019080519060200190611184929190611703565b5060408201518160020160006101000a81548160ff02191690831515021790555050505050565b600060048111156111bf576111be611987565b5b600960009054906101000a900460ff1660048111156111e1576111e0611987565b5b14611221576040517f08c379a0000000000000000000000000000000000000000000000000000000008152600401611218906123b7565b60405180910390fd5b600a54341015611266576040517f08c379a000000000000000000000000000000000000000000000000000000000815260040161125d90612423565b60405180910390fd5b6000600b60009054906101000a900460ff1660ff16600854436112899190612443565b109050806112c1576001600960006101000a81548160ff021916908360048111156112b7576112b6611987565b5b02179055506113f9565b6000339050600e819080600181540180825580915050600190039060005260206000200160009091909190916101000a81548173ffffffffffffffffffffffffffffffffffffffff021916908373ffffffffffffffffffffffffffffffffffffffff160217905550600f839080600181540180825580915050600190039060005260206000200160009091909190915090600661135f929190611789565b508073ffffffffffffffffffffffffffffffffffffffff166108fc600a54346113889190612443565b9081150290604051600060405180830381858888f193505050501580156113b3573d6000803e3d6000fd5b508073ffffffffffffffffffffffffffffffffffffffff167f5c6c890314aa0d49059c35b35ff86ffb43efe8f543dc3691558f39dfa4a8201160405160405180910390a2505b5050565b6000806000905060005b600160066114159190612477565b60ff168160ff16101561149957600d8160ff166006811061143957611438611da0565b5b602091828204019190069054906101000a900460ff1660ff16848260ff166006811061146857611467611da0565b5b602002015160ff1614156114865760018261148391906120ff565b91505b808061149190612009565b915050611407565b506000600d600560ff16600681106114b4576114b3611da0565b5b602091828204019190069054906101000a900460ff1660ff1684600560ff16600681106114e4576114e3611da0565b5b602002015160ff1614905060058260ff161480156114ff5750805b1561150f576001925050506115ff565b60058260ff161415611526576002925050506115ff565b60048260ff161480156115365750805b15611546576003925050506115ff565b60048260ff161480611564575060038260ff161480156115635750805b5b15611574576004925050506115ff565b60038260ff161480611592575060028260ff161480156115915750805b5b156115a2576005925050506115ff565b60028260ff1614806115c0575060018260ff161480156115bf5750805b5b156115d0576006925050506115ff565b60018260ff1614156115e7576007925050506115ff565b80156115f8576008925050506115ff565b6000925050505b919050565b600080600660149054906101000a900461ffff1661ffff16600b60009054906101000a900460ff1660ff1660085461163c919061223f565b611646919061223f565b90504381111561168b576040517f08c379a0000000000000000000000000000000000000000000000000000000008152600401611682906124f7565b60405180910390fd5b804060405160200161169d9190612530565b6040516020818303038152906040528051906020012060001c91505090565b5060009055565b5080546116cf90611ea1565b6000825580601f106116e15750611700565b601f0160209004906000526020600020908101906116ff9190611823565b5b50565b82805461170f90611ea1565b90600052602060002090601f0160209004810192826117315760008555611778565b82601f1061174a57805160ff1916838001178555611778565b82800160010185558215611778579182015b8281111561177757825182559160200191906001019061175c565b5b5090506117859190611823565b5090565b826006601f016020900481019282156118125791602002820160005b838211156117e357835183826101000a81548160ff021916908360ff16021790555092602001926001016020816000010492830192600103026117a5565b80156118105782816101000a81549060ff02191690556001016020816000010492830192600103026117e3565b505b50905061181f9190611823565b5090565b5b8082111561183c576000816000905550600101611824565b5090565b600060ff82169050919050565b61185681611840565b82525050565b6000602082019050611871600083018461184d565b92915050565b6000819050919050565b61188a81611877565b82525050565b60006020820190506118a56000830184611881565b92915050565b600073ffffffffffffffffffffffffffffffffffffffff82169050919050565b60006118d6826118ab565b9050919050565b6118e6816118cb565b82525050565b600060208201905061190160008301846118dd565b92915050565b6000604051905090565b600080fd5b600080fd5b61192481611877565b811461192f57600080fd5b50565b6000813590506119418161191b565b92915050565b6000806040838503121561195e5761195d611911565b5b600061196c85828601611932565b925050602061197d85828601611932565b9150509250929050565b7f4e487b7100000000000000000000000000000000000000000000000000000000600052602160045260246000fd5b600581106119c7576119c6611987565b5b50565b60008190506119d8826119b6565b919050565b60006119e8826119ca565b9050919050565b6119f8816119dd565b82525050565b6000602082019050611a1360008301846119ef565b92915050565b600080fd5b600080fd5b6000601f19601f8301169050919050565b7f4e487b7100000000000000000000000000000000000000000000000000000000600052604160045260246000fd5b611a6c82611a23565b810181811067ffffffffffffffff82111715611a8b57611a8a611a34565b5b80604052505050565b6000611a9e611907565b9050611aaa8282611a63565b919050565b600067ffffffffffffffff821115611aca57611ac9611a34565b5b611ad382611a23565b9050602081019050919050565b82818337600083830152505050565b6000611b02611afd84611aaf565b611a94565b905082815260208101848484011115611b1e57611b1d611a1e565b5b611b29848285611ae0565b509392505050565b600082601f830112611b4657611b45611a19565b5b8135611b56848260208601611aef565b91505092915050565b600060208284031215611b7557611b74611911565b5b600082013567ffffffffffffffff811115611b9357611b92611916565b5b611b9f84828501611b31565b91505092915050565b600067ffffffffffffffff821115611bc357611bc2611a34565b5b602082029050919050565b600080fd5b611bdc81611840565b8114611be757600080fd5b50565b600081359050611bf981611bd3565b92915050565b6000611c12611c0d84611ba8565b611a94565b90508060208402830185811115611c2c57611c2b611bce565b5b835b81811015611c555780611c418882611bea565b845260208401935050602081019050611c2e565b5050509392505050565b600082601f830112611c7457611c73611a19565b5b6006611c81848285611bff565b91505092915050565b600060c08284031215611ca057611c9f611911565b5b6000611cae84828501611c5f565b91505092915050565b600082825260208201905092915050565b7f4f7065726174696f6e20756e617574686f72697a656400000000000000000000600082015250565b6000611cfe601683611cb7565b9150611d0982611cc8565b602082019050919050565b60006020820190508181036000830152611d2d81611cf1565b9050919050565b7f596f752063616e6e6f742067697665207072697a6573206e6f77000000000000600082015250565b6000611d6a601a83611cb7565b9150611d7582611d34565b602082019050919050565b60006020820190508181036000830152611d9981611d5d565b9050919050565b7f4e487b7100000000000000000000000000000000000000000000000000000000600052603260045260246000fd5b7f4e6f7420656e6f756768207072697a6573000000000000000000000000000000600082015250565b6000611e05601183611cb7565b9150611e1082611dcf565b602082019050919050565b60006020820190508181036000830152611e3481611df8565b9050919050565b6000606082019050611e5060008301866118dd565b611e5d60208301856118dd565b611e6a6040830184611881565b949350505050565b7f4e487b7100000000000000000000000000000000000000000000000000000000600052602260045260246000fd5b60006002820490506001821680611eb957607f821691505b60208210811415611ecd57611ecc611e72565b5b50919050565b60008190508160005260206000209050919050565b60008154611ef581611ea1565b611eff8186611cb7565b94506001821660008114611f1a5760018114611f2c57611f5f565b60ff1983168652602086019350611f5f565b611f3585611ed3565b60005b83811015611f5757815481890152600182019150602081019050611f38565b808801955050505b50505092915050565b6000604082019050611f7d60008301856118dd565b8181036020830152611f8f8184611ee8565b90509392505050565b600081519050611fa78161191b565b92915050565b600060208284031215611fc357611fc2611911565b5b6000611fd184828501611f98565b91505092915050565b7f4e487b7100000000000000000000000000000000000000000000000000000000600052601160045260246000fd5b600061201482611840565b915060ff82141561202857612027611fda565b5b600182019050919050565b7f596f752063616e6e6f742064726177206e6f7700000000000000000000000000600082015250565b6000612069601383611cb7565b915061207482612033565b602082019050919050565b600060208201905081810360008301526120988161205c565b9050919050565b7f4e487b7100000000000000000000000000000000000000000000000000000000600052601260045260246000fd5b60006120d982611840565b91506120e483611840565b9250826120f4576120f361209f565b5b828206905092915050565b600061210a82611840565b915061211583611840565b92508260ff0382111561212b5761212a611fda565b5b828201905092915050565b600061214182611877565b915061214c83611877565b92508261215c5761215b61209f565b5b828204905092915050565b7f4c6f747465727920616c726561647920636c6f73656400000000000000000000600082015250565b600061219d601683611cb7565b91506121a882612167565b602082019050919050565b600060208201905081810360008301526121cc81612190565b9050919050565b7f526f756e64206973206e6f742066696e69736865640000000000000000000000600082015250565b6000612209601583611cb7565b9150612214826121d3565b602082019050919050565b60006020820190508181036000830152612238816121fc565b9050919050565b600061224a82611877565b915061225583611877565b9250827fffffffffffffffffffffffffffffffffffffffffffffffffffffffffffffffff0382111561228a57612289611fda565b5b828201905092915050565b600081519050919050565b60005b838110156122be5780820151818401526020810190506122a3565b838111156122cd576000848401525b50505050565b60006122de82612295565b6122e88185611cb7565b93506122f88185602086016122a0565b61230181611a23565b840191505092915050565b600060408201905061232160008301856118dd565b818103602083015261233381846122d3565b90509392505050565b7f4e487b7100000000000000000000000000000000000000000000000000000000600052603160045260246000fd5b7f596f752063616e6e6f7420627579206e6f770000000000000000000000000000600082015250565b60006123a1601283611cb7565b91506123ac8261236b565b602082019050919050565b600060208201905081810360008301526123d081612394565b9050919050565b7f4e6f7420656e6f75676820657468657200000000000000000000000000000000600082015250565b600061240d601083611cb7565b9150612418826123d7565b602082019050919050565b6000602082019050818103600083015261243c81612400565b9050919050565b600061244e82611877565b915061245983611877565b92508282101561246c5761246b611fda565b5b828203905092915050565b600061248282611840565b915061248d83611840565b9250828210156124a05761249f611fda565b5b828203905092915050565b7f426c6f636b206e6f74207965742067656e657261746564000000000000000000600082015250565b60006124e1601783611cb7565b91506124ec826124ab565b602082019050919050565b60006020820190508181036000830152612510816124d4565b9050919050565b6000819050919050565b61252a81612517565b82525050565b60006020820190506125456000830184612521565b9291505056fea26469706673582212203218400e8850abd8ce81e35edd42482afcc8b82b66044ec5b71b506ca7e2d13764736f6c634300080c0033",
  "immutableReferences": {},
  "source": "// SPDX-License-Identifier: MIT\npragma solidity ^0.8.0;\n\nimport './ERC721.sol';\n\ncontract Lottery {\n\n    enum Class {None, Class_1, Class_2, Class_3, Class_4, Class_5, Class_6, Class_7, Class_8}\n    enum State {Buy, Draw, Prize, RoundFinished, Close}\n\n    struct Collectible {\n        uint256 tokenId;\n        string uri;\n        bool available;\n    }\n\n    uint8 public constant TOTAL_NUMBERS = 6;\n    uint8 public constant POWERBALL_POSITION = 5;\n    uint8[2][TOTAL_NUMBERS] public RANGES = [[1, 69], [1, 69], [1, 69], [1, 69], [1, 69], [1, 26]];\n\n    address private __operator;\n    uint16 private __k;\n    address public erc721Address;\n    uint256 public startRoundBlockNumber;\n    State public state;\n    uint256 public ticketPrice;\n    uint8 public duration;\n    uint256 public round;\n\n    uint8[TOTAL_NUMBERS] private __winningNumbers;\n    address[] private __players;\n    uint8[TOTAL_NUMBERS][] private __tickets;\n    Collectible[] private __collectibles;\n\n    constructor(address _erc721Address, uint8 _duration, uint16 _k, uint256 _ticketPrice) {\n        __operator = tx.origin;\n        erc721Address = _erc721Address;\n        __k = _k;\n        startRoundBlockNumber = block.number;\n        ticketPrice = _ticketPrice;\n        duration = _duration;\n        round = 1;\n        emit StartNewRound(startRoundBlockNumber, round);\n    }\n\n    event StartNewRound(uint256 indexed _blockNumber, uint256 _round);\n    event Buy(address indexed _player);\n    event DrawNumbers();\n    event NoGivePrize(address indexed _player, uint256 _round);\n    event GivePrize(address indexed _player, uint256 _round, Class indexed _class, uint256 indexed _tokenId);\n    event CloseLottery();\n\n    modifier __isOperator() {\n        require(__operator == msg.sender, \"Operation unauthorized\");\n        _;\n    }\n\n    function startNewRound() external {\n        require(state == State.RoundFinished, \"Round is not finished\");\n        startRoundBlockNumber = block.number;\n        round += 1;\n        state = State.Buy;\n        emit StartNewRound(startRoundBlockNumber, round);\n    }\n\n    function buy(uint8[TOTAL_NUMBERS] memory numbers) external payable {\n        require(state == State.Buy, \"You cannot buy now\");\n        require(msg.value >= ticketPrice, \"Not enough ether\");\n        bool canBuy = block.number - startRoundBlockNumber < duration;\n        if(!canBuy) {\n            state = State.Draw;\n        } else {\n            address player = msg.sender;\n            __players.push(player);\n            __tickets.push(numbers);\n            payable(player).transfer(msg.value - ticketPrice);\n            emit Buy(player);\n        }\n    }\n\n    function drawNumbers() external __isOperator() {\n        require(state == State.Draw, \"You cannot draw now\");\n        uint256 number = __random();\n        for(uint8 i = 0; i < TOTAL_NUMBERS; i++) {\n            __winningNumbers[i] = uint8(number) % RANGES[i][1] + RANGES[i][0];\n            number /= 100;\n        }\n        state = State.Prize;\n        emit DrawNumbers();\n    }\n\n    function givePrizes() external __isOperator() {\n        require(state == State.Prize, \"You cannot give prizes now\");\n        for(uint8 i = 0; i < __players.length; i++) {\n            Class class = __matchClass(__tickets[i]);\n            address _player = __players[i];\n            if(class != Class.None) {\n                Collectible storage _collectible = __collectibles[i];\n                require(_collectible.tokenId > 0, \"Not enough prizes\");\n                if(_collectible.available){\n                    ERC721(erc721Address).safeTransferFrom(address(this), _player, _collectible.tokenId);\n                    _collectible.available = false;\n                } else {\n                    ERC721(erc721Address).mint(_player, _collectible.uri);\n                }\n                emit GivePrize(_player, round, class, _collectible.tokenId);\n            } else {\n                emit NoGivePrize(_player, round);\n            }\n            delete __players[i];\n            delete __tickets[i];\n        }\n        state = State.RoundFinished;\n        payable(__operator).transfer(address(this).balance);\n    }\n\n    function mint(string memory _uri) external __isOperator() {\n        uint256 _tokenId = ERC721(erc721Address).mint(address(this), _uri);\n        if(__collectibles.length + 1 > uint8(Class.Class_8))\n            __collectibles.pop();\n        __collectibles.push(Collectible(_tokenId, _uri, true));\n    }\n\n    function closeLottery() external __isOperator() {\n        require(state != State.Close, \"Lottery already closed\");\n        if(state != State.RoundFinished) \n            for(uint8 i = 0; i < __players.length; i++) \n                payable(__players[i]).transfer(ticketPrice);\n        state = State.Close;\n        emit CloseLottery();\n    }\n\n    function __random() private view returns(uint256) {\n        uint256 blockNumber = startRoundBlockNumber + duration + __k;\n        require(blockNumber <= block.number, \"Block not yet generated\");\n        return uint256(keccak256(abi.encode(blockhash(blockNumber))));\n    }\n\n    function __matchClass(uint8[TOTAL_NUMBERS] memory _ticket) private view returns(Class class) {\n        uint8 stdMatches = 0;\n        for(uint8 i = 0; i < TOTAL_NUMBERS - 1; i++)\n            if(_ticket[i] == __winningNumbers[i])\n                stdMatches += 1;\n        bool matchPowerball = _ticket[POWERBALL_POSITION] == __winningNumbers[POWERBALL_POSITION];\n        if(stdMatches == 5 && matchPowerball)\n            return Class.Class_1;\n        if(stdMatches == 5)\n            return Class.Class_2;\n        if(stdMatches == 4 && matchPowerball)\n            return Class.Class_3;\n        if(stdMatches == 4 || stdMatches == 3 && matchPowerball)\n            return Class.Class_4;\n        if(stdMatches == 3 || stdMatches == 2 && matchPowerball)\n            return Class.Class_5;\n        if(stdMatches == 2 || stdMatches == 1 && matchPowerball)\n            return Class.Class_6;\n        if(stdMatches == 1)\n            return Class.Class_7;\n        if(matchPowerball)\n            return Class.Class_8;\n        return Class.None;\n    }\n\n}",
  "sourcePath": "/Users/geremiapompei/Library/CloudStorage/OneDrive-UniversityofPisa/UNIPI/1 anno 2021_2022/2 semestre/Peer2Peer and Blockchain/exam/P2P/finalterm/smart_contract/contracts/Lottery.sol",
  "compiler": {
    "name": "solc",
    "version": "0.8.12+commit.f00d7308.Emscripten.clang"
  },
  "schemaVersion": "3.4.7",
  "updatedAt": "2022-05-29T17:32:28.920Z",
  "devdoc": {
    "kind": "dev",
    "methods": {},
    "version": 1
  },
  "userdoc": {
    "kind": "user",
    "methods": {},
    "version": 1
  }
}