{
  "contractName": "Lottery",
  "abi": [
    {
      "inputs": [
        {
          "internalType": "address",
          "name": "_erc721Address",
          "type": "address"
        },
        {
          "internalType": "uint8",
          "name": "_duration",
          "type": "uint8"
        },
        {
          "internalType": "uint16",
          "name": "_k",
          "type": "uint16"
        },
        {
          "internalType": "uint256",
          "name": "_ticketPrice",
          "type": "uint256"
        }
      ],
      "stateMutability": "nonpayable",
      "type": "constructor"
    },
    {
      "anonymous": false,
      "inputs": [
        {
          "indexed": true,
          "internalType": "address",
          "name": "_player",
          "type": "address"
        }
      ],
      "name": "Buy",
      "type": "event"
    },
    {
      "anonymous": false,
      "inputs": [],
      "name": "CloseLottery",
      "type": "event"
    },
    {
      "anonymous": false,
      "inputs": [],
      "name": "DrawNumbers",
      "type": "event"
    },
    {
      "anonymous": false,
      "inputs": [
        {
          "indexed": true,
          "internalType": "address",
          "name": "_player",
          "type": "address"
        },
        {
          "indexed": false,
          "internalType": "uint256",
          "name": "_round",
          "type": "uint256"
        },
        {
          "indexed": true,
          "internalType": "enum Lottery.Classes",
          "name": "_class",
          "type": "uint8"
        },
        {
          "indexed": true,
          "internalType": "uint256",
          "name": "_tokenId",
          "type": "uint256"
        }
      ],
      "name": "GivePrize",
      "type": "event"
    },
    {
      "anonymous": false,
      "inputs": [
        {
          "indexed": true,
          "internalType": "address",
          "name": "_player",
          "type": "address"
        },
        {
          "indexed": false,
          "internalType": "uint256",
          "name": "_round",
          "type": "uint256"
        }
      ],
      "name": "NoGivePrize",
      "type": "event"
    },
    {
      "anonymous": false,
      "inputs": [
        {
          "indexed": true,
          "internalType": "uint256",
          "name": "_blockNumber",
          "type": "uint256"
        },
        {
          "indexed": false,
          "internalType": "uint256",
          "name": "_round",
          "type": "uint256"
        }
      ],
      "name": "StartNewRound",
      "type": "event"
    },
    {
      "inputs": [],
      "name": "POWERBALL_POSITION",
      "outputs": [
        {
          "internalType": "uint8",
          "name": "",
          "type": "uint8"
        }
      ],
      "stateMutability": "view",
      "type": "function"
    },
    {
      "inputs": [
        {
          "internalType": "uint256",
          "name": "",
          "type": "uint256"
        },
        {
          "internalType": "uint256",
          "name": "",
          "type": "uint256"
        }
      ],
      "name": "RANGES",
      "outputs": [
        {
          "internalType": "uint8",
          "name": "",
          "type": "uint8"
        }
      ],
      "stateMutability": "view",
      "type": "function"
    },
    {
      "inputs": [],
      "name": "TOTAL_NUMBERS",
      "outputs": [
        {
          "internalType": "uint8",
          "name": "",
          "type": "uint8"
        }
      ],
      "stateMutability": "view",
      "type": "function"
    },
    {
      "inputs": [],
      "name": "duration",
      "outputs": [
        {
          "internalType": "uint8",
          "name": "",
          "type": "uint8"
        }
      ],
      "stateMutability": "view",
      "type": "function"
    },
    {
      "inputs": [],
      "name": "erc721Address",
      "outputs": [
        {
          "internalType": "address",
          "name": "",
          "type": "address"
        }
      ],
      "stateMutability": "view",
      "type": "function"
    },
    {
      "inputs": [],
      "name": "lotteryOpen",
      "outputs": [
        {
          "internalType": "bool",
          "name": "",
          "type": "bool"
        }
      ],
      "stateMutability": "view",
      "type": "function"
    },
    {
      "inputs": [],
      "name": "round",
      "outputs": [
        {
          "internalType": "uint256",
          "name": "",
          "type": "uint256"
        }
      ],
      "stateMutability": "view",
      "type": "function"
    },
    {
      "inputs": [],
      "name": "ticketPrice",
      "outputs": [
        {
          "internalType": "uint256",
          "name": "",
          "type": "uint256"
        }
      ],
      "stateMutability": "view",
      "type": "function"
    },
    {
      "inputs": [],
      "name": "isRoundActive",
      "outputs": [
        {
          "internalType": "bool",
          "name": "",
          "type": "bool"
        }
      ],
      "stateMutability": "view",
      "type": "function"
    },
    {
      "inputs": [],
      "name": "startNewRound",
      "outputs": [],
      "stateMutability": "nonpayable",
      "type": "function"
    },
    {
      "inputs": [
        {
          "internalType": "uint8[6]",
          "name": "numbers",
          "type": "uint8[6]"
        }
      ],
      "name": "buy",
      "outputs": [],
      "stateMutability": "payable",
      "type": "function"
    },
    {
      "inputs": [],
      "name": "drawNumbers",
      "outputs": [],
      "stateMutability": "nonpayable",
      "type": "function"
    },
    {
      "inputs": [],
      "name": "givePrizes",
      "outputs": [],
      "stateMutability": "nonpayable",
      "type": "function"
    },
    {
      "inputs": [
        {
          "internalType": "string",
          "name": "_uri",
          "type": "string"
        }
      ],
      "name": "mint",
      "outputs": [],
      "stateMutability": "nonpayable",
      "type": "function"
    },
    {
      "inputs": [],
      "name": "closeLottery",
      "outputs": [],
      "stateMutability": "nonpayable",
      "type": "function"
    }
  ],
  "bytecode": "0x60806040526040518060c001604052806040518060400160405280600160ff168152602001604560ff1681525081526020016040518060400160405280600160ff168152602001604560ff1681525081526020016040518060400160405280600160ff168152602001604560ff1681525081526020016040518060400160405280600160ff168152602001604560ff1681525081526020016040518060400160405280600160ff168152602001604560ff1681525081526020016040518060400160405280600160ff168152602001601a60ff168152508152506000906006620000eb92919062000260565b50348015620000f957600080fd5b50604051620028933803806200289383398181016040528101906200011f9190620004c6565b32600760006101000a81548173ffffffffffffffffffffffffffffffffffffffff021916908373ffffffffffffffffffffffffffffffffffffffff16021790555083600860006101000a81548173ffffffffffffffffffffffffffffffffffffffff021916908373ffffffffffffffffffffffffffffffffffffffff160217905550600182620001b0919062000567565b600760146101000a81548161ffff021916908361ffff1602179055506001600860146101000a81548160ff021916908315150217905550436006819055508060098190555082600a60006101000a81548160ff021916908360ff1602179055506001600b819055506006547f602d52a424ba31c8904768b40efd585d7c78b61530cebd288dc8fc0be871a3c6600b546040516200024e9190620005b7565b60405180910390a250505050620005d4565b8260068101928215620002a2579160200282015b82811115620002a15782518290600262000290929190620002b5565b509160200191906001019062000274565b5b509050620002b1919062000356565b5090565b826002601f01602090048101928215620003435791602002820160005b838211156200031257835183826101000a81548160ff021916908360ff1602179055509260200192600101602081600001049283019260010302620002d2565b8015620003415782816101000a81549060ff021916905560010160208160000104928301926001030262000312565b505b5090506200035291906200037e565b5090565b5b808211156200037a57600081816200037091906200039d565b5060010162000357565b5090565b5b80821115620003995760008160009055506001016200037f565b5090565b5060009055565b600080fd5b600073ffffffffffffffffffffffffffffffffffffffff82169050919050565b6000620003d682620003a9565b9050919050565b620003e881620003c9565b8114620003f457600080fd5b50565b6000815190506200040881620003dd565b92915050565b600060ff82169050919050565b62000426816200040e565b81146200043257600080fd5b50565b60008151905062000446816200041b565b92915050565b600061ffff82169050919050565b62000465816200044c565b81146200047157600080fd5b50565b60008151905062000485816200045a565b92915050565b6000819050919050565b620004a0816200048b565b8114620004ac57600080fd5b50565b600081519050620004c08162000495565b92915050565b60008060008060808587031215620004e357620004e2620003a4565b5b6000620004f387828801620003f7565b9450506020620005068782880162000435565b9350506040620005198782880162000474565b92505060606200052c87828801620004af565b91505092959194509250565b7f4e487b7100000000000000000000000000000000000000000000000000000000600052601160045260246000fd5b600062000574826200044c565b915062000581836200044c565b92508261ffff038211156200059b576200059a62000538565b5b828201905092915050565b620005b1816200048b565b82525050565b6000602082019050620005ce6000830184620005a6565b92915050565b6122af80620005e46000396000f3fe6080604052600436106100e85760003560e01c80634d1a66991161008a578063bd85948c11610059578063bd85948c1461029c578063c60c4ae9146102b3578063d85d3d27146102de578063f828d14b14610307576100e8565b80634d1a669914610206578063676c902f146102315780636fd0981614610248578063751eee8d1461025f576100e8565b8063146ca531116100c6578063146ca5311461015a5780632352a864146101855780632a6c7fc3146101b057806345945a45146101db576100e8565b806306d5ee54146100ed5780630fb5a6b4146101045780631209b1f61461012f575b600080fd5b3480156100f957600080fd5b50610102610323565b005b34801561011057600080fd5b506101196108a3565b6040516101269190611623565b60405180910390f35b34801561013b57600080fd5b506101446108b6565b6040516101519190611657565b60405180910390f35b34801561016657600080fd5b5061016f6108bc565b60405161017c9190611657565b60405180910390f35b34801561019157600080fd5b5061019a6108c2565b6040516101a791906116b3565b60405180910390f35b3480156101bc57600080fd5b506101c56108e8565b6040516101d29190611623565b60405180910390f35b3480156101e757600080fd5b506101f06108ed565b6040516101fd91906116e9565b60405180910390f35b34801561021257600080fd5b5061021b610916565b6040516102289190611623565b60405180910390f35b34801561023d57600080fd5b5061024661091b565b005b34801561025457600080fd5b5061025d610ae9565b005b34801561026b57600080fd5b5061028660048036038101906102819190611744565b610cd0565b6040516102939190611623565b60405180910390f35b3480156102a857600080fd5b506102b1610d0c565b005b3480156102bf57600080fd5b506102c8610db3565b6040516102d591906116e9565b60405180910390f35b3480156102ea57600080fd5b50610305600480360381019061030091906118ca565b610dc6565b005b610321600480360381019061031c91906119f5565b611016565b005b3373ffffffffffffffffffffffffffffffffffffffff16600760009054906101000a900473ffffffffffffffffffffffffffffffffffffffff1673ffffffffffffffffffffffffffffffffffffffff16146103b3576040517f08c379a00000000000000000000000000000000000000000000000000000000081526004016103aa90611a7f565b60405180910390fd5b6103bb6108ed565b156103fb576040517f08c379a00000000000000000000000000000000000000000000000000000000081526004016103f290611aeb565b60405180910390fd5b60005b600d805490508160ff16101561083757600061049b600e8360ff168154811061042a57610429611b0b565b5b90600052602060002001600680602002604051908101604052809291908260068015610491576020028201916000905b82829054906101000a900460ff1660ff168152602001906001019060208260000104928301926001038202915080841161045a5790505b505050505061122b565b90506000600d8360ff16815481106104b6576104b5611b0b565b5b9060005260206000200160009054906101000a900473ffffffffffffffffffffffffffffffffffffffff169050600060088111156104f7576104f6611b3a565b5b82600881111561050a57610509611b3a565b5b14610760576000600f8460ff168154811061052857610527611b0b565b5b90600052602060002090600302019050600081600001541161057f576040517f08c379a000000000000000000000000000000000000000000000000000000000815260040161057690611bb5565b60405180910390fd5b8060020160009054906101000a900460ff161561064d57600860009054906101000a900473ffffffffffffffffffffffffffffffffffffffff1673ffffffffffffffffffffffffffffffffffffffff166342842e0e308484600001546040518463ffffffff1660e01b81526004016105f993929190611bd5565b600060405180830381600087803b15801561061357600080fd5b505af1158015610627573d6000803e3d6000fd5b5050505060008160020160006101000a81548160ff0219169083151502179055506106f2565b600860009054906101000a900473ffffffffffffffffffffffffffffffffffffffff1673ffffffffffffffffffffffffffffffffffffffff1663d0def52183836001016040518363ffffffff1660e01b81526004016106ad929190611d02565b6020604051808303816000875af11580156106cc573d6000803e3d6000fd5b505050506040513d601f19601f820116820180604052508101906106f09190611d47565b505b806000015483600881111561070a57610709611b3a565b5b8373ffffffffffffffffffffffffffffffffffffffff167f61674068ece989a7d47bd6baf4bf0f0bcd9334feba27a669585ff9e261634b30600b546040516107529190611657565b60405180910390a4506107b1565b8073ffffffffffffffffffffffffffffffffffffffff167fcff1ec68402a76464736681ccbdc1072abfece20faf4b321c9510acd619ebb09600b546040516107a89190611657565b60405180910390a25b600d8360ff16815481106107c8576107c7611b0b565b5b9060005260206000200160006101000a81549073ffffffffffffffffffffffffffffffffffffffff0219169055600e8360ff168154811061080c5761080b611b0b565b5b9060005260206000200160006108229190611483565b5050808061082f90611da3565b9150506103fe565b50600760009054906101000a900473ffffffffffffffffffffffffffffffffffffffff1673ffffffffffffffffffffffffffffffffffffffff166108fc479081150290604051600060405180830381858888f193505050501580156108a0573d6000803e3d6000fd5b50565b600a60009054906101000a900460ff1681565b60095481565b600b5481565b600860009054906101000a900473ffffffffffffffffffffffffffffffffffffffff1681565b600581565b6000600a60009054906101000a900460ff1660ff16600654436109109190611dcd565b10905090565b600681565b3373ffffffffffffffffffffffffffffffffffffffff16600760009054906101000a900473ffffffffffffffffffffffffffffffffffffffff1673ffffffffffffffffffffffffffffffffffffffff16146109ab576040517f08c379a00000000000000000000000000000000000000000000000000000000081526004016109a290611a7f565b60405180910390fd5b60006109b5611432565b905060005b600660ff168160ff161015610ab95760008160ff16600681106109e0576109df611b0b565b5b016000600281106109f4576109f3611b0b565b5b602091828204019190069054906101000a900460ff1660008260ff1660068110610a2157610a20611b0b565b5b01600160028110610a3557610a34611b0b565b5b602091828204019190069054906101000a900460ff1683610a569190611e30565b610a609190611e61565b600c8260ff1660068110610a7757610a76611b0b565b5b602091828204019190066101000a81548160ff021916908360ff160217905550606482610aa49190611e98565b91508080610ab190611da3565b9150506109ba565b507f91934f81b8ffad6aa6d0ed721e3b92ebe9fd6267b46174696bd035f9361f21c860405160405180910390a150565b3373ffffffffffffffffffffffffffffffffffffffff16600760009054906101000a900473ffffffffffffffffffffffffffffffffffffffff1673ffffffffffffffffffffffffffffffffffffffff1614610b79576040517f08c379a0000000000000000000000000000000000000000000000000000000008152600401610b7090611a7f565b60405180910390fd5b600860149054906101000a900460ff16610bc8576040517f08c379a0000000000000000000000000000000000000000000000000000000008152600401610bbf90611f15565b60405180910390fd5b610bd06108ed565b15610c875760005b600d805490508160ff161015610c8557600d8160ff1681548110610bff57610bfe611b0b565b5b9060005260206000200160009054906101000a900473ffffffffffffffffffffffffffffffffffffffff1673ffffffffffffffffffffffffffffffffffffffff166108fc6009549081150290604051600060405180830381858888f19350505050158015610c71573d6000803e3d6000fd5b508080610c7d90611da3565b915050610bd8565b505b6000600860146101000a81548160ff0219169083151502179055507f041434c50395b9a06c4309166ef0c0e2da56c3e21804dc8a8dc3dbc0dae5020360405160405180910390a1565b60008260068110610ce057600080fd5b018160028110610cef57600080fd5b60209182820401919006915091509054906101000a900460ff1681565b610d146108ed565b15610d54576040517f08c379a0000000000000000000000000000000000000000000000000000000008152600401610d4b90611f81565b60405180910390fd5b436006819055506001600b6000828254610d6e9190611fa1565b925050819055506006547f602d52a424ba31c8904768b40efd585d7c78b61530cebd288dc8fc0be871a3c6600b54604051610da99190611657565b60405180910390a2565b600860149054906101000a900460ff1681565b3373ffffffffffffffffffffffffffffffffffffffff16600760009054906101000a900473ffffffffffffffffffffffffffffffffffffffff1673ffffffffffffffffffffffffffffffffffffffff1614610e56576040517f08c379a0000000000000000000000000000000000000000000000000000000008152600401610e4d90611a7f565b60405180910390fd5b6000600860009054906101000a900473ffffffffffffffffffffffffffffffffffffffff1673ffffffffffffffffffffffffffffffffffffffff1663d0def52130846040518363ffffffff1660e01b8152600401610eb592919061206e565b6020604051808303816000875af1158015610ed4573d6000803e3d6000fd5b505050506040513d601f19601f82011682018060405250810190610ef89190611d47565b9050600880811115610f0d57610f0c611b3a565b5b60ff166001600f80549050610f229190611fa1565b1115610f8057600f805480610f3a57610f3961209e565b5b6001900381819060005260206000209060030201600080820160009055600182016000610f67919061148a565b6002820160006101000a81549060ff0219169055505090555b600f6040518060600160405280838152602001848152602001600115158152509080600181540180825580915050600190039060005260206000209060030201600090919091909150600082015181600001556020820151816001019080519060200190610fef9291906114ca565b5060408201518160020160006101000a81548160ff02191690831515021790555050505050565b61101e6108ed565b61105d576040517f08c379a000000000000000000000000000000000000000000000000000000000815260040161105490612119565b60405180910390fd5b600860149054906101000a900460ff166110ac576040517f08c379a00000000000000000000000000000000000000000000000000000000081526004016110a390612185565b60405180910390fd5b6009543410156110f1576040517f08c379a00000000000000000000000000000000000000000000000000000000081526004016110e8906121f1565b60405180910390fd5b6000339050600d819080600181540180825580915050600190039060005260206000200160009091909190916101000a81548173ffffffffffffffffffffffffffffffffffffffff021916908373ffffffffffffffffffffffffffffffffffffffff160217905550600e829080600181540180825580915050600190039060005260206000200160009091909190915090600661118f929190611550565b508073ffffffffffffffffffffffffffffffffffffffff166108fc600954346111b89190611dcd565b9081150290604051600060405180830381858888f193505050501580156111e3573d6000803e3d6000fd5b508073ffffffffffffffffffffffffffffffffffffffff167f5c6c890314aa0d49059c35b35ff86ffb43efe8f543dc3691558f39dfa4a8201160405160405180910390a25050565b6000806000905060005b600160066112439190612211565b60ff168160ff1610156112c757600c8160ff166006811061126757611266611b0b565b5b602091828204019190069054906101000a900460ff1660ff16848260ff166006811061129657611295611b0b565b5b602002015160ff1614156112b4576001826112b19190611e61565b91505b80806112bf90611da3565b915050611235565b506000600c600560ff16600681106112e2576112e1611b0b565b5b602091828204019190069054906101000a900460ff1660ff1684600560ff166006811061131257611311611b0b565b5b602002015160ff1614905060058260ff1614801561132d5750805b1561133d5760019250505061142d565b60058260ff1614156113545760029250505061142d565b60048260ff161480156113645750805b156113745760039250505061142d565b60048260ff161480611392575060038260ff161480156113915750805b5b156113a25760049250505061142d565b60038260ff1614806113c0575060028260ff161480156113bf5750805b5b156113d05760059250505061142d565b60028260ff1614806113ee575060018260ff161480156113ed5750805b5b156113fe5760069250505061142d565b60018260ff1614156114155760079250505061142d565b80156114265760089250505061142d565b6000925050505b919050565b6000600760149054906101000a900461ffff1661ffff16436114549190611dcd565b40604051602001611465919061225e565b6040516020818303038152906040528051906020012060001c905090565b5060009055565b50805461149690611c3b565b6000825580601f106114a857506114c7565b601f0160209004906000526020600020908101906114c691906115ea565b5b50565b8280546114d690611c3b565b90600052602060002090601f0160209004810192826114f8576000855561153f565b82601f1061151157805160ff191683800117855561153f565b8280016001018555821561153f579182015b8281111561153e578251825591602001919060010190611523565b5b50905061154c91906115ea565b5090565b826006601f016020900481019282156115d95791602002820160005b838211156115aa57835183826101000a81548160ff021916908360ff160217905550926020019260010160208160000104928301926001030261156c565b80156115d75782816101000a81549060ff02191690556001016020816000010492830192600103026115aa565b505b5090506115e691906115ea565b5090565b5b808211156116035760008160009055506001016115eb565b5090565b600060ff82169050919050565b61161d81611607565b82525050565b60006020820190506116386000830184611614565b92915050565b6000819050919050565b6116518161163e565b82525050565b600060208201905061166c6000830184611648565b92915050565b600073ffffffffffffffffffffffffffffffffffffffff82169050919050565b600061169d82611672565b9050919050565b6116ad81611692565b82525050565b60006020820190506116c860008301846116a4565b92915050565b60008115159050919050565b6116e3816116ce565b82525050565b60006020820190506116fe60008301846116da565b92915050565b6000604051905090565b600080fd5b600080fd5b6117218161163e565b811461172c57600080fd5b50565b60008135905061173e81611718565b92915050565b6000806040838503121561175b5761175a61170e565b5b60006117698582860161172f565b925050602061177a8582860161172f565b9150509250929050565b600080fd5b600080fd5b6000601f19601f8301169050919050565b7f4e487b7100000000000000000000000000000000000000000000000000000000600052604160045260246000fd5b6117d78261178e565b810181811067ffffffffffffffff821117156117f6576117f561179f565b5b80604052505050565b6000611809611704565b905061181582826117ce565b919050565b600067ffffffffffffffff8211156118355761183461179f565b5b61183e8261178e565b9050602081019050919050565b82818337600083830152505050565b600061186d6118688461181a565b6117ff565b90508281526020810184848401111561188957611888611789565b5b61189484828561184b565b509392505050565b600082601f8301126118b1576118b0611784565b5b81356118c184826020860161185a565b91505092915050565b6000602082840312156118e0576118df61170e565b5b600082013567ffffffffffffffff8111156118fe576118fd611713565b5b61190a8482850161189c565b91505092915050565b600067ffffffffffffffff82111561192e5761192d61179f565b5b602082029050919050565b600080fd5b61194781611607565b811461195257600080fd5b50565b6000813590506119648161193e565b92915050565b600061197d61197884611913565b6117ff565b9050806020840283018581111561199757611996611939565b5b835b818110156119c057806119ac8882611955565b845260208401935050602081019050611999565b5050509392505050565b600082601f8301126119df576119de611784565b5b60066119ec84828561196a565b91505092915050565b600060c08284031215611a0b57611a0a61170e565b5b6000611a19848285016119ca565b91505092915050565b600082825260208201905092915050565b7f4f7065726174696f6e20756e617574686f72697a656400000000000000000000600082015250565b6000611a69601683611a22565b9150611a7482611a33565b602082019050919050565b60006020820190508181036000830152611a9881611a5c565b9050919050565b7f526f756e64206973206163746976650000000000000000000000000000000000600082015250565b6000611ad5600f83611a22565b9150611ae082611a9f565b602082019050919050565b60006020820190508181036000830152611b0481611ac8565b9050919050565b7f4e487b7100000000000000000000000000000000000000000000000000000000600052603260045260246000fd5b7f4e487b7100000000000000000000000000000000000000000000000000000000600052602160045260246000fd5b7f4e6f7420656e6f756768207072697a6573000000000000000000000000000000600082015250565b6000611b9f601183611a22565b9150611baa82611b69565b602082019050919050565b60006020820190508181036000830152611bce81611b92565b9050919050565b6000606082019050611bea60008301866116a4565b611bf760208301856116a4565b611c046040830184611648565b949350505050565b7f4e487b7100000000000000000000000000000000000000000000000000000000600052602260045260246000fd5b60006002820490506001821680611c5357607f821691505b60208210811415611c6757611c66611c0c565b5b50919050565b60008190508160005260206000209050919050565b60008154611c8f81611c3b565b611c998186611a22565b94506001821660008114611cb45760018114611cc657611cf9565b60ff1983168652602086019350611cf9565b611ccf85611c6d565b60005b83811015611cf157815481890152600182019150602081019050611cd2565b808801955050505b50505092915050565b6000604082019050611d1760008301856116a4565b8181036020830152611d298184611c82565b90509392505050565b600081519050611d4181611718565b92915050565b600060208284031215611d5d57611d5c61170e565b5b6000611d6b84828501611d32565b91505092915050565b7f4e487b7100000000000000000000000000000000000000000000000000000000600052601160045260246000fd5b6000611dae82611607565b915060ff821415611dc257611dc1611d74565b5b600182019050919050565b6000611dd88261163e565b9150611de38361163e565b925082821015611df657611df5611d74565b5b828203905092915050565b7f4e487b7100000000000000000000000000000000000000000000000000000000600052601260045260246000fd5b6000611e3b82611607565b9150611e4683611607565b925082611e5657611e55611e01565b5b828206905092915050565b6000611e6c82611607565b9150611e7783611607565b92508260ff03821115611e8d57611e8c611d74565b5b828201905092915050565b6000611ea38261163e565b9150611eae8361163e565b925082611ebe57611ebd611e01565b5b828204905092915050565b7f4c6f747465727920616c726561647920636c6f73656400000000000000000000600082015250565b6000611eff601683611a22565b9150611f0a82611ec9565b602082019050919050565b60006020820190508181036000830152611f2e81611ef2565b9050919050565b7f526f756e64206973206e6f742066696e69736865640000000000000000000000600082015250565b6000611f6b601583611a22565b9150611f7682611f35565b602082019050919050565b60006020820190508181036000830152611f9a81611f5e565b9050919050565b6000611fac8261163e565b9150611fb78361163e565b9250827fffffffffffffffffffffffffffffffffffffffffffffffffffffffffffffffff03821115611fec57611feb611d74565b5b828201905092915050565b600081519050919050565b60005b83811015612020578082015181840152602081019050612005565b8381111561202f576000848401525b50505050565b600061204082611ff7565b61204a8185611a22565b935061205a818560208601612002565b6120638161178e565b840191505092915050565b600060408201905061208360008301856116a4565b81810360208301526120958184612035565b90509392505050565b7f4e487b7100000000000000000000000000000000000000000000000000000000600052603160045260246000fd5b7f526f756e64206973206e6f742061637469766500000000000000000000000000600082015250565b6000612103601383611a22565b915061210e826120cd565b602082019050919050565b60006020820190508181036000830152612132816120f6565b9050919050565b7f4c6f747465727920697320636c6f736564000000000000000000000000000000600082015250565b600061216f601183611a22565b915061217a82612139565b602082019050919050565b6000602082019050818103600083015261219e81612162565b9050919050565b7f4e6f7420656e6f75676820657468657200000000000000000000000000000000600082015250565b60006121db601083611a22565b91506121e6826121a5565b602082019050919050565b6000602082019050818103600083015261220a816121ce565b9050919050565b600061221c82611607565b915061222783611607565b92508282101561223a57612239611d74565b5b828203905092915050565b6000819050919050565b61225881612245565b82525050565b6000602082019050612273600083018461224f565b9291505056fea2646970667358221220080092e11525de473b712876153682b1ce97ae7568060fb9ac58f37b66927a3064736f6c634300080c0033",
  "immutableReferences": {},
  "source": "// SPDX-License-Identifier: MIT\npragma solidity ^0.8.0;\n\nimport './ERC721.sol';\n\ncontract Lottery {\n\n    enum Classes {None, Class_1, Class_2, Class_3, Class_4, Class_5, Class_6, Class_7, Class_8}\n\n    struct Collectible {\n        uint256 tokenId;\n        string uri;\n        bool available;\n    }\n\n    uint8 public constant TOTAL_NUMBERS = 6;\n    uint8 public constant POWERBALL_POSITION = 5;\n    uint8[2][TOTAL_NUMBERS] public RANGES = [[1, 69], [1, 69], [1, 69], [1, 69], [1, 69], [1, 26]];\n\n    uint256 private __startRoundBlockNumber;\n    address private __operator;\n    uint16 private __k;\n    address public erc721Address;\n    bool public lotteryOpen;\n    uint256 public ticketPrice;\n    uint8 public duration;\n    uint256 public round;\n\n    uint8[TOTAL_NUMBERS] private __winningNumbers;\n    address[] private __players;\n    uint8[TOTAL_NUMBERS][] private __tickets;\n    Collectible[] private __collectibles;\n\n    constructor(address _erc721Address, uint8 _duration, uint16 _k, uint256 _ticketPrice) {\n        __operator = tx.origin;\n        erc721Address = _erc721Address;\n        __k = _k + 1 % 256;\n        lotteryOpen = true;\n        __startRoundBlockNumber = block.number;\n        ticketPrice = _ticketPrice;\n        duration = _duration;\n        round = 1;\n        emit StartNewRound(__startRoundBlockNumber, round);\n    }\n\n    event StartNewRound(uint256 indexed _blockNumber, uint256 _round);\n    event Buy(address indexed _player);\n    event DrawNumbers();\n    event NoGivePrize(address indexed _player, uint256 _round);\n    event GivePrize(address indexed _player, uint256 _round, Classes indexed _class, uint256 indexed _tokenId);\n    event CloseLottery();\n\n    modifier __isOperator() {\n        require(__operator == msg.sender, \"Operation unauthorized\");\n        _;\n    }\n\n    modifier __isRoundActive() {\n        require(isRoundActive(), \"Round is not active\");\n        _;\n    }\n\n    function isRoundActive() public view returns(bool) {\n        return block.number - __startRoundBlockNumber < duration;\n    }\n\n    function startNewRound() external {\n        require(!isRoundActive(), \"Round is not finished\");\n        __startRoundBlockNumber = block.number;\n        round += 1;\n        emit StartNewRound(__startRoundBlockNumber, round);\n    }\n\n    function buy(uint8[TOTAL_NUMBERS] memory numbers) external payable __isRoundActive() {\n        require(lotteryOpen, \"Lottery is closed\");\n        require(msg.value >= ticketPrice, \"Not enough ether\");\n        address player = msg.sender;\n        __players.push(player);\n        __tickets.push(numbers);\n        payable(player).transfer(msg.value - ticketPrice);\n        emit Buy(player);\n    }\n\n    function drawNumbers() external __isOperator() {\n        uint256 number = __random();\n        for(uint8 i = 0; i < TOTAL_NUMBERS; i++) {\n            __winningNumbers[i] = uint8(number) % RANGES[i][1] + RANGES[i][0];\n            number /= 100;\n        }\n        emit DrawNumbers();\n    }\n\n    function givePrizes() external __isOperator() {\n        require(!isRoundActive(), \"Round is active\");\n        for(uint8 i = 0; i < __players.length; i++) {\n            Classes class = __matchClass(__tickets[i]);\n            address _player = __players[i];\n            if(class != Classes.None) {\n                Collectible storage _collectible = __collectibles[i];\n                require(_collectible.tokenId > 0, \"Not enough prizes\");\n                if(_collectible.available){\n                    ERC721(erc721Address).safeTransferFrom(address(this), _player, _collectible.tokenId);\n                    _collectible.available = false;\n                } else {\n                    ERC721(erc721Address).mint(_player, _collectible.uri);\n                }\n                emit GivePrize(_player, round, class, _collectible.tokenId);\n            } else {\n                emit NoGivePrize(_player, round);\n            }\n            delete __players[i];\n            delete __tickets[i];\n        }\n        payable(__operator).transfer(address(this).balance);\n    }\n\n    function mint(string memory _uri) external __isOperator() {\n        uint256 _tokenId = ERC721(erc721Address).mint(address(this), _uri);\n        if(__collectibles.length + 1 > uint8(Classes.Class_8))\n            __collectibles.pop();\n        __collectibles.push(Collectible(_tokenId, _uri, true));\n    }\n\n    function closeLottery() external __isOperator() {\n        require(lotteryOpen, \"Lottery already closed\");\n        if(isRoundActive()) \n            for(uint8 i = 0; i < __players.length; i++) \n                payable(__players[i]).transfer(ticketPrice);\n        lotteryOpen = false;\n        emit CloseLottery();\n    }\n\n    function __random() private view returns(uint256) {\n        return uint256(keccak256(abi.encode(blockhash(block.number - __k))));\n    }\n\n    function __matchClass(uint8[TOTAL_NUMBERS] memory _ticket) private view returns(Classes class) {\n        uint8 stdMatches = 0;\n        for(uint8 i = 0; i < TOTAL_NUMBERS - 1; i++)\n            if(_ticket[i] == __winningNumbers[i])\n                stdMatches += 1;\n        bool matchPowerball = _ticket[POWERBALL_POSITION] == __winningNumbers[POWERBALL_POSITION];\n        if(stdMatches == 5 && matchPowerball)\n            return Classes.Class_1;\n        if(stdMatches == 5)\n            return Classes.Class_2;\n        if(stdMatches == 4 && matchPowerball)\n            return Classes.Class_3;\n        if(stdMatches == 4 || stdMatches == 3 && matchPowerball)\n            return Classes.Class_4;\n        if(stdMatches == 3 || stdMatches == 2 && matchPowerball)\n            return Classes.Class_5;\n        if(stdMatches == 2 || stdMatches == 1 && matchPowerball)\n            return Classes.Class_6;\n        if(stdMatches == 1)\n            return Classes.Class_7;\n        if(matchPowerball)\n            return Classes.Class_8;\n        return Classes.None;\n    }\n\n}",
  "sourcePath": "/Users/geremiapompei/Library/CloudStorage/OneDrive-UniversityofPisa/UNIPI/1 anno 2021_2022/2 semestre/Peer2Peer and Blockchain/exam/P2P/finalterm/smart_contract/contracts/Lottery.sol",
  "compiler": {
    "name": "solc",
    "version": "0.8.12+commit.f00d7308.Emscripten.clang"
  },
  "schemaVersion": "3.4.7",
  "updatedAt": "2022-05-29T01:10:59.812Z",
  "devdoc": {
    "kind": "dev",
    "methods": {},
    "version": 1
  },
  "userdoc": {
    "kind": "user",
    "methods": {},
    "version": 1
  }
}