{
  "contractName": "Lottery",
  "abi": [
    {
      "inputs": [
        {
          "internalType": "address",
          "name": "_erc721Address",
          "type": "address"
        },
        {
          "internalType": "uint8",
          "name": "_duration",
          "type": "uint8"
        },
        {
          "internalType": "uint16",
          "name": "_k",
          "type": "uint16"
        },
        {
          "internalType": "uint256",
          "name": "_ticketPrice",
          "type": "uint256"
        }
      ],
      "stateMutability": "nonpayable",
      "type": "constructor"
    },
    {
      "anonymous": false,
      "inputs": [
        {
          "indexed": true,
          "internalType": "address",
          "name": "_player",
          "type": "address"
        }
      ],
      "name": "Buy",
      "type": "event"
    },
    {
      "anonymous": false,
      "inputs": [],
      "name": "CloseLottery",
      "type": "event"
    },
    {
      "anonymous": false,
      "inputs": [
        {
          "indexed": true,
          "internalType": "address",
          "name": "_player",
          "type": "address"
        },
        {
          "indexed": true,
          "internalType": "enum Lottery.Classes",
          "name": "_class",
          "type": "uint8"
        },
        {
          "indexed": true,
          "internalType": "uint256",
          "name": "_tokenId",
          "type": "uint256"
        }
      ],
      "name": "GivePrize",
      "type": "event"
    },
    {
      "anonymous": false,
      "inputs": [
        {
          "indexed": true,
          "internalType": "uint256",
          "name": "_blockNumber",
          "type": "uint256"
        }
      ],
      "name": "StartNewRound",
      "type": "event"
    },
    {
      "inputs": [],
      "name": "isRoundActive",
      "outputs": [
        {
          "internalType": "bool",
          "name": "",
          "type": "bool"
        }
      ],
      "stateMutability": "view",
      "type": "function"
    },
    {
      "inputs": [],
      "name": "isLotteryOpen",
      "outputs": [
        {
          "internalType": "bool",
          "name": "",
          "type": "bool"
        }
      ],
      "stateMutability": "view",
      "type": "function"
    },
    {
      "inputs": [],
      "name": "startNewRound",
      "outputs": [],
      "stateMutability": "nonpayable",
      "type": "function"
    },
    {
      "inputs": [
        {
          "internalType": "uint8[6]",
          "name": "numbers",
          "type": "uint8[6]"
        }
      ],
      "name": "buy",
      "outputs": [],
      "stateMutability": "payable",
      "type": "function"
    },
    {
      "inputs": [],
      "name": "drawNumbers",
      "outputs": [],
      "stateMutability": "nonpayable",
      "type": "function"
    },
    {
      "inputs": [],
      "name": "givePrizes",
      "outputs": [],
      "stateMutability": "nonpayable",
      "type": "function"
    },
    {
      "inputs": [
        {
          "internalType": "string",
          "name": "_uri",
          "type": "string"
        }
      ],
      "name": "mint",
      "outputs": [],
      "stateMutability": "nonpayable",
      "type": "function"
    },
    {
      "inputs": [],
      "name": "closeLottery",
      "outputs": [],
      "stateMutability": "nonpayable",
      "type": "function"
    }
  ],
  "bytecode": "0x60806040526040518060c001604052806040518060400160405280600160ff168152602001604560ff1681525081526020016040518060400160405280600160ff168152602001604560ff1681525081526020016040518060400160405280600160ff168152602001604560ff1681525081526020016040518060400160405280600160ff168152602001604560ff1681525081526020016040518060400160405280600160ff168152602001604560ff1681525081526020016040518060400160405280600160ff168152602001601a60ff168152508152506000906006620000eb9291906200021a565b50348015620000f957600080fd5b506040516200234e3803806200234e83398181016040528101906200011f919062000480565b32600860006101000a81548173ffffffffffffffffffffffffffffffffffffffff021916908373ffffffffffffffffffffffffffffffffffffffff16021790555083600660006101000a81548173ffffffffffffffffffffffffffffffffffffffff021916908373ffffffffffffffffffffffffffffffffffffffff160217905550600182620001b0919062000521565b600860146101000a81548161ffff021916908361ffff1602179055506001600660146101000a81548160ff021916908315150217905550436007819055508060098190555082600a60006101000a81548160ff021916908360ff1602179055505050505062000560565b82600681019282156200025c579160200282015b828111156200025b578251829060026200024a9291906200026f565b50916020019190600101906200022e565b5b5090506200026b919062000310565b5090565b826002601f01602090048101928215620002fd5791602002820160005b83821115620002cc57835183826101000a81548160ff021916908360ff16021790555092602001926001016020816000010492830192600103026200028c565b8015620002fb5782816101000a81549060ff0219169055600101602081600001049283019260010302620002cc565b505b5090506200030c919062000338565b5090565b5b808211156200033457600081816200032a919062000357565b5060010162000311565b5090565b5b808211156200035357600081600090555060010162000339565b5090565b5060009055565b600080fd5b600073ffffffffffffffffffffffffffffffffffffffff82169050919050565b6000620003908262000363565b9050919050565b620003a28162000383565b8114620003ae57600080fd5b50565b600081519050620003c28162000397565b92915050565b600060ff82169050919050565b620003e081620003c8565b8114620003ec57600080fd5b50565b6000815190506200040081620003d5565b92915050565b600061ffff82169050919050565b6200041f8162000406565b81146200042b57600080fd5b50565b6000815190506200043f8162000414565b92915050565b6000819050919050565b6200045a8162000445565b81146200046657600080fd5b50565b6000815190506200047a816200044f565b92915050565b600080600080608085870312156200049d576200049c6200035e565b5b6000620004ad87828801620003b1565b9450506020620004c087828801620003ef565b9350506040620004d3878288016200042e565b9250506060620004e68782880162000469565b91505092959194509250565b7f4e487b7100000000000000000000000000000000000000000000000000000000600052601160045260246000fd5b60006200052e8262000406565b91506200053b8362000406565b92508261ffff03821115620005555762000554620004f2565b5b828201905092915050565b611dde80620005706000396000f3fe60806040526004361061007b5760003560e01c8063bd85948c1161004e578063bd85948c146100f0578063cabc0f4314610107578063d85d3d2714610132578063f828d14b1461015b5761007b565b806306d5ee541461008057806345945a4514610097578063676c902f146100c25780636fd09816146100d9575b600080fd5b34801561008c57600080fd5b50610095610177565b005b3480156100a357600080fd5b506100ac610668565b6040516100b991906112de565b60405180910390f35b3480156100ce57600080fd5b506100d76106a9565b005b3480156100e557600080fd5b506100ee61084b565b005b3480156100fc57600080fd5b50610105610a32565b005b34801561011357600080fd5b5061011c610aba565b60405161012991906112de565b60405180910390f35b34801561013e57600080fd5b5061015960048036038101906101549190611453565b610ad1565b005b6101756004803603810190610170919061158b565b610d21565b005b3373ffffffffffffffffffffffffffffffffffffffff16600860009054906101000a900473ffffffffffffffffffffffffffffffffffffffff1673ffffffffffffffffffffffffffffffffffffffff1614610207576040517f08c379a00000000000000000000000000000000000000000000000000000000081526004016101fe90611615565b60405180910390fd5b60005b600c805490508160ff1610156105e15760006102a7600d8360ff168154811061023657610235611635565b5b9060005260206000200160068060200260405190810160405280929190826006801561029d576020028201916000905b82829054906101000a900460ff1660ff16815260200190600101906020826000010492830192600103820291508084116102665790505b5050505050610ee7565b90506000600c8360ff16815481106102c2576102c1611635565b5b9060005260206000200160009054906101000a900473ffffffffffffffffffffffffffffffffffffffff1690506000600881111561030357610302611664565b5b82600881111561031657610315611664565b5b1461055b576000600e8460ff168154811061033457610333611635565b5b90600052602060002090600302019050600081600001541161038b576040517f08c379a0000000000000000000000000000000000000000000000000000000008152600401610382906116df565b60405180910390fd5b8060020160009054906101000a900460ff161561045957600660009054906101000a900473ffffffffffffffffffffffffffffffffffffffff1673ffffffffffffffffffffffffffffffffffffffff166342842e0e308484600001546040518463ffffffff1660e01b815260040161040593929190611759565b600060405180830381600087803b15801561041f57600080fd5b505af1158015610433573d6000803e3d6000fd5b5050505060008160020160006101000a81548160ff0219169083151502179055506104fe565b600660009054906101000a900473ffffffffffffffffffffffffffffffffffffffff1673ffffffffffffffffffffffffffffffffffffffff1663d0def52183836001016040518363ffffffff1660e01b81526004016104b9929190611886565b6020604051808303816000875af11580156104d8573d6000803e3d6000fd5b505050506040513d601f19601f820116820180604052508101906104fc91906118e2565b505b806000015483600881111561051657610515611664565b5b8373ffffffffffffffffffffffffffffffffffffffff167f0bac54947f487010a2bca7341e9f36f91441f0bb9e399f4a83c29e637b8c30da60405160405180910390a4505b600c8360ff168154811061057257610571611635565b5b9060005260206000200160006101000a81549073ffffffffffffffffffffffffffffffffffffffff0219169055600d8360ff16815481106105b6576105b5611635565b5b9060005260206000200160006105cc919061113f565b505080806105d99061193e565b91505061020a565b50600860009054906101000a900473ffffffffffffffffffffffffffffffffffffffff1673ffffffffffffffffffffffffffffffffffffffff166108fc479081150290604051600060405180830381858888f1935050505015801561064a573d6000803e3d6000fd5b506000600660146101000a81548160ff021916908315150217905550565b6000600660149054906101000a900460ff1680156106a45750600a60009054906101000a900460ff1660ff16600754436106a29190611968565b105b905090565b3373ffffffffffffffffffffffffffffffffffffffff16600860009054906101000a900473ffffffffffffffffffffffffffffffffffffffff1673ffffffffffffffffffffffffffffffffffffffff1614610739576040517f08c379a000000000000000000000000000000000000000000000000000000000815260040161073090611615565b60405180910390fd5b60006107436110ee565b905060005b600660ff168160ff1610156108475760008160ff166006811061076e5761076d611635565b5b0160006002811061078257610781611635565b5b602091828204019190069054906101000a900460ff1660008260ff16600681106107af576107ae611635565b5b016001600281106107c3576107c2611635565b5b602091828204019190069054906101000a900460ff16836107e491906119cb565b6107ee91906119fc565b600b8260ff166006811061080557610804611635565b5b602091828204019190066101000a81548160ff021916908360ff1602179055506064826108329190611a33565b9150808061083f9061193e565b915050610748565b5050565b3373ffffffffffffffffffffffffffffffffffffffff16600860009054906101000a900473ffffffffffffffffffffffffffffffffffffffff1673ffffffffffffffffffffffffffffffffffffffff16146108db576040517f08c379a00000000000000000000000000000000000000000000000000000000081526004016108d290611615565b60405180910390fd5b600660149054906101000a900460ff1661092a576040517f08c379a000000000000000000000000000000000000000000000000000000000815260040161092190611ab0565b60405180910390fd5b610932610668565b156109e95760005b600c805490508160ff1610156109e757600c8160ff168154811061096157610960611635565b5b9060005260206000200160009054906101000a900473ffffffffffffffffffffffffffffffffffffffff1673ffffffffffffffffffffffffffffffffffffffff166108fc6009549081150290604051600060405180830381858888f193505050501580156109d3573d6000803e3d6000fd5b5080806109df9061193e565b91505061093a565b505b6000600660146101000a81548160ff0219169083151502179055507f041434c50395b9a06c4309166ef0c0e2da56c3e21804dc8a8dc3dbc0dae5020360405160405180910390a1565b600660149054906101000a900460ff1615610a82576040517f08c379a0000000000000000000000000000000000000000000000000000000008152600401610a7990611b1c565b60405180910390fd5b436007819055506007547fa79d7edf4dcc0bfe14d93ffd4f335a9f42fb01a818205f9b3526fe14c2217be760405160405180910390a2565b6000600660149054906101000a900460ff16905090565b3373ffffffffffffffffffffffffffffffffffffffff16600860009054906101000a900473ffffffffffffffffffffffffffffffffffffffff1673ffffffffffffffffffffffffffffffffffffffff1614610b61576040517f08c379a0000000000000000000000000000000000000000000000000000000008152600401610b5890611615565b60405180910390fd5b6000600660009054906101000a900473ffffffffffffffffffffffffffffffffffffffff1673ffffffffffffffffffffffffffffffffffffffff1663d0def52130846040518363ffffffff1660e01b8152600401610bc0929190611bb3565b6020604051808303816000875af1158015610bdf573d6000803e3d6000fd5b505050506040513d601f19601f82011682018060405250810190610c0391906118e2565b9050600880811115610c1857610c17611664565b5b60ff166001600e80549050610c2d9190611be3565b1115610c8b57600e805480610c4557610c44611c39565b5b6001900381819060005260206000209060030201600080820160009055600182016000610c729190611146565b6002820160006101000a81549060ff0219169055505090555b600e6040518060600160405280838152602001848152602001600115158152509080600181540180825580915050600190039060005260206000209060030201600090919091909150600082015181600001556020820151816001019080519060200190610cfa929190611186565b5060408201518160020160006101000a81548160ff02191690831515021790555050505050565b610d29610668565b610d68576040517f08c379a0000000000000000000000000000000000000000000000000000000008152600401610d5f90611cb4565b60405180910390fd5b600954341015610dad576040517f08c379a0000000000000000000000000000000000000000000000000000000008152600401610da490611d20565b60405180910390fd5b6000339050600c819080600181540180825580915050600190039060005260206000200160009091909190916101000a81548173ffffffffffffffffffffffffffffffffffffffff021916908373ffffffffffffffffffffffffffffffffffffffff160217905550600d8290806001815401808255809150506001900390600052602060002001600090919091909150906006610e4b92919061120c565b508073ffffffffffffffffffffffffffffffffffffffff166108fc60095434610e749190611968565b9081150290604051600060405180830381858888f19350505050158015610e9f573d6000803e3d6000fd5b508073ffffffffffffffffffffffffffffffffffffffff167f5c6c890314aa0d49059c35b35ff86ffb43efe8f543dc3691558f39dfa4a8201160405160405180910390a25050565b6000806000905060005b60016006610eff9190611d40565b60ff168160ff161015610f8357600b8160ff1660068110610f2357610f22611635565b5b602091828204019190069054906101000a900460ff1660ff16848260ff1660068110610f5257610f51611635565b5b602002015160ff161415610f7057600182610f6d91906119fc565b91505b8080610f7b9061193e565b915050610ef1565b506000600b600560ff1660068110610f9e57610f9d611635565b5b602091828204019190069054906101000a900460ff1660ff1684600560ff1660068110610fce57610fcd611635565b5b602002015160ff1614905060058260ff16148015610fe95750805b15610ff9576001925050506110e9565b60058260ff161415611010576002925050506110e9565b60048260ff161480156110205750805b15611030576003925050506110e9565b60048260ff16148061104e575060038260ff1614801561104d5750805b5b1561105e576004925050506110e9565b60038260ff16148061107c575060028260ff1614801561107b5750805b5b1561108c576005925050506110e9565b60028260ff1614806110aa575060018260ff161480156110a95750805b5b156110ba576006925050506110e9565b60018260ff1614156110d1576007925050506110e9565b80156110e2576008925050506110e9565b6000925050505b919050565b6000600860149054906101000a900461ffff1661ffff16436111109190611968565b406040516020016111219190611d8d565b6040516020818303038152906040528051906020012060001c905090565b5060009055565b508054611152906117bf565b6000825580601f106111645750611183565b601f01602090049060005260206000209081019061118291906112a6565b5b50565b828054611192906117bf565b90600052602060002090601f0160209004810192826111b457600085556111fb565b82601f106111cd57805160ff19168380011785556111fb565b828001600101855582156111fb579182015b828111156111fa5782518255916020019190600101906111df565b5b50905061120891906112a6565b5090565b826006601f016020900481019282156112955791602002820160005b8382111561126657835183826101000a81548160ff021916908360ff1602179055509260200192600101602081600001049283019260010302611228565b80156112935782816101000a81549060ff0219169055600101602081600001049283019260010302611266565b505b5090506112a291906112a6565b5090565b5b808211156112bf5760008160009055506001016112a7565b5090565b60008115159050919050565b6112d8816112c3565b82525050565b60006020820190506112f360008301846112cf565b92915050565b6000604051905090565b600080fd5b600080fd5b600080fd5b600080fd5b6000601f19601f8301169050919050565b7f4e487b7100000000000000000000000000000000000000000000000000000000600052604160045260246000fd5b61136082611317565b810181811067ffffffffffffffff8211171561137f5761137e611328565b5b80604052505050565b60006113926112f9565b905061139e8282611357565b919050565b600067ffffffffffffffff8211156113be576113bd611328565b5b6113c782611317565b9050602081019050919050565b82818337600083830152505050565b60006113f66113f1846113a3565b611388565b90508281526020810184848401111561141257611411611312565b5b61141d8482856113d4565b509392505050565b600082601f83011261143a5761143961130d565b5b813561144a8482602086016113e3565b91505092915050565b60006020828403121561146957611468611303565b5b600082013567ffffffffffffffff81111561148757611486611308565b5b61149384828501611425565b91505092915050565b600067ffffffffffffffff8211156114b7576114b6611328565b5b602082029050919050565b600080fd5b600060ff82169050919050565b6114dd816114c7565b81146114e857600080fd5b50565b6000813590506114fa816114d4565b92915050565b600061151361150e8461149c565b611388565b9050806020840283018581111561152d5761152c6114c2565b5b835b81811015611556578061154288826114eb565b84526020840193505060208101905061152f565b5050509392505050565b600082601f8301126115755761157461130d565b5b6006611582848285611500565b91505092915050565b600060c082840312156115a1576115a0611303565b5b60006115af84828501611560565b91505092915050565b600082825260208201905092915050565b7f4f7065726174696f6e20756e617574686f72697a656400000000000000000000600082015250565b60006115ff6016836115b8565b915061160a826115c9565b602082019050919050565b6000602082019050818103600083015261162e816115f2565b9050919050565b7f4e487b7100000000000000000000000000000000000000000000000000000000600052603260045260246000fd5b7f4e487b7100000000000000000000000000000000000000000000000000000000600052602160045260246000fd5b7f4e6f7420656e6f756768207072697a6573000000000000000000000000000000600082015250565b60006116c96011836115b8565b91506116d482611693565b602082019050919050565b600060208201905081810360008301526116f8816116bc565b9050919050565b600073ffffffffffffffffffffffffffffffffffffffff82169050919050565b600061172a826116ff565b9050919050565b61173a8161171f565b82525050565b6000819050919050565b61175381611740565b82525050565b600060608201905061176e6000830186611731565b61177b6020830185611731565b611788604083018461174a565b949350505050565b7f4e487b7100000000000000000000000000000000000000000000000000000000600052602260045260246000fd5b600060028204905060018216806117d757607f821691505b602082108114156117eb576117ea611790565b5b50919050565b60008190508160005260206000209050919050565b60008154611813816117bf565b61181d81866115b8565b94506001821660008114611838576001811461184a5761187d565b60ff198316865260208601935061187d565b611853856117f1565b60005b8381101561187557815481890152600182019150602081019050611856565b808801955050505b50505092915050565b600060408201905061189b6000830185611731565b81810360208301526118ad8184611806565b90509392505050565b6118bf81611740565b81146118ca57600080fd5b50565b6000815190506118dc816118b6565b92915050565b6000602082840312156118f8576118f7611303565b5b6000611906848285016118cd565b91505092915050565b7f4e487b7100000000000000000000000000000000000000000000000000000000600052601160045260246000fd5b6000611949826114c7565b915060ff82141561195d5761195c61190f565b5b600182019050919050565b600061197382611740565b915061197e83611740565b9250828210156119915761199061190f565b5b828203905092915050565b7f4e487b7100000000000000000000000000000000000000000000000000000000600052601260045260246000fd5b60006119d6826114c7565b91506119e1836114c7565b9250826119f1576119f061199c565b5b828206905092915050565b6000611a07826114c7565b9150611a12836114c7565b92508260ff03821115611a2857611a2761190f565b5b828201905092915050565b6000611a3e82611740565b9150611a4983611740565b925082611a5957611a5861199c565b5b828204905092915050565b7f4c6f747465727920616c726561647920636c6f73656400000000000000000000600082015250565b6000611a9a6016836115b8565b9150611aa582611a64565b602082019050919050565b60006020820190508181036000830152611ac981611a8d565b9050919050565b7f526f756e64206973206e6f742066696e69736865640000000000000000000000600082015250565b6000611b066015836115b8565b9150611b1182611ad0565b602082019050919050565b60006020820190508181036000830152611b3581611af9565b9050919050565b600081519050919050565b60005b83811015611b65578082015181840152602081019050611b4a565b83811115611b74576000848401525b50505050565b6000611b8582611b3c565b611b8f81856115b8565b9350611b9f818560208601611b47565b611ba881611317565b840191505092915050565b6000604082019050611bc86000830185611731565b8181036020830152611bda8184611b7a565b90509392505050565b6000611bee82611740565b9150611bf983611740565b9250827fffffffffffffffffffffffffffffffffffffffffffffffffffffffffffffffff03821115611c2e57611c2d61190f565b5b828201905092915050565b7f4e487b7100000000000000000000000000000000000000000000000000000000600052603160045260246000fd5b7f526f756e64206973206e6f742061637469766500000000000000000000000000600082015250565b6000611c9e6013836115b8565b9150611ca982611c68565b602082019050919050565b60006020820190508181036000830152611ccd81611c91565b9050919050565b7f4e6f7420656e6f75676820657468657200000000000000000000000000000000600082015250565b6000611d0a6010836115b8565b9150611d1582611cd4565b602082019050919050565b60006020820190508181036000830152611d3981611cfd565b9050919050565b6000611d4b826114c7565b9150611d56836114c7565b925082821015611d6957611d6861190f565b5b828203905092915050565b6000819050919050565b611d8781611d74565b82525050565b6000602082019050611da26000830184611d7e565b9291505056fea264697066735822122072ce529cba1e8dcdee3fdf2615e8c648cc1e4c190f599c8e8ba745a82a6d1e1a64736f6c634300080c0033",
  "immutableReferences": {},
  "source": "// SPDX-License-Identifier: MIT\npragma solidity ^0.8.0;\n\nimport './ERC721.sol';\n\ncontract Lottery {\n\n    enum Classes {None, Class_1, Class_2, Class_3, Class_4, Class_5, Class_6, Class_7, Class_8}\n\n    struct Collectible {\n        uint256 tokenId;\n        string uri;\n        bool available;\n    }\n\n    uint8 private constant TOTAL_NUMBERS = 6;\n    uint8 private constant POWERBALL_POSITION = 5;\n    uint8[2][TOTAL_NUMBERS] private RANGES = [[1, 69], [1, 69], [1, 69], [1, 69], [1, 69], [1, 26]];\n\n    address private __erc721Address;\n    bool private __lotteryOpen;\n    uint256 private __startRoundBlockNumber;\n    address private __operator;\n    uint16 private __k;\n    uint256 private __ticketPrice;\n    uint8 private __duration;\n\n    uint8[TOTAL_NUMBERS] private __winningNumbers;\n    address[] private __players;\n    uint8[TOTAL_NUMBERS][] private __tickets;\n    Collectible[] private __collectibles;\n\n    constructor(address _erc721Address, uint8 _duration, uint16 _k, uint256 _ticketPrice) {\n        __operator = tx.origin;\n        __erc721Address = _erc721Address;\n        __k = _k + 1 % 256;\n        __lotteryOpen = true;\n        __startRoundBlockNumber = block.number;\n        __ticketPrice = _ticketPrice;\n        __duration = _duration;\n    }\n\n    event StartNewRound(uint256 indexed _blockNumber);\n    event Buy(address indexed _player);\n    event GivePrize(address indexed _player, Classes indexed _class, uint256 indexed _tokenId);\n    event CloseLottery();\n\n    modifier __isOperator() {\n        require(__operator == msg.sender, \"Operation unauthorized\");\n        _;\n    }\n\n    modifier __isRoundActive() {\n        require(isRoundActive(), \"Round is not active\");\n        _;\n    }\n\n    function isRoundActive() public view returns(bool) {\n        return __lotteryOpen && block.number - __startRoundBlockNumber < __duration;\n    }\n\n    function isLotteryOpen() public view returns(bool) {\n        return __lotteryOpen;\n    }\n\n    function startNewRound() external {\n        require(!__lotteryOpen, \"Round is not finished\");\n        __startRoundBlockNumber = block.number;\n        emit StartNewRound(__startRoundBlockNumber);\n    }\n\n    function buy(uint8[TOTAL_NUMBERS] memory numbers) external payable __isRoundActive() {\n        require(msg.value >= __ticketPrice, \"Not enough ether\");\n        address player = msg.sender;\n        __players.push(player);\n        __tickets.push(numbers);\n        payable(player).transfer(msg.value - __ticketPrice);\n        emit Buy(player);\n    }\n\n    function drawNumbers() external __isOperator() {\n        uint256 number = __random();\n        for(uint8 i = 0; i < TOTAL_NUMBERS; i++) {\n            __winningNumbers[i] = uint8(number) % RANGES[i][1] + RANGES[i][0];\n            number /= 100;\n        }\n    }\n\n    function givePrizes() external __isOperator() {\n        for(uint8 i = 0; i < __players.length; i++) {\n            Classes class = __matchClass(__tickets[i]);\n            address _player = __players[i];\n            if(class != Classes.None) {\n                Collectible storage _collectible = __collectibles[i];\n                require(_collectible.tokenId > 0, \"Not enough prizes\");\n                if(_collectible.available){\n                    ERC721(__erc721Address).safeTransferFrom(address(this), _player, _collectible.tokenId);\n                    _collectible.available = false;\n                } else {\n                    ERC721(__erc721Address).mint(_player, _collectible.uri);\n                }\n                emit GivePrize(_player, class, _collectible.tokenId);\n            }\n            delete __players[i];\n            delete __tickets[i];\n        }\n        payable(__operator).transfer(address(this).balance);\n        __lotteryOpen = false;\n    }\n\n    function mint(string memory _uri) external __isOperator() {\n        uint256 _tokenId = ERC721(__erc721Address).mint(address(this), _uri);\n        if(__collectibles.length + 1 > uint8(Classes.Class_8))\n            __collectibles.pop();\n        __collectibles.push(Collectible(_tokenId, _uri, true));\n    }\n\n    function closeLottery() external __isOperator() {\n        require(__lotteryOpen, \"Lottery already closed\");\n        if(isRoundActive()) \n            for(uint8 i = 0; i < __players.length; i++) \n                payable(__players[i]).transfer(__ticketPrice);\n        __lotteryOpen = false;\n        emit CloseLottery();\n    }\n\n    function __random() private view returns(uint256) {\n        return uint256(keccak256(abi.encode(blockhash(block.number - __k))));\n    }\n\n    function __matchClass(uint8[TOTAL_NUMBERS] memory _ticket) private view returns(Classes class) {\n        uint8 stdMatches = 0;\n        for(uint8 i = 0; i < TOTAL_NUMBERS - 1; i++)\n            if(_ticket[i] == __winningNumbers[i])\n                stdMatches += 1;\n        bool matchPowerball = _ticket[POWERBALL_POSITION] == __winningNumbers[POWERBALL_POSITION];\n        if(stdMatches == 5 && matchPowerball)\n            return Classes.Class_1;\n        if(stdMatches == 5)\n            return Classes.Class_2;\n        if(stdMatches == 4 && matchPowerball)\n            return Classes.Class_3;\n        if(stdMatches == 4 || stdMatches == 3 && matchPowerball)\n            return Classes.Class_4;\n        if(stdMatches == 3 || stdMatches == 2 && matchPowerball)\n            return Classes.Class_5;\n        if(stdMatches == 2 || stdMatches == 1 && matchPowerball)\n            return Classes.Class_6;\n        if(stdMatches == 1)\n            return Classes.Class_7;\n        if(matchPowerball)\n            return Classes.Class_8;\n        return Classes.None;\n    }\n\n}",
  "sourcePath": "/Users/geremiapompei/Library/CloudStorage/OneDrive-UniversityofPisa/UNIPI/1 anno 2021_2022/2 semestre/Peer2Peer and Blockchain/exam/P2P/finalterm/smart_contract/contracts/Lottery.sol",
  "compiler": {
    "name": "solc",
    "version": "0.8.12+commit.f00d7308.Emscripten.clang"
  },
  "schemaVersion": "3.4.7",
  "updatedAt": "2022-05-28T11:13:34.493Z",
  "devdoc": {
    "kind": "dev",
    "methods": {},
    "version": 1
  },
  "userdoc": {
    "kind": "user",
    "methods": {},
    "version": 1
  }
}