{
  "contractName": "Lottery",
  "abi": [
    {
      "inputs": [
        {
          "internalType": "address",
          "name": "_erc721Address",
          "type": "address"
        },
        {
          "internalType": "uint8",
          "name": "_duration",
          "type": "uint8"
        },
        {
          "internalType": "uint16",
          "name": "_k",
          "type": "uint16"
        },
        {
          "internalType": "uint256",
          "name": "_ticketPrice",
          "type": "uint256"
        }
      ],
      "stateMutability": "nonpayable",
      "type": "constructor"
    },
    {
      "anonymous": false,
      "inputs": [
        {
          "indexed": true,
          "internalType": "address",
          "name": "_player",
          "type": "address"
        }
      ],
      "name": "Buy",
      "type": "event"
    },
    {
      "anonymous": false,
      "inputs": [],
      "name": "CloseLottery",
      "type": "event"
    },
    {
      "anonymous": false,
      "inputs": [
        {
          "indexed": true,
          "internalType": "address",
          "name": "_player",
          "type": "address"
        },
        {
          "indexed": true,
          "internalType": "enum Lottery.Classes",
          "name": "_class",
          "type": "uint8"
        },
        {
          "indexed": true,
          "internalType": "uint256",
          "name": "_tokenId",
          "type": "uint256"
        }
      ],
      "name": "GivePrize",
      "type": "event"
    },
    {
      "anonymous": false,
      "inputs": [
        {
          "indexed": true,
          "internalType": "uint256",
          "name": "_blockNumber",
          "type": "uint256"
        }
      ],
      "name": "StartNewRound",
      "type": "event"
    },
    {
      "inputs": [],
      "name": "POWERBALL_POSITION",
      "outputs": [
        {
          "internalType": "uint8",
          "name": "",
          "type": "uint8"
        }
      ],
      "stateMutability": "view",
      "type": "function"
    },
    {
      "inputs": [
        {
          "internalType": "uint256",
          "name": "",
          "type": "uint256"
        },
        {
          "internalType": "uint256",
          "name": "",
          "type": "uint256"
        }
      ],
      "name": "RANGES",
      "outputs": [
        {
          "internalType": "uint8",
          "name": "",
          "type": "uint8"
        }
      ],
      "stateMutability": "view",
      "type": "function"
    },
    {
      "inputs": [],
      "name": "TOTAL_NUMBERS",
      "outputs": [
        {
          "internalType": "uint8",
          "name": "",
          "type": "uint8"
        }
      ],
      "stateMutability": "view",
      "type": "function"
    },
    {
      "inputs": [],
      "name": "duration",
      "outputs": [
        {
          "internalType": "uint8",
          "name": "",
          "type": "uint8"
        }
      ],
      "stateMutability": "view",
      "type": "function"
    },
    {
      "inputs": [],
      "name": "erc721Address",
      "outputs": [
        {
          "internalType": "address",
          "name": "",
          "type": "address"
        }
      ],
      "stateMutability": "view",
      "type": "function"
    },
    {
      "inputs": [],
      "name": "lotteryOpen",
      "outputs": [
        {
          "internalType": "bool",
          "name": "",
          "type": "bool"
        }
      ],
      "stateMutability": "view",
      "type": "function"
    },
    {
      "inputs": [],
      "name": "ticketPrice",
      "outputs": [
        {
          "internalType": "uint256",
          "name": "",
          "type": "uint256"
        }
      ],
      "stateMutability": "view",
      "type": "function"
    },
    {
      "inputs": [],
      "name": "isRoundActive",
      "outputs": [
        {
          "internalType": "bool",
          "name": "",
          "type": "bool"
        }
      ],
      "stateMutability": "view",
      "type": "function"
    },
    {
      "inputs": [],
      "name": "startNewRound",
      "outputs": [],
      "stateMutability": "nonpayable",
      "type": "function"
    },
    {
      "inputs": [
        {
          "internalType": "uint8[6]",
          "name": "numbers",
          "type": "uint8[6]"
        }
      ],
      "name": "buy",
      "outputs": [],
      "stateMutability": "payable",
      "type": "function"
    },
    {
      "inputs": [],
      "name": "drawNumbers",
      "outputs": [],
      "stateMutability": "nonpayable",
      "type": "function"
    },
    {
      "inputs": [],
      "name": "givePrizes",
      "outputs": [],
      "stateMutability": "nonpayable",
      "type": "function"
    },
    {
      "inputs": [
        {
          "internalType": "string",
          "name": "_uri",
          "type": "string"
        }
      ],
      "name": "mint",
      "outputs": [],
      "stateMutability": "nonpayable",
      "type": "function"
    },
    {
      "inputs": [],
      "name": "closeLottery",
      "outputs": [],
      "stateMutability": "nonpayable",
      "type": "function"
    }
  ],
  "bytecode": "0x60806040526040518060c001604052806040518060400160405280600160ff168152602001604560ff1681525081526020016040518060400160405280600160ff168152602001604560ff1681525081526020016040518060400160405280600160ff168152602001604560ff1681525081526020016040518060400160405280600160ff168152602001604560ff1681525081526020016040518060400160405280600160ff168152602001604560ff1681525081526020016040518060400160405280600160ff168152602001601a60ff168152508152506000906006620000eb9291906200021a565b50348015620000f957600080fd5b506040516200272e3803806200272e83398181016040528101906200011f919062000480565b32600760006101000a81548173ffffffffffffffffffffffffffffffffffffffff021916908373ffffffffffffffffffffffffffffffffffffffff16021790555083600860006101000a81548173ffffffffffffffffffffffffffffffffffffffff021916908373ffffffffffffffffffffffffffffffffffffffff160217905550600182620001b0919062000521565b600760146101000a81548161ffff021916908361ffff1602179055506001600860146101000a81548160ff021916908315150217905550436006819055508060098190555082600a60006101000a81548160ff021916908360ff1602179055505050505062000560565b82600681019282156200025c579160200282015b828111156200025b578251829060026200024a9291906200026f565b50916020019190600101906200022e565b5b5090506200026b919062000310565b5090565b826002601f01602090048101928215620002fd5791602002820160005b83821115620002cc57835183826101000a81548160ff021916908360ff16021790555092602001926001016020816000010492830192600103026200028c565b8015620002fb5782816101000a81549060ff0219169055600101602081600001049283019260010302620002cc565b505b5090506200030c919062000338565b5090565b5b808211156200033457600081816200032a919062000357565b5060010162000311565b5090565b5b808211156200035357600081600090555060010162000339565b5090565b5060009055565b600080fd5b600073ffffffffffffffffffffffffffffffffffffffff82169050919050565b6000620003908262000363565b9050919050565b620003a28162000383565b8114620003ae57600080fd5b50565b600081519050620003c28162000397565b92915050565b600060ff82169050919050565b620003e081620003c8565b8114620003ec57600080fd5b50565b6000815190506200040081620003d5565b92915050565b600061ffff82169050919050565b6200041f8162000406565b81146200042b57600080fd5b50565b6000815190506200043f8162000414565b92915050565b6000819050919050565b6200045a8162000445565b81146200046657600080fd5b50565b6000815190506200047a816200044f565b92915050565b600080600080608085870312156200049d576200049c6200035e565b5b6000620004ad87828801620003b1565b9450506020620004c087828801620003ef565b9350506040620004d3878288016200042e565b9250506060620004e68782880162000469565b91505092959194509250565b7f4e487b7100000000000000000000000000000000000000000000000000000000600052601160045260246000fd5b60006200052e8262000406565b91506200053b8362000406565b92508261ffff03821115620005555762000554620004f2565b5b828201905092915050565b6121be80620005706000396000f3fe6080604052600436106100dd5760003560e01c8063676c902f1161007f578063bd85948c11610059578063bd85948c14610266578063c60c4ae91461027d578063d85d3d27146102a8578063f828d14b146102d1576100dd565b8063676c902f146101fb5780636fd0981614610212578063751eee8d14610229576100dd565b80632352a864116100bb5780632352a8641461014f5780632a6c7fc31461017a57806345945a45146101a55780634d1a6699146101d0576100dd565b806306d5ee54146100e25780630fb5a6b4146100f95780631209b1f614610124575b600080fd5b3480156100ee57600080fd5b506100f76102ed565b005b34801561010557600080fd5b5061010e61080b565b60405161011b9190611532565b60405180910390f35b34801561013057600080fd5b5061013961081e565b6040516101469190611566565b60405180910390f35b34801561015b57600080fd5b50610164610824565b60405161017191906115c2565b60405180910390f35b34801561018657600080fd5b5061018f61084a565b60405161019c9190611532565b60405180910390f35b3480156101b157600080fd5b506101ba61084f565b6040516101c791906115f8565b60405180910390f35b3480156101dc57600080fd5b506101e5610878565b6040516101f29190611532565b60405180910390f35b34801561020757600080fd5b5061021061087d565b005b34801561021e57600080fd5b50610227610a1f565b005b34801561023557600080fd5b50610250600480360381019061024b9190611653565b610c06565b60405161025d9190611532565b60405180910390f35b34801561027257600080fd5b5061027b610c42565b005b34801561028957600080fd5b50610292610cc2565b60405161029f91906115f8565b60405180910390f35b3480156102b457600080fd5b506102cf60048036038101906102ca91906117d9565b610cd5565b005b6102eb60048036038101906102e69190611904565b610f25565b005b3373ffffffffffffffffffffffffffffffffffffffff16600760009054906101000a900473ffffffffffffffffffffffffffffffffffffffff1673ffffffffffffffffffffffffffffffffffffffff161461037d576040517f08c379a00000000000000000000000000000000000000000000000000000000081526004016103749061198e565b60405180910390fd5b61038561084f565b156103c5576040517f08c379a00000000000000000000000000000000000000000000000000000000081526004016103bc906119fa565b60405180910390fd5b60005b600c805490508160ff16101561079f576000610465600d8360ff16815481106103f4576103f3611a1a565b5b9060005260206000200160068060200260405190810160405280929190826006801561045b576020028201916000905b82829054906101000a900460ff1660ff16815260200190600101906020826000010492830192600103820291508084116104245790505b505050505061113a565b90506000600c8360ff16815481106104805761047f611a1a565b5b9060005260206000200160009054906101000a900473ffffffffffffffffffffffffffffffffffffffff169050600060088111156104c1576104c0611a49565b5b8260088111156104d4576104d3611a49565b5b14610719576000600e8460ff16815481106104f2576104f1611a1a565b5b906000526020600020906003020190506000816000015411610549576040517f08c379a000000000000000000000000000000000000000000000000000000000815260040161054090611ac4565b60405180910390fd5b8060020160009054906101000a900460ff161561061757600860009054906101000a900473ffffffffffffffffffffffffffffffffffffffff1673ffffffffffffffffffffffffffffffffffffffff166342842e0e308484600001546040518463ffffffff1660e01b81526004016105c393929190611ae4565b600060405180830381600087803b1580156105dd57600080fd5b505af11580156105f1573d6000803e3d6000fd5b5050505060008160020160006101000a81548160ff0219169083151502179055506106bc565b600860009054906101000a900473ffffffffffffffffffffffffffffffffffffffff1673ffffffffffffffffffffffffffffffffffffffff1663d0def52183836001016040518363ffffffff1660e01b8152600401610677929190611c11565b6020604051808303816000875af1158015610696573d6000803e3d6000fd5b505050506040513d601f19601f820116820180604052508101906106ba9190611c56565b505b80600001548360088111156106d4576106d3611a49565b5b8373ffffffffffffffffffffffffffffffffffffffff167f0bac54947f487010a2bca7341e9f36f91441f0bb9e399f4a83c29e637b8c30da60405160405180910390a4505b600c8360ff16815481106107305761072f611a1a565b5b9060005260206000200160006101000a81549073ffffffffffffffffffffffffffffffffffffffff0219169055600d8360ff168154811061077457610773611a1a565b5b90600052602060002001600061078a9190611392565b5050808061079790611cb2565b9150506103c8565b50600760009054906101000a900473ffffffffffffffffffffffffffffffffffffffff1673ffffffffffffffffffffffffffffffffffffffff166108fc479081150290604051600060405180830381858888f19350505050158015610808573d6000803e3d6000fd5b50565b600a60009054906101000a900460ff1681565b60095481565b600860009054906101000a900473ffffffffffffffffffffffffffffffffffffffff1681565b600581565b6000600a60009054906101000a900460ff1660ff16600654436108729190611cdc565b10905090565b600681565b3373ffffffffffffffffffffffffffffffffffffffff16600760009054906101000a900473ffffffffffffffffffffffffffffffffffffffff1673ffffffffffffffffffffffffffffffffffffffff161461090d576040517f08c379a00000000000000000000000000000000000000000000000000000000081526004016109049061198e565b60405180910390fd5b6000610917611341565b905060005b600660ff168160ff161015610a1b5760008160ff166006811061094257610941611a1a565b5b0160006002811061095657610955611a1a565b5b602091828204019190069054906101000a900460ff1660008260ff166006811061098357610982611a1a565b5b0160016002811061099757610996611a1a565b5b602091828204019190069054906101000a900460ff16836109b89190611d3f565b6109c29190611d70565b600b8260ff16600681106109d9576109d8611a1a565b5b602091828204019190066101000a81548160ff021916908360ff160217905550606482610a069190611da7565b91508080610a1390611cb2565b91505061091c565b5050565b3373ffffffffffffffffffffffffffffffffffffffff16600760009054906101000a900473ffffffffffffffffffffffffffffffffffffffff1673ffffffffffffffffffffffffffffffffffffffff1614610aaf576040517f08c379a0000000000000000000000000000000000000000000000000000000008152600401610aa69061198e565b60405180910390fd5b600860149054906101000a900460ff16610afe576040517f08c379a0000000000000000000000000000000000000000000000000000000008152600401610af590611e24565b60405180910390fd5b610b0661084f565b15610bbd5760005b600c805490508160ff161015610bbb57600c8160ff1681548110610b3557610b34611a1a565b5b9060005260206000200160009054906101000a900473ffffffffffffffffffffffffffffffffffffffff1673ffffffffffffffffffffffffffffffffffffffff166108fc6009549081150290604051600060405180830381858888f19350505050158015610ba7573d6000803e3d6000fd5b508080610bb390611cb2565b915050610b0e565b505b6000600860146101000a81548160ff0219169083151502179055507f041434c50395b9a06c4309166ef0c0e2da56c3e21804dc8a8dc3dbc0dae5020360405160405180910390a1565b60008260068110610c1657600080fd5b018160028110610c2557600080fd5b60209182820401919006915091509054906101000a900460ff1681565b610c4a61084f565b15610c8a576040517f08c379a0000000000000000000000000000000000000000000000000000000008152600401610c8190611e90565b60405180910390fd5b436006819055506006547fa79d7edf4dcc0bfe14d93ffd4f335a9f42fb01a818205f9b3526fe14c2217be760405160405180910390a2565b600860149054906101000a900460ff1681565b3373ffffffffffffffffffffffffffffffffffffffff16600760009054906101000a900473ffffffffffffffffffffffffffffffffffffffff1673ffffffffffffffffffffffffffffffffffffffff1614610d65576040517f08c379a0000000000000000000000000000000000000000000000000000000008152600401610d5c9061198e565b60405180910390fd5b6000600860009054906101000a900473ffffffffffffffffffffffffffffffffffffffff1673ffffffffffffffffffffffffffffffffffffffff1663d0def52130846040518363ffffffff1660e01b8152600401610dc4929190611f27565b6020604051808303816000875af1158015610de3573d6000803e3d6000fd5b505050506040513d601f19601f82011682018060405250810190610e079190611c56565b9050600880811115610e1c57610e1b611a49565b5b60ff166001600e80549050610e319190611f57565b1115610e8f57600e805480610e4957610e48611fad565b5b6001900381819060005260206000209060030201600080820160009055600182016000610e769190611399565b6002820160006101000a81549060ff0219169055505090555b600e6040518060600160405280838152602001848152602001600115158152509080600181540180825580915050600190039060005260206000209060030201600090919091909150600082015181600001556020820151816001019080519060200190610efe9291906113d9565b5060408201518160020160006101000a81548160ff02191690831515021790555050505050565b610f2d61084f565b610f6c576040517f08c379a0000000000000000000000000000000000000000000000000000000008152600401610f6390612028565b60405180910390fd5b600860149054906101000a900460ff16610fbb576040517f08c379a0000000000000000000000000000000000000000000000000000000008152600401610fb290612094565b60405180910390fd5b600954341015611000576040517f08c379a0000000000000000000000000000000000000000000000000000000008152600401610ff790612100565b60405180910390fd5b6000339050600c819080600181540180825580915050600190039060005260206000200160009091909190916101000a81548173ffffffffffffffffffffffffffffffffffffffff021916908373ffffffffffffffffffffffffffffffffffffffff160217905550600d829080600181540180825580915050600190039060005260206000200160009091909190915090600661109e92919061145f565b508073ffffffffffffffffffffffffffffffffffffffff166108fc600954346110c79190611cdc565b9081150290604051600060405180830381858888f193505050501580156110f2573d6000803e3d6000fd5b508073ffffffffffffffffffffffffffffffffffffffff167f5c6c890314aa0d49059c35b35ff86ffb43efe8f543dc3691558f39dfa4a8201160405160405180910390a25050565b6000806000905060005b600160066111529190612120565b60ff168160ff1610156111d657600b8160ff166006811061117657611175611a1a565b5b602091828204019190069054906101000a900460ff1660ff16848260ff16600681106111a5576111a4611a1a565b5b602002015160ff1614156111c3576001826111c09190611d70565b91505b80806111ce90611cb2565b915050611144565b506000600b600560ff16600681106111f1576111f0611a1a565b5b602091828204019190069054906101000a900460ff1660ff1684600560ff166006811061122157611220611a1a565b5b602002015160ff1614905060058260ff1614801561123c5750805b1561124c5760019250505061133c565b60058260ff1614156112635760029250505061133c565b60048260ff161480156112735750805b156112835760039250505061133c565b60048260ff1614806112a1575060038260ff161480156112a05750805b5b156112b15760049250505061133c565b60038260ff1614806112cf575060028260ff161480156112ce5750805b5b156112df5760059250505061133c565b60028260ff1614806112fd575060018260ff161480156112fc5750805b5b1561130d5760069250505061133c565b60018260ff1614156113245760079250505061133c565b80156113355760089250505061133c565b6000925050505b919050565b6000600760149054906101000a900461ffff1661ffff16436113639190611cdc565b40604051602001611374919061216d565b6040516020818303038152906040528051906020012060001c905090565b5060009055565b5080546113a590611b4a565b6000825580601f106113b757506113d6565b601f0160209004906000526020600020908101906113d591906114f9565b5b50565b8280546113e590611b4a565b90600052602060002090601f016020900481019282611407576000855561144e565b82601f1061142057805160ff191683800117855561144e565b8280016001018555821561144e579182015b8281111561144d578251825591602001919060010190611432565b5b50905061145b91906114f9565b5090565b826006601f016020900481019282156114e85791602002820160005b838211156114b957835183826101000a81548160ff021916908360ff160217905550926020019260010160208160000104928301926001030261147b565b80156114e65782816101000a81549060ff02191690556001016020816000010492830192600103026114b9565b505b5090506114f591906114f9565b5090565b5b808211156115125760008160009055506001016114fa565b5090565b600060ff82169050919050565b61152c81611516565b82525050565b60006020820190506115476000830184611523565b92915050565b6000819050919050565b6115608161154d565b82525050565b600060208201905061157b6000830184611557565b92915050565b600073ffffffffffffffffffffffffffffffffffffffff82169050919050565b60006115ac82611581565b9050919050565b6115bc816115a1565b82525050565b60006020820190506115d760008301846115b3565b92915050565b60008115159050919050565b6115f2816115dd565b82525050565b600060208201905061160d60008301846115e9565b92915050565b6000604051905090565b600080fd5b600080fd5b6116308161154d565b811461163b57600080fd5b50565b60008135905061164d81611627565b92915050565b6000806040838503121561166a5761166961161d565b5b60006116788582860161163e565b92505060206116898582860161163e565b9150509250929050565b600080fd5b600080fd5b6000601f19601f8301169050919050565b7f4e487b7100000000000000000000000000000000000000000000000000000000600052604160045260246000fd5b6116e68261169d565b810181811067ffffffffffffffff82111715611705576117046116ae565b5b80604052505050565b6000611718611613565b905061172482826116dd565b919050565b600067ffffffffffffffff821115611744576117436116ae565b5b61174d8261169d565b9050602081019050919050565b82818337600083830152505050565b600061177c61177784611729565b61170e565b90508281526020810184848401111561179857611797611698565b5b6117a384828561175a565b509392505050565b600082601f8301126117c0576117bf611693565b5b81356117d0848260208601611769565b91505092915050565b6000602082840312156117ef576117ee61161d565b5b600082013567ffffffffffffffff81111561180d5761180c611622565b5b611819848285016117ab565b91505092915050565b600067ffffffffffffffff82111561183d5761183c6116ae565b5b602082029050919050565b600080fd5b61185681611516565b811461186157600080fd5b50565b6000813590506118738161184d565b92915050565b600061188c61188784611822565b61170e565b905080602084028301858111156118a6576118a5611848565b5b835b818110156118cf57806118bb8882611864565b8452602084019350506020810190506118a8565b5050509392505050565b600082601f8301126118ee576118ed611693565b5b60066118fb848285611879565b91505092915050565b600060c0828403121561191a5761191961161d565b5b6000611928848285016118d9565b91505092915050565b600082825260208201905092915050565b7f4f7065726174696f6e20756e617574686f72697a656400000000000000000000600082015250565b6000611978601683611931565b915061198382611942565b602082019050919050565b600060208201905081810360008301526119a78161196b565b9050919050565b7f526f756e64206973206163746976650000000000000000000000000000000000600082015250565b60006119e4600f83611931565b91506119ef826119ae565b602082019050919050565b60006020820190508181036000830152611a13816119d7565b9050919050565b7f4e487b7100000000000000000000000000000000000000000000000000000000600052603260045260246000fd5b7f4e487b7100000000000000000000000000000000000000000000000000000000600052602160045260246000fd5b7f4e6f7420656e6f756768207072697a6573000000000000000000000000000000600082015250565b6000611aae601183611931565b9150611ab982611a78565b602082019050919050565b60006020820190508181036000830152611add81611aa1565b9050919050565b6000606082019050611af960008301866115b3565b611b0660208301856115b3565b611b136040830184611557565b949350505050565b7f4e487b7100000000000000000000000000000000000000000000000000000000600052602260045260246000fd5b60006002820490506001821680611b6257607f821691505b60208210811415611b7657611b75611b1b565b5b50919050565b60008190508160005260206000209050919050565b60008154611b9e81611b4a565b611ba88186611931565b94506001821660008114611bc35760018114611bd557611c08565b60ff1983168652602086019350611c08565b611bde85611b7c565b60005b83811015611c0057815481890152600182019150602081019050611be1565b808801955050505b50505092915050565b6000604082019050611c2660008301856115b3565b8181036020830152611c388184611b91565b90509392505050565b600081519050611c5081611627565b92915050565b600060208284031215611c6c57611c6b61161d565b5b6000611c7a84828501611c41565b91505092915050565b7f4e487b7100000000000000000000000000000000000000000000000000000000600052601160045260246000fd5b6000611cbd82611516565b915060ff821415611cd157611cd0611c83565b5b600182019050919050565b6000611ce78261154d565b9150611cf28361154d565b925082821015611d0557611d04611c83565b5b828203905092915050565b7f4e487b7100000000000000000000000000000000000000000000000000000000600052601260045260246000fd5b6000611d4a82611516565b9150611d5583611516565b925082611d6557611d64611d10565b5b828206905092915050565b6000611d7b82611516565b9150611d8683611516565b92508260ff03821115611d9c57611d9b611c83565b5b828201905092915050565b6000611db28261154d565b9150611dbd8361154d565b925082611dcd57611dcc611d10565b5b828204905092915050565b7f4c6f747465727920616c726561647920636c6f73656400000000000000000000600082015250565b6000611e0e601683611931565b9150611e1982611dd8565b602082019050919050565b60006020820190508181036000830152611e3d81611e01565b9050919050565b7f526f756e64206973206e6f742066696e69736865640000000000000000000000600082015250565b6000611e7a601583611931565b9150611e8582611e44565b602082019050919050565b60006020820190508181036000830152611ea981611e6d565b9050919050565b600081519050919050565b60005b83811015611ed9578082015181840152602081019050611ebe565b83811115611ee8576000848401525b50505050565b6000611ef982611eb0565b611f038185611931565b9350611f13818560208601611ebb565b611f1c8161169d565b840191505092915050565b6000604082019050611f3c60008301856115b3565b8181036020830152611f4e8184611eee565b90509392505050565b6000611f628261154d565b9150611f6d8361154d565b9250827fffffffffffffffffffffffffffffffffffffffffffffffffffffffffffffffff03821115611fa257611fa1611c83565b5b828201905092915050565b7f4e487b7100000000000000000000000000000000000000000000000000000000600052603160045260246000fd5b7f526f756e64206973206e6f742061637469766500000000000000000000000000600082015250565b6000612012601383611931565b915061201d82611fdc565b602082019050919050565b6000602082019050818103600083015261204181612005565b9050919050565b7f4c6f747465727920697320636c6f736564000000000000000000000000000000600082015250565b600061207e601183611931565b915061208982612048565b602082019050919050565b600060208201905081810360008301526120ad81612071565b9050919050565b7f4e6f7420656e6f75676820657468657200000000000000000000000000000000600082015250565b60006120ea601083611931565b91506120f5826120b4565b602082019050919050565b60006020820190508181036000830152612119816120dd565b9050919050565b600061212b82611516565b915061213683611516565b92508282101561214957612148611c83565b5b828203905092915050565b6000819050919050565b61216781612154565b82525050565b6000602082019050612182600083018461215e565b9291505056fea2646970667358221220049e5813200afb7c9973f6695164fe8f93026293397befbc192ed1ac8b769c9a64736f6c634300080c0033",
  "immutableReferences": {},
  "source": "// SPDX-License-Identifier: MIT\npragma solidity ^0.8.0;\n\nimport './ERC721.sol';\n\ncontract Lottery {\n\n    enum Classes {None, Class_1, Class_2, Class_3, Class_4, Class_5, Class_6, Class_7, Class_8}\n\n    struct Collectible {\n        uint256 tokenId;\n        string uri;\n        bool available;\n    }\n\n    uint8 public constant TOTAL_NUMBERS = 6;\n    uint8 public constant POWERBALL_POSITION = 5;\n    uint8[2][TOTAL_NUMBERS] public RANGES = [[1, 69], [1, 69], [1, 69], [1, 69], [1, 69], [1, 26]];\n\n    uint256 private __startRoundBlockNumber;\n    address private __operator;\n    uint16 private __k;\n    address public erc721Address;\n    bool public lotteryOpen;\n    uint256 public ticketPrice;\n    uint8 public duration;\n\n    uint8[TOTAL_NUMBERS] private __winningNumbers;\n    address[] private __players;\n    uint8[TOTAL_NUMBERS][] private __tickets;\n    Collectible[] private __collectibles;\n\n    constructor(address _erc721Address, uint8 _duration, uint16 _k, uint256 _ticketPrice) {\n        __operator = tx.origin;\n        erc721Address = _erc721Address;\n        __k = _k + 1 % 256;\n        lotteryOpen = true;\n        __startRoundBlockNumber = block.number;\n        ticketPrice = _ticketPrice;\n        duration = _duration;\n    }\n\n    event StartNewRound(uint256 indexed _blockNumber);\n    event Buy(address indexed _player);\n    event GivePrize(address indexed _player, Classes indexed _class, uint256 indexed _tokenId);\n    event CloseLottery();\n\n    modifier __isOperator() {\n        require(__operator == msg.sender, \"Operation unauthorized\");\n        _;\n    }\n\n    modifier __isRoundActive() {\n        require(isRoundActive(), \"Round is not active\");\n        _;\n    }\n\n    function isRoundActive() public view returns(bool) {\n        return block.number - __startRoundBlockNumber < duration;\n    }\n\n    function startNewRound() external {\n        require(!isRoundActive(), \"Round is not finished\");\n        __startRoundBlockNumber = block.number;\n        emit StartNewRound(__startRoundBlockNumber);\n    }\n\n    function buy(uint8[TOTAL_NUMBERS] memory numbers) external payable __isRoundActive() {\n        require(lotteryOpen, \"Lottery is closed\");\n        require(msg.value >= ticketPrice, \"Not enough ether\");\n        address player = msg.sender;\n        __players.push(player);\n        __tickets.push(numbers);\n        payable(player).transfer(msg.value - ticketPrice);\n        emit Buy(player);\n    }\n\n    function drawNumbers() external __isOperator() {\n        uint256 number = __random();\n        for(uint8 i = 0; i < TOTAL_NUMBERS; i++) {\n            __winningNumbers[i] = uint8(number) % RANGES[i][1] + RANGES[i][0];\n            number /= 100;\n        }\n    }\n\n    function givePrizes() external __isOperator() {\n        require(!isRoundActive(), \"Round is active\");\n        for(uint8 i = 0; i < __players.length; i++) {\n            Classes class = __matchClass(__tickets[i]);\n            address _player = __players[i];\n            if(class != Classes.None) {\n                Collectible storage _collectible = __collectibles[i];\n                require(_collectible.tokenId > 0, \"Not enough prizes\");\n                if(_collectible.available){\n                    ERC721(erc721Address).safeTransferFrom(address(this), _player, _collectible.tokenId);\n                    _collectible.available = false;\n                } else {\n                    ERC721(erc721Address).mint(_player, _collectible.uri);\n                }\n                emit GivePrize(_player, class, _collectible.tokenId);\n            }\n            delete __players[i];\n            delete __tickets[i];\n        }\n        payable(__operator).transfer(address(this).balance);\n    }\n\n    function mint(string memory _uri) external __isOperator() {\n        uint256 _tokenId = ERC721(erc721Address).mint(address(this), _uri);\n        if(__collectibles.length + 1 > uint8(Classes.Class_8))\n            __collectibles.pop();\n        __collectibles.push(Collectible(_tokenId, _uri, true));\n    }\n\n    function closeLottery() external __isOperator() {\n        require(lotteryOpen, \"Lottery already closed\");\n        if(isRoundActive()) \n            for(uint8 i = 0; i < __players.length; i++) \n                payable(__players[i]).transfer(ticketPrice);\n        lotteryOpen = false;\n        emit CloseLottery();\n    }\n\n    function __random() private view returns(uint256) {\n        return uint256(keccak256(abi.encode(blockhash(block.number - __k))));\n    }\n\n    function __matchClass(uint8[TOTAL_NUMBERS] memory _ticket) private view returns(Classes class) {\n        uint8 stdMatches = 0;\n        for(uint8 i = 0; i < TOTAL_NUMBERS - 1; i++)\n            if(_ticket[i] == __winningNumbers[i])\n                stdMatches += 1;\n        bool matchPowerball = _ticket[POWERBALL_POSITION] == __winningNumbers[POWERBALL_POSITION];\n        if(stdMatches == 5 && matchPowerball)\n            return Classes.Class_1;\n        if(stdMatches == 5)\n            return Classes.Class_2;\n        if(stdMatches == 4 && matchPowerball)\n            return Classes.Class_3;\n        if(stdMatches == 4 || stdMatches == 3 && matchPowerball)\n            return Classes.Class_4;\n        if(stdMatches == 3 || stdMatches == 2 && matchPowerball)\n            return Classes.Class_5;\n        if(stdMatches == 2 || stdMatches == 1 && matchPowerball)\n            return Classes.Class_6;\n        if(stdMatches == 1)\n            return Classes.Class_7;\n        if(matchPowerball)\n            return Classes.Class_8;\n        return Classes.None;\n    }\n\n}",
  "sourcePath": "/Users/geremiapompei/Library/CloudStorage/OneDrive-UniversityofPisa/UNIPI/1 anno 2021_2022/2 semestre/Peer2Peer and Blockchain/exam/P2P/finalterm/smart_contract/contracts/Lottery.sol",
  "compiler": {
    "name": "solc",
    "version": "0.8.12+commit.f00d7308.Emscripten.clang"
  },
  "schemaVersion": "3.4.7",
  "updatedAt": "2022-05-28T16:44:58.571Z",
  "devdoc": {
    "kind": "dev",
    "methods": {},
    "version": 1
  },
  "userdoc": {
    "kind": "user",
    "methods": {},
    "version": 1
  }
}