{
  "contractName": "TRY",
  "abi": [
    {
      "inputs": [
        {
          "internalType": "address",
          "name": "_erc721Address",
          "type": "address"
        },
        {
          "internalType": "uint8",
          "name": "_duration",
          "type": "uint8"
        },
        {
          "internalType": "uint16",
          "name": "_k",
          "type": "uint16"
        },
        {
          "internalType": "uint256",
          "name": "_ticketPrice",
          "type": "uint256"
        }
      ],
      "stateMutability": "nonpayable",
      "type": "constructor"
    },
    {
      "inputs": [],
      "name": "isRoundActive",
      "outputs": [
        {
          "internalType": "bool",
          "name": "",
          "type": "bool"
        }
      ],
      "stateMutability": "view",
      "type": "function",
      "constant": true
    },
    {
      "inputs": [],
      "name": "startNewRound",
      "outputs": [],
      "stateMutability": "nonpayable",
      "type": "function"
    },
    {
      "inputs": [
        {
          "internalType": "uint8[6]",
          "name": "numbers",
          "type": "uint8[6]"
        }
      ],
      "name": "buy",
      "outputs": [],
      "stateMutability": "payable",
      "type": "function",
      "payable": true
    },
    {
      "inputs": [],
      "name": "drawNumbers",
      "outputs": [],
      "stateMutability": "nonpayable",
      "type": "function"
    },
    {
      "inputs": [],
      "name": "givePrizes",
      "outputs": [],
      "stateMutability": "nonpayable",
      "type": "function"
    },
    {
      "inputs": [
        {
          "internalType": "string",
          "name": "_uri",
          "type": "string"
        }
      ],
      "name": "mint",
      "outputs": [],
      "stateMutability": "nonpayable",
      "type": "function"
    },
    {
      "inputs": [],
      "name": "closeLottery",
      "outputs": [],
      "stateMutability": "nonpayable",
      "type": "function"
    }
  ],
  "bytecode": "0x60806040526040518060c001604052806040518060400160405280600160ff168152602001604560ff1681525081526020016040518060400160405280600160ff168152602001604560ff1681525081526020016040518060400160405280600160ff168152602001604560ff1681525081526020016040518060400160405280600160ff168152602001604560ff1681525081526020016040518060400160405280600160ff168152602001604560ff1681525081526020016040518060400160405280600160ff168152602001601a60ff168152508152506000906006620000eb92919062000213565b50348015620000f957600080fd5b50604051620021593803806200215983398181016040528101906200011f919062000479565b33600860006101000a81548173ffffffffffffffffffffffffffffffffffffffff021916908373ffffffffffffffffffffffffffffffffffffffff16021790555083600660006101000a81548173ffffffffffffffffffffffffffffffffffffffff021916908373ffffffffffffffffffffffffffffffffffffffff160217905550600182620001b091906200051a565b600860146101000a81548161ffff021916908361ffff1602179055506001600660146101000a81548160ff0219169083151502179055508060098190555082600a60006101000a81548160ff021916908360ff1602179055505050505062000559565b826006810192821562000255579160200282015b8281111562000254578251829060026200024392919062000268565b509160200191906001019062000227565b5b50905062000264919062000309565b5090565b826002601f01602090048101928215620002f65791602002820160005b83821115620002c557835183826101000a81548160ff021916908360ff160217905550926020019260010160208160000104928301926001030262000285565b8015620002f45782816101000a81549060ff0219169055600101602081600001049283019260010302620002c5565b505b50905062000305919062000331565b5090565b5b808211156200032d576000818162000323919062000350565b506001016200030a565b5090565b5b808211156200034c57600081600090555060010162000332565b5090565b5060009055565b600080fd5b600073ffffffffffffffffffffffffffffffffffffffff82169050919050565b600062000389826200035c565b9050919050565b6200039b816200037c565b8114620003a757600080fd5b50565b600081519050620003bb8162000390565b92915050565b600060ff82169050919050565b620003d981620003c1565b8114620003e557600080fd5b50565b600081519050620003f981620003ce565b92915050565b600061ffff82169050919050565b6200041881620003ff565b81146200042457600080fd5b50565b60008151905062000438816200040d565b92915050565b6000819050919050565b62000453816200043e565b81146200045f57600080fd5b50565b600081519050620004738162000448565b92915050565b6000806000806080858703121562000496576200049562000357565b5b6000620004a687828801620003aa565b9450506020620004b987828801620003e8565b9350506040620004cc8782880162000427565b9250506060620004df8782880162000462565b91505092959194509250565b7f4e487b7100000000000000000000000000000000000000000000000000000000600052601160045260246000fd5b60006200052782620003ff565b91506200053483620003ff565b92508261ffff038211156200054e576200054d620004eb565b5b828201905092915050565b611bf080620005696000396000f3fe6080604052600436106100705760003560e01c80636fd098161161004e5780636fd09816146100ce578063bd85948c146100e5578063d85d3d27146100fc578063f828d14b1461012557610070565b806306d5ee541461007557806345945a451461008c578063676c902f146100b7575b600080fd5b34801561008157600080fd5b5061008a610141565b005b34801561009857600080fd5b506100a16105e0565b6040516100ae91906110f0565b60405180910390f35b3480156100c357600080fd5b506100cc610621565b005b3480156100da57600080fd5b506100e36107c3565b005b3480156100f157600080fd5b506100fa6108bf565b005b34801561010857600080fd5b50610123600480360381019061011e9190611265565b610933565b005b61013f600480360381019061013a919061139d565b610b83565b005b3373ffffffffffffffffffffffffffffffffffffffff16600860009054906101000a900473ffffffffffffffffffffffffffffffffffffffff1673ffffffffffffffffffffffffffffffffffffffff16146101d1576040517f08c379a00000000000000000000000000000000000000000000000000000000081526004016101c890611427565b60405180910390fd5b60005b600c805490508160ff16101561051457600060088111156101f8576101f7611447565b5b610283600e8360ff168154811061021257610211611476565b5b90600052602060002001600680602002604051908101604052809291908260068015610279576020028201916000905b82829054906101000a900460ff1660ff16815260200190600101906020826000010492830192600103820291508084116102425790505b5050505050610d00565b600881111561029557610294611447565b5b14610501576000600d8260ff16815481106102b3576102b2611476565b5b90600052602060002090600302019050600081600001541161030a576040517f08c379a0000000000000000000000000000000000000000000000000000000008152600401610301906114f1565b60405180910390fd5b8060020160009054906101000a900460ff161561041957600660009054906101000a900473ffffffffffffffffffffffffffffffffffffffff1673ffffffffffffffffffffffffffffffffffffffff166342842e0e30600c8560ff168154811061037757610376611476565b5b9060005260206000200160009054906101000a900473ffffffffffffffffffffffffffffffffffffffff1684600001546040518463ffffffff1660e01b81526004016103c59392919061156b565b600060405180830381600087803b1580156103df57600080fd5b505af11580156103f3573d6000803e3d6000fd5b5050505060008160020160006101000a81548160ff0219169083151502179055506104ff565b600660009054906101000a900473ffffffffffffffffffffffffffffffffffffffff1673ffffffffffffffffffffffffffffffffffffffff1663d0def521600c8460ff168154811061046e5761046d611476565b5b9060005260206000200160009054906101000a900473ffffffffffffffffffffffffffffffffffffffff16836001016040518363ffffffff1660e01b81526004016104ba929190611698565b6020604051808303816000875af11580156104d9573d6000803e3d6000fd5b505050506040513d601f19601f820116820180604052508101906104fd91906116f4565b505b505b808061050c90611750565b9150506101d4565b50600860009054906101000a900473ffffffffffffffffffffffffffffffffffffffff1673ffffffffffffffffffffffffffffffffffffffff166108fc479081150290604051600060405180830381858888f1935050505015801561057d573d6000803e3d6000fd5b503073ffffffffffffffffffffffffffffffffffffffff1663bd85948c6040518163ffffffff1660e01b8152600401600060405180830381600087803b1580156105c657600080fd5b505af11580156105da573d6000803e3d6000fd5b50505050565b6000600660149054906101000a900460ff16801561061c5750600a60009054906101000a900460ff1660ff166007544361061a919061177a565b105b905090565b3373ffffffffffffffffffffffffffffffffffffffff16600860009054906101000a900473ffffffffffffffffffffffffffffffffffffffff1673ffffffffffffffffffffffffffffffffffffffff16146106b1576040517f08c379a00000000000000000000000000000000000000000000000000000000081526004016106a890611427565b60405180910390fd5b60006106bb610f07565b905060005b600660ff168160ff1610156107bf5760008160ff16600681106106e6576106e5611476565b5b016000600281106106fa576106f9611476565b5b602091828204019190069054906101000a900460ff1660008260ff166006811061072757610726611476565b5b0160016002811061073b5761073a611476565b5b602091828204019190069054906101000a900460ff168361075c91906117dd565b610766919061180e565b600b8260ff166006811061077d5761077c611476565b5b602091828204019190066101000a81548160ff021916908360ff1602179055506064826107aa9190611845565b915080806107b790611750565b9150506106c0565b5050565b3373ffffffffffffffffffffffffffffffffffffffff16600860009054906101000a900473ffffffffffffffffffffffffffffffffffffffff1673ffffffffffffffffffffffffffffffffffffffff1614610853576040517f08c379a000000000000000000000000000000000000000000000000000000000815260040161084a90611427565b60405180910390fd5b600660149054906101000a900460ff166108a2576040517f08c379a0000000000000000000000000000000000000000000000000000000008152600401610899906118c2565b60405180910390fd5b6000600660146101000a81548160ff021916908315150217905550565b600660149054906101000a900460ff161561090f576040517f08c379a00000000000000000000000000000000000000000000000000000000081526004016109069061192e565b60405180910390fd5b6001600660146101000a81548160ff02191690831515021790555043600781905550565b3373ffffffffffffffffffffffffffffffffffffffff16600860009054906101000a900473ffffffffffffffffffffffffffffffffffffffff1673ffffffffffffffffffffffffffffffffffffffff16146109c3576040517f08c379a00000000000000000000000000000000000000000000000000000000081526004016109ba90611427565b60405180910390fd5b6000600660009054906101000a900473ffffffffffffffffffffffffffffffffffffffff1673ffffffffffffffffffffffffffffffffffffffff1663d0def52130846040518363ffffffff1660e01b8152600401610a229291906119c5565b6020604051808303816000875af1158015610a41573d6000803e3d6000fd5b505050506040513d601f19601f82011682018060405250810190610a6591906116f4565b9050600880811115610a7a57610a79611447565b5b60ff166001600d80549050610a8f91906119f5565b1115610aed57600d805480610aa757610aa6611a4b565b5b6001900381819060005260206000209060030201600080820160009055600182016000610ad49190610f58565b6002820160006101000a81549060ff0219169055505090555b600d6040518060600160405280838152602001848152602001600115158152509080600181540180825580915050600190039060005260206000209060030201600090919091909150600082015181600001556020820151816001019080519060200190610b5c929190610f98565b5060408201518160020160006101000a81548160ff02191690831515021790555050505050565b610b8b6105e0565b610bca576040517f08c379a0000000000000000000000000000000000000000000000000000000008152600401610bc190611ac6565b60405180910390fd5b600954341015610c0f576040517f08c379a0000000000000000000000000000000000000000000000000000000008152600401610c0690611b32565b60405180910390fd5b600c339080600181540180825580915050600190039060005260206000200160009091909190916101000a81548173ffffffffffffffffffffffffffffffffffffffff021916908373ffffffffffffffffffffffffffffffffffffffff160217905550600e8190806001815401808255809150506001900390600052602060002001600090919091909150906006610ca892919061101e565b503373ffffffffffffffffffffffffffffffffffffffff166108fc60095434610cd1919061177a565b9081150290604051600060405180830381858888f19350505050158015610cfc573d6000803e3d6000fd5b5050565b6000806000905060005b60016006610d189190611b52565b60ff168160ff161015610d9c57600b8160ff1660068110610d3c57610d3b611476565b5b602091828204019190069054906101000a900460ff1660ff16848260ff1660068110610d6b57610d6a611476565b5b602002015160ff161415610d8957600182610d86919061180e565b91505b8080610d9490611750565b915050610d0a565b506000600b600560ff1660068110610db757610db6611476565b5b602091828204019190069054906101000a900460ff1660ff1684600560ff1660068110610de757610de6611476565b5b602002015160ff1614905060058260ff16148015610e025750805b15610e1257600192505050610f02565b60058260ff161415610e2957600292505050610f02565b60048260ff16148015610e395750805b15610e4957600392505050610f02565b60048260ff161480610e67575060038260ff16148015610e665750805b5b15610e7757600492505050610f02565b60038260ff161480610e95575060028260ff16148015610e945750805b5b15610ea557600592505050610f02565b60028260ff161480610ec3575060018260ff16148015610ec25750805b5b15610ed357600692505050610f02565b60018260ff161415610eea57600792505050610f02565b8015610efb57600892505050610f02565b6000925050505b919050565b6000600860149054906101000a900461ffff1661ffff1643610f29919061177a565b40604051602001610f3a9190611b9f565b6040516020818303038152906040528051906020012060001c905090565b508054610f64906115d1565b6000825580601f10610f765750610f95565b601f016020900490600052602060002090810190610f9491906110b8565b5b50565b828054610fa4906115d1565b90600052602060002090601f016020900481019282610fc6576000855561100d565b82601f10610fdf57805160ff191683800117855561100d565b8280016001018555821561100d579182015b8281111561100c578251825591602001919060010190610ff1565b5b50905061101a91906110b8565b5090565b826006601f016020900481019282156110a75791602002820160005b8382111561107857835183826101000a81548160ff021916908360ff160217905550926020019260010160208160000104928301926001030261103a565b80156110a55782816101000a81549060ff0219169055600101602081600001049283019260010302611078565b505b5090506110b491906110b8565b5090565b5b808211156110d15760008160009055506001016110b9565b5090565b60008115159050919050565b6110ea816110d5565b82525050565b600060208201905061110560008301846110e1565b92915050565b6000604051905090565b600080fd5b600080fd5b600080fd5b600080fd5b6000601f19601f8301169050919050565b7f4e487b7100000000000000000000000000000000000000000000000000000000600052604160045260246000fd5b61117282611129565b810181811067ffffffffffffffff821117156111915761119061113a565b5b80604052505050565b60006111a461110b565b90506111b08282611169565b919050565b600067ffffffffffffffff8211156111d0576111cf61113a565b5b6111d982611129565b9050602081019050919050565b82818337600083830152505050565b6000611208611203846111b5565b61119a565b90508281526020810184848401111561122457611223611124565b5b61122f8482856111e6565b509392505050565b600082601f83011261124c5761124b61111f565b5b813561125c8482602086016111f5565b91505092915050565b60006020828403121561127b5761127a611115565b5b600082013567ffffffffffffffff8111156112995761129861111a565b5b6112a584828501611237565b91505092915050565b600067ffffffffffffffff8211156112c9576112c861113a565b5b602082029050919050565b600080fd5b600060ff82169050919050565b6112ef816112d9565b81146112fa57600080fd5b50565b60008135905061130c816112e6565b92915050565b6000611325611320846112ae565b61119a565b9050806020840283018581111561133f5761133e6112d4565b5b835b81811015611368578061135488826112fd565b845260208401935050602081019050611341565b5050509392505050565b600082601f8301126113875761138661111f565b5b6006611394848285611312565b91505092915050565b600060c082840312156113b3576113b2611115565b5b60006113c184828501611372565b91505092915050565b600082825260208201905092915050565b7f4f7065726174696f6e20756e617574686f72697a656400000000000000000000600082015250565b60006114116016836113ca565b915061141c826113db565b602082019050919050565b6000602082019050818103600083015261144081611404565b9050919050565b7f4e487b7100000000000000000000000000000000000000000000000000000000600052602160045260246000fd5b7f4e487b7100000000000000000000000000000000000000000000000000000000600052603260045260246000fd5b7f4e6f7420656e6f756768207072697a6573000000000000000000000000000000600082015250565b60006114db6011836113ca565b91506114e6826114a5565b602082019050919050565b6000602082019050818103600083015261150a816114ce565b9050919050565b600073ffffffffffffffffffffffffffffffffffffffff82169050919050565b600061153c82611511565b9050919050565b61154c81611531565b82525050565b6000819050919050565b61156581611552565b82525050565b60006060820190506115806000830186611543565b61158d6020830185611543565b61159a604083018461155c565b949350505050565b7f4e487b7100000000000000000000000000000000000000000000000000000000600052602260045260246000fd5b600060028204905060018216806115e957607f821691505b602082108114156115fd576115fc6115a2565b5b50919050565b60008190508160005260206000209050919050565b60008154611625816115d1565b61162f81866113ca565b9450600182166000811461164a576001811461165c5761168f565b60ff198316865260208601935061168f565b61166585611603565b60005b8381101561168757815481890152600182019150602081019050611668565b808801955050505b50505092915050565b60006040820190506116ad6000830185611543565b81810360208301526116bf8184611618565b90509392505050565b6116d181611552565b81146116dc57600080fd5b50565b6000815190506116ee816116c8565b92915050565b60006020828403121561170a57611709611115565b5b6000611718848285016116df565b91505092915050565b7f4e487b7100000000000000000000000000000000000000000000000000000000600052601160045260246000fd5b600061175b826112d9565b915060ff82141561176f5761176e611721565b5b600182019050919050565b600061178582611552565b915061179083611552565b9250828210156117a3576117a2611721565b5b828203905092915050565b7f4e487b7100000000000000000000000000000000000000000000000000000000600052601260045260246000fd5b60006117e8826112d9565b91506117f3836112d9565b925082611803576118026117ae565b5b828206905092915050565b6000611819826112d9565b9150611824836112d9565b92508260ff0382111561183a57611839611721565b5b828201905092915050565b600061185082611552565b915061185b83611552565b92508261186b5761186a6117ae565b5b828204905092915050565b7f4c6f747465727920616c726561647920636c6f73656400000000000000000000600082015250565b60006118ac6016836113ca565b91506118b782611876565b602082019050919050565b600060208201905081810360008301526118db8161189f565b9050919050565b7f526f756e64206973206e6f742066696e69736865640000000000000000000000600082015250565b60006119186015836113ca565b9150611923826118e2565b602082019050919050565b600060208201905081810360008301526119478161190b565b9050919050565b600081519050919050565b60005b8381101561197757808201518184015260208101905061195c565b83811115611986576000848401525b50505050565b60006119978261194e565b6119a181856113ca565b93506119b1818560208601611959565b6119ba81611129565b840191505092915050565b60006040820190506119da6000830185611543565b81810360208301526119ec818461198c565b90509392505050565b6000611a0082611552565b9150611a0b83611552565b9250827fffffffffffffffffffffffffffffffffffffffffffffffffffffffffffffffff03821115611a4057611a3f611721565b5b828201905092915050565b7f4e487b7100000000000000000000000000000000000000000000000000000000600052603160045260246000fd5b7f526f756e64206973206e6f742061637469766500000000000000000000000000600082015250565b6000611ab06013836113ca565b9150611abb82611a7a565b602082019050919050565b60006020820190508181036000830152611adf81611aa3565b9050919050565b7f4e6f7420656e6f75676820657468657200000000000000000000000000000000600082015250565b6000611b1c6010836113ca565b9150611b2782611ae6565b602082019050919050565b60006020820190508181036000830152611b4b81611b0f565b9050919050565b6000611b5d826112d9565b9150611b68836112d9565b925082821015611b7b57611b7a611721565b5b828203905092915050565b6000819050919050565b611b9981611b86565b82525050565b6000602082019050611bb46000830184611b90565b9291505056fea2646970667358221220359189922bbe967107a53629b97ff948161f6af1ae8bd189d9a7d9e3b4eb182864736f6c634300080c0033",
  "immutableReferences": {},
  "source": "// SPDX-License-Identifier: MIT\npragma solidity ^0.8.0;\n\nimport './ERC721.sol';\n\ncontract TRY {\n\n    enum Classes {None, Class_1, Class_2, Class_3, Class_4, Class_5, Class_6, Class_7, Class_8}\n\n    struct Collectible {\n        uint256 tokenId;\n        string uri;\n        bool available;\n    }\n\n    uint8 private constant TOTAL_NUMBERS = 6;\n    uint8 private constant POWERBALL_POSITION = 5;\n    uint8[2][TOTAL_NUMBERS] private RANGES = [[1, 69], [1, 69], [1, 69], [1, 69], [1, 69], [1, 26]];\n\n    address private __erc721Address;\n    bool private __roundActive;\n    uint256 private __startRoundBlockNumber;\n    address private __operator;\n    uint16 private __k;\n    uint256 private __ticketPrice;\n    uint8 private __duration;\n\n    uint8[TOTAL_NUMBERS] private __winningNumbers;\n    address[] private __players;\n    Collectible[] private __collectibles;\n    uint8[TOTAL_NUMBERS][] private __tickets;\n\n    constructor(address _erc721Address, uint8 _duration, uint16 _k, uint256 _ticketPrice) {\n        __operator = msg.sender;\n        __erc721Address = _erc721Address;\n        __k = _k + 1 % 256;\n        __roundActive = true;\n        __ticketPrice = _ticketPrice;\n        __duration = _duration;\n    }\n\n    modifier __isOperator() {\n        require(__operator == msg.sender, \"Operation unauthorized\");\n        _;\n    }\n\n    modifier __isRoundActive() {\n        require(isRoundActive(), \"Round is not active\");\n        _;\n    }\n\n    function isRoundActive() public view returns(bool) {\n        return __roundActive && block.number - __startRoundBlockNumber < __duration;\n    }\n\n    function startNewRound() external {\n        require(!__roundActive, \"Round is not finished\");\n        __roundActive = true;\n        __startRoundBlockNumber = block.number;\n    }\n\n    function buy(uint8[TOTAL_NUMBERS] memory numbers) external payable __isRoundActive() {\n        require(msg.value >= __ticketPrice, \"Not enough ether\");\n        __players.push(msg.sender);\n        __tickets.push(numbers);\n        payable(msg.sender).transfer(msg.value - __ticketPrice);\n    }\n\n    function drawNumbers() external __isOperator() {\n        uint256 number = __random();\n        for(uint8 i = 0; i < TOTAL_NUMBERS; i++) {\n            __winningNumbers[i] = uint8(number) % RANGES[i][1] + RANGES[i][0];\n            number /= 100;\n        }\n    }\n\n    function givePrizes() external __isOperator() {\n        for(uint8 i = 0; i < __players.length; i++) {\n            if(__matchClass(__tickets[i]) != Classes.None) {\n                Collectible storage _collectibles = __collectibles[i];\n                require(_collectibles.tokenId > 0, \"Not enough prizes\");\n                if(_collectibles.available){\n                    ERC721(__erc721Address).safeTransferFrom(address(this), __players[i], _collectibles.tokenId);\n                    _collectibles.available = false;\n                } else {\n                    ERC721(__erc721Address).mint(__players[i], _collectibles.uri);\n                }\n            }\n        }\n        payable(__operator).transfer(address(this).balance);\n        this.startNewRound();\n    }\n\n    function mint(string memory _uri) external __isOperator() {\n        uint256 _tokenId = ERC721(__erc721Address).mint(address(this), _uri);\n        if(__collectibles.length + 1 > uint8(Classes.Class_8))\n            __collectibles.pop();\n        __collectibles.push(Collectible(_tokenId, _uri, true));\n    }\n\n    function closeLottery() external __isOperator() {\n        require(__roundActive, \"Lottery already closed\");\n        __roundActive = false;\n    }\n\n    function __random() private view returns(uint256) {\n        return uint256(keccak256(abi.encode(blockhash(block.number - __k))));\n    }\n\n    function __matchClass(uint8[TOTAL_NUMBERS] memory _ticket) private view returns(Classes class) {\n        uint8 stdMatches = 0;\n        for(uint8 i = 0; i < TOTAL_NUMBERS - 1; i++)\n            if(_ticket[i] == __winningNumbers[i])\n                stdMatches += 1;\n        bool matchPowerball = _ticket[POWERBALL_POSITION] == __winningNumbers[POWERBALL_POSITION];\n        if(stdMatches == 5 && matchPowerball)\n            return Classes.Class_1;\n        if(stdMatches == 5)\n            return Classes.Class_2;\n        if(stdMatches == 4 && matchPowerball)\n            return Classes.Class_3;\n        if(stdMatches == 4 || stdMatches == 3 && matchPowerball)\n            return Classes.Class_4;\n        if(stdMatches == 3 || stdMatches == 2 && matchPowerball)\n            return Classes.Class_5;\n        if(stdMatches == 2 || stdMatches == 1 && matchPowerball)\n            return Classes.Class_6;\n        if(stdMatches == 1)\n            return Classes.Class_7;\n        if(matchPowerball)\n            return Classes.Class_8;\n        return Classes.None;\n    }\n\n}",
  "sourcePath": "/Users/geremiapompei/Library/CloudStorage/OneDrive-UniversityofPisa/UNIPI/1 anno 2021_2022/2 semestre/Peer2Peer and Blockchain/exam/P2P/finalterm/TRY/contracts/TRY.sol",
  "compiler": {
    "name": "solc",
    "version": "0.8.12+commit.f00d7308.Emscripten.clang"
  },
  "schemaVersion": "3.4.7",
  "updatedAt": "2022-05-26T22:48:24.665Z",
  "networkType": "ethereum",
  "devdoc": {
    "kind": "dev",
    "methods": {},
    "version": 1
  },
  "userdoc": {
    "kind": "user",
    "methods": {},
    "version": 1
  }
}