{
  "contractName": "TRY",
  "abi": [
    {
      "inputs": [
        {
          "internalType": "address",
          "name": "_erc721Address",
          "type": "address"
        }
      ],
      "stateMutability": "nonpayable",
      "type": "constructor"
    },
    {
      "anonymous": false,
      "inputs": [
        {
          "indexed": false,
          "internalType": "address",
          "name": "_owner",
          "type": "address"
        },
        {
          "indexed": false,
          "internalType": "address",
          "name": "_addressLottery",
          "type": "address"
        }
      ],
      "name": "LotteryCreated",
      "type": "event"
    },
    {
      "inputs": [],
      "name": "erc721Address",
      "outputs": [
        {
          "internalType": "address",
          "name": "",
          "type": "address"
        }
      ],
      "stateMutability": "view",
      "type": "function",
      "constant": true
    },
    {
      "inputs": [
        {
          "internalType": "uint8",
          "name": "_duration",
          "type": "uint8"
        },
        {
          "internalType": "uint16",
          "name": "_k",
          "type": "uint16"
        },
        {
          "internalType": "uint256",
          "name": "_ticketPrice",
          "type": "uint256"
        }
      ],
      "name": "createLottery",
      "outputs": [
        {
          "internalType": "address",
          "name": "",
          "type": "address"
        }
      ],
      "stateMutability": "nonpayable",
      "type": "function"
    },
    {
      "inputs": [
        {
          "internalType": "uint8",
          "name": "_duration",
          "type": "uint8"
        },
        {
          "internalType": "uint16",
          "name": "_k",
          "type": "uint16"
        },
        {
          "internalType": "uint256",
          "name": "_ticketPrice",
          "type": "uint256"
        }
      ],
      "name": "test1",
      "outputs": [
        {
          "internalType": "address",
          "name": "",
          "type": "address"
        }
      ],
      "stateMutability": "nonpayable",
      "type": "function"
    },
    {
      "inputs": [],
      "name": "test2",
      "outputs": [],
      "stateMutability": "nonpayable",
      "type": "function"
    },
    {
      "inputs": [],
      "name": "test3",
      "outputs": [],
      "stateMutability": "nonpayable",
      "type": "function"
    }
  ],
  "bytecode": "0x608060405234801561001057600080fd5b50604051612a13380380612a13833981810160405281019061003291906100db565b806000806101000a81548173ffffffffffffffffffffffffffffffffffffffff021916908373ffffffffffffffffffffffffffffffffffffffff16021790555050610108565b600080fd5b600073ffffffffffffffffffffffffffffffffffffffff82169050919050565b60006100a88261007d565b9050919050565b6100b88161009d565b81146100c357600080fd5b50565b6000815190506100d5816100af565b92915050565b6000602082840312156100f1576100f0610078565b5b60006100ff848285016100c6565b91505092915050565b6128fc806101176000396000f3fe60806040523480156200001157600080fd5b50600436106200005e5760003560e01c80630a8e8e0114620000635780632352a864146200006f57806323a7b949146200009157806366e41cb714620000c7578063c8ff6f7414620000d3575b600080fd5b6200006d62000109565b005b620000796200016d565b604051620000889190620002dd565b60405180910390f35b620000af6004803603810190620000a99190620003b7565b62000191565b604051620000be9190620002dd565b60405180910390f35b620000d162000241565b005b620000f16004803603810190620000eb9190620003b7565b6200027e565b604051620001009190620002dd565b60405180910390f35b60008054906101000a900473ffffffffffffffffffffffffffffffffffffffff1660018060016040516200013d906200028a565b6200014c9493929190620004d2565b604051809103906000f08015801562000169573d6000803e3d6000fd5b5050565b60008054906101000a900473ffffffffffffffffffffffffffffffffffffffff1681565b60008060008054906101000a900473ffffffffffffffffffffffffffffffffffffffff16858585604051620001c6906200028a565b620001d5949392919062000552565b604051809103906000f080158015620001f2573d6000803e3d6000fd5b50905060008190507fdf7be3921ea9458ecd0a6ec88b3302d30dc01060774cae1a5b3fa2a2ffe1a46b33826040516200022d9291906200059f565b60405180910390a180925050509392505050565b7fdf7be3921ea9458ecd0a6ec88b3302d30dc01060774cae1a5b3fa2a2ffe1a46b3333604051620002749291906200059f565b60405180910390a1565b60003390509392505050565b6122fa80620005cd83390190565b600073ffffffffffffffffffffffffffffffffffffffff82169050919050565b6000620002c58262000298565b9050919050565b620002d781620002b8565b82525050565b6000602082019050620002f46000830184620002cc565b92915050565b600080fd5b600060ff82169050919050565b6200031781620002ff565b81146200032357600080fd5b50565b60008135905062000337816200030c565b92915050565b600061ffff82169050919050565b62000356816200033d565b81146200036257600080fd5b50565b60008135905062000376816200034b565b92915050565b6000819050919050565b62000391816200037c565b81146200039d57600080fd5b50565b600081359050620003b18162000386565b92915050565b600080600060608486031215620003d357620003d2620002fa565b5b6000620003e38682870162000326565b9350506020620003f68682870162000365565b92505060406200040986828701620003a0565b9150509250925092565b6000819050919050565b6000819050919050565b600062000448620004426200043c8462000413565b6200041d565b620002ff565b9050919050565b6200045a8162000427565b82525050565b6000620004816200047b620004758462000413565b6200041d565b6200033d565b9050919050565b620004938162000460565b82525050565b6000620004ba620004b4620004ae8462000413565b6200041d565b6200037c565b9050919050565b620004cc8162000499565b82525050565b6000608082019050620004e96000830187620002cc565b620004f860208301866200044f565b62000507604083018562000488565b620005166060830184620004c1565b95945050505050565b6200052a81620002ff565b82525050565b6200053b816200033d565b82525050565b6200054c816200037c565b82525050565b6000608082019050620005696000830187620002cc565b6200057860208301866200051f565b62000587604083018562000530565b62000596606083018462000541565b95945050505050565b6000604082019050620005b66000830185620002cc565b620005c56020830184620002cc565b939250505056fe60806040526040518060c001604052806040518060400160405280600160ff168152602001604560ff1681525081526020016040518060400160405280600160ff168152602001604560ff1681525081526020016040518060400160405280600160ff168152602001604560ff1681525081526020016040518060400160405280600160ff168152602001604560ff1681525081526020016040518060400160405280600160ff168152602001604560ff1681525081526020016040518060400160405280600160ff168152602001601a60ff168152508152506000906006620000eb92919062000213565b50348015620000f957600080fd5b50604051620022fa380380620022fa83398181016040528101906200011f919062000479565b33600860006101000a81548173ffffffffffffffffffffffffffffffffffffffff021916908373ffffffffffffffffffffffffffffffffffffffff16021790555083600660006101000a81548173ffffffffffffffffffffffffffffffffffffffff021916908373ffffffffffffffffffffffffffffffffffffffff160217905550600182620001b091906200051a565b600860146101000a81548161ffff021916908361ffff1602179055506001600660146101000a81548160ff0219169083151502179055508060098190555082600a60006101000a81548160ff021916908360ff1602179055505050505062000559565b826006810192821562000255579160200282015b8281111562000254578251829060026200024392919062000268565b509160200191906001019062000227565b5b50905062000264919062000309565b5090565b826002601f01602090048101928215620002f65791602002820160005b83821115620002c557835183826101000a81548160ff021916908360ff160217905550926020019260010160208160000104928301926001030262000285565b8015620002f45782816101000a81549060ff0219169055600101602081600001049283019260010302620002c5565b505b50905062000305919062000331565b5090565b5b808211156200032d576000818162000323919062000350565b506001016200030a565b5090565b5b808211156200034c57600081600090555060010162000332565b5090565b5060009055565b600080fd5b600073ffffffffffffffffffffffffffffffffffffffff82169050919050565b600062000389826200035c565b9050919050565b6200039b816200037c565b8114620003a757600080fd5b50565b600081519050620003bb8162000390565b92915050565b600060ff82169050919050565b620003d981620003c1565b8114620003e557600080fd5b50565b600081519050620003f981620003ce565b92915050565b600061ffff82169050919050565b6200041881620003ff565b81146200042457600080fd5b50565b60008151905062000438816200040d565b92915050565b6000819050919050565b62000453816200043e565b81146200045f57600080fd5b50565b600081519050620004738162000448565b92915050565b6000806000806080858703121562000496576200049562000357565b5b6000620004a687828801620003aa565b9450506020620004b987828801620003e8565b9350506040620004cc8782880162000427565b9250506060620004df8782880162000462565b91505092959194509250565b7f4e487b7100000000000000000000000000000000000000000000000000000000600052601160045260246000fd5b60006200052782620003ff565b91506200053483620003ff565b92508261ffff038211156200054e576200054d620004eb565b5b828201905092915050565b611d9180620005696000396000f3fe6080604052600436106100705760003560e01c80636fd098161161004e5780636fd09816146100ce578063bd85948c146100e5578063d85d3d27146100fc578063f828d14b1461012557610070565b806306d5ee541461007557806345945a451461008c578063676c902f146100b7575b600080fd5b34801561008157600080fd5b5061008a610141565b005b34801561009857600080fd5b506100a1610632565b6040516100ae9190611291565b60405180910390f35b3480156100c357600080fd5b506100cc610673565b005b3480156100da57600080fd5b506100e3610815565b005b3480156100f157600080fd5b506100fa6109fc565b005b34801561010857600080fd5b50610123600480360381019061011e9190611406565b610a84565b005b61013f600480360381019061013a919061153e565b610cd4565b005b3373ffffffffffffffffffffffffffffffffffffffff16600860009054906101000a900473ffffffffffffffffffffffffffffffffffffffff1673ffffffffffffffffffffffffffffffffffffffff16146101d1576040517f08c379a00000000000000000000000000000000000000000000000000000000081526004016101c8906115c8565b60405180910390fd5b60005b600c805490508160ff1610156105ab576000610271600d8360ff1681548110610200576101ff6115e8565b5b90600052602060002001600680602002604051908101604052809291908260068015610267576020028201916000905b82829054906101000a900460ff1660ff16815260200190600101906020826000010492830192600103820291508084116102305790505b5050505050610e9a565b90506000600c8360ff168154811061028c5761028b6115e8565b5b9060005260206000200160009054906101000a900473ffffffffffffffffffffffffffffffffffffffff169050600060088111156102cd576102cc611617565b5b8260088111156102e0576102df611617565b5b14610525576000600e8460ff16815481106102fe576102fd6115e8565b5b906000526020600020906003020190506000816000015411610355576040517f08c379a000000000000000000000000000000000000000000000000000000000815260040161034c90611692565b60405180910390fd5b8060020160009054906101000a900460ff161561042357600660009054906101000a900473ffffffffffffffffffffffffffffffffffffffff1673ffffffffffffffffffffffffffffffffffffffff166342842e0e308484600001546040518463ffffffff1660e01b81526004016103cf9392919061170c565b600060405180830381600087803b1580156103e957600080fd5b505af11580156103fd573d6000803e3d6000fd5b5050505060008160020160006101000a81548160ff0219169083151502179055506104c8565b600660009054906101000a900473ffffffffffffffffffffffffffffffffffffffff1673ffffffffffffffffffffffffffffffffffffffff1663d0def52183836001016040518363ffffffff1660e01b8152600401610483929190611839565b6020604051808303816000875af11580156104a2573d6000803e3d6000fd5b505050506040513d601f19601f820116820180604052508101906104c69190611895565b505b80600001548360088111156104e0576104df611617565b5b8373ffffffffffffffffffffffffffffffffffffffff167f0bac54947f487010a2bca7341e9f36f91441f0bb9e399f4a83c29e637b8c30da60405160405180910390a4505b600c8360ff168154811061053c5761053b6115e8565b5b9060005260206000200160006101000a81549073ffffffffffffffffffffffffffffffffffffffff0219169055600d8360ff16815481106105805761057f6115e8565b5b90600052602060002001600061059691906110f2565b505080806105a3906118f1565b9150506101d4565b50600860009054906101000a900473ffffffffffffffffffffffffffffffffffffffff1673ffffffffffffffffffffffffffffffffffffffff166108fc479081150290604051600060405180830381858888f19350505050158015610614573d6000803e3d6000fd5b506000600660146101000a81548160ff021916908315150217905550565b6000600660149054906101000a900460ff16801561066e5750600a60009054906101000a900460ff1660ff166007544361066c919061191b565b105b905090565b3373ffffffffffffffffffffffffffffffffffffffff16600860009054906101000a900473ffffffffffffffffffffffffffffffffffffffff1673ffffffffffffffffffffffffffffffffffffffff1614610703576040517f08c379a00000000000000000000000000000000000000000000000000000000081526004016106fa906115c8565b60405180910390fd5b600061070d6110a1565b905060005b600660ff168160ff1610156108115760008160ff1660068110610738576107376115e8565b5b0160006002811061074c5761074b6115e8565b5b602091828204019190069054906101000a900460ff1660008260ff1660068110610779576107786115e8565b5b0160016002811061078d5761078c6115e8565b5b602091828204019190069054906101000a900460ff16836107ae919061197e565b6107b891906119af565b600b8260ff16600681106107cf576107ce6115e8565b5b602091828204019190066101000a81548160ff021916908360ff1602179055506064826107fc91906119e6565b91508080610809906118f1565b915050610712565b5050565b3373ffffffffffffffffffffffffffffffffffffffff16600860009054906101000a900473ffffffffffffffffffffffffffffffffffffffff1673ffffffffffffffffffffffffffffffffffffffff16146108a5576040517f08c379a000000000000000000000000000000000000000000000000000000000815260040161089c906115c8565b60405180910390fd5b600660149054906101000a900460ff166108f4576040517f08c379a00000000000000000000000000000000000000000000000000000000081526004016108eb90611a63565b60405180910390fd5b6108fc610632565b156109b35760005b600c805490508160ff1610156109b157600c8160ff168154811061092b5761092a6115e8565b5b9060005260206000200160009054906101000a900473ffffffffffffffffffffffffffffffffffffffff1673ffffffffffffffffffffffffffffffffffffffff166108fc6009549081150290604051600060405180830381858888f1935050505015801561099d573d6000803e3d6000fd5b5080806109a9906118f1565b915050610904565b505b6000600660146101000a81548160ff0219169083151502179055507f041434c50395b9a06c4309166ef0c0e2da56c3e21804dc8a8dc3dbc0dae5020360405160405180910390a1565b600660149054906101000a900460ff1615610a4c576040517f08c379a0000000000000000000000000000000000000000000000000000000008152600401610a4390611acf565b60405180910390fd5b436007819055506007547fa79d7edf4dcc0bfe14d93ffd4f335a9f42fb01a818205f9b3526fe14c2217be760405160405180910390a2565b3373ffffffffffffffffffffffffffffffffffffffff16600860009054906101000a900473ffffffffffffffffffffffffffffffffffffffff1673ffffffffffffffffffffffffffffffffffffffff1614610b14576040517f08c379a0000000000000000000000000000000000000000000000000000000008152600401610b0b906115c8565b60405180910390fd5b6000600660009054906101000a900473ffffffffffffffffffffffffffffffffffffffff1673ffffffffffffffffffffffffffffffffffffffff1663d0def52130846040518363ffffffff1660e01b8152600401610b73929190611b66565b6020604051808303816000875af1158015610b92573d6000803e3d6000fd5b505050506040513d601f19601f82011682018060405250810190610bb69190611895565b9050600880811115610bcb57610bca611617565b5b60ff166001600e80549050610be09190611b96565b1115610c3e57600e805480610bf857610bf7611bec565b5b6001900381819060005260206000209060030201600080820160009055600182016000610c2591906110f9565b6002820160006101000a81549060ff0219169055505090555b600e6040518060600160405280838152602001848152602001600115158152509080600181540180825580915050600190039060005260206000209060030201600090919091909150600082015181600001556020820151816001019080519060200190610cad929190611139565b5060408201518160020160006101000a81548160ff02191690831515021790555050505050565b610cdc610632565b610d1b576040517f08c379a0000000000000000000000000000000000000000000000000000000008152600401610d1290611c67565b60405180910390fd5b600954341015610d60576040517f08c379a0000000000000000000000000000000000000000000000000000000008152600401610d5790611cd3565b60405180910390fd5b6000339050600c819080600181540180825580915050600190039060005260206000200160009091909190916101000a81548173ffffffffffffffffffffffffffffffffffffffff021916908373ffffffffffffffffffffffffffffffffffffffff160217905550600d8290806001815401808255809150506001900390600052602060002001600090919091909150906006610dfe9291906111bf565b508073ffffffffffffffffffffffffffffffffffffffff166108fc60095434610e27919061191b565b9081150290604051600060405180830381858888f19350505050158015610e52573d6000803e3d6000fd5b508073ffffffffffffffffffffffffffffffffffffffff167f5c6c890314aa0d49059c35b35ff86ffb43efe8f543dc3691558f39dfa4a8201160405160405180910390a25050565b6000806000905060005b60016006610eb29190611cf3565b60ff168160ff161015610f3657600b8160ff1660068110610ed657610ed56115e8565b5b602091828204019190069054906101000a900460ff1660ff16848260ff1660068110610f0557610f046115e8565b5b602002015160ff161415610f2357600182610f2091906119af565b91505b8080610f2e906118f1565b915050610ea4565b506000600b600560ff1660068110610f5157610f506115e8565b5b602091828204019190069054906101000a900460ff1660ff1684600560ff1660068110610f8157610f806115e8565b5b602002015160ff1614905060058260ff16148015610f9c5750805b15610fac5760019250505061109c565b60058260ff161415610fc35760029250505061109c565b60048260ff16148015610fd35750805b15610fe35760039250505061109c565b60048260ff161480611001575060038260ff161480156110005750805b5b156110115760049250505061109c565b60038260ff16148061102f575060028260ff1614801561102e5750805b5b1561103f5760059250505061109c565b60028260ff16148061105d575060018260ff1614801561105c5750805b5b1561106d5760069250505061109c565b60018260ff1614156110845760079250505061109c565b80156110955760089250505061109c565b6000925050505b919050565b6000600860149054906101000a900461ffff1661ffff16436110c3919061191b565b406040516020016110d49190611d40565b6040516020818303038152906040528051906020012060001c905090565b5060009055565b50805461110590611772565b6000825580601f106111175750611136565b601f0160209004906000526020600020908101906111359190611259565b5b50565b82805461114590611772565b90600052602060002090601f01602090048101928261116757600085556111ae565b82601f1061118057805160ff19168380011785556111ae565b828001600101855582156111ae579182015b828111156111ad578251825591602001919060010190611192565b5b5090506111bb9190611259565b5090565b826006601f016020900481019282156112485791602002820160005b8382111561121957835183826101000a81548160ff021916908360ff16021790555092602001926001016020816000010492830192600103026111db565b80156112465782816101000a81549060ff0219169055600101602081600001049283019260010302611219565b505b5090506112559190611259565b5090565b5b8082111561127257600081600090555060010161125a565b5090565b60008115159050919050565b61128b81611276565b82525050565b60006020820190506112a66000830184611282565b92915050565b6000604051905090565b600080fd5b600080fd5b600080fd5b600080fd5b6000601f19601f8301169050919050565b7f4e487b7100000000000000000000000000000000000000000000000000000000600052604160045260246000fd5b611313826112ca565b810181811067ffffffffffffffff82111715611332576113316112db565b5b80604052505050565b60006113456112ac565b9050611351828261130a565b919050565b600067ffffffffffffffff821115611371576113706112db565b5b61137a826112ca565b9050602081019050919050565b82818337600083830152505050565b60006113a96113a484611356565b61133b565b9050828152602081018484840111156113c5576113c46112c5565b5b6113d0848285611387565b509392505050565b600082601f8301126113ed576113ec6112c0565b5b81356113fd848260208601611396565b91505092915050565b60006020828403121561141c5761141b6112b6565b5b600082013567ffffffffffffffff81111561143a576114396112bb565b5b611446848285016113d8565b91505092915050565b600067ffffffffffffffff82111561146a576114696112db565b5b602082029050919050565b600080fd5b600060ff82169050919050565b6114908161147a565b811461149b57600080fd5b50565b6000813590506114ad81611487565b92915050565b60006114c66114c18461144f565b61133b565b905080602084028301858111156114e0576114df611475565b5b835b8181101561150957806114f5888261149e565b8452602084019350506020810190506114e2565b5050509392505050565b600082601f830112611528576115276112c0565b5b60066115358482856114b3565b91505092915050565b600060c08284031215611554576115536112b6565b5b600061156284828501611513565b91505092915050565b600082825260208201905092915050565b7f4f7065726174696f6e20756e617574686f72697a656400000000000000000000600082015250565b60006115b260168361156b565b91506115bd8261157c565b602082019050919050565b600060208201905081810360008301526115e1816115a5565b9050919050565b7f4e487b7100000000000000000000000000000000000000000000000000000000600052603260045260246000fd5b7f4e487b7100000000000000000000000000000000000000000000000000000000600052602160045260246000fd5b7f4e6f7420656e6f756768207072697a6573000000000000000000000000000000600082015250565b600061167c60118361156b565b915061168782611646565b602082019050919050565b600060208201905081810360008301526116ab8161166f565b9050919050565b600073ffffffffffffffffffffffffffffffffffffffff82169050919050565b60006116dd826116b2565b9050919050565b6116ed816116d2565b82525050565b6000819050919050565b611706816116f3565b82525050565b600060608201905061172160008301866116e4565b61172e60208301856116e4565b61173b60408301846116fd565b949350505050565b7f4e487b7100000000000000000000000000000000000000000000000000000000600052602260045260246000fd5b6000600282049050600182168061178a57607f821691505b6020821081141561179e5761179d611743565b5b50919050565b60008190508160005260206000209050919050565b600081546117c681611772565b6117d0818661156b565b945060018216600081146117eb57600181146117fd57611830565b60ff1983168652602086019350611830565b611806856117a4565b60005b8381101561182857815481890152600182019150602081019050611809565b808801955050505b50505092915050565b600060408201905061184e60008301856116e4565b818103602083015261186081846117b9565b90509392505050565b611872816116f3565b811461187d57600080fd5b50565b60008151905061188f81611869565b92915050565b6000602082840312156118ab576118aa6112b6565b5b60006118b984828501611880565b91505092915050565b7f4e487b7100000000000000000000000000000000000000000000000000000000600052601160045260246000fd5b60006118fc8261147a565b915060ff8214156119105761190f6118c2565b5b600182019050919050565b6000611926826116f3565b9150611931836116f3565b925082821015611944576119436118c2565b5b828203905092915050565b7f4e487b7100000000000000000000000000000000000000000000000000000000600052601260045260246000fd5b60006119898261147a565b91506119948361147a565b9250826119a4576119a361194f565b5b828206905092915050565b60006119ba8261147a565b91506119c58361147a565b92508260ff038211156119db576119da6118c2565b5b828201905092915050565b60006119f1826116f3565b91506119fc836116f3565b925082611a0c57611a0b61194f565b5b828204905092915050565b7f4c6f747465727920616c726561647920636c6f73656400000000000000000000600082015250565b6000611a4d60168361156b565b9150611a5882611a17565b602082019050919050565b60006020820190508181036000830152611a7c81611a40565b9050919050565b7f526f756e64206973206e6f742066696e69736865640000000000000000000000600082015250565b6000611ab960158361156b565b9150611ac482611a83565b602082019050919050565b60006020820190508181036000830152611ae881611aac565b9050919050565b600081519050919050565b60005b83811015611b18578082015181840152602081019050611afd565b83811115611b27576000848401525b50505050565b6000611b3882611aef565b611b42818561156b565b9350611b52818560208601611afa565b611b5b816112ca565b840191505092915050565b6000604082019050611b7b60008301856116e4565b8181036020830152611b8d8184611b2d565b90509392505050565b6000611ba1826116f3565b9150611bac836116f3565b9250827fffffffffffffffffffffffffffffffffffffffffffffffffffffffffffffffff03821115611be157611be06118c2565b5b828201905092915050565b7f4e487b7100000000000000000000000000000000000000000000000000000000600052603160045260246000fd5b7f526f756e64206973206e6f742061637469766500000000000000000000000000600082015250565b6000611c5160138361156b565b9150611c5c82611c1b565b602082019050919050565b60006020820190508181036000830152611c8081611c44565b9050919050565b7f4e6f7420656e6f75676820657468657200000000000000000000000000000000600082015250565b6000611cbd60108361156b565b9150611cc882611c87565b602082019050919050565b60006020820190508181036000830152611cec81611cb0565b9050919050565b6000611cfe8261147a565b9150611d098361147a565b925082821015611d1c57611d1b6118c2565b5b828203905092915050565b6000819050919050565b611d3a81611d27565b82525050565b6000602082019050611d556000830184611d31565b9291505056fea264697066735822122033faf3a58db2fa9c84288ea5e53a1fbe5403c5da8e8a5083e4650a5b024ad92564736f6c634300080c0033a26469706673582212205c9d4bfd00fbfc99403cebdd0d9a1a2718036b889b6fa3df402396c9ef8e761c64736f6c634300080c0033",
  "immutableReferences": {},
  "source": "// SPDX-License-Identifier: MIT\npragma solidity ^0.8.0;\n\nimport './Lottery.sol';\n\ncontract TRY {\n\n    address public erc721Address;\n\n    constructor(address _erc721Address) {\n        erc721Address = _erc721Address;\n    }\n\n    event LotteryCreated(address _owner, address _addressLottery);\n\n    function createLottery(uint8 _duration, uint16 _k, uint256 _ticketPrice) external returns(address) {\n        Lottery lottery = new Lottery(erc721Address, _duration, _k, _ticketPrice);\n        address _addressLottery = address(lottery);\n        emit LotteryCreated(msg.sender, _addressLottery);\n        return _addressLottery;\n    }\n\n    function test1(uint8 _duration, uint16 _k, uint256 _ticketPrice) external returns(address) {\n        return msg.sender;\n    }\n\n    function test2() external {\n        emit LotteryCreated(msg.sender, msg.sender);\n    }\n\n    function test3() external {\n        new Lottery(erc721Address, 1, 1, 1);\n    }\n}",
  "sourcePath": "/Users/geremiapompei/Library/CloudStorage/OneDrive-UniversityofPisa/UNIPI/1 anno 2021_2022/2 semestre/Peer2Peer and Blockchain/exam/P2P/finalterm/smart_contract/contracts/TRY.sol",
  "compiler": {
    "name": "solc",
    "version": "0.8.12+commit.f00d7308.Emscripten.clang"
  },
  "schemaVersion": "3.4.7",
  "updatedAt": "2022-05-27T18:31:50.340Z",
  "networkType": "ethereum",
  "devdoc": {
    "kind": "dev",
    "methods": {},
    "version": 1
  },
  "userdoc": {
    "kind": "user",
    "methods": {},
    "version": 1
  }
}